:100000000C946A060C9492060C9492060C94920638
:100010000C9492060C9492060C9492060C94920600
:100020000C9492060C9492060C941B150C948D154E
:100030000C9492060C9492060C9492060C949206E0
:100040000C9492060C9492060C9492060C949206D0
:100050000C9492060C9492060C9492060C948618BA
:100060000C9492060C9492060C9492060C949206B0
:100070000C9492060C9492060C9492060C949206A0
:100080000C9492060C9492060C9492060C94920690
:100090000C9492060C9492060C9492060C94920680
:1000A0000C9492060C9492060C9492061227152733
:1000B00018271B2721271E27242727272D272A27F4
:1000C00030273327362739273C27AF28B328B728CE
:1000D000BB28BF28C328FB28C728CB28CD28D02879
:1000E000D228D428D628D828DA28DD28DF28E12805
:1000F000E328E628E828EA28EC28EF28F128F32866
:10010000F528FB28112A2F2A2B2A372A332AA42A3A
:10011000A42A3B2A3F2A882A9F2A112A2F2A2B2ADF
:10012000372A332A052105213B2A3F2A882A9F2A7C
:10013000E70EEA0EED0EF00EF30EF60EF90EFC0EC3
:10014000FF0E020F050F080F0B0F0E0F110F140FEC
:10015000170F1A0F1D0F200F230F260F290F2C0F1B
:100160002F0F320F350F380F3B0FF0F89C8E87831F
:10017000878E9CF8F00000FEFF0303030303070EC5
:10018000FCF80000FEFF0303030303070EFCF80066
:1001900000FFFF00000000000000FFFF0000FEFF66
:1001A0008383838383C7EE7C380000F8FC0E07034B
:1001B0000303070EFCF800003F7FE0C08080C0E032
:1001C0007F3FFFFF01010101010101FFFF0000FF6F
:1001D000FF0C0C0C0C1C3E77E3C100007FFFC0C07D
:1001E000C0C0C0E0703F1F00001F3F70E0C0C0C033
:1001F000E0703F1F00007FFFC1C1C1C1C1E3773E76
:100200001C00001F3F70E0C0C0C0E0703F1F000036
:1002100000000001FFFF01000000D5F08D14A1C80F
:1002200081CFD9F1AF2000486F6C64204220546F19
:100230002073617665005072657373204120546F9E
:1002400020626567696E0044657074683A200060DA
:1002500090A0C0C0A09060C0A0A0C0C0A0A0C0C01E
:10026000A090606090A0C03649AB2626AB493636D8
:10027000C92B16162BC936B6492B26262B49B69BF9
:1002800035CA1010CA359B1AF58B08088BF51ADA97
:10029000358A08088A35DA70EA668800000000F0BE
:1002A00069E6080000000070F86748000000007070
:1002B000EA6688100D030670E866881010081C7046
:1002C000E867882020C0E070EA668810080C067095
:1002D000E866881010181870E86788206040807001
:1002E000EA66880060600070EA6688303008007056
:1002F000EA668830000400000000008866EA7000AA
:1003000000000008E669F0000000004867F8700689
:10031000030D108866EA701C0810108866E870E00B
:10032000C020208867E870060C08108866EA7018FC
:100330001810108866E870804060208867E87000B8
:100340006060008866EA70000830308866EA7000F5
:100350000400308866EA701C3E7C7C3E1CFF81A154
:10036000958D9981FFFF819BBDBD9981FFFF81BD67
:100370009595BD81FFFF81BDBDBDBD81FF000040E2
:100380000000000000FEA6CBA6CBA6CBFEFFA593E7
:10039000A593A593FFFFFFFFFFFFFFFFFFFF81BDB9
:1003A000BDBDBD81FFFF83B9E5E5B983FFFF819D39
:1003B000A7A79D81FFFF81BDB5ADBD81FFAA55AA4D
:1003C00055AA55AA55FF81F98989F981FFFFA5C969
:1003D00093A5C993FFFF9DEB83EBA39DFFFF9DEBCF
:1003E00083EBA39DFFFF81FF81FF81FFFF000040A2
:1003F00000000000000000400000000000674170A5
:10040000706C65004170706C6500537461696E6C4E
:1004100065737300496E636F6E656C005374656538
:100420006C004368726F6D6520496E676F74004E93
:1004300069636B656C20496E676F7400476F6C640D
:1004400020496E676F740049726F6E20496E676F46
:1004500074004E69636B656C204F726500436F6179
:100460006C004368726F6D65204F726500476F6C5A
:1004700064204F72650049726F6E204F72650045AF
:100480006D707479005C007C002F004120007800C2
:100490000209290A212A1211291A192A2231292C82
:1004A00052494129335241293A693E4234784A54EB
:1004B00080536451885B5C51906235796A558173D1
:1004C0006551897B5D519182367A8A578293675252
:1004D0008A9B5F5292A337517BAC57615283B467BA
:1004E00059528BBC5F625293C2327CCB315284D45E
:1004F0003151628CDC31525B94E24129FF4352411D
:100500004654494E4700FF81BDBDBDBD81FFFF81FF
:10051000BDB5ADBD81FFFFA5C993A5C993FFFF81FF
:100520009DA7A79D81FFFF83B9E5E5B983FF10284B
:1005300044824122140810386CC661321C0810280D
:100540006CAA6B2A1C0810384CE6733A1C08C0AC25
:10055000AACA6C505060EEAAAAAAAAAAACC0304897
:10056000844221120A040079858586A55800007905
:1005700085B5CEA55800E09EFE0000FE9EE0007806
:100580006414146478007F4139050539417F007E89
:100590004C48484C7E005072657373204120666F52
:1005A00072206D656E750053746172733A20004B52
:1005B000696C6C733A200044657074683A20004797
:1005C000616D65204F766572004279204042657208
:1005D0006761736D7300415244554D494E45520059
:1005E000536F756E64004C6F616400537461727474
:1005F00000537461696E6C65737300436C61796D4F
:100600006F7265004B6174616E6100537465656C57
:100610002053776F72640049726F6E2053776F7248
:100620006400496E636F6E63656C20436865737424
:1006300000537461696E6C657373204368657374ED
:1006400000537465656C2043686573740049726F6C
:100650006E20436865737400496E636F6E656C202D
:1006600050616E747300537461696E6C65737320AE
:1006700050616E747300537465656C2050616E74C4
:10068000730049726F6E2050616E747300496E631F
:100690006F6E656C2048656C6D00537461696E6C9B
:1006A0006573732048656C6D00537465656C2048F4
:1006B000656C6D0049726F6E2048656C6D00496E07
:1006C000636F6E656C20426F6F7473005374616961
:1006D0006E6C65737320426F6F747300537465653D
:1006E0006C20426F6F74730049726F6E20426F6F9F
:1006F000747300476F6C64204170706C65004368D0
:10070000726F6D6500496E636F6E656C0053746542
:10071000656C004368726F6D6520496E676F740089
:10072000476F6C6420496E676F74004E69636B6538
:100730006C20496E676F740049726F6E20496E6756
:100740006F7400080B00020202010009040000019E
:100750000202000005240010010524010101042407
:100760000206052406000107058103100040090464
:100770000100020A00000007050202400000070510
:1007800083024000000403090441726475696E6FBE
:10079000204C4C430041726475696E6F204C656F4C
:1007A0006E6172646F00120100020000004041237C
:1007B000368000010102030112010002EF02014034
:1007C00041233680000101020301010204081020C8
:1007D000408000000000003E5B4F5B3E3E6B4F6B75
:1007E0003E1C3E7C3E1C183C7E3C181C577D571C12
:1007F0001C5E7F5E1C00183C1800FFE7C3E7FF008B
:1008000018241800FFE7DBE7FF30483A060E2629D8
:10081000792926407F050507407F05253F5A3CE79B
:100820003C5A7F3E1C1C08081C1C3E7F14227F2261
:10083000145F5F005F5F06097F017F006689956A2C
:10084000606060606094A2FFA29408047E040810B7
:10085000207E201008082A1C08081C2A08081E10E0
:100860001010100C1E0C1E0C30383E3830060E3E98
:100870000E06000000000000005F000000070007F7
:1008800000147F147F14242A7F2A12231308646221
:1008900036495620500008070300001C2241000082
:1008A00041221C002A1C7F1C2A08083E08080080E0
:1008B0007030000808080808000060600020100878
:1008C00004023E5149453E00427F40007249494979
:1008D000462141494D331814127F102745454539AB
:1008E0003C4A4949314121110907364949493646AF
:1008F0004949291E0000140000004034000000088F
:100900001422411414141414004122140802015931
:1009100009063E415D594E7C1211127C7F494949BE
:10092000363E414141227F4141413E7F4949494153
:100930007F090909013E414151737F0808087F0082
:10094000417F41002040413F017F081422417F4008
:100950004040407F021C027F7F0408107F3E4141DF
:10096000413E7F090909063E4151215E7F0919294F
:1009700046264949493203017F01033F4040403F39
:100980001F2040201F3F4038403F6314081463037A
:10099000047804036159494D43007F4141410204F9
:1009A000081020004141417F040201020440404000
:1009B0004040000307080020545478407F284444F6
:1009C000383844444428384444287F385454541810
:1009D00000087E090218A4A49C787F08040478000B
:1009E000447D40002040403D007F102844000041ED
:1009F0007F40007C047804787C0804047838444400
:100A00004438FC1824241818242418FC7C080404F6
:100A100008485454542404043F44243C4040207C5F
:100A20001C2040201C3C4030403C44281028444CB2
:100A30009090907C4464544C44000836410000007F
:100A4000770000004136080002010204023C262320
:100A5000263C1EA1A161123A4040207A38545455D8
:100A600059215555794121545478412155547840A4
:100A700020545579400C1E5272123955555559392A
:100A80005454545939555454580000457C4100027F
:100A9000457D420001457C40F0292429F0F02825BD
:100AA00028F07C545545002054547C547C0A097F1E
:100AB0004932494949323248484832324A48483036
:100AC0003A4141217A3A42402078009DA0A07D39E8
:100AD000444444393D4040403D3C24FF2424487E6A
:100AE0004943662B2FFC2F2BFF0929F620C0887E57
:100AF000090320545479410000447D413048484A5C
:100B000032384040227A007A0A0A727D0D19317D0E
:100B10002629292F28262929292630484D402038E2
:100B20000808080808080808382F10C8ACBA2F10A1
:100B30002834FA00007B000008142A142222142A08
:100B400014089500220095AA005500AAAA55AA5596
:100B5000AA000000FF00101010FF00141414FF0082
:100B60001010FF00FF1010F010F0141414FC00140B
:100B700014F700FF0000FF00FF1414F404FC141429
:100B800017101F10101F101F1414141F0010101026
:100B9000F0000000001F101010101F10101010F0B7
:100BA00010000000FF101010101010101010FF1097
:100BB000000000FF140000FF00FF00001F101700DE
:100BC00000FC04F414141710171414F404F40000B7
:100BD000FF00F714141414141414F700F714141469
:100BE000171410101F101F141414F4141010F01008
:100BF000F000001F101F0000001F14000000FC1474
:100C00000000F010F01010FF10FF141414FF141067
:100C100010101F00000000F010FFFFFFFFFFF0F0BA
:100C2000F0F0F0FFFFFF0000000000FFFF0F0F0FCC
:100C30000F0F38444438447C2A2A3E147E020206B0
:100C400006027E027E0263554941633844443C04F7
:100C5000407E201E2006027E020299A5E7A5991C6F
:100C60002A492A1C4C7201724C304A4D4D30304892
:100C7000784830BC625A463D3E494949007E0101F0
:100C8000017E2A2A2A2A2A44445F444440514A4485
:100C90004040444A51400000FF0103E080FF000053
:100CA00008086B6B083612362436060F090F06004B
:100CB0000018180000001010003040FF0101001F54
:100CC00001011E00191D1712003C3C3C3C000000B5
:100CD00000005E2C11241FBECFEFDAE0DEBFCDBFD7
:100CE00027E0AEE4B1E001C01D92A43BB207E1F7FA
:100CF00011E0A0E0B1E0EEE1FCE502C005900D924C
:100D0000AE34B107D9F716E0CAE6D6E004C02197A1
:100D1000FE010E94D12CC936D107C9F70E94A11C3F
:100D20000C940D2E0C940000E62FF0E0982F969571
:100D300023E0EE0FFF1F2A95E1F7E90FF11DED5CAF
:100D4000FD4F80FD07C080818F7090E1499FA00119
:100D5000112402C08081807F482B4083089521E0C8
:100D600030E0082E02C0220F331F0A94E2F770E031
:100D7000FB01EE0FFF1FEA59FE4F408151812423F2
:100D80003523232BA1F493E0660F771F9A95E1F7A3
:100D9000982F96956D5C7D4FFB01E90FF11D80FD4D
:100DA00003C08081829501C080818F70089580E0AA
:100DB00008958F30B8F48F5F21E030E0082E02C034
:100DC000220F331F0A94E2F7E62FF0E0EE0FFF1F29
:100DD000EA59FE4F4081518124233523232B11F4FE
:100DE0000C94AF0680E008958823B9F0815021E08B
:100DF00030E0082E02C0220F331F0A94E2F7E62FDC
:100E0000F0E0EE0FFF1FEA59FE4F4081518124238D
:100E10003523232B11F40C94AF0680E00895EF9254
:100E2000FF920F931F93CF93DF93C82F162F022F9C
:100E3000DFEFD40F8CE0E82EF12CDF3FA9F18EEF2D
:100E40008C0F8D3088F51D3178F5612F8C2F0E9425
:100E5000AF06882349F1402F612F8C2F0E94940602
:100E6000DD2311F10E94282DB7010E94BD2C809333
:100E70001A028B3040F0202F4D2F612F8FEF8C0FF7
:100E80000E940F0702C0883040F0202F4D2F61E0F4
:100E9000610F8C2F0E940F0705C0863018F01F5F6E
:100EA000D150CBCFCF5FFCCFDF91CF911F910F916E
:100EB000FF90EF9008959F92AF92BF92CF92DF92F2
:100EC000EF92FF920F931F93CF93DF93C82F162FAC
:100ED000DFEFD40F84E6E82EF12C9FE0C92ED12C51
:100EE00006E023E0922E3CE0A32EB12CDF3F09F474
:100EF0007AC08EEF8C0F8D3008F075C01D3108F070
:100F000072C0612F8C2F0E94AF06882309F46BC03A
:100F100040E0612F8C2F0E9494060E94282DB7017B
:100F20000E94BD2C482F80931A029091A601292F70
:100F300030E080912402582F569556955695B6016B
:100F4000651B71092617370764F5413550F1029F7B
:100F5000F001039FF00D1124E955FE4F5C2F550F52
:100F6000550F550F5083512F550F550F550F518366
:100F7000128293828695865F85834E3520F44735AD
:100F800020F483E003C081E001C082E0029FF00111
:100F9000039FF00D1124E955FE4F84839F5F9093CA
:100FA000A601DD2301F10E94282DB5010E94BD2C70
:100FB00080931A028B3038F04D2F612F8FEF8C0FFA
:100FC0000E945B0702C0883038F04D2F61E0610F4E
:100FD0008C2F0E945B0705C0863018F01F5FD15030
:100FE00085CFCF5FFCCFDF91CF911F910F91FF9005
:100FF000EF90DF90CF90BF90AF909F900895E82F33
:10100000F0E0EB5AFE4F80818770DB018C9380818A
:1010100086958695869590E00895EF92FF920F93BE
:101020001F93CF93DF931F92CDB7DEB77C01062FBE
:1010300010E0BE016F5F7F4F812F0E94FF078E156A
:101040009F0529F59981992311F1212F30E0F901AC
:10105000EB5AFE4F091740F4901B9770EE0CEE0C04
:10106000EE0C9E29908316C010821F3041F0E12FB4
:10107000F0E0EB5AFE4F818180831F5FF6CF109224
:101080006401602F691BC7010E940D0803C01F5F28
:10109000103179F60F90DF91CF911F910F91FF9052
:1010A000EF900895EF92FF920F931F93CF93DF93EA
:1010B0001F92CDB7DEB77C01062F10E0BE016F5F37
:1010C0007F4F812F0E94FF078E159F0511F0892BFE
:1010D00001F569816730E8F4402F50E0460F511D5B
:1010E000212F30E09E2D990F990F990FF901EB5A9E
:1010F000FE4F483051052CF4060F0770092B008372
:101100000BC0976090830750600FC7010E94520880
:1011100003C01F5F103191F60F90DF91CF911F91A7
:101120000F91FF90EF90089580912802881F8827E3
:10113000881F08954F925F926F927F928F929F9235
:10114000AF92BF92CF92DF92EF92FF920F931F93D5
:10115000CF93DF93C0901302D0901402E090150259
:10116000F0901602C701B60120E23EE440E050E0F4
:101170000E94AA2DFB01E358FC4F8081C80ED11CB0
:10118000E11CF11CC0921302D0921402E0921502ED
:10119000F0921602809119028F5F853008F084E08A
:1011A000809319020E94D71883FF42C08091650185
:1011B00080FF08C01092650183E080932A0210929C
:1011C000180298C281FF17C08FEF90E00E945C1A4E
:1011D0008E3B09F443C280E091E00E945C1A89379B
:1011E00009F43CC281E091E00E945C1A813009F46C
:1011F00035C2109218028091650182FF19C090914A
:1012000019029430A9F4109219022091270230910A
:10121000280283FF05C0877080936501306804C091
:101220008860809365013F773093280220932702DE
:10123000C8E0D0E0D093A107C093A00702E010E07F
:101240001093A3070093A2078BEE95E00E946D1AFE
:10125000D093A107C093A0078AE090E09093A307E2
:101260008093A20786EE95E00E946D1AD093A107A5
:10127000C093A00782E190E09093A3078093A20718
:1012800080EE95E00E946D1A8EE390E09093A107A6
:101290008093A0071093A3070093A20786ED95E023
:1012A0000E946D1A84E390E09093A1078093A007B9
:1012B0008BE090E09093A3078093A20789EC95E0E0
:1012C0000E946D1A0E94D71884FF13C080911902E2
:1012D000843079F48091650180931A02109219028A
:1012E000982F990F967009F491E08870892B80935C
:1012F00065010E94D71887FF15C09091190294309C
:1013000089F48091650180931A0210921902282FA6
:1013100030E035952795277009F0EAC18870892B50
:101320008093650120916501217044E064E070E0E4
:1013300081E090E00E94F0182091650126952170CF
:1013400044E06CE070E081E090E00E94F0182091B1
:10135000650122FB222720F944E064E170E081E08E
:1013600090E00E94F0188091650121E083FF86C023
:1013700048E150E06AE270E085E997E00E943319A5
:1013800021E044E150E06AE270E085E997E00E94E4
:10139000331921E046E150E06CE270E085E997E026
:1013A0000E94331921E046E150E068E270E085E9EF
:1013B00097E00E943319CBE2D0E0E3E48E2E912C2B
:1013C000F4E5AF2EB12CA7E56A2E712CB0E44B2EBC
:1013D000512C7401EC1AFD0A21E0A701BE0185E938
:1013E00097E00E94331985010C1B1D0B21E0A7011A
:1013F000B80185E997E00E9433197E0127E1E21ADE
:10140000F10821E0A701BE0185E997E00E943319A8
:1014100021E0A701B80185E997E00E9433197E0118
:1014200034E1E31AF1086301CC1ADD0A21E0A701D7
:10143000B60185E997E00E9433198E010350110926
:1014400021E0A701B80185E997E00E9433197201F4
:10145000EC1AFD0A21E0A701B60185E997E00E9498
:10146000331921E0A701B80185E997E00E943319FB
:10147000AC9709F44AC0CCE2D0E0ABCF45E064E1E0
:1014800070E08AE290E00E94E11A21E045E064E128
:1014900070E08BE290E00E94E11A21E043E065E118
:1014A00070E08CE290E00E94E11A21E045E064E106
:1014B00070E089E290E00E94E11A21E043E065E1FA
:1014C00070E088E290E00E94E11A21E043E065E1EB
:1014D00070E08CE290E00E94E11A21E045E064E1D6
:1014E00070E08BE290E00E94E11A21E043E065E1C8
:1014F00070E088E290E00E94E11A21E045E064E1BA
:1015000070E089E290E00E94E11A809131029091AE
:101510003202892B29F078E2E72EF12CC1E07EC05F
:1015200081E090E090933202809331021092290280
:10153000CAE0D0E0E0912902E03268F7F0E0EE0F77
:10154000FF1FEA59FE4F1182108210921A028091F9
:101550001A0260912902803108F054C0623038F4D8
:1015600040E00E94940680911A0240E040C0623040
:1015700071F40E94282DBE010E94BD2C41E0059708
:101580000CF440E06091290280911A0203C063309C
:1015900039F441E00E94940680911A0241E027C08C
:1015A000643039F442E00E94940680911A0242E0CD
:1015B0001EC0653009F50E94282DBE010E94BD2C79
:1015C000059714F043E001C042E060912902809148
:1015D0001A020E9494060E94282DBE010E94BD2C72
:1015E000059714F043E001C042E080911A02609137
:1015F00029028F5F0E94940680911A028E5F809369
:101600001A02A5CF91E0960F9093290293CFCF5F56
:1016100028E0E20EF11CC83009F46CC010922902D7
:10162000D0912902D03198F76C2F8D2F0E94AF06F0
:10163000E8E08E9FC0011124AC0143585C4F08E0E4
:1016400028E0B701F8E0DF9FC00111240E94641B6D
:10165000809129028F5F80932902E2CF82E091E09E
:101660000E945C1A8093240283E091E00E945C1A3D
:1016700080932502109228021092270284E091E0C4
:101680000E945C1AC82FD0E0DC2FCC27D093280210
:10169000C093270285E091E00E945C1AC82BD0938A
:1016A0002802C093270286E091E00E945C1A809392
:1016B000260205E511E0C7E0D1E0CE010E945C1AE8
:1016C000F80181938F012196C731F1E0DF07A9F777
:1016D00083E884BD17BC81EF80938000109288005E
:1016E00010928A0083E080932A021092650183CDD4
:1016F000922F14CEDF91CF911F910F91FF90EF9019
:10170000DF90CF90BF90AF909F908F907F906F9021
:101710005F904F9008956F927F928F929F92AF92B9
:10172000BF92CF92DF92EF92FF920F931F93CF93CE
:10173000DF931F92CDB7DEB7809113029091140210
:101740000E942D2D109217021092A60181E0809325
:10175000200288E080931B0210921C0210921D024E
:1017600010921F0210921E02109221021092220269
:1017700010922302109229020AE010E0E09129025F
:10178000E03208F07CC0F0E0EE0FFF1FEA59FE4F98
:101790001182108210921A0280911A02609129021D
:1017A000803108F067C0623008F443C0623071F4E1
:1017B0000E94282DB8010E94BD2C41E005970CF431
:1017C00040E06091290280911A0203C0633039F42D
:1017D00041E00E94940680911A0241E040C06430CA
:1017E00039F442E00E94940680911A0242E037C028
:1017F0006530E9F40E94282DB8010E94BD2C0597A0
:1018000014F043E001C042E06091290280911A0285
:101810000E9494060E94282DB8010E94BD2C0597B5
:1018200014F043E001C042E080911A0218C06E310A
:1018300039F440E00E94940680911A0240E00FC003
:101840006F3139F448E00E94940680911A0248E012
:1018500006C043E00E94940680911A0243E0609122
:1018600029028F5F0E94940680911A028E5F8093F6
:101870001A0292CF81E0860F809329027FCF0E94C7
:10188000282D64E070E00E94BD2C809329029AE02C
:10189000E92EF12C04E110E02CE0822E912C0E9424
:1018A000282D5C010E94282D6C010E94282DFC012E
:1018B000C501B7010E94BD2C42E0480FC601B80126
:1018C0000E94BD2C28E0280FCF01B4010E94BD2C3E
:1018D000622F8E5F0E945B07809129028F5F809349
:1018E00029028830E0F20E94282D64E070E00E9416
:1018F000BD2C8093290214E6C12ED12C02E0E02EEB
:10190000F12C09E110E08CE0682E712C0E94282D4A
:10191000B6010E94BD2C909124029695890F809368
:101920001902883240F0863440F08F3540F083371A
:1019300040F026E007C024E005C025E003C027E012
:1019400001C02AE029830E94282D4C010E94282DE5
:101950005C010E94282DFC01C401B7010E94BD2C2E
:1019600041E0480FC501B8010E94BD2C36E0380F98
:10197000CF01B3010E94BD2C2981632F8E5F0E948D
:101980000F07809129028F5F80932902883108F424
:10199000BDCF0E94282D64E670E00E94BD2CC29746
:1019A0000CF07AC00E94282D66E170E00E94BD2CE8
:1019B00016E0180F89830E94282D6BE070E00E94CA
:1019C000BD2C982FA82E63E0D62ED80E01E02981D9
:1019D00077E0C72EC20EE8E0EE2EE20EF5E0BF2E55
:1019E000B20EA4E08A2E820E99249394980EB9E048
:1019F0007B2E720EF02EFA0C40E0612F8F2D998312
:101A00000E94940640E06C2D8F2D0E94940640E0C9
:101A10006E2D8F2D0E949406682D600F48E0892D51
:101A20000E94940648E06B2D8F2D0E94940648E09A
:101A3000672D8F2D0E9494060F5F99810630D1F695
:101A400005E0090F48E06B2D802F0E94940648E0C6
:101A5000612F802F0E94940648E06C2D802F0E94F9
:101A6000940648E06E2D802F0E94940648E0672D72
:101A7000802F0E9494064BE06E2D8D2D0E949406BF
:101A800087E08D1510F482E001C08EEF40E06E2DEE
:101A9000D81A8D2D0E94940680912402982F977059
:101AA00009F0AFC0882309F4ACC00E94282D60E182
:101AB00070E00E94BD2C28E0E22EE80EC12C39E037
:101AC000D32ED80E1AE0180F4BE0F42EF80E0CE0CF
:101AD000080F5DE0B52EB80E48E06E2D8C2D0E94EB
:101AE000940640E06D2D8C2D0E94940640E0612FFD
:101AF0008C2D0E94940640E06F2D8C2D0E94940640
:101B000040E0602F8C2D0E94940648E06B2D8C2DB8
:101B10000E949406C39480E1C812DECF40E06E2D8F
:101B200080E00E94940640E06B2D80E00E949406C5
:101B300040E06B2D81E00E94940648E06D2D82E02C
:101B40000E94940648E0612F82E00E94940648E0DB
:101B50006F2D82E00E94940643E0602F82E00E9495
:101B600094064CE0612F86E00E94940643E06D2DC0
:101B700087E00E94940648E0612F87E00E94940667
:101B800048E06F2D87E00E94940648E0602F87E0D0
:101B90000E94940643E06D2D8CE00E94940648E07C
:101BA000612F8CE00E94940648E06F2D8CE00E942B
:101BB000940648E0602F8CE00E94940640E06B2D74
:101BC0008AE00E94940640E06B2D8BE00E94940610
:101BD0004CE06F2D8BE00E9494064CE0612F8FE06B
:101BE0000E9494064DE0602F8FE00E94940640E032
:101BF0006B2D8FE00E94940640E06B2D8EE00E94DA
:101C0000940648E06DE18EE00E94940648E06DE1A4
:101C10008FE00E94940649E06EE18FE00F90DF9123
:101C2000CF911F910F91FF90EF90DF90CF90BF90D9
:101C3000AF909F908F907F906F900C94940684E06B
:101C40008093190281E080932A028093650193E8D2
:101C500094BD9FEF97BD91EF909380001092880004
:101C600010928A00ABE1B2E019968C93199788EC38
:101C70001A968C931A97E5E5F1E010821182128290
:101C8000138214821582168217821086118612869C
:101C9000138614861586168617861D961C921E922C
:101CA0001C9708951F93CF93DF93182FEB01288182
:101CB000422F50E08A81882319F023E030E002C0EF
:101CC00021E030E0240F351FC90123E09595879569
:101CD0002A95E1F780932902412F50E0485F5F4F3A
:101CE000BA0133E0759567953A95E1F760931A026A
:101CF0000E94AF06811102C0198301C081E0DF910B
:101D0000CF911F9108952F923F924F925F926F92C1
:101D10007F928F929F92AF92BF92CF92DF92EF927B
:101D2000FF920F931F93CF93DF9300D000D0CDB7D6
:101D3000DEB7282E962E49832A838AE0689F900179
:101D40001124265D3F4F7901E60EF11C01E02AE0E7
:101D500047E7B70181E090E00E942F1B822D90E0C1
:101D6000FC01E057FB4F4490469446944694E4911E
:101D700010E0E770CE2ED12C1C01EFEF2E1A3E0A98
:101D8000C70101969C838B83512C5201E12FF0E017
:101D9000EC15FD050CF0B3C0E20DF31DE057FB4F51
:101DA0008490E6E0F0E0F093A107E093A0078B8138
:101DB0009C819093A3078093A2079DE1A916B1048B
:101DC00008F05DC0F201E856FF4F0C94D12C88E377
:101DD00097E053C08BE297E050C080E297E04DC09F
:101DE00083E197E04AC08DE097E047C085E097E047
:101DF00044C08EEF96E041C083EF96E03EC088EE8F
:101E000096E03BC08CED96E038C08CEC96E035C097
:101E10008EEB96E032C084EB96E02FC089EA96E024
:101E20002CC08AE996E029C08DE896E026C082E8B9
:101E300096E023C086E796E020C086E696E01DC0C7
:101E400088E596E01AC08DE496E017C081E496E03C
:101E500014C081E396E011C082E296E00EC087E1F3
:101E600096E00BC08BE096E008C084E096E005C0E9
:101E70008BEF95E002C081EF95E00E946D1AEA8138
:101E8000E830D8F5F981F230C0F1911036C0482D14
:101E900046954695469550E0CA010F97049768F11C
:101EA0002CE1129F7001112483E0440F551F8A9585
:101EB000E1F742505B4F08E028E061E270E0C701C3
:101EC00003960E94641B8EE0E80EF11CF092A107BD
:101ED000E092A00781E290E09093A3078093A2078D
:101EE0008BE491E00E948E1AE82DE7706E2F70E06F
:101EF00080E090E04AE00E94A01A1F5F47CF0F9059
:101F00000F900F900F90DF91CF911F910F91FF9045
:101F1000EF90DF90CF90BF90AF909F908F907F9089
:101F20006F905F904F903F902F900895EF92FF92A7
:101F30001F93CF93DF931F92CDB7DEB7982F96955F
:101F40009695969521EF290FE92EF12C2430C8F4AF
:101F5000482F477093E0499FA00111242091270248
:101F60003091280202C0369527954A95E2F72770EE
:101F700030E0A7014F5051092417350711F481E0D3
:101F800020C1182F1982BE016F5F7F4F80E00E9431
:101F9000FF07E816F90641F4212F277030E0898108
:101FA00090E0821793075CF7BE016F5F7F4F81E07F
:101FB0000E94FF07E816F90641F4212F277030E050
:101FC000898190E082179307D4F6BE016F5F7F4F3F
:101FD00082E00E94FF07E816F90641F4212F2770DE
:101FE00030E0898190E0821793074CF6BE016F5F65
:101FF0007F4F83E00E94FF07E816F90649F4212F7E
:10200000277030E0898190E0821793070CF0B7CFFA
:10201000BE016F5F7F4F84E00E94FF07E816F9065C
:1020200049F4212F277030E0898190E082179307CF
:102030000CF0A5CFBE016F5F7F4F85E00E94FF07C8
:10204000E816F90649F4212F277030E0898190E0E5
:10205000821793070CF093CFBE016F5F7F4F86E02E
:102060000E94FF07E816F90649F4212F277030E097
:10207000898190E0821793070CF081CFBE016F5FDA
:102080007F4F87E00E94FF07E816F90649F4212FE9
:10209000277030E0898190E0821793070CF06FCFB2
:1020A000BE016F5F7F4F88E00E94FF07E816F906C8
:1020B00049F4212F277030E0898190E0821793073F
:1020C0000CF05DCFBE016F5F7F4F89E00E94FF077C
:1020D000E816F90649F4212F277030E0898190E055
:1020E000821793070CF04BCFBE016F5F7F4F8AE0E2
:1020F0000E94FF07E816F90649F4212F277030E007
:10210000898190E0821793070CF039CFBE016F5F91
:102110007F4F8BE00E94FF07E816F90649F4212F54
:10212000277030E0898190E0821793070CF027CF69
:10213000BE016F5F7F4F8CE00E94FF07E816F90633
:1021400049F4212F277030E0898190E082179307AE
:102150000CF015CFBE016F5F7F4F8DE00E94FF072F
:10216000E816F90649F4212F277030E0898190E0C4
:10217000821793070CF003CFBE016F5F7F4F8EE095
:102180000E94FF07E816F90649F4212F277030E076
:10219000898190E0821793070CF0F1CEBE016F5F4A
:1021A0007F4F8FE00E94FF07E816F90649F4177089
:1021B000812F90E0298130E0281739070CF0DFCE1D
:1021C00080E00F90DF91CF911F91FF90EF900895E5
:1021D000FC019481292F30E0359527953595279579
:1021E00023702F5F243009F421E084E0289F9001C0
:1021F00011242C70937F292B24830895CF93DF9390
:10220000FC01EB0180911D0290911B029695969521
:102210009695813099F59150908360911C0270E001
:102220006C5F7F4FE3E075956795EA95E1F768830A
:1022300080911B0290E00296F3E095958795FA95C0
:10224000E1F70E94F406982F977F09F04DC0609146
:102250001C0270E0645F7F4F53E0759567955A9557
:10226000E1F7688380911B0290E0029673E09595F8
:1022700087957A95E1F70E94F40631C09F5F9083BD
:1022800060911C0270E06C5F7F4F33E0759567953D
:102290003A95E1F7688380911B0290E0029643E053
:1022A000959587954A95E1F70E94D906982F977FD3
:1022B000D9F460911C0270E0645F7F4F83E07595F4
:1022C00067958A95E1F7688380911B0290E00296FA
:1022D00023E0959587952A95E1F70E94D9068823F2
:1022E00011F0883009F480E0DF91CF910895CF9309
:1022F000DF93FC01EB0180911D0290911B02813064
:1023000009F056C0983008F4ADC09695969596950C
:102310009150908360911C0270E0645F7F4F83E076
:10232000759567958A95E1F7688380911B0290E027
:10233000029623E0959587952A95E1F70E94F40689
:10234000811102C091E08FC060911C0270E06C5F4F
:102350007F4FA3E075956795AA95E1F76883809113
:102360001B0290E00296B3E095958795BA95E1F748
:102370000E94F406882331F380911C0290E0BC0196
:102380006450710977FF02C0695F7F4FE3E0759584
:102390006795EA95E1F7688380911B0290E00296C9
:1023A000F3E095958795FA95E1F70E94F40658C0F9
:1023B00088E8890F883008F455C0969596959695CB
:1023C0009F5F908360911C0270E0645F7F4F53E0D9
:1023D000759567955A95E1F7688380911B0290E0A7
:1023E000029673E0959587957A95E1F70E94D90654
:1023F000882309F4A7CF20911C0230E02C5F3F4FC7
:10240000B90133E0759567953A95E1F76883809156
:102410001B0290E0029643E0959587954A95E1F777
:102420000E94D906882309F48DCF80911C0290E088
:10243000BC016450710977FF02C0695F7F4F83E080
:10244000759567958A95E1F7688380911B0290E006
:10245000029623E0959587952A95E1F70E94D90683
:1024600091E0811190E0892FDF91CF9108950F9332
:102470001F93CF938C01FC018381C181CD5FC81B69
:10248000C83008F4C8E0181614F4815001C080E088
:10249000F8018383B80184304CF08C2F0E94520ED7
:1024A0008130C1F483E0F801838314C08C2F0E9433
:1024B000520E813079F4B8018FEF8C0F0E94520ECA
:1024C000813041F4B8018EEF8C0FCF911F910F91A5
:1024D0000C94520ECF911F910F9108950F931F935B
:1024E000CF93DF9310921F0288E08093200200E0D8
:1024F00016E0C4E6D0E08091A601081708F08BC072
:10250000402F50E0149FF001159FF00D1124E95564
:10251000FE4F9581992309F47CC0218180911C0292
:10252000281B022E000C330B37FF03C03195219579
:102530003109253031050CF06CC0149FF001159F56
:10254000F00D1124E955FE4F208180911B02322F9E
:10255000381B809128028695869586958E708F5FB0
:1025600060911D02611116C03E3F74F1363064F572
:10257000E92FF0E0E81BF109329714F0692F681B8E
:10258000149FF001159FF00D1124E955FE4F65834E
:102590002C5F19C06130C1F43330B4F43B3FA4F078
:1025A000692F70E0681B71096230710514F0981B87
:1025B00001C090E0149FF001159FF00D1124E95522
:1025C000FE4F958324502083149FF001159FF00D3A
:1025D0001124E955FE4F858181111BC00E94282DD1
:1025E000BE010E94BD2C4E972CF461E08DE090E07E
:1025F0000E94520820912602922F969596959695C4
:102600009F5F38E0939FC00111242770822B809335
:1026100026020F5F70CFDF91CF911F910F91089528
:1026200090911D0260911C0280911B0220911E025C
:10263000243030F5611101C061E0282F30E099238A
:1026400019F083E090E002C081E090E0820F931FD8
:1026500023E0959587952A95E1F78093290270E00C
:10266000675F7F4F33E0759567953A95E1F7609323
:102670001A020E94AF06882319F088E080931E0298
:1026800008950E94D71886FF02C082E033C00E94DE
:10269000D71885FDFACF0E94D71887FD0C94101328
:1026A0000E94D71884FF12C080912202811125C098
:1026B00083E080932202809121028F5F843019F0A1
:1026C0008093210208951092210208950E94D71844
:1026D00082FD0C946E120E94D71810921F0283FF85
:1026E0000CC080912002843021F0813011F01092D2
:1026F000230284E08093200208950895CF93C82F89
:1027000090911F0281E0890F63E00E949B2C9093BF
:102710001F02911105C081E0809320020E944113A5
:102720000E94D71883FF0CC0909123029F5F9C17D3
:1027300018F49093230204C01092230291E00AC07F
:102740000E94D718982F987083FD03C0109223021F
:1027500001C090E0892FCF910895409136035091A8
:102760003703209134033091350342175307B4F4F3
:102770009091E8009570E1F39091E80092FD19C006
:102780008093F100809136039091370301968F7307
:102790009927892B19F48EEF8093E80080913603F6
:1027A000909137030196909337038093360381E02D
:1027B000089580E00895DF92EF92FF920F931F93A8
:1027C000CF93DF93D82E8A017B01E40EF51EEB0137
:1027D000CE15DF0571F0D7FE03C0FE01849101C064
:1027E00088810E94AD1321968111F2CF8FEF9FEF68
:1027F00001C0C801DF91CF911F910F91FF90EF9021
:10280000DF900895615030F02091F100FC012083A9
:102810000196F8CF289884E680933F030895CF92DD
:10282000DF92EF92FF920F931F93CF93DF936C0190
:102830007A018B01C0E0D0E0CE15DF0589F0D80128
:102840006D918D01D601ED91FC910190F081E02D0B
:10285000C6010995892B11F47E0102C02196ECCFA7
:10286000C701DF91CF911F910F91FF90EF90DF9003
:10287000CF900895CF93DF931F92CDB7DEB76983D2
:10288000DC01ED91FC910280F381E02D41E050E00C
:10289000BE016F5F7F4F09950F90DF91CF91089533
:1028A00083E08093E9008091F200882319F08AE3A5
:1028B0008093E80008950E94D72C0F931F93CF9325
:1028C000DF931F92CDB7DEB782E0898342E450E008
:1028D00063E477E080E80E94DB130E948D1CDC013A
:1028E00012960D911C9113970115110569F0D801ED
:1028F000ED91FC910280F381E02DBE016F5F7F4F6F
:10290000C801099597FF07C089810F90DF91CF918A
:102910001F910F910895F80100851185E5CF8F92E1
:102920009F92AF92BF92CF92DF92EF92FF920F935E
:102930001F93CF93DF935C016B018A0180910B01A0
:10294000882309F45EC080914003882309F459C0AC
:1029500080914F0180FF05C08091E00082608093EC
:10296000E000E8018AEFF82E93E0E92E2FE3822EB3
:102970003AE3932E209709F43DC08FB7F894E09284
:10298000E9009091E80095FF06C09091F200282D93
:10299000291B922F01C090E08FBF91110AC0FA94B9
:1029A000FF2079F161E070E080E090E00E944C1837
:1029B000E1CF292F30E0C217D3070CF49C2F8FB73B
:1029C000F894E092E9002091E80025FF11C0292F3A
:1029D00030E0C21BD30BF601915020F0419140939F
:1029E000F100FACFC20ED31E9091E80095FF13C0FC
:1029F0008FBFC0CF5D9884E6809338031016110610
:102A000044F081E090E0F5019383828380E090E0E0
:102A100005C0C80103C09092E800EACFDF91CF91D2
:102A20001F910F91FF90EF90DF90CF90BF90AF90EC
:102A30009F908F9008951F920F920FB60F921124BE
:102A40008F939F938091E1009091E100937F909309
:102A5000E10083FF0FC01092E90091E09093EB003A
:102A60001092EC0092E39093ED001092400398E0F6
:102A70009093F00082FF20C093E09093E900909142
:102A8000F200992319F09AE39093E80090913803AB
:102A9000992339F0909138039150909338039923FA
:102AA00089F190913F03992339F090913F03915020
:102AB00090933F03992341F184FF10C08091E2007D
:102AC0008E7E81608093E2008091E1008F7E809312
:102AD000E10080914F018E7E806111C080FF16C0A1
:102AE0008091E2008E7E80618093E2008091E1001F
:102AF0008E7E8093E10080914F018E7E8160809375
:102B00004F0104C05D9ACDCF289AD6CF9F918F9167
:102B10000F900FBE0F901F9018951F920F920FB637
:102B20000F921124CF92DF92EF92FF920F931F9397
:102B30002F933F934F935F936F937F938F939F93C5
:102B4000AF93BF93EF93FF93CF93DF93CDB7DEB7F0
:102B50006C97DEBFCDBF1092E9008091E80083FF43
:102B6000FAC168E0CE0145960E94021482EF80937C
:102B7000E8008D8987FF05C09091E80090FFFCCFA9
:102B800003C09EEF9093E800982F907609F0C6C09E
:102B90009E892F89188D91110CC0803829F480915D
:102BA00050018093F10002C01092F1001092F100E8
:102BB00047C1422F50E0512B913051F4811140C157
:102BC0004130510509F03CC1809150018D7F0BC00F
:102BD000933061F4811134C14130510509F030C1A5
:102BE000809150018260809350012AC1953041F458
:102BF0008091E80080FFFCCF20682093E30020C193
:102C0000963009F05FC0EB8CFC8C1092E9001092BA
:102C1000370310923603123091F51092350310925B
:102C200034030E945D1499E0BE016F5F7F4FDB01AA
:102C3000E92F1D92EA95E9F799831A8391E09E8323
:102C400090EA98879AEF998720913603309137035D
:102C5000275F3F4F3C832B838D831092E9001092B6
:102C6000370310923603F0923503E092340349E0C3
:102C700050E080E00E94DB130E945D14E1C0F092FE
:102C80003503E09234030E948D1CDC011296ED9016
:102C9000FC901397E114F10409F4C0C0D701ED9141
:102CA000FC910480F581E02DBE016B5E7F4FC70172
:102CB0000995009719F00CF0C3C0C6C0F701E08475
:102CC000F184E8CF973009F4BFC0983021F481E057
:102CD0008093F100B5C0993009F0B2C0837009F05B
:102CE000B3C0E5E1F1E081E021E036E39081992392
:102CF00061F08093E9002093EB0091919093EC00B8
:102D00003093ED008F5F873089F78EE78093EA007C
:102D10001092EA008F898093400392C08B8D9C8D26
:102D20001092E90010923703109236039093350306
:102D300080933403898D811156C08E899D89913A83
:102D400059F4813209F080C047E050E064E071E05E
:102D500080E00E94DB1374C0913209F075C08332A9
:102D600089F4888D90E0982F88272F89822BA0E006
:102D7000B0E08093000190930101A0930201B09311
:102D800003015EC0803269F48091E80082FFFCCFCD
:102D900067E084E091E00E9402148BEF8093E800EA
:102DA00006C0823209F04CC08F8980930B0180915C
:102DB0004E01882319F0EEEFFAE002C0E0E0F8E0FF
:102DC0008091040190910501A0910601B091070145
:102DD000803B9440A105B10509F088C080910B01AA
:102DE00080FFA0C083C00E948D1CDC0112960D9153
:102DF0001C9113970115110539F1D801ED91FC9142
:102E00000190F081E02DBE016B5E7F4FC8010995F6
:102E1000811116C0F80100851185ECCF1130C1F089
:102E2000133091F48F89882309F455C08230E9F476
:102E300040E860E185E997E00E94BD2B882321F0FE
:102E40008EEF8093E80087C081E28093EB0083C01F
:102E50008B8D9C8D089711F410933303809133036D
:102E6000811136C066EA77E038C0813029F440E845
:102E70006BE089E897E0E0CF833031F70E948D1C4A
:102E8000DC011296ED90FC9013978E010F5F1F4F9F
:102E90006801E114F10479F0D701ED91FC9106800D
:102EA000F781E02DB801C7010995080F111DF70141
:102EB000E084F184EECFD8011C92F601019000204D
:102EC000E9F73197BF016C197D0940E0C601B4CF25
:102ED00068EB77E002C065E877E06115710509F4F9
:102EE000B3CFFB01449150E080E833CF0FB6F894A4
:102EF000A8958091600088618093600010926000C6
:102F00000FBEA895EE3F2AE0F20739F08091FE0A45
:102F10009091FF0A9183808393CF1092FF0A1092C1
:102F2000FE0A8ECFEE3F8AE0F80731F08081918172
:102F30009093FF0A8093FE0A87E797E79183808347
:102F40009BE088E10FB6F894A895809360000FBECF
:102F50009093600075CF6C960FB6F894DEBF0FBEED
:102F6000CDBFDF91CF91FF91EF91BF91AF919F9135
:102F70008F917F916F915F914F913F912F911F9111
:102F80000F91FF90EF90DF90CF900F900FBE0F90BA
:102F90001F901895FC018485958597FD0BC09FB700
:102FA000F89482E08093E9008091F2009FBF90E066
:102FB000019608959FB7F89482E08093E90080918C
:102FC000F2009FBF90E008950895CF93DF931F9282
:102FD000CDB7DEB7FC018485958597FD05C02FEF41
:102FE0003FEF358724870BC0CE0101960E94631CFA
:102FF000019719F4898190E002C08FEF9FEF0F9045
:10300000DF91CF9108950F931F93CF93DF931F927A
:10301000CDB7DEB78C01FC018485958597FF0EC086
:10302000CE0101960E94631C019719F4298130E0BA
:1030300002C02FEF3FEFF80135872487F801848520
:1030400095850F90DF91CF911F910F9108953FB714
:10305000F89480913B0390913C03A0913D03B09183
:103060003E0326B5A89B05C02F3F19F00196A11D70
:10307000B11D3FBFBA2FA92F982F8827820F911D0E
:10308000A11DB11DBC01CD0142E0660F771F881F55
:10309000991F4A95D1F708958F929F92AF92BF9250
:1030A000CF92DF92EF92FF926B017C010E94271872
:1030B0004B015C01C114D104E104F104F1F00E9460
:1030C0002718DC01CB0188199909AA09BB09883E98
:1030D0009340A105B10570F321E0C21AD108E108BF
:1030E000F10888EE880E83E0981EA11CB11CC11463
:1030F000D104E104F10419F7DDCFFF90EF90DF90E8
:10310000CF90BF90AF909F908F9008951F920F9295
:103110000FB60F9211242F933F938F939F93AF93EA
:10312000BF938091510190915201A0915301B091B0
:10313000540130913A0323E0230F2D3720F40196F8
:10314000A11DB11D05C026E8230F0296A11DB11DCA
:1031500020933A038093510190935201A09353011D
:10316000B093540180913B0390913C03A0913D03A7
:10317000B0913E030196A11DB11D80933B03909336
:103180003C03A0933D03B0933E03BF91AF919F9149
:103190008F913F912F910F900FBE0F901F90189518
:1031A0002D9A0895BC0180E090E00C944C188FB1EA
:1031B0008095807F669B88601C9B8460089582E078
:1031C00090E00E94942D882331F03E9A3F9A81E04E
:1031D000809339030895109239033E983F980895DB
:1031E000FC01840F911D18161906E4F5E038F1056D
:1031F000CCF5F7FF02C0E0E0F0E08138910514F073
:1032000080E890E0382F3E1BAB0177FF02C0495F9A
:103210005F4F83E0559547958A95E1F75695542F72
:10322000442757954795E40FF51FEF5BFC4F6770F8
:10323000772781E090E001C0880F6A95EAF7482F70
:10324000222349F0213071F4315020F08081842B09
:103250008193FACF08958095315020F09081982382
:103260009193FACF089560387105D0F44034510538
:10327000B8F4EAECF7E080E1849FD001A078112453
:10328000A60F4770E40FF11D8491AF5BBC4F222362
:1032900019F06C91862B03C080956C9186238C93DA
:1032A00008952F923F924F925F926F927F928F92EA
:1032B0009F92AF92BF92CF92DF92EF92FF920F93C5
:1032C0001F93CF93DF93CDB7DEB729970FB6F8944E
:1032D000DEBF0FBECDBFFC016A3069F4258981894C
:1032E000928938E0239F800D911D1124928B818B50
:1032F000108A1786AAC06D3009F4A7C099878887FD
:10330000F588348823886188728807851089003899
:103310001105C4F0A885B98555962C915597422F73
:1033200050E01F968D919C915097B6E02B9F800D99
:10333000911D1124E885F985908B878726892111B5
:103340006EC083C0F0E46F16710424F7C80125E055
:10335000F29E800D911D112418161906DCF68F2D92
:1033600090E09C838B83C301A8E0FA9E800D911DA1
:1033700011241816190674F6B5E06B9FB0011124DC
:10338000FB01EE52F84FFA83E98330E08885998596
:1033900004969E838D83E981FA81E490353009F4A7
:1033A000E12C430188E0482EE0FC02C0532C01C010
:1033B000522C51100BC0321009C0E6944A948B81F4
:1033C0009C81880E991E4110EFCF1BC068018C2D87
:1033D000801B8F1590F754018A2D88198F1568F47A
:1033E000252DA501B6018D819E813F830E94331951
:1033F0009FEFA91AB90A3F81EFCFAFEFCA1ADA0AD5
:10340000E6CF3F5FEB81FC810E0F1F1F89819A8100
:1034100001969A838983363009F0BDCF7BCF6AEF5E
:1034200064039001659F300D112420583F4F2817E9
:1034300039075CF4A885B985ED91FC91119701904D
:10344000F081E02D6AE0CD01099581E090E02996B8
:103450000FB6F894DEBF0FBECDBFDF91CF911F91A5
:103460000F91FF90EF90DF90CF90BF90AF909F9023
:103470008F907F906F905F904F903F902F90089526
:103480000F931F93CF93DF931F92CDB7DEB78C01BD
:1034900069830E94942D6981681741F0C8010F90DB
:1034A000DF91CF911F910F910C949C2D0F90DF9184
:1034B000CF911F910F9108950C94942DE1E4F3E0C6
:1034C000A0E0B8E000800EBC8111012C1197A0FD96
:1034D000FDCF0192B9F70DB408950F931F93CF93C9
:1034E000DF938C01C0E0D0E0F801EC0FFD1F649188
:1034F000662371F0E0919107F09192070190F081BD
:10350000E02D81E997E00995892B11F02196ECCF08
:10351000CE01DF91CF911F910F910895009769F02F
:10352000FC0101900020E9F73197AF01481B590BCE
:10353000BC0181E997E00C940F1480E090E00895BD
:103540008F929F92AF92BF920F931F93CF93DF936F
:10355000CDB7DEB7A1970FB6F894DEBF0FBECDBFD3
:1035600019A2423008F44AE08E010F5D1F4F842EED
:10357000912CA12CB12CA50194010E94DC2DE62FE9
:10358000B901CA0101501109EA3014F4E05D01C02B
:10359000E95CD801EC93232B242B252B61F7C80180
:1035A0000E948E1AA1960FB6F894DEBF0FBECDBF53
:1035B000DF91CF911F910F91BF90AF909F908F900F
:1035C0000895DF92EF92FF920F931F93CF93DF93B3
:1035D0007C01D22E8B01040F111DEB0177FF0EC071
:1035E000C0E0D0E00BC0C417D5077CF42D2DAE0190
:1035F000B70185E997E00E9433192196A8010134AB
:1036000011058CF340E450E0EECFDF91CF911F9194
:103610000F91FF90EF90DF900895CF92DF92EF929D
:10362000FF920F931F93CF93DF936B01122FEC0147
:103630007C01E40EF11CCE15DF0544F4202F412F50
:10364000B601CE010E94E11A2196F5CFDF91CF910C
:103650001F910F91FF90EF90DF90CF900895DF9230
:10366000EF92FF920F931F93CF93DF93EC017B01B7
:10367000D42E122F6034710520F4202FCE010E9429
:10368000F018B701610F711D615071096034710547
:1036900028F4202F4D2DCE010E94F018202F412F0D
:1036A000B701CE010E94E11ACE018D0D911D202F90
:1036B000412FB7010197DF91CF911F910F91FF909B
:1036C000EF90DF900C94E11A2F923F924F925F920D
:1036D0006F927F928F929F92AF92BF92CF92DF9222
:1036E000EF92FF920F931F93CF93DF93CDB7DEB787
:1036F00028970FB6F894DEBF0FBECDBF5A01822EB9
:10370000912C9C01280D391D37FDC4C080389105CE
:103710000CF0C0C09B01200F311D37FDBBC06034D1
:1037200071050CF0B7C0AB0177FF04C044275527E3
:10373000461B570B477055279B0177FF02C0295F37
:103740003F4FE3E035952795EA95E1F777FF08C00D
:103750002150310968E070E0DB01A41BB50BAD011D
:10376000602F66956695669570E0077011F06F5F43
:103770007F4FDB01A20FB31FBA83A983390176946F
:10378000762C662477946794680E791EE12CF12CD0
:1037900000E010E02301B0E84B0E511C68E070E03F
:1037A000DB01A41BB50BBC83AB8369817A8126172F
:1037B000370709F46FC02830310509F46BC02F3F7B
:1037C000BFEF3B070CF45BC0B201600F711FDB0160
:1037D000AF5BBC4FBE83AD83D801A60DB71DAF5BF9
:1037E000BC4F6C0160E070E0681579050CF047C0D3
:1037F000E0E8CE16D10409F442C0D7FC34C02F3F14
:10380000FFEF3F0709F442C0FB01EE0DFF1DEA0D7B
:10381000FB1DE491042E01C0EE0F0A94EAF73C90E0
:10382000E329EC9341155105F1F027303105D9F02A
:10383000FB01EE0DFF1DEA0DFB1DE4912E2E312C38
:10384000F1010B8002C0F595E7950A94E2F7F8873D
:10385000EF83ED81FE813080EF81F885E3291F0140
:10386000ED81FE8120826F5F7F4FED81FE81319679
:10387000FE83ED83FFEFCF1ADF0A1196B5CF2F5FDE
:103880003F4F00581F4FE80CF91C8FCF41155105D1
:1038900079F6E9CF28960FB6F894DEBF0FBECDBFFC
:1038A000DF91CF911F910F91FF90EF90DF90CF901C
:1038B000BF90AF909F908F907F906F905F904F9050
:1038C0003F902F900895FC0180914003811103C027
:1038D0008FEF9FEF08959FB7F89482E08093E900FF
:1038E0002091F20030E01216130614F421E030E0CB
:1038F0002115310559F0289884E680933F03809183
:10390000F10080838091F200882319F09FBFC901E4
:1039100008958BE68093E800F9CF8091AC07811180
:103920000DC082E08093A80784E08093A9071092DD
:10393000AB071092AA0781E08093AC0788EA97E072
:103940000895CF93DF9300D000D000D0CDB7DEB77D
:10395000789484B5826084BD84B5816084BD85B56A
:10396000826085BD85B5816085BD80916E00816076
:1039700080936E001092810080918100826080931C
:10398000810080918100816080938100809180001E
:10399000816080938000809191008260809391008B
:1039A000809191008160809391008091900081606E
:1039B000809390008091C10084608093C1008091C9
:1039C000C10082608093C1008091C10081608093BA
:1039D000C1008091C30081608093C3008091C000CA
:1039E00082608093C0008091C20081608093C20099
:1039F00080917A00846080937A0080917A0082605E
:103A000080937A0080917A00816080937A0080911F
:103A10007A00806880937A001092400310925001DF
:103A200010924F018091D70081608093D70080EA87
:103A30008093D80089B5806189BD89B5826089BDD0
:103A400009B400FEFDCF61E070E080E090E00E94EC
:103A50004C188091D8008F7C80618093D800809131
:103A6000E000807F8093E0008091E1008E7E809373
:103A7000E1008DE08093E200559A209AEEEFFFE797
:103A8000859194918B3F9C4D19F481E080934E0178
:103A900081EC80937C0085B1806F85B984B1877E8D
:103AA00084B984B1876E84B95E9A5F988AB1806D5B
:103AB0008AB9769A6E9881B3806F81BB899880B3FA
:103AC0008D7080BB80E58CBD81E08DBD85E090E090
:103AD0000E94D2185F9A85E090E00E94D2185E980A
:103AE0005C98EAE1F2E08DE08E0F94919EBD0000BB
:103AF0000DB407FEFDCF31968E13F7CF5C9A81E8A7
:103B0000809364008091650081608093650080E00F
:103B10000E945E1A0E94D71887FF24C05C9885EA2D
:103B20008EBD00000DB407FEFDCF5C9A2E982F9835
:103B30002D988091640080628093640081E083BF4F
:103B4000889513BEFCCF2D980E94D71884788438AE
:103B500071F00E94D7188471843131F188EC90E0C3
:103B60000E94D2180E94D71882FDEDCF3AC00E9461
:103B7000D01888EC90E00E94D2182F9882E090E054
:103B80000E94942D8F3F29F06FEF82E090E00E9419
:103B90009C2D84EF91E00E94D2182F9A0E94D71892
:103BA00084788438D9F3D5CF0E94D01888EC90E07F
:103BB0000E94D2182E9882E090E00E94942D8823D3
:103BC00029F060E082E090E00E949C2D84EF91E07B
:103BD0000E94D2182E9A0E94D71884718431D9F38A
:103BE000BDCF0E94D0180E94DF1881E090E00E94B3
:103BF000942D82FB112710F981E090E00E94942D12
:103C000081FF44C011112E9850EFE52EFF24FA9445
:103C10000E94D71886FF04C02E9A2F9A2D9A36C07C
:103C2000112331F034E0E316F10411F42E9A2F98A9
:103C300081E00E945E1A00E128E54AE651E0B70102
:103C400084E190E00E94641B80E00E945E1A8FE095
:103C500090E00E94D2185FEFE51AF50A89E1E816B4
:103C6000F104B1F6112311F02F9A2D9880E991E01B
:103C70000E94D2180E94D018E0919507F091960703
:103C80000190F081E02D85E997E0099582E390E0CD
:103C90000E94D2180E94D7188111F8CF10921A02F0
:103CA00010921802109219021092290288E2809351
:103CB0009C07809164008E7F8093640080917A00DD
:103CC000806480937A0080917A0086FDFCCF009119
:103CD0007800109179000E94271820E030E09801C8
:103CE00011270027600F711F821F931F6115710537
:103CF0008105910511F00E948B2D809164008160F7
:103D0000809364000E94271860931302709314023A
:103D100080931502909316020E941F0E10922802A3
:103D2000109227028FEF9FEF90934E0780934D07DD
:103D30000E94DF18109290008AE0809391008FB764
:103D4000F89440915101509152016091530170914A
:103D500054018FBF80919D07942F981B80919E07DF
:103D6000882329F090939F0710929E07F9C1209114
:103D70009C07921748F49F5F921708F0F1C181E009
:103D800083BF889513BEECC191E090939E0740934A
:103D90009D0720919807309199072F5F3F4F3093EF
:103DA000990720939807E1E4F3E081118FEF002455
:103DB00081938193819381930394D1F71092A30708
:103DC0001092A2071092A1071092A00780913002D2
:103DD000882331F0815080933002882309F4C8C1D0
:103DE00080913002811104C0109230021092900034
:103DF00080912A02813011F40E949A0880912A024F
:103E0000843009F092C00E94D71883FF04C089E76C
:103E10008093290208C080912902893721F40E94E9
:103E2000D71883FFA8C11092A1071092A007109283
:103E3000A3071092A2078FEB95E00E946D1A1092D3
:103E4000A1071092A0078CE0E82EF12CF092A307B6
:103E5000E092A2078091240280931A0287EB95E0FA
:103E60000E946D1A04E210E01093A1070093A007CE
:103E7000F092A307E092A20760911A0270E080E03E
:103E800090E04AE00E94A01A1092A1071092A007A9
:103E900098E1E92EF12CF092A307E092A2078FEAB5
:103EA00095E00E946D1A609126026695669566956A
:103EB00060931A021093A1070093A007F092A30742
:103EC000E092A20770E080E090E04AE00E94A01A31
:103ED0001092A1071092A0071093A3070093A207C6
:103EE00087EA95E00E946D1A6091260267706093E0
:103EF0001A021093A1070093A0071093A307009341
:103F0000A20770E080E090E04AE00E94A01A1092C0
:103F1000A1071092A00780E390E09093A3078093FD
:103F2000A20786E995E00E946D1A80912A028230EC
:103F300049F580912002982F9071D92E84FF20C1DD
:103F400028C58D2D90E08D31910510F40C94AA2890
:103F50008FEF9FEFA0E0B0E080932B0290932C02B4
:103F6000A0932D02B0932E0281E08093180210924C
:103F700019020E94D71882FF05C081E080932002B9
:103F80000E94411380912A02833009F0E6C080919B
:103F90006501811105C00E948B0B81E08093650152
:103FA000809118028F5F893008F088E080931802B2
:103FB000883009F06EC00E94D71883FF10C083E8D4
:103FC00084BD8FEF87BD81EF8093800010928800C1
:103FD00010928A0082E080932A02109265010E946A
:103FE000D71882FF54C080911F028F5F80931F02F9
:103FF00089320CF44EC010921F026EEB8FEF90E0EE
:104000000E94401A69E780E091E00E94401A61E056
:1040100081E091E00E94401A6091240282E091E0E8
:104020000E94401A6091250283E091E00E94401AAC
:104030006091280284E091E00E94401A609127027A
:1040400085E091E00E94401A6091260286E091E0AE
:104050000E94401A85E5E82E81E0F82E07E011E085
:10406000F70161917F01C8010E94401A0F5F1F4F45
:104070000731F1E01F07A1F783E884BD17BC81EF8A
:10408000809380001092880010928A0002C01092E3
:104090001F02809198079091990787709927892B23
:1040A00059F483E884BD8FEF87BD81EF8093800052
:1040B0001092880010928A001092A1071092A00717
:1040C0001092A3071092A2078091240280931A02F3
:1040D00087E492E00E946D1A84E290E09093A10739
:1040E0008093A0071092A3071092A20760911A0272
:1040F00070E080E090E04AE00E94A01A1092A107D0
:104100001092A00780E190E09093A3078093A2070C
:1041100086E392E00E946D1A1092A1071092A00708
:1041200080E290E09093A3078093A20787E292E059
:104130000E946D1A01E024E040E56AE270E080E050
:1041400090E00E942F1B40911F02440F22E06BE27F
:1041500070E080E090E00E940D1B80E00E945E1AFB
:1041600080E090E0892B09F4EACD0E940000E7CDC1
:104170001092900035CE0E941F0E1092290253CE4D
:104180004091130250911402609115027091160231
:104190004F5F5F4F6F4F7F4F409313025093140256
:1041A000609315027093160280FD22C081FD02C04B
:1041B0000C949E2980911F028F5F63E00E949B2CCC
:1041C00090931F020E94D71887FD0E9410130E942F
:1041D000D71886FD10C00E94D71885FF02C00C9426
:1041E000772980911F02811110C081E08093200205
:1041F0000E9441130AC010921D020E94D71882FD2E
:1042000002C00C943A290E946E128BE192E00E9447
:10421000371290911C02892F86958695869590324B
:1042200018F41092180207C0903E10F4835001C099
:1042300088E18093180281E080931902A6E0CA2EDB
:10424000E0901902B8E0BE1508F401C110922902ED
:1042500098E0E99E40011124F3E05F2E10912902BD
:10426000F0901802103108F0EBC06F2D812F0E94E2
:10427000AF06382F612E712C5301E3E0AA0CBB1C52
:10428000EA95E1F7A8E08A9FA001112443585C4F0A
:1042900080911C028770B401681B710908E028E056
:1042A000C5013E830E94641B3E8185EF830F8230EF
:1042B00008F082C0809198079091990768E770E0B4
:1042C0000E94A92C892B09F077C080911C02869549
:1042D0008695869590E04F2D50E0BC016F5F7F4F33
:1042E000641B750B1616170624F46530710544F02F
:1042F00063C080959095840F951F05970CF05CC066
:1043000080911B0286958695869590E0861997097F
:1043100007960F9708F050C02091A601622F70E019
:10432000A0E08A2F0A2E000C990B8617970754F4E9
:10433000C89EF001C99EF00D1124E955FE4FE5819C
:10434000E11104C08617970741F402C0AF5FE9CFBF
:10435000213190F52F5F2093A601A13168F5C89E09
:10436000F001C99EF00D1124E955FE4F212F220FB7
:10437000220F220F20833C3019F021E030E002C0F0
:104380002FEF3FEFC89EF001C99EF00D1124E955B3
:10439000FE4F421B530B440F440F440F41831282C4
:1043A0005382809124028695865F85838F2D652DAB
:1043B0000E948F2C9F5F94838091210281111DC0E8
:1043C000BE016F5F7F4FCE0102960E94FE10809368
:1043D0001A02882391F08A8181130FC089818F117D
:1043E0000CC080911C028770B401681B710900E049
:1043F00028E048E0C5010E942F1B809121028330F4
:10440000D9F4809117028823B9F0BE016F5F7F4F06
:10441000CE0102960E94771180931A02882361F0E0
:104420008A81811309C089818F1106C00E942718D3
:1044300060FD02C00C94742B1F5F109329020ECFF5
:10444000F394F0921802E394E0921902F9CE3091BD
:104450001C023B83303E10F0305C04C03B813032A4
:1044600010F030E23B831C8266E0C62E74E6872E95
:10447000912C8091A6013C81381708F0E9C13C815C
:10448000A32EB12CCA9CC001CB9C900D1124DC0141
:10449000A955BE4F7D0115968C911597882309F477
:1044A000D3C111960C91119780911C02081B3B817E
:1044B000030F01340CF0C8C1CD010E943712809166
:1044C000980780FD9EC0D7011C9180911B02B12FDF
:1044D000B81B1B160CF042C081E0F70182832180DB
:1044E000312C412E512CF7E04F0E511C43E05594D6
:1044F00047944A95E1F7B1016C5F7F4F53E07595A2
:1045000067955A95E1F7842D0E94F406811105C044
:104510001150D7011C930C94912B3101B4E06B1A0C
:10452000710877FE04C03101E3E06E0E711C33E0C8
:10453000759467943A95E1F7662D842D0E94F406F0
:1045400081115FC0662D812F8695869586950E9484
:10455000AF06882311F40C94862B53C0BB2309F4B7
:1045600050C0D70112961C92129711962C90312CA4
:10457000812F90E02C01B3E04B1A510857FE04C084
:104580002C01E4E04E0E511C93E0559447949A950B
:10459000E1F7B1016C5F7F4F23E0759567952A9530
:1045A000E1F7842D0E94D90681110BC0CA9CF0014D
:1045B000CB9CF00D1124E955FE4F1F5F10830C9426
:1045C000912B3101F4E06F1A710877FE04C03101BC
:1045D00023E0620E711C83E0759467948A95E1F77D
:1045E000662D842D0E94D90681110BC0662D812F66
:1045F0008695869586950E94AF06882311F40C94C3
:10460000962BCA9CF001CB9CF00D1124E955FE4F6E
:104610004481842F8370815080931902E82EF12CFD
:1046200050E055954795559547954370552741500E
:104630005109B3E0440F551FBA95E1F738E1839F64
:10464000400D511D11248281813019F080E090E0ED
:1046500002C084E090E0480F591F415B5D4F602F1E
:10466000000F770BCA9CF001CB9CF00D1124E9558B
:10467000FE4F808190E008E024E002960E94641BD7
:10468000209124022A3030F0243130F0283230F0EA
:1046900061E005C064E003C063E001C062E070E077
:1046A00080919807909199070E94A92C892B09F075
:1046B000BCC0CA9CF001CB9CF00D1124E955FE4F03
:1046C000818190911C02891B082E000C990B97FF89
:1046D00003C091958195910905970CF0B5C0109193
:1046E0001B02CA9CF001CB9CF00D1124E955FE4F32
:1046F00000810E5F5FEFE51AF50A2A3030F02431B1
:1047000030F0283230F080E105C084E003C088E05A
:1047100001C08CE08E9DE02C11240E94282D409138
:1047200027024770B4010E94BD2CAAE04A9F900165
:1047300011248217930724F4B3E04B9FE01811244F
:104740000E94282D409127025091280273E056952F
:1047500047957A95E1F74770B4010E94BD2CEFE0D0
:104760004E9F900111248217930724F4F3E04F9F8A
:10477000E01811240E94282D409127025091280210
:1047800066E0569547956A95E1F74770B4010E9437
:10479000BD2C54E1459F900111248217930724F406
:1047A00083E0489FE01811240E94282D40912802A0
:1047B00046954770B4010E94BD2CAEE14A9F90011E
:1047C00011248217930724F4B3E04B9FE0181124BF
:1047D000011B053050F51E1444F58091250290E030
:1047E0008E199109E7FC939597FF02C080E090E055
:1047F000809325020E949408882361F0E4E1E0930D
:104800003002F0E4F093900024E335E03093990017
:104810002093980033E834BD5FEF57BD81EF80935C
:1048200080001092880050938A008091980780FD44
:104830000BC093E894BDAFEFA7BDB1EFB09380007C
:104840001092880010928A003C813F5F3C8311CE19
:1048500080912002982F937009F471C70DC082FFD8
:104860007FC780912102882309F474C7813009F43D
:1048700074C7823009F06BC780911F028D0D809341
:1048800029021092190290911D02913031F4845F37
:104890008093290284E08093190280911C02803E5B
:1048A00010F0805C03C0803208F080E280931A022E
:1048B0004091290288E0489FA001112449565D4F8C
:1048C00060911A0270E080911B0290E03091190211
:1048D00008E028E0831B91090E94641B00E028E0A7
:1048E00048E061E070E088E790E00E940D1B409195
:1048F000210298E0499FA0011124435A5C4F08E02F
:1049000028E061E070E088E790E00E94641B8091FD
:104910002202882319F081508093220200E028E0CF
:1049200047E461E070E081E390E00E940D1B10E03D
:1049300092E3F92E2AE0E22E20912502822F6E2D9D
:104940000E948F2C1817D0F4A12FA170CA2E10FF2F
:1049500003C04AE553E002C047E553E008E023E026
:1049600061E070E08F2D90E00E94641BC11002C0D6
:1049700083E001C084E0F80E1F5FDECF211103C089
:1049800084E080932A021092180210921902DD82AC
:10499000F9CA0E94D71887FF11C080912202982F70
:1049A000917080FD0BC020911902223010F09FEF12
:1049B000920F909319028160809322020E94D7186F
:1049C00084FF04C08091220281FF4BC40E94D7184B
:1049D00085FF11C080912202982F947082FD0BC038
:1049E00020911802223010F09FEF920F909318023E
:1049F0008460809322020E94D71886FF0EC08091A7
:104A0000220283FD0AC090911802993008F49F5F3A
:104A1000909318028860809322020E94D71887FD25
:104A200005C0809122028E70809322020E94D718C6
:104A300084FD05C0809122028D70809322020E9425
:104A4000D71885FD05C0809122028B7080932202C9
:104A50000E94D71886FD05C080912202877080933E
:104A6000220280911A028F5F803108F080E08093EB
:104A70001A0221E040E868E070E080E090E00E94E7
:104A8000F01810911902B090180210922902A0900B
:104A90002902E7E0EA1508F44EC0ABE0AA9E7001D7
:104AA00011246701BFEFCB1ADB0A01E02AE04AE0DC
:104AB0006AE070E0C6010E942F1B2AE04AE065E12F
:104AC00070E0C6010E942F1BBE016F5F7F4F8A2DD1
:104AD0000E94FF07AC018981882379F003E0440F2D
:104AE000551F0A95E1F742505B4F08E028E06BE064
:104AF00070E0C70102960E94641BBE016F5F7F4F8A
:104B000088E08A0D0E94FF07AC018981882379F033
:104B1000B3E0440F551FBA95E1F742505B4F08E0F0
:104B200028E066E170E0C70102960E94641BA3942E
:104B3000A0922902ACCF809127028770B1F008E0E3
:104B400028E046E755E06CE070E08EE590E00E94DA
:104B5000641B409127024770440F21E06AE070E037
:104B60008DE590E00E94F01809C001E02AE04AE0DB
:104B70006AE070E08DE590E00E942F1B8091270293
:104B800090912802A3E096958795AA95E1F7877002
:104B9000E9F008E028E04EE755E06CE070E089E6D7
:104BA00090E00E94641B4091270250912802F3E09C
:104BB00056954795FA95E1F74770440F21E06AE072
:104BC00070E088E690E00E94F01809C001E02AE059
:104BD0004AE06AE070E089E690E00E942F1B809135
:104BE000270290912802E6E096958795EA95E1F7ED
:104BF0008770E9F008E028E046E855E06CE070E0F6
:104C000085E790E00E94641B4091270250912802A2
:104C100076E0569547957A95E1F74770440F21E085
:104C20006AE070E084E790E00E94F01809C001E0BB
:104C30002AE04AE06AE070E085E790E00E942F1BDE
:104C40008091280286958770A9F008E028E04EE858
:104C500055E067E170E08EE590E00E94641B4091B2
:104C600028024E7021E065E170E08DE590E00E9441
:104C7000F01809C001E02AE04AE065E170E08DE546
:104C800090E00E942F1B01E020E246E060E270E02D
:104C900089E790E00E942F1BE09028028E2D8295DC
:104CA0008770EE24E394E80E22E042E06CE370E0CB
:104CB0008BE790E00E940D1B21E044E06BE370E085
:104CC0008AE790E00E94F0180E2D000F000F0E0DE5
:104CD0002E2D3BEF320370011124B701655C7F4F2D
:104CE00021E0402F8BE790E00E94E11AB701645C5D
:104CF0007F4F21E0402F8CE790E00E94E11A01E015
:104D000028E048E066E170E089E690E00E940D1B33
:104D100083E790E09093A1078093A00787E190E05C
:104D20009093A3078093A2076091170270E080E040
:104D300090E04AE00E94A01A21E048E168E070E0BB
:104D40008AE590E00E94E11A123008F0CEC080910E
:104D50001A0257E05B15B8F4893008F4D8C082E134
:104D6000189FB0011124675F7F4F2B2D30E0285032
:104D7000310942E1429FC001439F900D112422E17D
:104D8000865A9F4FC2C0893078F09BE0199FB001CE
:104D90001124675F7F4F01E02CE04CE0ABE0BA9E4E
:104DA000C00111240E942F1BBE016F5F7F4F8B2D0E
:104DB000B8E01B9F800D11240E94FF077C016981D0
:104DC0001092A1071092A0071092A3071092A207B9
:104DD000662309F485C070E080E090E04AE00E941C
:104DE000A01A88E090E09093A1078093A00710920A
:104DF000A3071092A2078EE894E00E946D1A80E14A
:104E000090E09093A1078093A0071092A3071092BF
:104E1000A207EFE0EE16F10498F5F701EA5AFF4F0A
:104E20000C94D12C8FE794E029C086E794E026C04B
:104E30008DE694E023C082E694E020C08DE594E006
:104E40001DC082E594E01AC087E494E017C08CE3AB
:104E500094E014C08FE294E011C082E294E00EC0AE
:104E60008CE194E00BC084E194E008C08AE094E017
:104E700005C084E094E002C08DEF93E00E946D1ABB
:104E80008EE690E09093A1078093A0071092A3076D
:104E90001092A2078BE894E00E946D1A80912F0275
:104EA0008A3018F489E894E007C0843118F487E860
:104EB00094E002C085E894E00E946D1A0E94D71821
:104EC00083FF0BC080912F028F5F80932F028F3161
:104ED000F0F061E0C7010E940D0810922F0217C088
:104EE0008DEF94E00E946D1A12C0123081F4F7E049
:104EF000FB1568F480911A02893048F001E02AE03D
:104F000044E26DE270E08AE590E00E942F1B10926F
:104F1000290280912B0290912C02A0912D02B09138
:104F20002E028F3F9F4FA105B10571F001E020E2F5
:104F300047E760E270E081E090E00E942F1B37E0DD
:104F40003B1508F059C06AC010922B0210922C0237
:104F500010922D0210922E0200E0E0912902F0E062
:104F6000E057FB4FE491EF3F09F3CC24C394E77083
:104F7000DE2EEE2EF12C8C2D90E0E0912902E81629
:104F8000F906A4F08E0F911DFC01E057FB4F8491B0
:104F90000E94960F811108C0E0912902EF5FED0D8C
:104FA000E09329020F5FD9CFC394E5CFEF5FED0DFA
:104FB000E093290281E090E0A0E0B0E0002E04C080
:104FC000880F991FAA1FBB1F0A94D2F740912B028A
:104FD00050912C0260912D0270912E02842B952B02
:104FE000A62BB72B80932B0290932C02A0932D021B
:104FF000B0932E020F5FB3CF123080F021E046E075
:105000006CE270E082E090E00E94E11A21E043E06F
:105010006EE270E083E090E00E94E11A21E047E751
:1050200069E270E081E090E00E94F018109229029D
:10503000E0E9F4E0A490123020F06EEF762E710ECD
:1050400001C0712C812C912CE72CF12C5FEFE51A1B
:10505000F50A52E0C52ED12C9FEFA91611F40C943D
:10506000B91F80912B0290912C02A0912D02B0913A
:105070002E02082C04C0B595A795979587950A949C
:10508000D2F780FFDFC09710D0C02B2D412F60E0FA
:10509000809129020E94830E123008F4D2C087E06A
:1050A0008B1508F4CEC00E94D71883FFABC0409187
:1050B0001F02842F880F480F01E026E061E070E0B6
:1050C00082E090E00E940D1B80911F02883224F440
:1050D0008F5F80931F0296C0883209F093C01092B0
:1050E0001F0282E090E09093A1078093A0071092A6
:1050F000A3071092A2078BE391E00E948E1AE09022
:1051000029028E2D90E0FC01E057FB4FD490D694FD
:10511000D694D694E491C12CE7700E2F10E07C0158
:10512000AFEFEA1AFA0A8C2D90E08017910714F07D
:105130000C94A11F8E0D9F1DFC01E057FB4F849125
:10514000682F677086958695869590E00E940D0879
:10515000C394E9CFFC01EB59FF4F0C94D12C61E0D3
:1051600086E090E04BC061E089E090E047C061E0FC
:1051700087E090E043C061E088E090E03FC061E0FC
:105180008AE090E03BC061E08BE090E037C061E0F6
:105190008EE090E033C061E001C062E080E027C0B3
:1051A00063E0FCCF64E0FACF61E005C062E003C0D9
:1051B00063E001C064E081E01AC061E005C062E024
:1051C00003C063E001C064E082E011C061E005C09B
:1051D00062E003C063E001C064E083E008C061E016
:1051E00005C062E003C063E001C064E084E00E94A7
:1051F0003F2C0C94A81F61E08CE090E00E945208C4
:105200000C94A81F0E94D71883FD1BC010921F0288
:10521000D092A107C092A0071092A3071092A207F4
:105220008BE391E00E948E1A0CC0892D90E08E15C0
:105230009F0539F42B2D412F61E0809129020E94B6
:10524000830E9394E091290281E08E0FEA2DE7709E
:10525000E80FE0932902F0E0E057FB4FA49083941D
:10526000FBCE909119029F5F909319028260809308
:105270002202ACCB10911B0260911C0270E06C5FAB
:105280007F4F43E0759567954A95E1F7212F30E010
:10529000C901049797FD079633E0959587953A9550
:1052A000E1F70E94D90680931A02882311F0893011
:1052B00099F491E0910F90931B029770953060F0F4
:1052C000893051F41092650183E080932A02809125
:1052D00024028F5F8093240280911B028D3710F48B
:1052E0000C9405218CE780931B020C94052181E02E
:1052F00080931D020E94D71882FF02C00C940321E4
:1053000010911B0260911C0270E06C5F7F4F83E084
:10531000759567958A95E1F7812F90E0079623E0D0
:10532000959587952A95E1F70E94F40681110C94D2
:105330000521115010931B020C94052183FF19C005
:1053400080911F028F5F63E00E949B2C90931F024D
:10535000911105C081E0809320020E9441130E94B8
:10536000D71887FD02C00C9405210E9410130C94DD
:10537000052182FD02C00C94052180912102882321
:1053800059F0813009F409C1823009F454C18330E5
:1053900011F00C9405216BC18AE00E947E138823D2
:1053A00009F4E1C0BE016F5F7F4FCE0102960E94FB
:1053B000FE10182F882311F40C940521109223025B
:1053C000E981F0E0EE0FFF1FEA59FE4F81E090E027
:1053D0000A8002C0880F991F0A94E2F72081318168
:1053E000822B932B918380830E949408412F50E05D
:1053F000882309F4B7C188E28093300280E4809367
:10540000900080EA97E09093990080939800FA01C9
:105410003397EB30F10508F097C0EE57FF4F0C942F
:10542000D12C0E949408882361F088E28093300296
:1054300080E48093900081E49FE0909399008093B2
:105440009800809117028F5F803408F08FE380937B
:1054500017020C94052161E085E090E06CC061E0EA
:1054600081E090E068C061E082E090E064C061E0CB
:1054700084E090E060C061E083E090E05CC061E0C7
:105480008EE090E00E9452080E94282D64E670E0B1
:105490000E94BD2C823370F463E081E090E00E94B2
:1054A000520861E084E090E00E94520861E08DE0E3
:1054B00090E01DC0803570F462E08AE090E00E94C8
:1054C000520862E083E090E00E94520862E084E0CB
:1054D00090E00DC061E08EE090E00E94520862E032
:1054E0008CE090E00E94520862E08BE090E00E9425
:1054F00052080E949408882311F40C94052188E234
:105500008093300280E48093900083E690E03FC077
:105510000E949408882361F088E28093300280E43E
:105520008093900082E590E090939900809398009A
:1055300061E08AE090E00E9452080C94052180917D
:1055400026028F5F809326020E949408882311F41C
:105550000C94052188E28093300280E480939000CF
:1055600081E49FE014C080912302882311F40C94FD
:1055700005210E949408882311F40C94052188E7E2
:105580008093300280E48093900083E290E09093D7
:105590009900809398000C9405218AE00E947E1364
:1055A000882311F40C94052181E70E94960F01E0F5
:1055B00010E0813011F000E010E089E60E94960FC3
:1055C000813019F080E090E002C082E090E0802B12
:1055D000912B20912502213A38F480FD19C081FDDC
:1055E00002C00C94052102C081FF0EC061E08DE075
:1055F00090E00E940D0880912502282F30E02F3B7B
:105600003105A4F4865F13C080FD02C00C9405210F
:1056100061E08EE090E00E940D0880912502282F25
:1056200030E0213A310514F4885D01C088EC8093A4
:1056300025020C9405218AE00E947E13882311F430
:105640000C94052180E18093200210922202109296
:1056500019028FEF9FEFA0E0B0E080932B029093B0
:105660002C02A0932D02B0932E020C94052188E009
:105670000E947E13882311F40C94052110911702C7
:10568000112311F40C940521BE016F5F7F4FCE01F1
:1056900002960E94771180931A02882311F40C94C9
:1056A00005210981FA8043E0602F8F2D0E94940626
:1056B000E02FF0E0EE0FFF1FEA59FE4F81E090E08F
:1056C00002C0880F991FFA94E2F780959095208187
:1056D000318182239323918380831092230211507E
:1056E000109317020C94052180911C028770B4015D
:1056F000681B71096F5F7F4F06E026E04DEB53E0BA
:10570000C50101960E94641B0C941C22CA9CF001E6
:10571000CB9CF00D1124E955FE4F1150108388E009
:105720008383C7010E94E8100C940123CA9CF001F6
:10573000CB9CF00D1124E955FE4F1F5FEFCF282FB2
:105740002870D22E83FF8BC836E0D32E95C88330C5
:1057500039F492C853E0D52E8FC849E0D42E8CC8B6
:10576000DD808AC8FA013397EB30F10510F00C9414
:105770000521E357FF4F0C94D12CCF92DF92EF928B
:10578000FF920F931F93CF93DF931F92CDB7DEB796
:10579000182F062FE42E862F880F8E5F99830E9484
:1057A000AD1383E00E94AD13F12EC12E9981D92E45
:1057B0008C2D8F19801798F4F601E7FE02C08491B2
:1057C00001C080810E94AD13182F80E00E94AD13AC
:1057D0008123FFEFCF1ADF0A8111EACF01C081E0F8
:1057E0000F90DF91CF911F910F91FF90EF90DF907D
:1057F000CF9008950F931F93CF93DF938C0181E097
:1058000090E00E94942D80FF32C08AE090E00E94D8
:10581000942D9FEF980F9E3F50F522E330E0D80182
:1058200050963C932E931F9728E330E052963C937A
:105830002E935197CBE0D0E0D801ED91FC910190EF
:10584000F081E02D682FC8010995CE010E94942DAA
:105850002196C131D10581F780E00E945E1A88EE61
:1058600093E0DF91CF911F910F910C94D218DF91AB
:10587000CF911F910F91089504970C94FA2B70E02B
:1058800023E0829FC0011124EBE1F2E027E030E049
:10589000082E02C0220F331F0A94E2F7209530959C
:1058A000448555852423352302C0660F771F8A95CA
:1058B000E2F7622B732B758764870895E1E4F7E0C4
:1058C0001382128288EE93E0A0E0B0E08483958397
:1058D000A683B7838FE191E0918380838FEF9FEF61
:1058E00095878487E1E9F7E0138212821186128698
:1058F00080E183871086178215868FE291E091837D
:10590000808389E391E095838483108A1786128AC5
:10591000118A81E0838B148A858B168A0895991BDE
:1059200079E004C0991F961708F0961B881F7A9596
:10593000C9F78095089587FB082E062687FD819577
:1059400067FD61950E948F2C0EF4919507FC81955F
:105950000895AA1BBB1B51E107C0AA1FBB1FA617B6
:10596000B70710F0A61BB70B881F991F5A95A9F708
:1059700080959095BC01CD01089597FB072E16F4F4
:10598000009407D077FD09D00E94A92C07FC05D010
:105990003EF4909581959F4F0895709561957F4F46
:1059A0000895EE0FFF1F0590F491E02D099481E01A
:1059B00090E0F8940C940D2E8F929F92AF92BF922C
:1059C000CF92DF92EF92FF92CF93DF93EC01688149
:1059D00079818A819B81611571058105910521F489
:1059E00064E279ED8BE597E02DE133EF41E050E0A3
:1059F0000E94AA2D49015A019B01AC01A7EAB1E41A
:105A00000E94C92D6B017C01ACEEB4EFA50194019D
:105A10000E94D72DDC01CB018C0D9D1DAE1DBF1D3D
:105A2000B7FF03C00197A109B04888839983AA836F
:105A3000BB839F77DF91CF91FF90EF90DF90CF9066
:105A4000BF90AF909F908F9008950E94DC2C089596
:105A50008CE091E00E94DC2C0895A0E0B0E08093FF
:105A60000C0190930D01A0930E01B0930F010895C6
:105A70008F929F92AF92BF92CF92DF92EF92FF925E
:105A8000CF93DF93EC01688179818A819B816115D5
:105A900071058105910521F464E279ED8BE597E0CC
:105AA0002DE133EF41E050E00E94AA2D49015A0157
:105AB0009B01AC01A7EAB1E40E94C92D6B017C01F6
:105AC000ACEEB4EFA50194010E94D72DDC01CB010F
:105AD0008C0D9D1DAE1DBF1DB7FF03C00197A10911
