:100000000C9496030C94BE030C94BE030C94BE0394
:100010000C94BE030C94BE030C94BE030C94BE035C
:100020000C94BE030C94BE030C941F050C94910514
:100030000C94BE030C94BE030C94BE030C94BE033C
:100040000C94BE030C94BE030C94BE030C94BE032C
:100050000C94BE030C94BE030C94BE030C948D0B45
:100060000C94BE030C94BE030C94BE030C94BE030C
:100070000C94BE030C94BE030C94BE030C94BE03FC
:100080000C94BE030C94BE030C94BE030C94BE03EC
:100090000C94BE030C94BE030C94BE030C94BE03DC
:1000A0000C94BE030C94BE030C94BE03F0F89C8E1B
:1000B0008783878E9CF8F00000FEFF030303030391
:1000C000070EFCF80000FEFF0303030303070EFC0A
:1000D000F80000FFFF00000000000000FFFF00002C
:1000E000FEFF8383838383C7EE7C380000F8FC0E19
:1000F00007030303070EFCF800003F7FE0C0808089
:10010000C0E07F3FFFFF01010101010101FFFF008E
:1001100000FFFF0C0C0C0C1C3E77E3C100007FFFBE
:10012000C0C0C0C0C0E0703F1F00001F3F70E0C0F3
:10013000C0C0E0703F1F00007FFFC1C1C1C1C1E36B
:10014000773E1C00001F3F70E0C0C0C0E0703F1F42
:10015000000000000001FFFF01000000D5F08D1439
:10016000A1C881CFD9F1AF2000101000808000001D
:1001700080C0C0C0C0C0C0C0C0C080070E1CFCBED4
:100180003F3F7EFFFF5F5F5F5F1F1F1010C00000DB
:100190000000FEFFFDFFFFBFBFBFBF3F3E070F1EBA
:1001A000FCBE3F1F3FFF840C0000000000080B0056
:1001B00002020201000904000001020200000524FD
:1001C0000010010524010101042402060524060093
:1001D000010705810310004009040100020A000024
:1001E00000070502024000000705830240000004EA
:1001F00003090412010002EF02014041233680008E
:10020000010102030141726475696E6F204C4C4319
:100210000041726475696E6F204C656F6E61726427
:100220006F0000000000003E5B4F5B3E3E6B4F6B7B
:100230003E1C3E7C3E1C183C7E3C181C577D571CC7
:100240001C5E7F5E1C00183C1800FFE7C3E7FF0040
:1002500018241800FFE7DBE7FF30483A060E26298E
:10026000792926407F050507407F05253F5A3CE751
:100270003C5A7F3E1C1C08081C1C3E7F14227F2217
:10028000145F5F005F5F06097F017F006689956AE2
:10029000606060606094A2FFA29408047E0408106D
:1002A000207E201008082A1C08081C2A08081E1096
:1002B0001010100C1E0C1E0C30383E3830060E3E4E
:1002C0000E06000000000000005F000000070007AD
:1002D00000147F147F14242A7F2A122313086462D7
:1002E00036495620500008070300001C2241000038
:1002F00041221C002A1C7F1C2A08083E0808008096
:10030000703000080808080800006060002010082D
:1003100004023E5149453E00427F4000724949492E
:10032000462141494D331814127F10274545453960
:100330003C4A494931412111090736494949364664
:100340004949291E00001400000040340000000844
:1003500014224114141414140041221408020159E7
:1003600009063E415D594E7C1211127C7F49494974
:10037000363E414141227F4141413E7F4949494109
:100380007F090909013E414151737F0808087F0038
:10039000417F41002040413F017F081422417F40BE
:1003A0004040407F021C027F7F0408107F3E414195
:1003B000413E7F090909063E4151215E7F09192905
:1003C00046264949493203017F01033F4040403FEF
:1003D0001F2040201F3F4038403F63140814630330
:1003E000047804036159494D43007F4141410204AF
:1003F000081020004141417F0402010204404040B6
:100400004040000307080020545478407F284444AB
:10041000383844444428384444287F3854545418C5
:1004200000087E090218A4A49C787F0804047800C0
:10043000447D40002040403D007F102844000041A2
:100440007F40007C047804787C08040478384444B5
:100450004438FC1824241818242418FC7C080404AC
:1004600008485454542404043F44243C4040207C15
:100470001C2040201C3C4030403C44281028444C68
:100480009090907C4464544C440008364100000035
:10049000770000004136080002010204023C2623D6
:1004A000263C1EA1A161123A4040207A385454558E
:1004B000592155557941215454784121555478405A
:1004C00020545579400C1E527212395555555939E0
:1004D0005454545939555454580000457C41000235
:1004E000457D420001457C40F0292429F0F0282573
:1004F00028F07C545545002054547C547C0A097FD4
:100500004932494949323248484832324A484830EB
:100510003A4141217A3A42402078009DA0A07D399D
:10052000444444393D4040403D3C24FF2424487E1F
:100530004943662B2FFC2F2BFF0929F620C0887E0C
:10054000090320545479410000447D413048484A11
:1005500032384040227A007A0A0A727D0D19317DC4
:100560002629292F28262929292630484D40203898
:100570000808080808080808382F10C8ACBA2F1057
:100580002834FA00007B000008142A142222142ABE
:1005900014089500220095AA005500AAAA55AA554C
:1005A000AA000000FF00101010FF00141414FF0038
:1005B0001010FF00FF1010F010F0141414FC0014C1
:1005C00014F700FF0000FF00FF1414F404FC1414DF
:1005D00017101F10101F101F1414141F00101010DC
:1005E000F0000000001F101010101F10101010F06D
:1005F00010000000FF101010101010101010FF104D
:10060000000000FF140000FF00FF00001F10170093
:1006100000FC04F414141710171414F404F400006C
:10062000FF00F714141414141414F700F71414141E
:10063000171410101F101F141414F4141010F010BD
:10064000F000001F101F0000001F14000000FC1429
:100650000000F010F01010FF10FF141414FF14101D
:1006600010101F00000000F010FFFFFFFFFFF0F070
:10067000F0F0F0FFFFFF0000000000FFFF0F0F0F82
:100680000F0F38444438447C2A2A3E147E02020666
:1006900006027E027E0263554941633844443C04AD
:1006A000407E201E2006027E020299A5E7A5991C25
:1006B0002A492A1C4C7201724C304A4D4D30304848
:1006C000784830BC625A463D3E494949007E0101A6
:1006D000017E2A2A2A2A2A44445F444440514A443B
:1006E0004040444A51400000FF0103E080FF000009
:1006F00008086B6B083612362436060F090F060001
:100700000018180000001010003040FF0101001F09
:1007100001011E00191D1712003C3C3C3C0000006A
:1007200000000102040810204080241411241FBE80
:10073000CFEFDAE0DEBFCDBF11E0A0E0B1E0E6EA46
:10074000F2E302C005900D92AC3EB107D9F726E066
:10075000ACEEB1E001C01D92A539B207E1F713E09C
:10076000C6E9D3E004C02197FE010E943F17C539B6
:10077000D107C9F70E94DD0D0C9451190C940000AB
:10078000CF93DF931F92CDB7DEB76983DC01ED9184
:10079000FC910280F381E02D41E050E0BE016F5FEB
:1007A0007F4F09950F90DF91CF91089583E080935B
:1007B000E9008091F200882319F08AE38093E80031
:1007C0000895FC018485958597FD0BC09FB7F8942B
:1007D00082E08093E9008091F2009FBF90E0019653
:1007E00008959FB7F89482E08093E9008091F20029
:1007F0009FBF90E008958F929F92AF92BF92CF9249
:10080000DF92EF92FF920F931F93CF93DF935C01E0
:100810006B017A0180912501882309F45BC08091E6
:100820001102882309F456C080910E0280FF05C092
:100830008091E00082608093E000E70110E00AEF21
:1008400083E0882E9AE3992E2097D9F10E94A60979
:1008500081110AC0015009F43DC061E070E080E000
:1008600090E00E94530BF0CF282F30E0C217D3073F
:100870000CF48C2F4FB7F8948092E9009091E80027
:1008800095FF1DC0282F30E0C21BD30BF601982F17
:10089000915020F081918093F100FACFC20ED31EC7
:1008A000112319F09092E80009C08091E80085FDBD
:1008B00006C09092E80011E0209709F010E04FBFC9
:1008C000C3CF1111C3CF5D9884E680930F021E142D
:1008D0001F0444F081E090E0F5019383828380E07F
:1008E00090E001C0C701DF91CF911F910F91FF9060
:1008F000EF90DF90CF90BF90AF909F908F90089532
:100900000E94A60990E00895CF93DF931F92CDB780
:10091000DEB7FC018485958597FD05C02FEF3FEF7D
:10092000358724870BC0CE0101960E947C09019770
:1009300019F4898190E002C08FEF9FEF0F90DF9153
:10094000CF9108950F931F93CF93DF931F92CDB74D
:10095000DEB78C01FC018485958597FF0EC0CE0122
:1009600001960E947C09019719F4298130E002C0A8
:100970002FEF3FEFF80135872487F80184859585AF
:100980000F90DF91CF911F910F910895DF92EF9219
:10099000FF920F931F93CF93DF93D82E8A017B0191
:1009A000E40EF51EEB01CE15DF0571F0D7FE03C096
:1009B000FE01849101C088810E94A20D21968111BF
:1009C000F2CF8FEF9FEF01C0C801DF91CF911F9150
:1009D0000F91FF90EF90DF9008950F931F93CF93A7
:1009E000DF931F92CDB7DEB782E0898342E450E007
:1009F0006DEA71E080E80E94C6040E94B709DC013C
:100A000012960D911C9113970115110569F0D801EB
:100A1000ED91FC910280F381E02DBE016F5F7F4F6D
:100A2000C801099597FF07C089810F90DF91CF9189
:100A30001F910F910895F80100851185E5CF1F9250
:100A40000F920FB60F9211248F939F938091E10024
:100A50009091E100937F9093E10083FF0FC010928B
:100A6000E90091E09093EB001092EC0092E39093F8
:100A7000ED001092110298E09093F00082FF20C0E8
:100A800093E09093E9009091F200992319F09AE392
:100A90009093E80090910F02992339F090910F0202
:100AA000915090930F02992389F19091100299230C
:100AB00039F090911002915090931002992341F1D6
:100AC00084FF10C08091E2008E7E81608093E200FE
:100AD0008091E1008F7E8093E10080910E028E7EF6
:100AE000806111C080FF16C08091E2008E7E80611F
:100AF0008093E2008091E1008E7E8093E1008091FE
:100B00000E028E7E816080930E0204C05D9ACDCF6E
:100B1000289AD6CF9F918F910F900FBE0F901F9064
:100B200018951F920F920FB60F921124CF92DF9259
:100B3000EF92FF920F931F932F933F934F935F93E7
:100B40006F937F938F939F93AF93BF93EF93FF9395
:100B5000CF93DF93CDB7DEB76C97DEBFCDBF1092DA
:100B6000E9008091E80083FFEDC168E0CE01459681
:100B70000E94D00D82EF8093E8008D8987FF05C029
:100B80009091E80090FFFCCF03C09EEF9093E800A7
:100B9000982F907609F0C6C09E892F89188D9111E3
:100BA0000CC0803829F480910D028093F10002C0BE
:100BB0001092F1001092F10048C1422F50E0512BE9
:100BC000913051F4811141C14130510509F03DC1CD
:100BD00080910D028D7F0BC0933061F4811135C17E
:100BE0004130510509F031C180910D02826080933E
:100BF0000D022BC1953041F48091E80080FFFCCFBD
:100C000020682093E30021C1963009F05FC0EB8C8F
:100C1000FC8C1092E90010920B0210920A02123022
:100C200091F510920902109208020E94ED0499E0D9
:100C3000BE016F5F7F4FDB01E92F1D92EA95E9F757
:100C400099831A8391E09E8390EA98879AEF998717
:100C500020910A0230910B02275F3F4F3C832B8388
:100C60008D831092E90010920B0210920A02F0920A
:100C70000902E092080249E050E080E00E94C604C8
:100C80000E94ED04E2C0F0920902E09208020E9484
:100C9000B709DC011296ED90FC901397E114F10472
:100CA00009F4C0C0D701ED91FC910480F581E02DDD
:100CB000BE016B5E7F4FC7010995009719F00CF0DC
:100CC000C4C0C7C0F701E084F184E8CF973009F4CD
:100CD000C0C0983021F481E08093F100B6C0993013
:100CE00009F0B3C0837009F0B4C0E1E3F1E081E042
:100CF00021E036E39081992361F08093E90020930D
:100D0000EB0091919093EC003093ED008F5F873072
:100D100089F78EE78093EA001092EA008F8980932A
:100D2000110293C08B8D9C8D1092E90010920B02E2
:100D300010920A029093090280930802898D811112
:100D400056C08E899D89913A59F4813209F081C04B
:100D500047E050E06EE171E080E00E94C60475C09B
:100D6000913209F076C0833289F4888D90E0982F13
:100D700088272F89822BA0E0B0E080931A019093FE
:100D80001B01A0931C01B0931D015FC0803269F468
:100D90008091E80082FFFCCF67E08EE191E00E9445
:100DA000D00D8BEF8093E80006C0823209F04DC071
:100DB0008F898093250180910C02882319F0EEEF32
:100DC000FAE002C0E0E0F8E080911E0190911F017E
:100DD000A0912001B0912101803B9440A105B10573
:100DE00009F07BC08091250180FF93C076C00E94EE
:100DF000B709DC0112960D911C911397011511058D
:100E000041F1D801ED91FC910190F081E02DBE01FE
:100E10006B5E7F4FC8010995811117C0F8010085ED
:100E20001185ECCF113009F44EC0133091F48F8945
:100E3000882309F445C0823081F440E860E181E113
:100E400092E00E94E713882321F08EEF8093E80060
:100E500079C081E28093EB0075C0813029F440E8CD
:100E60006BE085E092E0EDCF833099F70E94B709FF
:100E7000DC011296ED90FC9013978E010F5F1F4FCF
:100E80006801E114F10479F0D701ED91FC9106803D
:100E9000F781E02DB801C7010995080F111DF70171
:100EA000E084F184EECFD8011C92F601019000207D
:100EB000E9F73197BF016C197D0940E0C601C1CF48
:100EC0006FEE71E002C063EF71E06115710509F228
:100ED000FB01449150E080E840CF0FB6F894A8950C
:100EE00080916000886180936000109260000FBE66
:100EF000A895EE3F2AE0F20739F08091FE0A909122
:100F0000FF0A91838083A1CF1092FF0A1092FE0AFC
:100F10009CCFEE3F8AE0F80731F080819181909379
:100F2000FF0A8093FE0A87E797E7918380839BE01F
:100F300088E10FB6F894A895809360000FBE909357
:100F4000600083CF6C960FB6F894DEBF0FBECDBFA6
:100F5000DF91CF91FF91EF91BF91AF919F918F91D1
:100F60007F916F915F914F913F912F911F910F91C1
:100F7000FF90EF90DF90CF900F900FBE0F901F90DB
:100F800018950F931F93CF93DF93809164008E7F0A
:100F90008093640080917A00806480937A008091CD
:100FA0007A0086FDFCCFC0917800D09179000E9434
:100FB0002E0B8E0120E030E0980111270027600FF2
:100FC000711F821F931F611571058105910511F035
:100FD0000E94ED1480916400816080936400DF9131
:100FE000CF911F910F91089580E0E2E1F2E081112D
:100FF0008FEF002481938193819381930394D1F7A0
:101000000895EF92FF920F931F93CF93DF937C018C
:101010008B01040F111DEB0177FF10C0C0E0D0E081
:101020000DC0C217D3078CF480E8E816F10428F449
:1010300041E0BE01C7010E940C0C219698010134C9
:1010400011057CF320E430E0ECCFDF91CF911F91CC
:101050000F91FF90EF900895FC01448155816081CC
:10106000718182E196E00C94CB096F927F929F92FE
:10107000AF92BF92CF92DF92EF92FF920F931F93A6
:10108000CF93DF9300D000D0CDB7DEB7AC01DB014A
:10109000109709F4A9C0FB016491319694919A01CB
:1010A000290F311D121613060CF09EC04034510555
:1010B0000CF09AC09A0157FF04C022273327241B43
:1010C000350B822F87709A0157FF02C0295F3F4F6F
:1010D00073E0359527957A95E1F7722F57FF07C092
:1010E000882329F07FEF720F28E0281B822F462FDC
:1010F00050E0413751051CF021E7922E01C0962E99
:10110000072F072E000C110B7F3F1CF4F02FF095DA
:1011100001C0F0E021E0392F377009F420E0969506
:1011200096959695B22EB90E0B0D111D093011052D
:101130001CF028E0B22EB71A3F2F370F20E83203F9
:1011400080011124015F1F4F1296F69FA00DB11D63
:101150001124E1E0F0E07F01082E02C0EE0CFF1C3C
:101160000A94E2F79FEF9E9D60019F9DD00C112491
:10117000C094D094DC82CB829C812B2D270F321718
:1011800099F1B8016E5E7D4FA12CB12CA91430F5F8
:10119000FD01EA0DFB1DE491EE9D3001EF9D700C09
:1011A00011247A82698237FD07C0FB017080E72D28
:1011B000EC216E2AFB016082882351F0373044F421
:1011C000FB01E058FF4F708079226A807628708298
:1011D000FFEFAF1ABF0A6F5F7F4FD8CF3F5FA40FFB
:1011E000B51F00581F4FCBCF0F900F900F900F904F
:1011F000DF91CF911F910F91FF90EF90DF90CF90F3
:10120000BF90AF909F907F906F900895CF92DF92A4
:10121000EF92FF920F931F93CF93DF9300D000D0F4
:1012200000D0CDB7DEB76B017A0126E0249FB00174
:10123000259F700D1124FC0124813581629FA0013E
:10124000639F500D729F500D112420E830E0241B45
:10125000350B37FF02C02F5F3F4F8901159507956A
:10126000BC01CE0101960E94DB0A980117FF02C063
:1012700020E030E03093290620932806D0922B06F8
:10128000C0922A0681E080932C064E2DE11001C009
:1012900041E040932E0681E080932F06CE01019617
:1012A0000E942C0842E050E068EE71E082E196E096
:1012B0000E94CB0986E196E00E940F0DCE010196B7
:1012C0000E949E0A26960FB6F894DEBF0FBECDBFD1
:1012D000DF91CF911F910F91FF90EF90DF90CF9012
:1012E000089520911C06282329F490911B06982329
:1012F00081E009F480E00895FC01809111028111E0
:1013000003C08FEF9FEF08959FB7F89482E080931A
:10131000E9002091F20030E01216130614F421E0E7
:1013200030E02115310559F0289884E680931002A9
:101330008091F10080838091F200882319F09FBF93
:10134000C90108958BE68093E800F9CF2FB7F89490
:1013500083E08093E9009091E800892F807295FFE7
:1013600004C09091F20080E4891B2FBF0895809102
:10137000340681110DC082E08093300684E08093B2
:101380003106109233061092320681E080933406C3
:1013900080E396E00895CF92DF92EF92FF920F9351
:1013A0001F93CF93DF936C017A018B01C0E0D0E0F3
:1013B000CE15DF0589F0D8016D918D01D601ED9133
:1013C000FC910190F081E02DC6010995892B11F463
:1013D0007E0102C02196ECCFC701DF91CF911F9112
:1013E0000F91FF90EF90DF90CF90089508950895AA
:1013F00080E090E008950E943C190F931F93CF93D3
:10140000DF93EC0188819981009729F02A813B8143
:101410002617370788F48B016F5F7F4F0E94721881
:10142000009761F0998388831B830A832C813D8117
:10143000232B11F4FC01108281E001C080E0DF91D8
:10144000CF911F910F910895EF92FF920F931F93E9
:10145000CF93DF93FC01248135816115710511F46F
:1014600080E019C041155105A9F07B01EC018A010A
:10147000020F131FB8010E94FD09882389F32881F8
:1014800039818C819D81B701820F931F0E944A1977
:101490001D830C8381E0DF91CF911F910F91FF900D
:1014A000EF900895CF93DF93EC01888199810097A5
:1014B00011F00E94DA17198218821D821C821B8289
:1014C0001A82DF91CF910895CF93DF93EC016115DC
:1014D000710561F0FB0101900020E9F73197AF0140
:1014E000461B570B0E94240A811103C0CE010E94A3
:1014F000520ACE01DF91CF910895EF92FF920F93A0
:101500001F93CF93DF93EC017B018A01BA010E9404
:10151000FD09811104C0CE010E94520A07C01D833B
:101520000C83B701888199810E944A19CE01DF910D
:10153000CF911F910F91FF90EF900895FC01808152
:1015400091810C94DA17EF92FF920F931F93CF9330
:10155000DF93CDB7DEB762970FB6F894DEBF0FBE4C
:10156000CDBF8C01CB01F80111821082138212824F
:101570001582148250E09E012F5F3F4F7901B9011F
:101580000E94F614F70101900020E9F73197AF01AE
:101590004E195F09B701C8010E947D0A62960FB615
:1015A000F894DEBF0FBECDBFDF91CF911F910F9199
:1015B000FF90EF900895FB01DC0111961C921E92A2
:1015C00013961C921E92129715961C921E921497B7
:1015D0008617970749F0608171816115710521F0C7
:1015E000448155810C947D0A0895FC01118210827A
:1015F00013821282158214826115710551F0FB016C
:1016000001900020E9F73197AF01461B570B0C946E
:101610007D0A0895CF93DF9300D000D0CDB7DEB719
:10162000611571058105910579F09B01AC01698314
:101630003A834B835C830E94E81429813A814B8171
:101640005C810E94DA1503C060E070E0CB010F906E
:101650000F900F900F90DF91CF9108953FB7F894BE
:1016600080918D0690918E06A0918F06B091900684
:1016700026B5A89B05C02F3F19F00196A11DB11DED
:101680003FBFBA2FA92F982F8827820F911DA11D28
:10169000B11DBC01CD0142E0660F771F881F991F65
:1016A0004A95D1F708958F929F92AF92BF92CF92B1
:1016B000DF92EF92FF926B017C010E942E0B4B0197
:1016C0005C01C114D104E104F104F1F00E942E0B7D
:1016D000DC01CB0188199909AA09BB09883E93400E
:1016E000A105B10570F321E0C21AD108E108F108A3
:1016F00088EE880E83E0981EA11CB11CC114D10491
:10170000E104F10419F7DDCFFF90EF90DF90CF9067
:10171000BF90AF909F908F9008951F920F920FB639
:101720000F9211242F933F938F939F93AF93BF9367
:101730008091EC019091ED01A091EE01B091EF014B
:1017400030918C0623E0230F2D3720F40196A11D44
:10175000B11D05C026E8230F0296A11DB11D2093DF
:101760008C068093EC019093ED01A093EE01B09371
:10177000EF0180918D0690918E06A0918F06B09119
:1017800090060196A11DB11D80938D0690938E0643
:10179000A0938F06B0939006BF91AF919F918F91C8
:1017A0003F912F910F900FBE0F901F9018952D9A7B
:1017B0000895BC0180E090E00C94530B8FB12CB1E4
:1017C00093B130E02095309520743327A90123E0B0
:1017D000559547952A95E1F7292F30E020953095CA
:1017E000207133273595279535952795242B80959E
:1017F000807F822B089583B7817F83BF83B7816009
:1018000083BF889583B78E7F83BF08958EBD000008
:101810000DB407FEFDCF0895E2E2F7E090E1969F58
:10182000D001A0781124A80F6770E60FF11D9491E4
:10183000AE5EBD4F442319F08C91982B03C0909558
:101840008C9198239C9308952F923F924F925F9290
:101850006F927F928F929F92AF92BF92CF92DF92C0
:10186000EF92FF920F931F93CF93DF93CDB7DEB725
:1018700027970FB6F894DEBF0FBECDBFFC016A30CC
:1018800069F4248D808D918D38E0239F800D911D0A
:101890001124918F808F178A168AA6C06D3009F4A3
:1018A000A3C09F838E83348C238D2983328D3A830A
:1018B000608C718CE688F78880E8E816F104C4F043
:1018C000AE81BF815C962C915C97422F50E056967A
:1018D0008D919C915797B6E02B9F800D911D1124FF
:1018E000EE81FF81978B868B258D211167C07CC08F
:1018F000F0E46F16710424F7C70125E0329E800DD5
:10190000911D112418161906DCF6432C512CC30125
:1019100038E0339E800D911D11241816190684F6A7
:1019200085E0689F800111240E5D1D4F20E0F801C5
:101930002490253009F4212C430158E020FC02C0FA
:10194000398101C03A8131110BC0F9818A81F813C4
:1019500007C026945150840C951C5111EFCF25C01F
:1019600067018C2D8E198315A0F754018A2D8819D3
:101970008315B8F490E8C916D10478F4A0E4AA1647
:10198000B10458F4432FB501C6012C833B835D831A
:101990000E940C0C5D813B812C81BFEFAB1ABB0A0E
:1019A000E5CFEFEFCE1ADE0ADCCF2F5FE40CF51C9B
:1019B0000F5F1F4F263009F0BACF82CF6AEF640362
:1019C0009001659F300D112420583F4F281739078B
:1019D0005CF4AE81BF81ED91FC9111970190F08193
:1019E000E02D6AE0CD01099581E090E027960FB6E1
:1019F000F894DEBF0FBECDBFDF91CF911F910F9145
:101A0000FF90EF90DF90CF90BF90AF909F908F901E
:101A10007F906F905F904F903F902F9008958091AE
:101A200012028EBDE3E1F2E081910DB407FEFDCF1D
:101A30008EBD86E0E231F807B9F70DB407FEFDCFA1
:101A40000895CF92DF92EF92FF920F931F93CF935F
:101A5000DF930E94C1078AE890E090930B01809386
:101A60000A0184EE90E090930D0180930C018EE3C7
:101A700091E090930F0180930E0188E991E090939B
:101A800011018093100184EF91E0909313018093F2
:101A90001201C0E0D1E000EF11E065E070E080E00D
:101AA00090E00E940A0B6B017C0164E670E080E02C
:101AB00090E00E940A0BDC01CB014E96A11DB11DE6
:101AC0002AE0C20ED11CE11CF11C8C9D90018D9D61
:101AD000300D9C9D300D11242993399364E070E002
:101AE00080E090E00E940A0BDC01CB018296A11DF0
:101AF000B11DF801819391938F01F1E0CA30DF07A6
:101B000061F61092FF011092FE011092FB011092FB
:101B1000FA011092FD011092FC0185E090E0909393
:101B200019018093180181E090E090930102809365
:101B30000002DF91CF911F910F91FF90EF90DF9006
:101B4000CF90089540910A0250910B022091080213
:101B50003091090242175307B4F49091E800957050
:101B6000E1F39091E80092FD19C08093F10080911B
:101B70000A0290910B0201968F739927892B19F411
:101B80008EEF8093E80080910A0290910B020196FB
:101B900090930B0280930A0281E0089580E00895FB
:101BA000615030F02091F100FC0120830196F8CFC4
:101BB000289884E6809310020895CF93DF93CDB7E1
:101BC000DEB76E970FB6F894DEBF0FBECDBF789428
:101BD00084B5826084BD84B5816084BD85B5826032
:101BE00085BD85B5816085BD80916E0081608093E3
:101BF0006E0010928100809181008260809381004C
:101C0000809181008160809381008091800081605B
:101C100080938000809191008260809391008091F8
:101C20009100816080939100809190008160809309
:101C300090008091C10084608093C1008091C100B8
:101C400082608093C1008091C10081608093C10057
:101C50008091C30081608093C3008091C000826046
:101C60008093C0008091C20081608093C200809107
:101C70007A00846080937A0080917A0082608093F9
:101C80007A0080917A00816080937A0080917A0056
:101C9000806880937A001092110210920D021092C7
:101CA0000E028091D70081608093D70080EA8093F4
:101CB000D80089B5806189BD89B5826089BD09B4C4
:101CC00000FEFDCF61E070E080E090E00E94530BE9
:101CD0008091D8008F7C80618093D8008091E00053
:101CE000807F8093E0008091E1008E7E8093E10010
:101CF0008DE08093E200559A209AEEEFFFE7859100
:101D000094918B3F9C4D19F481E080930C0281ECFF
:101D100080937C0085B1806F85B9249884B1866EEC
:101D200084B95E9A5F988AB1806D8AB9769A6E9806
:101D300081B3806F81BB899880B38D7080BB80E553
:101D40008CBD81E08DBD85E090E00E94D90B5F9A4B
:101D500085E090E00E94D90B5E985C980CE511E05C
:101D60007DE0F72EF00EF80184910E94060C0F5FC3
:101D70001F4FF012F8CF5C9A81E88093640081E0F5
:101D80008093650000E014E080E00E94060C0150A2
:101D90001109D1F70E94DE0B87FF1FC05C9885EA0E
:101DA0000E94060C5C9A2E982F982D9880916400C2
:101DB0008062809364000E94FB0BFDCF2D980E94EF
:101DC000DE0B8478843871F00E94DE0B84718431DC
:101DD00031F188EC90E00E94D90B0E94DE0B82FD6D
:101DE000EDCF3AC00E94D70B88EC90E00E94D90B4F
:101DF0002F9882E090E00E94C4158F3F29F06FEF8A
:101E000082E090E00E94CC1584EF91E00E94D90B13
:101E10002F9A0E94DE0B84788438D9F3D5CF0E94A4
:101E2000D70B88EC90E00E94D90B2E9882E090E0CE
:101E30000E94C415882329F060E082E090E00E94AF
:101E4000CC1584EF91E00E94D90B2E9A0E94DE0BF4
:101E500084718431D9F3BDCF0E94D70B82E090E02A
:101E60000E94C415882331F03E9A3F9A81E0809306
:101E7000020204C0109202023E983F982E980EEE85
:101E80001FEF68E0A62EB12C0E94DE0B86FF04C077
:101E90002E9A2F9A2D9A8EC00C3FFFEF1F0719F430
:101EA0002E9A2F9805C00831110511F42F9A2D98FC
:101EB0000E94F407003F2FEF120794F486E196E0AA
:101EC0000E940F0D8BE190E00E94D90B003F3FEF85
:101ED000130709F059C08AEF90E00E94D90B54C053
:101EE000980117FF04C022273327201B310B2770CE
:101EF0003327C80117FD079653E0959587955A95A6
:101F0000E1F717FF05C00197A501421B530B9A018A
:101F10007C01F694FE2CEE24F794E79460E070E0E8
:101F20003501621A730AF701E058FF4F4F018F3FE6
:101F3000FFEF9F0744F40196685A7F4F7401603B9E
:101F4000710589F7BBCFD701AA55BD4F40E050E0DE
:101F50008F3FEFEF9E0709F414C4FA01E60FF71F55
:101F6000E455FF4FE4916D01C818D908CE0CDF1C71
:101F7000F0E01F01022E01C0220C0A94EAF7F601DC
:101F8000508025282082FDC30F5F1F4F09311105A6
:101F900009F07ACF8CEB92E00E94D90B0E94D70B0C
:101FA000E0911606F09117060190F081E02D86E190
:101FB00096E0099582E390E00E94D90B0E94DE0B27
:101FC0008111F8CF0E94F40710922B0610922A0676
:101FD00010922906109228060E94C10784E180937E
:101FE0001D0682E192E0F0E8F80FF98F82E995E0B2
:101FF00020E8280F2A8F9DEC492E9CEC592E652C49
:102000009DEB792E812C912C20E4A22E20ECB22E77
:102010002FB7F8948091EC019091ED01A091EE0121
:10202000B091EF012FBF409122065091230660919D
:1020300024067091250620912606222341F0209146
:102040001E06821B809327061092260692C38417D1
:102050009507A607B70738F4481B423008F489C330
:102060000E94FB0B86C321E02093260680931E0668
:1020700090931F06A0932006B093210620911D0681
:10208000820F911DA11DB11D8093220690932306FE
:10209000A0932406B09325068091190690911A0604
:1020A000019690931A068093190680911B068093DF
:1020B0001C060E94DE0B80931B068091000290910B
:1020C00001028130910509F457C01CF4892B49F0B5
:1020D00050C38230910509F44EC2039709F40EC330
:1020E00048C36DE571E0CE0101960E94F50A42E019
:1020F00050E064E170E0CE0101960E940609CE0135
:1021000001960E949E0A66E671E0CE0101960E9449
:10211000F50A41E050E06DE270E0CE0101960E94C8
:102120000609CE0101960E949E0A62E771E0CE0187
:1021300001960E94F50A41E050E067E370E0CE01AD
:1021400001960E940609CE0101960E949E0A88E02F
:102150000E94710981110E94210D84E00E94710981
:10216000882309F406C30E94F40783E090E090936B
:10217000010280930002FDC22091FA013091FB011F
:102180002F5F3F4F3093FB012093FA01C90162E3B7
:1021900070E00E941717892B49F48091FE019091FD
:1021A000FF0101969093FF018093FE016091180159
:1021B00070911901C9010E941717892B49F4809168
:1021C000FC019091FD0101969093FD018093FC012B
:1021D000C9016EEE72E00E941717892B09F041C009
:1021E00062E070E080E090E00E940A0B009116012E
:1021F00010911701012E000C220B330BDC01CB01D7
:10220000800F911FA21FB31F909317018093160197
:10221000009118011091190162E070E080E090E0F7
:102220000E940A0BDC01CB010196A11DB11DA80182
:10223000481B590BCA0150931901409318011816F5
:1022400019067CF065E070E080E090E00E940A0BE7
:10225000DC01CB010196A11DB11D90931901809362
:1022600018010E94F4072DEC3CEC4CE45EE3609115
:1022700004027091050280910602909107020E946B
:1022800075169B01AC016093040270930502809364
:102290000602909307026091140170911501072EB8
:1022A000000C880B990B2D8F3E8F4B8F5C8F0E94FB
:1022B00038152D8D3E8D4B8D5C8D0E9475160E94BC
:1022C000E1168B0170931501609314010E94DE0BDF
:1022D00083FF04C00F3111050CF06EC20E94DE0BAB
:1022E00083FD0AC003321105C4F00E94DE0B91E0A9
:1022F00082FF90E0909303020532110574F084E2AE
:1023000090E0909315018093140140920402509242
:102310000502609206027092070200E010E041E4BC
:1023200064E370E0C8010E9401080F5F1F4F01388D
:102330001105A9F7209103028091140190911501D4
:1023400021110FC06BE871E00E94350820EF31E0E9
:102350003C8B2B8B00E011E08AE0282E81E0382EA8
:1023600003C069E671E0F0CFF101808191810197AE
:1023700091838083F801208131812150310931839B
:102380002083873F9F4FA4F467E070E080E090E0F7
:102390000E940A0BDC01CB010196A11DB11D4AE888
:1023A000489F9001499F300D1124F1013183208312
:1023B000F80180819181873F9F4FA4F46EE170E026
:1023C00080E090E00E940A0BDC01CB018896A11D01
:1023D000B11D44E1489F9001499F300D1124F8013F
:1023E00031832083F101E190F1901F01F88EEF8A93
:1023F0006701F4E0CF0ED11CEC14FD0451F047E06E
:102400006DE270E0C7010E9401082FEFE21AF20AA4
:10241000F3CFEB89FC8921913191FC8BEB8BF80197
:10242000E190F1908F01FE8AED8A6701F7E0CF0E0F
:10243000D11CEC14FD0469F044E0B901C7012D8FF3
:102440003E8F0E9401084FEFE41AF40A3E8D2D8D55
:10245000F0CF8F89988D40970C97C8F48091140124
:10246000909115014F979CF082E090E090930102CB
:102470008093000286E196E00E940F0D68EE73E003
:1024800080E090E00E94530B0E94F40772C18D8996
:102490009E8940970E9760F480910302811108C0D5
:1024A0008091140190911501409682179307E4F6EC
:1024B00051E00A30150709F057CF02E010E0109301
:1024C00029060093280610932B0600932A0681E024
:1024D00080932E066091FC017091FD014AE0CE01CF
:1024E00001960E94A30ACE0101960E942C08CE01FB
:1024F00001960E949E0A10932906009328068AE0FE
:1025000090E090932B0680932A066091FE017091D3
:10251000FF014AE0CE0101960E94A30ACE01019676
:102520000E942C08CE0101960E949E0AE2E1F2E090
:10253000898D8E1721F0808181608193F9CFE2E946
:10254000F5E09A8D9E1721F0808180688193F9CF04
:1025500040E460E070E080E090E00E94010840E428
:1025600060E070E08FE790E00E94010886E196E06D
:102570000E940F0DFEC060E871E0CE0101960E943E
:10258000F50A42E050E069E170E0CE0101960E9458
:102590000609CE0101960E949E0A6091FE0170918B
:1025A000FF014AE0CE0107960E94A30A69E871E0A4
:1025B000CE010D960E94F50A4B855C856F8178856A
:1025C000CE010D960E94240A811104C0CE010D9601
:1025D0000E94520A64E971E0CE010D960E94640ADD
:1025E000BC01CE0101960E94DB0A41E050E065E0AB
:1025F00070E0CE0101960E940609CE0101960E946C
:102600009E0ACE010D960E949E0ACE0107960E9458
:102610009E0A6091FC017091FD014AE0CE0107968F
:102620000E94A30A6DE971E0CE010D960E94F50AA1
:102630004B855C856F817885CE010D960E94240ABA
:10264000811104C0CE010D960E94520A66EA71E023
:10265000CE010D960E94640ABC01CE0101960E9433
:10266000DB0A41E050E06FE070E0CE0101960E948D
:102670000609CE0101960E949E0ACE010D960E9487
:102680009E0ACE0107960E949E0A6DEA71E0CE0175
:1026900001960E94F50A41E050E06DE270E0CE0143
:1026A00001960E940609CE0101960E949E0A6AEBDD
:1026B00071E0CE0101960E94F50A41E050E067E327
:1026C00070E0CE0101960E940609CE0101960E949B
:1026D0009E0A84E00E947109882339F00E94F40761
:1026E000109201021092000244C088E00E94710919
:1026F000882309F43EC00E94210D3BC066EC71E0C6
:10270000CE0101960E94F50A42E050E065E070E0DB
:10271000CE0101960E940609CE0101960E949E0AF2
:102720006EEC71E0CE0101960E94F50A41E050E0A6
:102730006EE170E0CE0101960E940609CE0101967D
:102740000E949E0A6DED71E0CE0101960E94F50A8D
:1027500041E050E068E270E0CE0101960E94060977
:10276000CE0101960E949E0A84E00E9471098111A7
:10277000B5CF80E090E0892B09F44ACC0E9400009C
:1027800047CC2115310581F0FA01E60FF71FE4551A
:10279000FF4FE491F0E0062C02C0F595E7950A940E
:1027A000E2F7DC90ED29EC934F5F5F4F11964835CF
:1027B000510509F0CDCBBFCB809204029092050267
:1027C000A0920602B09207021092030287CDCF9228
:1027D000DF92EF92FF920F931F93CF93DF931F929D
:1027E000CDB7DEB7182F062FE42E862F880F8E5F09
:1027F00099830E94A20D83E00E94A20DF12EC12EAA
:102800009981D92E8C2D8F19801798F4F601E7FE47
:1028100002C0849101C080810E94A20D182F80E027
:102820000E94A20D8123FFEFCF1ADF0A8111EACFA8
:1028300001C081E00F90DF91CF911F910F91FF9028
:10284000EF90DF90CF900895ECE3F6E013821282D0
:1028500088EE93E0A0E0B0E084839583A683B783FD
:102860008BE391E0918380838FEF9FEF958784873F
:10287000E2E1F6E0138212821186128620E12387BC
:1028800090878783108A118A128A138A148A8DE4AA
:1028900091E0918380838BE591E095838483178A0F
:1028A000168A118E108E81E0828F138E848F158E82
:1028B00008950F931F93CF93DF93EC0181E090E095
:1028C0000E94C41580FF2EC08AE090E00E94C415CB
:1028D0009FEF980F9E3F30F522E330E03F8B2E8B29
:1028E00028E330E0398F288F0BE010E0E881F98190
:1028F0000190F081E02D682FCE010995C8010E945A
:10290000C4150F5F1F4F0131110581F7CE010496E9
:102910000E940F0D88EE93E0DF91CF911F910F91F0
:102920000C94D90BDF91CF911F910F9108950497CB
:102930000C9459148F929F92AF92BF92CF92DF92D4
:10294000EF92FF92CF93DF93EC01688179818A81C6
:102950009B81611571058105910521F464E279ED92
:102960008BE597E02DE133EF41E050E00E94DA156E
:1029700049015A019B01AC01A7EAB1E40E94F91593
:102980006B017C01ACEEB4EFA50194010E94071627
:10299000DC01CB018C0D9D1DAE1DBF1DB7FF03C01B
:1029A0000197A109B04888839983AA83BB83BC019E
:1029B000CD019F77DF91CF91FF90EF90DF90CF9087
:1029C000BF90AF909F908F9008950E949A140895A1
:1029D00086E291E00E949A14089560932601709314
:1029E00027018093280190932901089545325105CC
:1029F00020F4423010F00C940115FB011082CB0141
:102A00000895BB274A3031F4992322F4BDE2909512
:102A100081959F4F0C940D15BB27FB015527AA27C5
:102A2000880F991FAA1FA41710F0A41B839550515B
:102A3000B9F7A05DAA3308F0A95DA193009779F7D3
:102A4000B111B1931192CB010C942615DC01FC015C
:102A5000672F71917723E1F7329704C07C916D93D2
:102A600070836291AE17BF07C8F30895E89409C058
:102A700097FB3EF490958095709561957F4F8F4FB1
:102A80009F4F9923A9F0F92F96E9BB279395F695C7
:102A9000879577956795B795F111F8CFFAF4BB0F45
:102AA00011F460FF1BC06F5F7F4F8F4F9F4F16C0A9
:102AB000882311F096E911C0772321F09EE8872F33
:102AC000762F05C0662371F096E8862F70E060E0EF
:102AD0002AF09A95660F771F881FDAF7880F969568
:102AE000879597F9089597F99F6780E870E060E00F
:102AF00008959FEF80EC089500240A941616170697
:102B000018060906089500240A94121613061406DE
:102B100005060895092E0394000C11F4882352F041
:102B2000BB0F40F4BF2B11F460FF04C06F5F7F4FF9
:102B30008F4F9F4F089557FD9058440F551F59F0E0
:102B40005F3F71F04795880F97FB991F61F09F3F9A
:102B500079F087950895121613061406551FF2CFC3
:102B60004695F1DF08C0161617061806991FF1CF13
:102B700086957105610508940895E894BB2766273A
:102B80007727CB0197F90895F999FECF92BD81BDC2
:102B9000F89A992780B50895262FF999FECF1FBA84
:102BA00092BD81BD20BD0FB6F894FA9AF99A0FBE76
:102BB00001960895052E97FB1EF400940E94F115CE
:102BC00057FD07D00E94431607FC03D04EF40C9427
:102BD000F11550954095309521953F4F4F4F5F4FE0
:102BE000089590958095709561957F4F8F4F9F4F79
:102BF00008950E946516A59F900DB49F900DA49F07
:102C0000800D911D11240895B7FF0C94F9150E94B1
:102C1000F915821B930B08952F923F924F925F926A
:102C20006F927F928F929F92AF92BF92CF92DF92DC
:102C3000EF92FF920F931F93CF93DF93CDB7DEB741
:102C4000CA1BDB0B0FB6F894DEBF0FBECDBF0994D5
:102C50002A88398848885F846E847D848C849B842C
:102C6000AA84B984C884DF80EE80FD800C811B813A
:102C7000AA81B981CE0FD11D0FB6F894DEBF0FBE69
:102C8000CDBFED010895A1E21A2EAA1BBB1BFD01C9
:102C90000DC0AA1FBB1FEE1FFF1FA217B307E4073B
:102CA000F50720F0A21BB30BE40BF50B661F771F93
:102CB000881F991F1A9469F7609570958095909573
:102CC0009B01AC01BD01CF010895A29FB001B39F4C
:102CD000C001A39F700D811D1124911DB29F700D25
:102CE000811D1124911D08955058BB27AA270E94C9
:102CF0008C160C948A150E947C1538F00E9483155E
:102D000020F039F49F3F19F426F40C9479150EF451
:102D1000E095E7FB0C947315E92F0E949B1558F37F
:102D2000BA17620773078407950720F079F4A6F5B0
:102D30000C94BD150EF4E0950B2EBA2FA02D0B01AF
:102D4000B90190010C01CA01A0011124FF27591BF0
:102D500099F0593F50F4503E68F11A16F040A22FF6
:102D6000232F342F4427585FF3CF46953795279567
:102D7000A795F0405395C9F77EF41F16BA0B620B66
:102D8000730B840BBAF09150A1F0FF0FBB1F661FAD
:102D9000771F881FC2F70EC0BA0F621F731F841FF0
:102DA00048F4879577956795B795F7959E3F08F016
:102DB000B0CF9395880F08F09927EE0F97958795D8
:102DC00008950E94E8166894B1110C94BE150895F8
:102DD0000E94A31588F09F5798F0B92F9927B751F3
:102DE000B0F0E1F0660F771F881F991F1AF0BA95AF
:102DF000C9F714C0B13091F00E94BD15B1E008953B
:102E00000C94BD15672F782F8827B85F39F0B93F2C
:102E1000CCF3869577956795B395D9F73EF4909561
:102E20008095709561957F4F8F4F9F4F089597FBC9
:102E3000072E16F4009407D077FD09D00E942B17B7
:102E400007FC05D03EF4909581959F4F08957095AD
:102E500061957F4F0895AA1BBB1B51E107C0AA1FB4
:102E6000BB1FA617B70710F0A61BB70B881F991F2B
:102E70005A95A9F780959095BC01CD010895EE0F64
:102E8000FF1F0590F491E02D0994CF93DF938230DA
:102E9000910510F482E090E0E0919306F0919406A1
:102EA00020E030E0C0E0D0E0309711F14081518166
:102EB00048175907C0F04817590761F48281938178
:102EC000209719F09B838A832BC09093940680935C
:102ED000930626C02115310519F04217530718F43F
:102EE0009A01BE01DF01EF010280F381E02DDCCF0A
:102EF0002115310509F1281B390B2430310590F4D7
:102F000012968D919C9113976115710521F0FB012B
:102F10009383828304C09093940680939306FD016B
:102F2000329644C0FD01E20FF31F8193919322502A
:102F300031092D933C933AC020919106309192062D
:102F4000232B41F420912C0130912D0130939206D6
:102F50002093910620912A0130912B0121153105F2
:102F600041F42DB73EB740912E0150912F01241B03
:102F7000350BE0919106F0919206E217F307A0F469
:102F80002E1B3F0B2817390778F0AC014E5F5F4FBF
:102F90002417350748F04E0F5F1F50939206409359
:102FA00091068193919302C0E0E0F0E0CF01DF91C0
:102FB000CF9108950F931F93CF93DF93009709F458
:102FC0008CC0FC01329713821282009193061091FB
:102FD00094060115110581F420813181820F931F20
:102FE00020919106309192062817390779F5F093D0
:102FF0009206E093910671C0D80140E050E0AE1710
:10300000BF0750F412962D913C911397AD012115F5
:10301000310509F1D901F3CF9D01DA013383228310
:1030200060817181860F971F8217930769F4EC0105
:1030300028813981260F371F2E5F3F4F3183208330
:103040008A819B8193838283452B29F4F093940694
:10305000E093930642C01396FC93EE931297ED0112
:10306000499159919E01240F351FE217F30771F41E
:1030700080819181840F951F029611969C938E9367
:103080008281938113969C938E931297E0E0F0E0F7
:10309000D80112968D919C911397009719F0F80121
:1030A0008C01F6CF8D919C9198012E5F3F4F820F3E
:1030B000931F20919106309192062817390769F4E1
:1030C000309729F4109294061092930602C013824E
:1030D00012821093920600939106DF91CF911F9177
:1030E0000F910895A0E0B0E0E8E7F8E10C94101625
:1030F000EC01009721F4CB010E944517B8C0FC01F8
:10310000E60FF71F9C0122503109E217F30708F47C
:10311000ACC0D9010D911C91119706171707B0F09B
:103120000530110508F49FC0C8010497861797075A
:1031300008F499C002501109061B170B0193119353
:103140006D937C93CF010E94DA178DC05B01A01AAA
:10315000B10A4C01800E911EA0919306B091940685
:1031600040E050E0E12CF12C109709F44AC0A8157A
:10317000B905D1F56D907C901197630182E0C80E7E
:10318000D11CCA14DB0480F1A3014A195B096A014E
:1031900082E0C80ED11C1296BC9012971396AC9187
:1031A000B5E0CB16D10440F0B282A38351834083B3
:1031B000D9016D937C930AC00E5F1F4FC301800F2E
:1031C000911FF90191838083EB2DFA2FE114F10413
:1031D00031F0D7011396FC93EE93129744C0F0930D
:1031E0009406E09393063FC08D919C9111974817E8
:1031F000590708F4AC017D0112960D90BC91A02DE9
:10320000B3CF809191069091920688159905E1F4CB
:1032100046175707C8F480912A0190912B01009717
:1032200041F48DB79EB740912E0150912F01841B20
:10323000950BE817F907C8F4F0939206E09391060E
:10324000F901718360830FC0CB010E9445177C0197
:10325000009759F0A801BE010E944119CE010E94B9
:10326000DA17C70104C0CE0102C080E090E0CDB7FC
:10327000DEB7EEE00C942C1681E090E0F8940C940C
:103280005119FB01DC0102C001900D9241505040E8
:10329000D8F70895FB01DC0101900D920020E1F7C1
:0632A0000895F894FFCF31
:1032A6008A00E4003E019801F4018A00E4003E0130
:1032B6009801F401280001000500FFFFFFFF00E16F
:1032C60000000000000001000000000095068000DC
:1032D60000C1808100000000000000C003FB0380E5
:1032E60004D603E1038404A20400000000240CCBEE
:1032F60009F809F7095914FCFF0000971444696E90
:103306006F73617572004120546F2053746172743B
:1033160021004220466F722043726564697473000F
:10332600596F752044696564004C6976656420466A
:103336006F722000205365636F6E647300596F755A
:103346002052616E2000206D696C65730041205427
:103356006F2052657374617274004220466F72204A
:103366005469746C6500435245444954530047728E
:10337600696666696E2042726F6F6B73005A6F657D
:0C3386002042726F6F6B73000D0A000094
:00000001FF
