:100000000C940B050C9433050C9433050C943305B8
:100010000C9433050C9433050C9433050C94330580
:100020000C9433050C9433050C94CF0C0C943E0DBA
:100030000C9433050C9433050C9433050C94330560
:100040000C9433050C9433050C9433050C94330550
:100050000C9433050C9433050C9433050C94700FF9
:100060000C9433050C9433050C9433050C94330530
:100070000C9433050C9433050C9433050C94330520
:100080000C9433050C9433050C9433050C94330510
:100090000C9433050C9433050C9433050C94330500
:1000A0000C9433050C9433050C943305AF5A00328D
:1000B0001F64151E000203000000000E0000000671
:1000C0000B07000000050400001000000012000AE9
:1000D000090800000000000000000000000000000F
:1000E0000000000000000000000000000000000010
:1000F0000000000000000000000000000000000000
:1001000013000000000000000000000000000016C6
:1001100014170000010101010101000000000101AC
:1001200015010101C86400641F10093C0523230464
:100130002424242424242424242600000000000055
:1001400024272424272424000000000000000000AD
:1001500026002726002726000000000000000000DF
:100160002B00002C00002B0000000000000000000D
:1001700028000028000028000000000000000028DF
:1001800024252824252824250000000024242424B4
:10019000242424242424242424000000C8640032BD
:1001A0001F641528000203000000000E0000000676
:1001B0000B07000000050400001000000012000AF8
:1001C000090800000000000E0000000E0000000002
:1001D0000000000000000000000000000000000E11
:1001E000000000000000000000000000000000000F
:1001F00013000000000000130000000000000016C3
:1002000014170000010101150101000000000101A7
:1002100015010101646400321F74092824000000E4
:100220000000000000000000002400242400282416
:10023000242424242424242500240024240024000D
:10024000000000000000002400240024240000001E
:1002500000000000000000240026002424002400E8
:1002600000000000000000240000002424002400FE
:1002700000000000000000240000002424242424A6
:10028000242425000028242424242424145000009D
:100290002064151E0000000000001A1E1E1E1B0612
:1002A0000B072400001A1E191E1B18181818180A0C
:1002B000090824000018180018181818181818250C
:1002C0000028260000181800211F181D201C1D1BC7
:1002D0002A2400000000000025181D19191E1B18F3
:1002E00018240000000000001A221E1E1B181818F7
:1002F0001D19191B000000001D201C1D20201C1DA5
:100300001919191CC86400321F4009140000000D9F
:1003100000280B26270B25000002030000000F0019
:10032000162A242B2C242A17000504000012000E84
:1003300016290028250029170F000D0000000010C5
:10034000162A250000282A170010000000001100BE
:100350000029000000002900000B00000000000040
:100360000D2A000000002A001614170001010101E7
:100370000129000000002901011501016464002326
:100380001F6C093C00000000241A191919191B00E0
:100390002800002500000000271D2C19231B182809
:1003A00023232323000000000027292627181824D0
:1003B0000000000000000000000000001A2B2C1BB1
:1003C0002500002800000000000000001D2C2B1C50
:1003D000242A2A2600000000000000000021221923
:1003E000191C18000000000000000000001D20196A
:1003F00019191C00C86400001F74093C001A1E195A
:100400001B00002724262726272400000018180098
:10041000182A25000000000000232323000000000C
:100420001818242A2A2A252826232323000000001E
:10043000211F24252C2B1923252323230000000012
:10044000211F24242500242424232323000000002A
:10045000211F2424242500001922221F000000004F
:100460001D1C2119191900001920201C32640000DC
:100470001F40093C001A1E1E191B25000028221EC1
:100480001E1E0027282122201B18242A2A1A221F78
:10049000181825002729292618182418181D1E1F8A
:1004A000181827250000000018182418181A221FF1
:1004B00018180027000000001818241D2020201CF8
:1004C0001818000000000000181D2C19191919191E
:1004D000221F0000000000001D192C1919191919FC
:1004E000201C0000C8640A321F64153C000203008F
:1004F0000000000E000000060B07000000050400CD
:10050000001000000012000A090800000000000EA0
:100510000000000E000000000000000000000000CD
:10052000000000000000000E001300001300130084
:1005300013000000000000131614171315131513F1
:1005400015130000000013151315131515151515B7
:10055000151500000000151515151515F00C20C017
:1005600006F8023C40902488E2F4F1FAFAF1F4E251
:10057000882490405F8F2F4711240902020924111B
:10058000472F8F5FC0E0F0F8F8F8F8F8F8F8F8F8BF
:10059000F8F0E0C00F1F1F1F1F0F0703070F0F1FEB
:1005A0001F0F0F0703070F1F1F1F1F0FFCE6A77F5B
:1005B0007FA7E6FCFCB6AFBFBFAFB6FC00040818CF
:1005C0003018080400080818301808080020101017
:1005D000301010200000601030106000002010105B
:1005E0003010102000080818301808085AC318BD29
:1005F000BD18C35A0C181899FF18180CC000003FFA
:10060000E00000000000000000080C0C0C0C0800CA
:100610000000000081FF00000000FF81C342424251
:10062000424242C380E01804040282C3C38202042F
:100630000418E080C341402020180701010718205A
:10064000204041C342C301010101C34242C3000033
:100650000000C37E42C380808080C3427EC300000E
:100660000000C34242C300000000C34200AA00557C
:1006700000AA0055FF81A58181A581FFFF82A48882
:1006800090A0C080FF412511090503010103050960
:10069000112541FF80C0A09088A482FFFF0F0000B9
:1006A00000000FFFFFF000000000F0FF81020418BF
:1006B00018204081814020181804028100000000A9
:1006C0000000000004083E09093E3F25251A1E21AE
:1006D00021123F21211E3F2525213F0505011E2115
:1006E000293A3F04043F213F21001021211F3F04EC
:1006F0000A313F2020203F02023F3F02043F1E21DB
:10070000211E3F0909061E21112E3F090936222507
:100710002519013F01011F20201F0F10201F3F102E
:10072000103F3B04043B03043807312D2321102ADA
:100730002A3C3F2424181C2222141824243F1C2A5B
:100740002A2C047E05014C52523E3F040438243DBD
:1007500020004040443D3F081422213F20003E0439
:10076000043E3E04023C1C22221C7E22221C1C222F
:10077000227E3E040204242A2A12021F22201E2066
:10078000201E0E10201E3E10103E360808364E5019
:10079000503E322A26221E29251E223F20003229C1
:1007A00029261221251A0C0A3F08172525191E256E
:1007B0002518013905031A25251A0629291E003393
:1007C0003300130B3432F0F89C8E8783878E9CF8AD
:1007D000F00000FEFF0303030303070EFCF8000014
:1007E000FEFF0303030303070EFCF80000FFFF00F6
:1007F000000000000000FFFF0000FEFF83838383F2
:1008000083C7EE7C380000F8FC0E07030303070ED5
:10081000FCF800003F7FE0C08080C0E07F3FFFFF2A
:1008200001010101010101FFFF0000FFFF0C0C0CA1
:100830000C1C3E77E3C100007FFFC0C0C0C0C0E019
:10084000703F1F00001F3F70E0C0C0C0E0703F1F3E
:1008500000007FFFC1C1C1C1C1E3773E1C00001F82
:100860003F70E0C0C0C0E0703F1F0000000000010A
:10087000FFFF01000000D5F08D14A1C881CFD9F190
:10088000AF2000423A526574727900413A4E657861
:1008900074206C6576656C00596F752072616E20EE
:1008A0006F7574206F662074696D650030003A00C2
:1008B000496E200046696C6C207468652063757011
:1008C000002500526561636820004C6576656C3ACE
:1008D000200050726573732042005072657373205C
:1008E000410054696D656400526567756C61720002
:1008F0001F150A002E283E000017151D001F0507B2
:10090000001F051F001F051B00011F01001F051F01
:10091000001F061F001F0501001F111F001B041BE5
:10092000FFFFFFC7C7C7C70707070700F7F7F700AD
:10093000FFFFFF00000000000000FFFFFF000007B6
:1009400007070707FFFFFF07F7F7F787808080801B
:10095000FFFFFF00FFFFFFC7C7C7C7C7C77F7F7F76
:100960000101010100000000007F7F7F007F7F7F89
:10097000707070707070007F7F7F707070707070BA
:10098000007F7F7F007F7F7F03030303037F7F7FE1
:10099000007F7F7F7171717171714C762000204CE6
:1009A00076200030003A00080B0002020200000925
:1009B00004000001020200000524001001052401CA
:1009C0000101042402060524060001070581031025
:1009D000004009040100020A00000007050202406D
:1009E000000007058302400000040309041201000F
:1009F00002EF020140412336800001010203014160
:100A0000726475696E6F204C4C430041726475626C
:100A10006F790000D31211241FBECFEFDAE0DEBFE2
:100A2000CDBF11E0A0E0B1E0E4E7F2E302C0059041
:100A30000D92AE34B107D9F729E0AEE4B1E001C0C0
:100A40001D92A038B207E1F715E0CBE0D5E004C075
:100A50002197FE010E943219CA30D107C9F70E94BE
:100A600005130C9438190C940000EBE1F5E0A0E0BC
:100A7000B8E000800EBC8111012C1197A0FDFDCFC4
:100A80000192B9F70DB408954F925F926F927F92E1
:100A90008F929F92AF92BF92CF92DF92EF92FF928E
:100AA0000F931F93CF93DF9330E0F901E80FF91F05
:100AB000F7FD9AC0FB01E00FF11DF7FD95C0603412
:100AC00071050CF091C0DB0177FF04C0AA27BB279A
:100AD000A61BB70BA770BB27FB0177FD3796C3E0BA
:100AE000F595E795CA95E1F777FF07C0319768E07C
:100AF00070E0EB01CA1BDB0BDE01802E869486942E
:100B00008694912C077019F0DFEF8D1A9D0ABF01B2
:100B10008A01AF015695542F442757954795480FA2
:100B2000591F455E5A4F860E971EE8E0F0E03F01E0
:100B30006A1A7B0A8616970609F456C06830710552
:100B400009F452C06F3FEFEF7E070CF443C07C0105
:100B5000D0E0C0E05A01E0E8AE0EB11CF7FC2EC0B8
:100B60006F3F760709F43DC0FE01E00FF11FE491ED
:100B70006A01CC0EDD1EF0E02F010A2E01C0440CEC
:100B80000A94EAF7F6015080452840821097B1F0A8
:100B90006730710599F0F801EC0FFD1FE4916501D4
:100BA000CC0EDD1EF0E02F01062C02C055944794B8
:100BB0000A94E2F7F6015080452840822196FFEF23
:100BC000EF1AFF0AC217D3072CF4F0E8EF16F1046E
:100BD00009F0C4CF6F5F7F4F020F131F40585F4F64
:100BE000A9CF1097C1F6EACFDF91CF911F910F9156
:100BF000FF90EF90DF90CF90BF90AF909F908F903D
:100C00007F906F905F904F900895FC0180911A053E
:100C1000882311F13FB7F89482E08093E900209196
:100C2000F200822F90E01816190614F481E090E08B
:100C3000882339F0289844E6409319054091F10043
:100C40004083222339F02091F200211103C02BE6CA
:100C50002093E8003FBF08958FEF9FEF08952FB7CF
:100C6000F89483E08093E9009091E800892F8072E6
:100C700095FF04C09091F20080E4891B2FBF089576
:100C80008091110581110DC082E080930D0584E0F3
:100C900080930E051092100510920F0581E080934D
:100CA00011058DE095E00895CF93DF931F92CDB7A6
:100CB000DEB76983DC01ED91FC910280F381E02DC8
:100CC00041E050E0BE016F5F7F4F09950F90DF91CB
:100CD000CF91089583E08093E9008091F20088230A
:100CE00019F08AE38093E80008950E942F0690E0AF
:100CF0000895CF93DF931F92CDB7DEB7FC018485B3
:100D0000958597FD08C02FEF3FEF358724870F901B
:100D1000DF91CF910895CE0101960E9405060197BB
:100D200019F4898190E0F3CF8FEF9FEFF0CF0F930D
:100D30001F93CF93DF931F92CDB7DEB78C01FC01D9
:100D40008485958597FF0BC0CE0101960E9405060C
:100D5000019771F4898190E0F80195878487F80103
:100D6000848595850F90DF91CF911F910F91089504
:100D70008FEF9FEFF1CFFC018485958597FD0BC028
:100D80009FB7F89482E08093E9008091F2009FBFC2
:100D900090E0019608959FB7F89482E08093E9006F
:100DA0008091F2009FBF90E0089540910705509117
:100DB0000805209105053091060542175307B4F444
:100DC0009091E8009570E1F39091E80092FD19C0D0
:100DD0008093F100809107059091080501968F732B
:100DE0009927892B19F48EEF8093E80080910705ED
:100DF000909108050196909308058093070581E07E
:100E0000089580E00895DF92EF92FF920F931F9371
:100E1000CF93DF93D82E8A01EB017B01E40EF51E00
:100E2000CE15DF0559F0D7FE12C0FE0184910E9455
:100E3000D50621968111F4CF0FEF1FEFC801DF9186
:100E4000CF911F910F91FF90EF90DF9008958881CF
:100E5000EECF0F931F93CF93DF931F92CDB7DEB7E3
:100E600082E0898342E450E067EA79E080E80E940A
:100E700003070E944006DC0112960D911C9101159A
:100E8000110589F0D801ED91FC910280F381E02DEC
:100E9000BE016F5F7F4FC801099597FD04C0F8013F
:100EA00000851185ECCF89810F90DF91CF911F9143
:100EB0000F910895615030F02091F100FC012083E2
:100EC0000196F8CF289884E680931905089508952F
:100ED000AF92BF92CF92DF92EF92FF920F931F9348
:100EE000CF93DF936C017B018B01040F151FEB0186
:100EF0005E01AE18BF08C017D10759F06991D6013D
:100F0000ED91FC910190F081E02DC6010995892BAE
:100F100079F7C501DF91CF911F910F91FF90EF906D
:100F2000DF90CF90BF90AF9008953FB7F894809135
:100F30005D0190915E01A0915F01B091600126B5C5
:100F4000A89B05C02F3F19F00196A11DB11D3FBF01
:100F5000BA2FA92F982F8827BC01CD01620F711DD0
:100F6000811D911D42E0660F771F881F991F4A95CA
:100F7000D1F708958F929F92AF92BF92CF92DF9256
:100F8000EF92FF926B017C010E9495074B015C017F
:100F9000C114D104E104F104B9F00E949507681965
:100FA00079098A099B09683E73408105910580F3A0
:100FB00021E0C21AD108E108F10888EE880E83E02A
:100FC000981EA11CB11CE4CFFF90EF90DF90CF9052
:100FD000BF90AF909F908F9008958F929F92AF9205
:100FE000BF92CF92DF92EF92FF920F931F93CF9316
:100FF000DF936C017B018A0180911C01882309F435
:101000005CC080911A05882309F457C080910C05B3
:1010100080FF05C08091E00082608093E000E801DD
:10102000B12C8AEFA82E93E0892E2AE3922E2097E6
:1010300011F4BB20D9F10E942F0681110AC0AA9495
:10104000AA20D9F161E070E080E090E00E94BA0748
:10105000EECF8C171D0611F00CF08C2F9FB7F89473
:101060008092E9002091E80025FD02C09FBFDFCFFC
:10107000282F30E0C21BD30BF701815020F04191A3
:101080004093F100FACFE20EF31EBB2021F09092C4
:10109000E800B12CEBCF8091E80085FDE7CF90927E
:1010A000E800BB24B394209709F3F3CF5D9884E65E
:1010B00080930B05101611063CF081E090E0F601DC
:1010C0009383828310E000E0C801DF91CF911F91EC
:1010D0000F91FF90EF90DF90CF90BF90AF909F90D7
:1010E0008F9008954F925F926F927F928F929F920E
:1010F000AF92BF92CF92DF92EF92FF920F931F9326
:10110000CF93DF934C015901FC2DC02FD0E0CE01CD
:10111000880D991D181619060CF067C09B012E0D3D
:10112000311D121613060CF060C0603471050CF00E
:101130005CC04115510509F458C0262F2770F22EC6
:10114000DB0177FD179633E0B595A7953A95E1F762
:101150003A2F77FF04C0FF2011F03FEF3A0F6627C8
:1011600077276819790997FC02C070E060E0803841
:1011700091050CF44BC090E89819961BA32F032EF1
:10118000000CBB0B1A2F10953F3F0CF010E021E034
:101190008E2D877009F420E0E694E694E694E20E42
:1011A000AE0DB11D19971CF028E0E22EE31AE11AEA
:1011B000310F20E83203D0011124A80DB91DA60F6C
:1011C000B71F019F600D711D1124460F571F0F2D72
:1011D0000F2C000C110BF33009F41CC1C8F4F130D2
:1011E00009F4D0C0F23009F47CC0DF91CF911F9197
:1011F0000F91FF90EF90DF90CF90BF90AF909F90B6
:101200008F907F906F905F904F900895902FB5CF03
:10121000FA3FB1F1232F2E0DFB3F39F7321729F397
:10122000BD01655E7A4FD12CC12CC91608F0A4C04F
:10123000FA01EC0DFD1DE491F0E04F01002E02C01B
:10124000880C991C0A94E2F737FD06C0FB018081E7
:10125000E82CE0948E218083FF2061F0373054F435
:101260005B01F0E8AF0EB11CE92CE094F501808140
:101270008E218083FFEFCF1ADF0A6F5F7F4FD5CFBC
:10128000232F2E0D321709F4B0CFBD01655E7A4FC2
:10129000D12CC12CC91608F069C0FA01EC0DFD1D56
:1012A000E491F0E04F01002E02C0880C991C0A94D2
:1012B000E2F737FD04C0FB01808188298083FF208D
:1012C00051F0373044F45B01F0E8AF0EB11CF5018A
:1012D000808189298083FFEFCF1ADF0A6F5F7F4FFC
:1012E000D9CF6FEF70E00F2C02C0660F771F0A9402
:1012F000E2F760957095772E232F2E0D321709F4A3
:1013000074CFFD01E55EFA4F6F01B12CA12CA91637
:1013100038F5FA01EA0DFB1DE491F0E02F01002EF3
:1013200002C0440C551C0A94E2F737FD05C0F601D3
:101330008081862384298083FF2059F037304CF444
:101340004601F0E88F0E911CF401808187218529E8
:101350008083FFEFAF1ABF0A8FEFC81AD80AD7CF22
:101360003F5F4C0F5D1FA058BF4FC8CF3F5F4C0F72
:101370005D1FA058BF4F86CF3F5F4C0F5D1FA05829
:10138000BF4F4CCF6A0D7B1D232F2E0D321709F452
:101390002CCFFD01E55EFA4F6F01B12CA12CA916EF
:1013A00088F5FB01EA0DFB1D8490912C002E02C0F4
:1013B000880C991C0A94E2F780949094FA01EA0D43
:1013C000FB1D6490712C002E02C0660C771C0A94E1
:1013D000E2F737FD05C0F6018081882186298083E8
:1013E000FF2049F037303CF4F601E058FF4F808190
:1013F000892187298083FFEFAF1ABF0A8FEFC81AB0
:10140000D80ACDCF3F5F4C0F5D1F6C0F7D1FA058DA
:10141000BF4FBCCFC92ED12CFA01E60FF71FA55E36
:10142000BA4F00E810E00C191D09CC19DD09BE0106
:10143000660F771F41E050E06A010F2C01C0CC0C11
:101440000A94EAF7592F2E2D792ECF93DF93ED01D1
:10145000EF96EF9622968590A590FF2059F08C9CF0
:101460004001AC9C500137302CF4E880B094EB2064
:10147000E928E99233233AF0EC90A094EA20E82896
:10148000ED920C94440A11965A9529F72A9551F039
:10149000572D33951124E60FF11DA00FB11DC00F7C
:1014A000D11DD9CFDF91CF9111249FCE2D9A0895D0
:1014B000BC0190E080E00C94BA078FB18095807FEA
:1014C000669B88601C9B8460089580389105B8F401
:1014D00060347105A0F420E191E061FD94E060FDCD
:1014E000990F62FD9295687F269FD0011124A80F65
:1014F000A55EBA4F8C9140FF03C0892B8C93089551
:1015000090958923FBCFCF92EF920F93CF93DF93E8
:10151000EC018E816A3069F49D819C836985860F18
:101520008E8381E090E0DF91CF910F91EF90CF908B
:1015300008956A3309F456C068F46532B1F020F0BA
:1015400094E0603308F04CC098859C5F8C81890FD3
:101550008C83E7CF6134C0F36B3508F440C09FE95A
:10156000960F9A3188F799EB3BC09FE361E0680FD3
:10157000062E000C770BAC810A2E000CBB0BE4ECA2
:10158000F6E025EC36E08F81813071F50491F901A8
:10159000E49046EC56E09923D1F041E050E08E2DE6
:1015A000877011F450E040E02E2D26952695269563
:1015B000240F352F311D029FF001039FF00D1124E0
:1015C0009E9FA0019F9F500D11244A53594F9AEF9F
:1015D000C92E30E020E0CD010E947208B5CF9FEB0C
:1015E000960FC4CF9EE3C2CF0491F901E49046EC7C
:1015F00056E09923D1F041E050E08E2D877011F430
:1016000050E040E02E2D269526952695240F352F67
:10161000311D029FF001039FF00D11249E9FA00138
:101620009F9F500D11244A53594F8BEFC82ED1CF95
:10163000089590E080E008950F93CF93DF93209179
:101640000E01082E000C990B283009F03DC067FDF3
:10165000695F65956595659520E86203B001112481
:1016600020915B01241311C0A3E5B1E0680F791F3D
:10167000FB01E55EFA4F8D91819381E0AB35B807B0
:10168000D1F7DF91CF910F91089540935B0128E04E
:10169000429FA0011124C3E5D1E030E020E0445A8C
:1016A0005A4F680F791FFA01E20FF31FE491E99393
:1016B000DB01A20FB31FA55EBA4FEC932F5F3F4F24
:1016C0002830310581F7DDCF28E0429FA0011124A9
:1016D000445A5A4F062E000C770B08E028E00E946F
:1016E0004405CFCFCF92DF92EF92FF920F931F93DB
:1016F000CF93DF9383E884BD8FEF87BD81EF809325
:1017000080001092880010928A001092FF041092BC
:10171000010510920005109289041092880410921D
:10172000870488EC80930E01F0908A04FF2009F46E
:10173000F6C088E0809352010F2D10E0C801019798
:101740006AE070E00E941E1928E7289FE001299FA7
:10175000D00D1124FE01E455FF4F849190E0880FD5
:10176000991F803991400CF0D7C0E491F0E0EE0F62
:10177000FF1FF0931001E0930F01FE01E355FF4FAF
:10178000E491E0930B01FE01E255FF4F84918093B9
:101790000A01FE01E155FF4FE491E0930C01FE01C7
:1017A000E055FF4FE491E0930D01FE01EF54FF4F30
:1017B000E491E0930901FE01EE54FF4FE491E093C0
:1017C0000801811114C0AF2DB0E021EF3FEF4FEFC2
:1017D0005FEF0E94CE182AE030E040E050E00E9427
:1017E000AF182C5E3F4F4F4F5F4F20930A0110926E
:1017F00085048AE08F1588F5FE01ED54FF4FE491D2
:10180000F0E031964CE34E9F70014F9FF00C112495
:10181000970121503109C8010B976AE070E00E94DE
:101820001E19469FF001479FF00D1124C7016CE27D
:1018300071E00E940A19E69FC001E79F900DF69F94
:10184000900D1124281B390B3093890420938804B0
:1018500081E08093850410920A012DE834E0AE0106
:1018600040595F4FD90190E080E0BE016C547F4F3A
:10187000FB01E80FF91FE491E150EC9301961796F4
:1018800080319105A9F72F5F3F4F60964C175D0798
:1018900049F780910C0192E0980F9093000199E133
:1018A000980F9093020195E0980F909304018A5E3F
:1018B0008093060180910D0192E0980F90930101B1
:1018C00020E1280F2093030190930501845E80930B
:1018D000070100910F0110911001F0900901309162
:1018E000030520910801E5E6F1E0D0E0C0E084E6E0
:1018F000C82ED12C41E00C171D07C9F1F082622FD0
:10190000311105C0CE01B6010E940A19620F618330
:10191000342721963296EFCFE0E9F1E02ACF82E337
:1019200080930C018CE180930D0180E991E090930C
:10193000100180930F0185E680930B0181E0809375
:101940000A0180E4809309018EE1809308012DE86B
:1019500034E087E0F90190E010829F5F3796903184
:10196000D9F781502F5F3F4F8111F4CF92CF309341
:1019700003059801A0EAB0E00E94FB1820E931E0DD
:1019800040E050E00E94AF1820938B04DF91CF918C
:101990001F910F91FF90EF90DF90CF9008951F92CD
:1019A0000F920FB60F9211248F939F938091E100B5
:1019B0009091E100937F9093E10083FF0FC010921C
:1019C000E90091E09093EB001092EC0092E3909389
:1019D000ED0010921A0598E09093F00082FF22C06B
:1019E00093E09093E9009091F200992319F09AE323
:1019F0009093E80090910B05992341F090910B058D
:101A0000915090930B05911101C05D9A9091190529
:101A1000992341F0909119059150909319059111D6
:101A200001C0289A84FF18C08091E2008E7E8160F8
:101A30008093E2008091E1008F7E8093E1008091AD
:101A40000C058E7E806180930C059F918F910F9085
:101A50000FBE0F901F90189580FFF7CF8091E20086
:101A60008E7E80618093E2008091E1008E7E809383
:101A7000E10080910C058E7E8160E5CF1F920F9270
:101A80000FB60F921124CF92DF92EF92FF920F9335
:101A90001F932F933F934F935F936F937F938F93F6
:101AA0009F93AF93BF93EF93FF93CF93DF93CDB704
:101AB000DEB76C97DEBFCDBF1092E9008091E800E1
:101AC00083FF25C068E0CE0145960E945A0782EF49
:101AD0008093E8008D8987FF39C09091E80090FFDE
:101AE000FCCF982F907609F034C19E894F89588D8C
:101AF0002F89F88C911131C0803861F580910A05E9
:101B00008093F1001092F1008EEF8093E8006C96C4
:101B10000FB6F894DEBF0FBECDBFDF91CF91FF911E
:101B2000EF91BF91AF919F918F917F916F915F9155
:101B30004F913F912F911F910F91FF90EF90DF9068
:101B4000CF900F900FBE0F901F9018959EEF90931F
:101B5000E800C7CF1092F100D5CF913059F4811130
:101B6000D3CF4130510581F680910A058D7F809356
:101B70000A05CACF933049F48111C6CF41305105CF
:101B800019F680910A058260F2CF953041F4809178
:101B9000E80080FFFCCF20682093E300B5CF9630AB
:101BA00009F0A9C00B8D1C8D22E01092E900109263
:101BB000080510920705F2122EC010920605109229
:101BC00005050E9429071F8299E09983FA8291E016
:101BD0009E8390EA98879AEF998720910705309124
:101BE0000805275F3F4F3C832B838D831092E900CC
:101BF000109208051092070510930605009305053D
:101C000049E050E0BE016F5F7F4F80E00E94030714
:101C10000E94290779CF10930605009305050E94BD
:101C20004006DC0112960D911C910115110509F475
:101C300051C1D801ED91FC910480F581E02DBE01E8
:101C40006B5E7F4FC8010995009709F03EC1F8010E
:101C500000851185EACFF3E0FF120EC08F8988233B
:101C600009F440C0823061F440E867E08BE09AE01C
:101C70000E94C50F811148CF81E28093EB0047CFCE
:101C8000813029F440E86BE08FEF99E0F1CF8330A9
:101C900099F70E944006DC011296ED90FC908E01AF
:101CA0000F5F1F4F6801E114F10479F0D701ED9146
:101CB000FC910680F781E02DB801C7010995080F56
:101CC000111DF701E084F184EECFD8011C92F601DA
:101CD00001900020E9F73197BF016C197D0940E0C0
:101CE000C601C6CF69EE79E0FB01449150E080E87F
:101CF0000E94030709CF973009F4BECF983021F432
:101D000081E08093F10000CF993009F0FDCE83701F
:101D100009F0B2CFEEE1F1E081E031E096E321910C
:101D2000222371F08093E9003093EB00DF011197DB
:101D30002C912093EC009093ED008F5F873079F722
:101D40008EE78093EA001092EA008F8980931A054B
:101D5000DBCE8B8D9C8D1092E900109208051092BD
:101D600007059093060580930505898D811192C022
:101D70008E899D89913A49F4813209F07DCF47E0FF
:101D800050E065E171E080E0B3CF913209F074CFAB
:101D9000833269F48F89988DB0E0A0E080931101BF
:101DA00090931201A0931301B0931401ADCE803231
:101DB00069F48091E80082FFFCCF67E085E191E063
:101DC0000E945A078BEF8093E8009ECE823209F082
:101DD0009BCE8F8980931C01EEEFFFE78591949154
:101DE0008B3F9C4D51F1E0E0F8E08091150190911E
:101DF0001601A0911701B0911801803B9440A105F4
:101E0000B105F1F480911C0180FD1AC0EE3F8AE01B
:101E1000F80789F587E797E79183808380916000D1
:101E20008093090588E19BE00FB6F894A89580930C
:101E300060000FBE9093600067CEEEEFFAE0D5CF62
:101E4000808191818737974709F05ECEA895809170
:101E50006000886180936000809109058093600034
:101E6000EE3F2AE0F20789F08091FE0A9091FF0A86
:101E70009183808349CE808191818737980751F281
:101E80009093FF0A8093FE0AC5CF1092FF0A10922A
:101E9000FE0A3ACE0E944006DC0112960D911C917A
:101EA0000115110509F4E8CED801ED91FC910190DE
:101EB000F081E02DBE016B5E7F4FC8010995811155
:101EC00023CEF80100851185EBCF181619060CF406
:101ED0001BCED2CEF1E0FF12BECE6DEE79E004CF84
:101EE0001F920F920FB60F9211242F933F938F934F
:101EF0009F93AF93BF938091610190916201A091F4
:101F00006301B091640130915C0123E0230F2D3710
:101F100058F50196A11DB11D20935C0180936101CC
:101F200090936201A0936301B093640180915D017D
:101F300090915E01A0915F01B09160010196A11D99
:101F4000B11D80935D0190935E01A0935F01B093FA
:101F50006001BF91AF919F918F913F912F910F9011
:101F60000FBE0F901F90189526E8230F0296A11D13
:101F7000B11DD2CF90917B09982329F490917A09D1
:101F8000982381E009F480E00895EF92FF920F9387
:101F90001F93CF93DF93F82E192FE62E042F81E0A5
:101FA000860F880F0E94D50683E00E94D506CF2DAC
:101FB000D12FEC0EFD2EF11CCE15DF05B9F007FF79
:101FC00013C0FE0184910E94D506182F80E00E9464
:101FD000D506812321968111EFCFDF91CF911F91FB
:101FE0000F91FF90EF9008958881EDCF81E0F5CFBC
:101FF0002F923F924F925F926F927F928F929F9219
:10200000AF92BF92CF92DF92EF92FF920F931F9306
:10201000CF93DF93EC018B017A016901C61AD70ACD
:10202000D7FE03C0D194C194D10847018C1A9D0AF0
:1020300097FE03C09194819491088C149D0454F4EC
:102040009E2D8F2D7901292F382F9C2F8D2FE80160
:10205000092F182FEC16FD0654F4902F812F8901BB
:10206000292F382F9C2F8D2FE701E92EF82E1701ED
:102070002C1A3D0A2901401A510A57FE03C05194F7
:1020800041945108310137FE03C08FEF681A780A76
:10209000759467948FEF021713070CF481E0A82E54
:1020A000880FBB08EC16FD06A4F041E0BE01C80194
:1020B0008C149D0414F0B801CE010E94650A6418C6
:1020C000750877FE04C00A0D1B1D620C731C219657
:1020D000E9CFDF91CF911F910F91FF90EF90DF90AB
:1020E000CF90BF90AF909F908F907F906F905F90B8
:1020F0004F903F902F9008950F931F93CF93DF93AE
:102100008C01D0E0C0E0F801EC0FFD1F6491662364
:1021100041F08BE699E00E94830A892B11F0219609
:10212000F2CFCE01DF91CF911F910F910895DB0186
:102130002C9130910401DC01ED91FC91809100051E
:1021400090910105231770F0DA013C91609105012F
:10215000361740F060910601621720F06091070188
:10216000631790F430910001231768F1DA013C9174
:1021700040910101341738F140910201421718F1E2
:10218000209103012317F8F0E817F907D8F0DC01D4
:10219000AA0FBB1FAB59BE4F2C9120938C04EE0F9E
:1021A000FF1FEB59FE4F30813C9311963C911197E4
:1021B000418111964C9331832083019690930105C0
:1021C000809300050895E817F907E0F7DC01AA0FEE
:1021D000BB1FAB59BE4F2C9120938C04EE0FFF1FF9
:1021E000EB59FE4F30813C9311963C911197418100
:1021F00011964C93318320830197E0CF962F9770EF
:10220000E62FE695E695E69520E8E29FF001112499
:10221000E55EFA4FE80FF11D208130E041E050E02B
:10222000092E02C0440F551F0A94E2F724233523D8
:1022300002C0359527959A95E2F7222339F08091CF
:1022400004058F5F8093040580E00895209152017A
:10225000022E000C330B62171306B4F36034A0F7A0
:102260008095881F8827881F0895CF92DF92EF926C
:10227000FF920F931F93CF93DF9300D0CDB7DEB7BC
:10228000109251018FE7809350010E945D0A85FFF3
:1022900003C080E8809351010E945D0A86FF03C05D
:1022A0008FE7809351010E945D0A87FF1FC080E87D
:1022B0008093500195E6E92E91E0F92ED12CC12CA6
:1022C00000910F0110911001C016D106B0F4F70172
:1022D000618170E0808141E090E00E94650AFFEF3B
:1022E000CF1ADF0A82E0E80EF11CEACF809151019B
:1022F000882301F310925001DDCF1A821982E981FF
:10230000FA81E017F10708F0EBC02091510120930A
:102310004F019091500190934E01809104058F5F81
:1023200080930405211182C080FD7EC08FEF8093D1
:102330004F01EE0FFF1FEB59FE4F6181808190919D
:102340004F0119160CF07CC08F5F0E94FE1088238D
:10235000E1F0E981FA81EE0FFF1FEB59FE4F618139
:1023600070E0808140E090E00E94650AE981FA8196
:10237000EE0FFF1FEB59FE4F80818F5F80836181DD
:1023800070E041E090E00E94650AE981FA81EE0F79
:10239000FF1FEB59FE4F6181808190914E0119160C
:1023A0000CF06AC06F5F0E94FE108823E1F0E981A3
:1023B000FA81EE0FFF1FEB59FE4F618170E08081C3
:1023C00040E090E00E94650AE981FA81EE0FFF1F6C
:1023D000EB59FE4F61816F5F618370E0808141E066
:1023E00090E00E94650A80918A048823B9F069818F
:1023F0007A81CB018170992720910305222309F46A
:102400006BC0892B59F4660F771FAB014A595E4F99
:102410006B597E4FCE0101960E94971089819A8157
:1024200001969A8389836BCF81E081CF911181CF0F
:1024300080FD04C08FEF80934E017BCF81E0FBCF06
:1024400081500E94FE10882309F49FCFE981FA8110
:10245000EE0FFF1FEB59FE4F618170E0808140E07D
:1024600090E00E94650AE981FA81EE0FFF1FEB59A7
:10247000FE4F8081815082CF61500E94FE108823E0
:1024800009F4B1CF29813A8180910005909101052D
:102490002817390760F460910A0170E0809178098B
:1024A000909179090E940A19892B09F09CCF220F7B
:1024B000331FF901EB59FE4F618170E0808140E0EC
:1024C00090E00E94650AE981FA81EE0FFF1FEB5947
:1024D000FE4F6181615080CF892B09F49FCF93CF4C
:1024E0000F900F90DF91CF911F910F91FF90EF9080
:1024F000DF90CF900895FC0101900020E9F731971B
:10250000AF01481B590BBC018BE699E00C9468079E
:102510008F929F92AF92BF920F931F93CF93DF93AF
:10252000CDB7DEB7A1970FB6F894DEBF0FBECDBF13
:1025300019A2423008F44AE08E010F5D1F4F842E2D
:10254000912CB12CA12CA50194010E94D918E62F41
:10255000B901CA01EA30F4F4E05DD801EE938D01CF
:10256000232B242B252B79F790E080E0109719F08E
:10257000CD010E947B12A1960FB6F894DEBF0FBE6C
:10258000CDBFDF91CF911F910F91BF90AF909F90E2
:102590008F900895E95CE1CF682F70E090E080E0D3
:1025A0004AE00C948812EBE1F9E01382128288EE83
:1025B00093E0A0E0B0E084839583A683B78388E2AC
:1025C00091E0918380838FEF9FEF95878487E5E784
:1025D000F9E086E491E0918380831582168280E1A0
:1025E0008783148213821186EBE6F9E0138212824C
:1025F0008AE391E09183808388E0818781E080870E
:1026000015821682148287830895CF93DF9300D0BA
:102610001F92CDB7DEB7789484B5826084BD84B54F
:10262000816084BD85B5826085BD85B5816085BDCD
:1026300080916E00816080936E0010928100809185
:10264000810082608093810080918100816080930D
:102650008100809180008160809380008091910052
:1026600082608093910080919100816080939100BD
:10267000809190008160809390008091C10084607F
:102680008093C1008091C10082608093C1008091DD
:10269000C10081608093C1008091C30081608093FC
:1026A000C3008091C00082608093C0008091C2000E
:1026B00081608093C20080917A00846080937A0068
:1026C00080917A00826080937A0080917A008160A4
:1026D00080937A0080917A00806880937A001092CB
:1026E0001A0510920A0510920C058091D70081609E
:1026F0008093D70080EA8093D80089B5806189BD36
:1027000089B5826089BD09B400FEFDCF61E070E04B
:1027100080E090E00E94BA078091D8008F7C8061B1
:102720008093D8008091E000807F8093E0008091CA
:10273000E1008E7E8093E1008DE08093E200559A67
:10274000209A81EC80937C0085B1806F85B984B13B
:10275000877E84B984B1876E84B95E9A5F988AB1A6
:10276000806D8AB9769A6E9881B3806F81BB8998A3
:1027700080B38D7080BB80E58CBD81E08DBD85E030
:1027800090E00E94580A5F9A85E090E00E94580A03
:102790005E985C98E6E7F8E084918EBD00000DB489
:1027A00007FEFDCF319628E0E338F207A9F75C9ADF
:1027B00081E880936400809165008160809365006A
:1027C00080E00E9435050E945D0A87FF15C05C9875
:1027D00085EA8EBD00000DB407FEFDCF5C9A2E98F1
:1027E0002F982D988091640080628093640081E02E
:1027F00083BF889513BEFCCF0E945D0A82FF48C04C
:102800002D980E945D0A84788438E1F40E94560A6B
:1028100088EC90E00E94580A2F9882E090E00E9495
:1028200099188F3F29F06FEF82E090E00E94A11885
:1028300084EF91E00E94580A2F9A0E945D0A8478E2
:102840008438D9F30E945D0A84718431E1F40E94D6
:10285000560A88EC90E00E94580A2E9882E090E098
:102860000E949918882329F060E082E090E00E949D
:10287000A11884EF91E00E94580A2E9A0E945D0AE6
:1028800084718431D9F388EC90E00E94580AB4CF67
:102890000E94560A82E090E00E9499188823D1F1A4
:1028A0003E9A3F9A81E090E00E949918182F147088
:1028B00081E090E00E94991881FF0EC011112E98BE
:1028C00080EF9FEF9B838A830E945D0A86FF25C06D
:1028D0002E9A2F9A0E94560A82E390E00E94580A8C
:1028E0000E945D0A8111F8CF80E180937C090E94EB
:1028F000720B5CE3652E712C66E0262E312C8091E4
:10290000600083FF3BC0F89487E7809300088093C2
:102910000108FFCF3E983F98C5CF112331F0EA81DF
:10292000FB81349711F42E9A2F9881E00E9435058F
:1029300000E128E546EC57E06A817B8184E190E084
:102940000E94440580E00E9435058FE090E00E94DF
:10295000580A2A813B812F5F3F4F3B832A832931CD
:10296000310509F0B1CF112311F02F9A2D9880E98C
:1029700091E00E94580A0E94560AAECF8FB7F89491
:102980004091610150916201609163017091640115
:102990008FBF80917D09342F381B832F90917E0942
:1029A000992389F030937F0910927E098091040564
:1029B0008F5F8093040580E090E0892B09F49FCF1E
:1029C0000E9400009CCF90917C09391740F48F5FE2
:1029D000891760F781E083BF889513BEE7CF91E048
:1029E00090937E0940937D09E0917809F0917909EF
:1029F0003196FB83EA83F0937909E093780980911B
:102A00000305892780930305811178C08A819B8102
:102A1000B3010E940A19892B31F48091020591E0DB
:102A20008927809302052091000530910105A4E6D5
:102A3000B0E00E94FB1820910F013091100150E08E
:102A400040E00E94AF1829832093FF048A819B8174
:102A500067E070E00E940A19892B49F48091FE0416
:102A600090E00196B1010E941E198093FE048091AE
:102A70007A0980937B090E945D0A80937A090E94FB
:102A80005D0A91E0F82FF870BF2E83FF90E09093DD
:102A9000FD042DE834E03B832A83D12CAA24A3949F
:102AA0000A811B81E12CF801F080F0928C04C09027
:102AB0008B04FFEFFF1609F440C084EF8F0D8630C2
:102AC00018F580910E0140E1942E981A9D0C4CE26D
:102AD000692D8E2D0E941C0B8F2D8C50990B9C0103
:102AE0008091FE04820F932F911DB1010E941E1947
:102AF0004CE0480F40938C04692D1CC08091040564
:102B00008F5F8093040582CF9AE0F912CBC0809149
:102B10000E01CC2029F0883019F4EBE0E0938C040E
:102B2000FD2CF80E4CE26F2D8E2D0E941C0B409157
:102B30008C046F2D8E2D0E941C0B095F1F4F28E007
:102B4000E20E30E8E312AFCFD20E8A819B8101966C
:102B50009B838A8398E3D912A3CFCC2021F0809164
:102B60000E01813420F080918A04811175C000919A
:102B70000D0110E07801EDE1EE0EF11CF0910C0179
:102B80002F2F30E03B832A83290185E0480E511C1A
:102B9000480193E0890E911C9701A201B4018A813A
:102BA0009B8102960E94F80F6801E2E0CE0ED11CD4
:102BB0004A815B814C5F5F4F9701B6018A819B819F
:102BC0000E94F80F9701A201B6018A819B810196AC
:102BD0000E94F80FAA80BB80F6E1AF0EB11C9801ED
:102BE000245E3F4FA501B4018A819B8149960E94D2
:102BF000F80F4A815B81495E5F4F9701B6018A8178
:102C00009B814B960E94F80F9701A501B6018A811E
:102C10009B814A960E94F80F4A815B814B5E5F4F11
:102C20009701B7018A819B8106960E94F80FB8012F
:102C3000625E7F4F9B01A501C2010E94F80FB8019F
:102C4000615E7F4F4A815B814C5E5F4F9B018A8151
:102C50009B8107960E94F80F80910B01298128170C
:102C600040F080910205811104C080918A04811195
:102C7000FFC180910E01813408F085C01092700967
:102C800010926F098FEF8093710919823981303862
:102C900011F14CE260E0832F0E941C0B8981885F58
:102CA0008983F4CFF9E2FF1570F490900E019D0C2A
:102CB0004CE2692D8E2D0E941C0BB110FA24F0926B
:102CC0008C044F2D19CFCC2009F437CF60910E0121
:102CD0006D0D4F2D2FCF809188049091890460E174
:102CE0007EE00E940A1990E080E04AE00E9488128B
:102CF00085EA99E00E947C10809188049091890473
:102D0000B3010E940A19CB01B3010E940A198983F9
:102D100080938C048A3020F483EA99E00E947C102E
:102D200089810E94CC1287E38093700980936F0998
:102D30009FEF909371098091FF040E94CC1288E468
:102D400091E00E947B1284E68093700980936F0962
:102D5000EFEFE0937109F0918A04F9838EE999E02D
:102D6000FA3010F08AE999E00E947C1089810E9473
:102D7000CC12EBE1F5E091E8915009F466C0808156
:102D800080648193F9CF20918A04298388E00E948E
:102D9000BA0F39813111E0C0882329F081E0809396
:102DA0008A040E94720B84E00E94BA0F882329F0E3
:102DB0008BE080938A040E94720B0FE02DE340E2C7
:102DC00059E062E070E080E290E00E94440506E095
:102DD00020E340EF58E06AE370E080E590E00E9475
:102DE00044051092700910926F0994E19093710953
:102DF00088EE98E00E947C108FE5809370098093A4
:102E00006F09E4E1E093710982EE98E00E947C1082
:102E1000809102058823B9F01092700910926F0911
:102E2000FDE1F09371098AED98E00E947C108AE53B
:102E30008093700980936F092DE12093710982EDD1
:102E400098E00E947C100E9435119091FF048091BF
:102E50000B01981708F00CC180918704811108C1FB
:102E600080910E01893058F090918A04992339F0AD
:102E700090910305992319F0815080930E010E94CF
:102E80005D0A9091860482FFDFC0983209F0CFC0BE
:102E90000E94720B80E10E94BA0F882361F088E0E3
:102EA0000E94BA0F882339F080918A048F5F809343
:102EB0008A040E94720B80910E01883099F48091EF
:102EC00088049091890420918504222309F4C1C0CB
:102ED00001979093890480938804CC9708F4C4C028
:102EE0000E9435118091FF0490E0AC015595479503
:102EF000559547952091860433E834BD33E0959588
:102F000087953A95E1F7809587BD81EF80938000A2
:102F10004093880020938A0080E00E9435058091CC
:102F20008B04882339F090910E01983019F4815068
:102F300080938B0480918B04882309F43CCD80E03E
:102F4000EBE1F5E081118FEF002481938193819370
:102F500081930394D1F72FCD811105C084E00E94A5
:102F6000BA0F882319F080E480930E0138E2309381
:102F7000700930936F0984E1809371098AEC98E0BD
:102F80000E947C1089810E94CC1283E28093700998
:102F900080936F098EE18093710980918A048B3050
:102FA00068F483EC98E00E947C1080910B010E94F1
:102FB000CC1281EC98E00E947C1047CF84EB98E023
:102FC0000E947C108DE28093700980936F0988E2E3
:102FD0008093710980EB98E00E947C1080918804B6
:102FE0009091890460E17EE00E940A1990E080E0FF
:102FF0004AE00E9488128EEA98E00E947C1080913C
:10300000880490918904B3010E940A19CB01B3018D
:103010000E940A19898380938C048A3020F48CEAF8
:1030200098E00E947C1089810E94CC120ECF2091E2
:10303000780930917909237033279F5F232B09F09A
:1030400029CF9093860426CF992309F423CF91505A
:10305000F8CF803FE2ED9E0708F042CF01969093B3
:103060008904809388043CCF81E08093870438CF23
:103070008AE080938B0488E00E94BA0F882359F07D
:1030800080918704811107C080918A048F5F8093AB
:103090008A040E94720B84E00E94BA0F81110E9480
:1030A000720B80910E0190910305992329F08034D1
:1030B00018F48F5F80930E0180910E0180548093ED
:1030C000700980936F098FE0809371098091870464
:1030D000882361F188E998E00E947C108AE491E0FD
:1030E0000E947B1283E898E00E947C1025E631E084
:1030F0003B832A8310E000E080910F019091100142
:103100000817190708F0EECEEA81FB81618170E0B3
:10311000808141E090E00E94650A0F5F1F4F2A8185
:103120003B812E5F3F4F3B832A83E6CF8BE898E0BD
:10313000D3CFF999FECF92BD81BDF89A992780B57A
:103140000895262FF999FECF1FBA92BD81BD20BDEB
:103150000FB6F894FA9AF99A0FBE01960895052EC3
:1031600097FB1EF400940E94C61857FD07D00E94DA
:10317000D91807FC03D04EF40C94C618509540950E
:10318000309521953F4F4F4F5F4F08959095809513
:10319000709561957F4F8F4F9F4F08950E94FB1848
:1031A000A59F900DB49F900DA49F800D911D11249B
:1031B0000895A1E21A2EAA1BBB1BFD010DC0AA1F78
:1031C000BB1FEE1FFF1FA217B307E407F50720F090
:1031D000A21BB30BE40BF50B661F771F881F991F0B
:1031E0001A9469F760957095809590959B01AC0154
:1031F000BD01CF010895A29FB001B39FC001A39F5D
:10320000700D811D1124911DB29F700D811D11241F
:10321000911D0895AA1BBB1B51E107C0AA1FBB1F2C
:10322000A617B70710F0A61BB70B881F991F5A9552
:10323000A9F780959095BC01CD01089597FB072EC5
:1032400016F4009407D077FD09D00E940A1907FCF4
:1032500005D03EF4909581959F4F089570956195A6
:103260007F4F0895EE0FFF1F0590F491E02D099414
:04327000F894FFCF00
:10327400020219100510161C15640564403E2890BE
:1032840001FFFFFFFF00E100000000000000C1801B
:1032940081000000000000005406ED0775066A0670
:1032A400BB067906970600000000830A6807190B1D
:0E32B400180B00000000670725000D0A00003F
:00000001FF
