:100000000C940B060C9433060C9433060C943306B4
:100010000C9433060C9433060C9433060C9433067C
:100020000C9433060C9433060C9408170C94771731
:100030000C9433060C9433060C9433060C9433065C
:100040000C9433060C9433060C9433060C9433064C
:100050000C9433060C9433060C9433060C94A919B3
:100060000C9433060C9433060C9433060C9433062C
:100070000C9433060C9433060C9433060C9433061C
:100080000C94F3190C9433060C9433060C94330639
:100090000C9433060C9433060C9433060C943306FC
:1000A0000C9433060C9433060C9433060A0D061B8D
:1000B0002850A0C060904894242241D1CD452224EC
:1000C000944A916E00000102020506070706050228
:1000D000020508076295659565950D6561F16905ED
:1000E00062946868040A0A0A0A0A090808080B05E3
:1000F0000402010160F06864F29C0F9792F26A6555
:1001000002F468980000010204030F0E0404050ABB
:100110000402010188012C012601C8005D01C8000C
:1001200088012C010080040904090F06060F09024A
:10013000090200000000003E5B4F5B3E3E6B4F6BD0
:100140003E1C3E7C3E1C183C7E3C181C577D571CB8
:100150001C5E7F5E1C00183C1800FFE7C3E7FF0031
:1001600018241800FFE7DBE7FF30483A060E26297F
:10017000792926407F050507407F05253F5A3CE742
:100180003C5A7F3E1C1C08081C1C3E7F14227F2208
:10019000145F5F005F5F06097F017F006689956AD3
:1001A000606060606094A2FFA29408047E0408105E
:1001B000207E201008082A1C08081C2A08081E1087
:1001C0001010100C1E0C1E0C30383E3830060E3E3F
:1001D0000E06000000000000005F0000000700079E
:1001E00000147F147F14242A7F2A122313086462C8
:1001F00036495620500008070300001C2241000029
:1002000041221C002A1C7F1C2A08083E0808008086
:10021000703000080808080800006060002010081E
:1002200004023E5149453E00427F4000724949491F
:10023000462141494D331814127F10274545453951
:100240003C4A494931412111090736494949364655
:100250004949291E00001400000040340000000835
:1002600014224114141414140041221408020159D8
:1002700009063E415D594E7C1211127C7F49494965
:10028000363E414141227F4141413E7F49494941FA
:100290007F090909013E414151737F0808087F0029
:1002A000417F41002040413F017F081422417F40AF
:1002B0004040407F021C027F7F0408107F3E414186
:1002C000413E7F090909063E4151215E7F091929F6
:1002D00046264949493203017F01033F4040403FE0
:1002E0001F2040201F3F4038403F63140814630321
:1002F000047804036159494D43007F4141410204A0
:10030000081020004141417F0402010204404040A6
:100310004040000307080020545478407F2844449C
:10032000383844444428384444287F3854545418B6
:1003300000087E090218A4A49C787F0804047800B1
:10034000447D40002040403D007F10284400004193
:100350007F40007C047804787C08040478384444A6
:100360004438FC1824241818242418FC7C0804049D
:1003700008485454542404043F44243C4040207C06
:100380001C2040201C3C4030403C44281028444C59
:100390009090907C4464544C440008364100000026
:1003A000770000004136080002010204023C2623C7
:1003B000263C1EA1A161123A4040207A385454557F
:1003C000592155557941215454784121555478404B
:1003D00020545579400C1E527212395555555939D1
:1003E0005454545939555454580000457C41000226
:1003F000457D420001457C40F0292429F0F0282564
:1004000028F07C545545002054547C547C0A097FC4
:100410004932494949323248484832324A484830DC
:100420003A4141217A3A42402078009DA0A07D398E
:10043000444444393D4040403D3C24FF2424487E10
:100440004943662B2FFC2F2BFF0929F620C0887EFD
:10045000090320545479410000447D413048484A02
:1004600032384040227A007A0A0A727D0D19317DB5
:100470002629292F28262929292630484D40203889
:100480000808080808080808382F10C8ACBA2F1048
:100490002834FA00007B000008142A142222142AAF
:1004A00014089500220095AA005500AAAA55AA553D
:1004B000AA000000FF00101010FF00141414FF0029
:1004C0001010FF00FF1010F010F0141414FC0014B2
:1004D00014F700FF0000FF00FF1414F404FC1414D0
:1004E00017101F10101F101F1414141F00101010CD
:1004F000F0000000001F101010101F10101010F05E
:1005000010000000FF101010101010101010FF103D
:10051000000000FF140000FF00FF00001F10170084
:1005200000FC04F414141710171414F404F400005D
:10053000FF00F714141414141414F700F71414140F
:10054000171410101F101F141414F4141010F010AE
:10055000F000001F101F0000001F14000000FC141A
:100560000000F010F01010FF10FF141414FF14100E
:1005700010101F00000000F010FFFFFFFFFFF0F061
:10058000F0F0F0FFFFFF0000000000FFFF0F0F0F73
:100590000F0F38444438447C2A2A3E147E02020657
:1005A00006027E027E0263554941633844443C049E
:1005B000407E201E2006027E020299A5E7A5991C16
:1005C0002A492A1C4C7201724C304A4D4D30304839
:1005D000784830BC625A463D3E494949007E010197
:1005E000017E2A2A2A2A2A44445F444440514A442C
:1005F0004040444A51400000FF0103E080FF0000FA
:1006000008086B6B083612362436060F090F0600F1
:100610000018180000001010003040FF0101001FFA
:1006200001011E00191D1712003C3C3C3C0000005B
:100630000000F0F89C8E8783878E9CF8F00000FE07
:10064000FF0303030303070EFCF80000FEFF030390
:10065000030303070EFCF80000FFFF00000000008A
:100660000000FFFF0000FEFF8383838383C7EE7CCF
:10067000380000F8FC0E07030303070EFCF8000027
:100680003F7FE0C08080C0E07F3FFFFF01010101AC
:10069000010101FFFF0000FFFF0C0C0C0C1C3E775A
:1006A000E3C100007FFFC0C0C0C0C0E0703F1F00BA
:1006B000001F3F70E0C0C0C0E0703F1F00007FFF20
:1006C000C1C1C1C1C1E3773E1C00001F3F70E0C043
:1006D000C0C0E0703F1F000000000001FFFF0100EC
:1006E0000000D5F08D14A1C881CFD9F1AF2000084A
:1006F00000002080000000000000000A000000044C
:100700000020180060C08000000000000000000011
:10071000002024218000000000000400000098B0A8
:100720008000018280063D7F1E4C7C380000000066
:1007300000000D31F9FE6C78E0C0000000000001FF
:100740000008387C408510C0888000000000000050
:10075000000000000103030203010000000000008C
:1007600000000000000E0B1F3B293F1C0000000092
:10077000000000FE00F400FE000000000000000089
:100780000000000000000000000000000000000069
:100790000090E0EAC0E7F0C490C00000C060F090B4
:1007A0008080C4C6FEFED6CC88D0200000000000A9
:1007B00000FF1F3FFFFFFFFFFFFFFF0060F89E07E6
:1007C00041400000000600004141079EF860000023
:1007D0000001030604090905060301000001070ED4
:1007E000181830306066303018180E07010000000D
:1007F0003C66C2800814121408E0F002F3F9090CF8
:100800000C060585C4FB2C848EFAF8C0041C180065
:10081000003C27E1C000000010282494C8E3FFF347
:10082000FBFBFDFDFBF282BEF90101C13700800038
:100830000000800141A3D0E82C5EFFADF7DBFF7F15
:100840003F1F0F0703080C35493101000043615079
:100850000094C204B58200251B090F0507010000A2
:100860000001030634546410302020242A2A260074
:10087000000000000000000000001FF1C0003EFF6B
:10088000FDF9F3670F9E9E0464F8F8F0C0000000C5
:100890000000000000E02020BC848477F0F0EEDC53
:1008A000B9716266070F0F0F1E1C1D1F1F0E00403F
:1008B0007808EFE1E1DDBC7CFBF7EF1F9E9D1303A1
:1008C000C3C4C0C0FCFCFCC0C0C0C201108880789A
:1008D000172F3E1D1B07070700000000000804003B
:1008E000211101011FDF1F010111210004080099DE
:1008F000245AB5AD5A24990C181A1E162D041253F9
:100900008A552232142A1122954A93112A1432C090
:10091000A1160A14A442A2150915A242A4140A168B
:10092000A1C00B040B0A05080804090A05080804FD
:10093000090A050C0BC0A1160A14A44202050905F8
:100940000242A4140A16A1C00B040B0A05080804ED
:10095000080804080804090A050C0BFC0202FD073C
:100960000E0E0D1D9A9AF60304040B0C07070B0BD1
:100970000505061F2E4C4C8C4C5221408086FC7A7B
:100980003121202169C62190481F2E4C4C8C4C5E91
:100990003F7FFFFFFC7A3121202169FEFFFFFF002E
:1009A000A05008C402312F448B9A94981038242800
:1009B00034223814949A908E4B231E0E8E462612A3
:1009C0008C4661910E9060010415A27411121210F0
:1009D000109050101195B9A5A5A5A5A51C501010F3
:1009E00010105A8118245A81815A2442A518180CD3
:1009F000182412090A1C30D00904F2092914040829
:100A0000384414482919222428302020211214188F
:100A100021428689700906000000000000000000E5
:100A200001010100000000000000000000000000C3
:100A300000000000000000000000000000000000B6
:100A400000100840A020501020C8140840000000EA
:100A50000021000A05080A05081403080400000024
:100A60000060887402A4161A449824689004000058
:100A70000822851A2528284148202318241300001D
:100A8000926C02770912020533668C30C8010002AD
:100A9000251A2448484122211894222019062008AA
:100AA000F1DC0626E73337273F0E061C72C08807A5
:100AB0007558CC989090C242C3603C4740328F003A
:100AC00000100840A020501020C81408400000006A
:100AD0000021000A05080A050814030804000000A4
:100AE00000100840E0E0F0F0E0C81C084000000002
:100AF0000021000A070F0F070F170308040000006A
:100B0000006088FCFEFCFEFEFCF8FCF8900400008F
:100B10000822871F3F3F3F7F7F3F3F1F2713000073
:100B200092FCFEFFFFFEFEFFFFFEFCF0C80100028C
:100B3000271F3F7F7F7F3F3F1F9F3F3F1F062008AC
:100B4000F1FCFEFEFFFFFFFFFFFEFEFCF2C0880788
:100B5000777FFFFFFFFFFF7FFF7F3F7F7F3F8F009C
:100B600000100840E0E0F0F0E0C81C084000000081
:100B70000021000A070F0F070F17030804000040A9
:100B800048E8EC56B7F70B8ADC888890D0606000A4
:100B90000202060D0C0D0D05030101000000000806
:100BA0000B00020202010009040000010202000021
:100BB0000524001001052401010104240206052476
:100BC0000600010705810310004009040100020A24
:100BD00000000007050202400000070583024000F4
:100BE000000403090412010002EF02014041233610
:100BF0008000010102030141726475696E6F204C2F
:100C00004C430041726475696E6F204C656F6E6174
:100C100072646F00CC1A11241FBECFEFDAE0DEBF82
:100C2000CDBF12E0A0E0B1E0E4E5FAE502C0059036
:100C30000D92AE36B107D9F727E0AEE6B2E001C0BB
:100C40001D92A839B207E1F716E0CBE0D6E004C068
:100C50002197FE010E94E42BCA30D107C9F70E94F8
:100C60000D1B0C94282D0C94000080917C0208959B
:100C70009C01CB018770992791E001C0990F8A955B
:100C8000EAF777FF02C0695F7F4FFB0183E0F595CC
:100C9000E7958A95E1F7F695FE2FEE27F795E7950C
:100CA000E20FF31FE35EFC4F415030F08191DF0112
:100CB0001197892B8C93F8CF0895EDE1F3E0A0E034
:100CC000B8E000800EBC8111012C1197A0FDFDCF72
:100CD0000192B9F70DB40895FC0180911C0388239B
:100CE00011F13FB7F89482E08093E9002091F2007F
:100CF000822F90E01816190614F481E090E0882302
:100D000039F0289844E640931B034091F10040835A
:100D1000222339F02091F200211103C02BE6209309
:100D2000E8003FBF08958FEF9FEF08952FB7F89425
:100D300083E08093E9009091E800892F807295FF0D
:100D400004C09091F20080E4891B2FBF0895809128
:100D5000130381110DC082E080930F0384E0809320
:100D60001003109212031092110381E08093130379
:100D70008FE093E00895CF93DF931F92CDB7DEB756
:100D80006983DC01ED91FC910280F381E02D41E06B
:100D900050E0BE016F5F7F4F09950F90DF91CF91BB
:100DA000089583E08093E9008091F200882319F090
:100DB0008AE38093E80008950E94960690E00895E3
:100DC000CF93DF931F92CDB7DEB7FC018485958565
:100DD00097FD08C02FEF3FEF358724870F90DF91F5
:100DE000CF910895CE0101960E946C06019719F4E7
:100DF000898190E0F3CF8FEF9FEFF0CF0F931F9398
:100E0000CF93DF931F92CDB7DEB78C01FC018485B1
:100E1000958597FF0BC0CE0101960E946C06019745
:100E200071F4898190E0F80195878487F8018485C1
:100E300095850F90DF91CF911F910F9108958FEFBE
:100E40009FEFF1CFFC018485958597FD0BC09FB77F
:100E5000F89482E08093E9008091F2009FBF90E0D7
:100E6000019608959FB7F89482E08093E9008091FD
:100E7000F2009FBF90E008954091090350910A034A
:100E8000209107033091080342175307B4F490915F
:100E9000E8009570E1F39091E80092FD19C080930D
:100EA000F1008091090390910A0301968F739927AD
:100EB000892B19F48EEF8093E800809109039091BB
:100EC0000A03019690930A038093090381E0089531
:100ED00080E00895DF92EF92FF920F931F93CF93DC
:100EE000DF93D82E8A01EB017B01E40EF51ECE15AF
:100EF000DF0559F0D7FE12C0FE0184910E943C0725
:100F000021968111F4CF0FEF1FEFC801DF91CF9130
:100F10001F910F91FF90EF90DF9008958881EECFA1
:100F20000F931F93CF93DF931F92CDB7DEB782E06D
:100F3000898342E450E06FE97BE080E80E946A0721
:100F40000E94A706DC0112960D911C910115110556
:100F500089F0D801ED91FC910280F381E02DBE0172
:100F60006F5F7F4FC801099597FD04C0F8010085A8
:100F70001185ECCF89810F90DF91CF911F910F9157
:100F80000895615030F02091F100FC01208301961A
:100F9000F8CF289884E680931B030895AF92BF9200
:100FA000CF92DF92EF92FF920F931F93CF93DF9335
:100FB0006C017B018B01040F151FEB015E01AE1864
:100FC000BF08C017D10759F06991D601ED91FC9186
:100FD0000190F081E02DC6010995892B79F7C501B3
:100FE000DF91CF911F910F91FF90EF90DF90CF9005
:100FF000BF90AF9008953FB7F89480917802909198
:101000007902A0917A02B0917B0226B5A89B05C017
:101010002F3F19F00196A11DB11D3FBFBA2FA92F77
:10102000982F8827BC01CD01620F711D811D911D74
:1010300042E0660F771F881F991F4A95D1F70895E0
:101040008F929F92AF92BF92CF92DF92EF92FF92D8
:101050006B017C010E94FB074B015C01C114D104B0
:10106000E104F104B9F00E94FB07681979098A09C3
:101070009B09683E73408105910580F321E0C21A07
:10108000D108E108F10888EE880E83E0981EA11CC3
:10109000B11CE4CFFF90EF90DF90CF90BF90AF9066
:1010A0009F908F9008958F929F92AF92BF92CF9210
:1010B000DF92EF92FF920F931F93CF93DF936C0118
:1010C0007B018A0180914701882309F45CC08091EB
:1010D0001C03882309F457C080910E0380FF05C0CC
:1010E0008091E00082608093E000E801B12C8AEFFB
:1010F000A82E93E0892E2AE3922E209711F4BB208C
:10110000D9F10E94960681110AC0AA94AA20D9F1A9
:1011100061E070E080E090E00E942008EECF8C1744
:101120001D0611F00CF08C2F9FB7F8948092E90007
:101130002091E80025FD02C09FBFDFCF282F30E0BF
:10114000C21BD30BF701815020F041914093F10075
:10115000FACFE20EF31EBB2021F09092E800B12CF2
:10116000EBCF8091E80085FDE7CF9092E800BB24AB
:10117000B394209709F3F3CF5D9884E680930D0331
:10118000101611063CF081E090E0F6019383828313
:1011900010E000E0C801DF91CF911F910F91FF9007
:1011A000EF90DF90CF90BF90AF909F908F90089579
:1011B00020919102E0918F02F0919002CF0102966E
:1011C0009093900280938F02222319F0859194913D
:1011D0000895808191810895CF92DF92EF92FF92DE
:1011E000CF93DF930E94D808811520E8920791F4ED
:1011F000809171008D7F80937100109291004698CC
:10120000479810927002DF91CF91FF90EF90DF909E
:10121000CF90089521E020937002813020E892075A
:1012200051F480918D0290918E0290939002809360
:101230008F020E94D80897FD05C020916F022223DB
:1012400009F454C020916E02211150C021E0209376
:101250007102EC01DF77209709F04BC081E08093A9
:10126000720246983FE9C32E3FE0D32EE12CF12CC9
:10127000CAEFD0E0E0917B07F0917C0709958111DE
:1012800003C081E08093720280917102882329F06B
:1012900080917202882309F43FC047980E94D808C1
:1012A0000097F1F19C01DE010E945629DC01CB017F
:1012B00029E0B595A795979587952A95D1F710922E
:1012C00090002AE020939100D0929900C09298005B
:1012D0008093730290937402A0937502B093760288
:1012E000809171008260809371008DCF10927102A5
:1012F000B0CF9E0150E040E060E472E48FE090E007
:101300000E94022969017A0181E0C81AD108E10826
:10131000F10810927202AECF4699BFCF479ABECF66
:101320008FEF9FEFDC01CBCFEF92FF920F931F93D4
:10133000DC01E1E7F0E090819D7F908310929102C3
:10134000EDE6F7E0F0939002E0938F02F0938E02C7
:10135000E0938D02B183A0837383628355834483BA
:101360003783268311870087F386E2861F910F91CA
:10137000FF90EF900C94EC089C01E1E7F0E0908185
:101380009D7F908310929102EDE6F7E0F09390023A
:10139000E0938F02F0938E02E0938D0231832083DD
:1013A0007383628380E090E8958384830C94EC08D7
:1013B0002D9A0895BC0190E080E00C9420088FB134
:1013C0008095807F669B88601C9B846008953F9217
:1013D0004F925F926F927F928F929F92AF92BF9245
:1013E000CF92DF92EF92FF920F931F93CF93DF93F1
:1013F00030E0F901E80FF91FF7FDBFC08038910513
:101400000CF0BBC0FB01E00FF11DF7FDB6C060346E
:1014100071050CF0B2C0DB0177FF04C0AA27BB271F
:10142000A61BB70BA770BB27FB0177FD3796C3E060
:10143000F595E795CA95E1F777FF07C0319768E022
:1014400070E0EB01CA1BDB0BDE01402E4694469494
:101450004694512C077019F0DFEF4D1A5D0ABF0159
:10146000EF01D695DC2FCC27D795C795C80FD91F8C
:10147000C35EDC4F8A01460E571E48E050E04A0129
:101480008A1A9B0A4616570609F477C06830710518
:1014900009F473C06F3FEFEF7E070CF44BC06C0193
:1014A00050E040E03E01E0E86E0E711CD7FC35C014
:1014B0006F3F760709F45DC05E01A40EB51EF5010D
:1014C000F080F801E40FF51F33243394E31039C0A2
:1014D000E4910A2E01C0EE0F0A94EAF7FE2AF50104
:1014E000F0821097D1F067307105B9F05301A40E66
:1014F000B51EF501F080F801E40FF51F3324339495
:10150000E3102BC0E491F0E0082C02C0F595E795BC
:101510000A94E2F7FE2AF501F0824F5F5F4FFFEF7A
:10152000CF1ADF0A421753072CF4F0E8CF16D10484
:1015300009F0BCCF6F5F7F4FC058DF4F020F131F02
:10154000A1CFE491F0E00A2E02C0EE0FFF1F0A9433
:10155000E2F7E095F095FE22C2CFE491F0E0082C8E
:1015600002C0F595E7950A94E2F7E095F095FE2222
:10157000D2CF109709F0BACFD0CFDF91CF911F9182
:101580000F91FF90EF90DF90CF90BF90AF909F9022
:101590008F907F906F905F904F903F90089580382C
:1015A0009105B8F460347105A0F420E191E061FD8B
:1015B00094E060FD990F62FD9295687F269FD001AF
:1015C0001124A80FA35EBC4F8C9140FF03C0892B50
:1015D0008C93089590958923FBCF8F929F92AF9221
:1015E000BF92CF92DF92EF92FF920F931F93CF9310
:1015F000DF935C01EB01042FE22E6034710510F4DF
:101600000E943806EC0EFD2EF11CB70161507109E5
:101610006034710520F4402FC5010E943806D7FFC1
:1016200002C0D0E0C0E04E01670181E4E816F10499
:101630001CF080E4C82ED12C8C149D044CF441E0A5
:10164000B401C5010E94CF0A8FEF881A980AECCF27
:101650000A0D1B2D111D01501109CC15DD053CF49F
:1016600041E0BE01C8010E94CF0A2196F6CFDF916A
:10167000CF911F910F91FF90EF90DF90CF90BF908F
:10168000AF909F908F9008952F923F924F925F92CC
:101690006F927F928F929F92AF92BF92CF92DF9282
:1016A000EF92FF920F931F93CF93DF93EC018B0187
:1016B0007A016901C61AD70AD7FE03C0D194C19432
:1016C000D10847018C1A9D0A97FE03C0919481941A
:1016D00091088C149D0454F49E2D8F2D7901292F8F
:1016E000382F9C2F8D2FE801092F182FEC16FD069F
:1016F00054F4902F812F8901292F382F9C2F8D2F63
:10170000E701E92EF82E17012C1A3D0A2901401A8B
:10171000510A57FE03C0519441945108310137FEDC
:1017200003C08FEF681A780A759467948FEF0217D9
:1017300013070CF481E0A82E880FBB08EC16FD06F9
:10174000A4F041E0BE01C8018C149D0414F0B8015E
:10175000CE010E94CF0A6418750877FE04C00A0DF6
:101760001B1D620C731C2196E9CFDF91CF911F9155
:101770000F91FF90EF90DF90CF90BF90AF909F9030
:101780008F907F906F905F904F903F902F90089533
:101790002F923F924F925F926F927F928F929F9281
:1017A000AF92BF92CF92DF92EF92FF920F931F936F
:1017B000CF93DF93CDB7DEB72A970FB6F894DEBF8D
:1017C0000FBECDBF9A8389836A3061F5DC015596DF
:1017D0008C91B8E08B9F90011124E981FA81818975
:1017E0009289820F931F928B818B108A178681E0DA
:1017F00090E02A960FB6F894DEBF0FBECDBFDF9102
:10180000CF911F910F91FF90EF90DF90CF90BF90FD
:10181000AF909F908F907F906F905F904F903F9090
:101820002F9008956D3019F329813A813A872987DD
:10183000D9011F96AD90BC90B0E8AB16B1040CF086
:101840007BC0F901C188D288F0E4CF16D1040CF036
:1018500073C0D90155966C90559745E09501649EEB
:10186000200D311D1124121613060CF065C0262C14
:10187000312C910153E0220F331F5A95E1F72C0DC3
:101880003D1D121613060CF057C05496BC91BB8335
:10189000E985FA85F389FC83649FB00111249B01DB
:1018A0002E5C3E4F3A832983712CE981FA81849121
:1018B000F5E07F1201C080E0460138E0532E282F6A
:1018C00030E03E832D834C8080FF4B80411004C06C
:1018D0003B818C813817E1F010E000E00615C0F480
:1018E000D501A00FB11FB887AF83F12CE12CE6140E
:1018F00060F4B701680D791D442D8F8198850E9491
:10190000CF0ABFEFEB1AFB0AF2CF0F5F1F4FE6CFF4
:101910008D819E81959587955A94820C931C5110C8
:10192000CECF7394E981FA813196FA83E983A20CD0
:10193000B31CF6E07F12B9CFA985BA8555962C91D4
:101940005597422F50E01F968D919C91B6E02B9FAA
:10195000800D911D1124E985FA85908B8787268952
:10196000222309F444CF6AEF64039001659F300D90
:10197000112420583F4F281739070CF038CFDF01CA
:101980000190F081E02D0190F081E02D6AE0CD0121
:1019900009952DCF0895089590E080E00895EF9285
:1019A0000F93CF93DF93C0910101D0910201EE24F8
:1019B000E3940CE020E14FE75BE0BC01CE010E9424
:1019C000E709CE01019690930201809301012091D5
:1019D0000001222359F0C9974CF0D0930201C09323
:1019E00001010E94DF0983FD109200018091010135
:1019F000909102018138910594F080EF9FEF9093D0
:101A000002018093010180910503909106030196E4
:101A1000909306038093050381E080930001DF919A
:101A2000CF910F91EF900895BF92CF92DF92EF92F6
:101A3000FF920F931F93CF93DF936C01B62EEC01AF
:101A4000CC0FDD1FCC0FDD1FFE01E95DFE4F808155
:101A50009181019779F486E9E82EF12C01E310E0F9
:101A600024E630E04CE250E064E670E089E290E089
:101A70000E949409FE01E95DFE4F828193814496A4
:101A800021F4BB2011F013821282C95DDE4F8881E0
:101A9000998185309105CCF42A813B812330310531
:101AA00074F42F5F3F4F3B832A83DF91CF911F91C7
:101AB0000F91FF90EF90DF90CF90BF900895019627
:101AC000998388831B821A82F0CF198218828CEE48
:101AD0009FEF9B838A8381E0C816D10441F081E0A7
:101AE00022E0C216D10439F080939702DECF81E064
:101AF00080939602DACF80939502D7CF6F927F9230
:101B00008F929F92AF92BF92CF92DF92EF92FF920D
:101B10000F931F93CF93DF93A0900103B090020324
:101B2000C090FF02D0900003B501655F7F4FEE24A7
:101B3000E3940CE020E14FE75BE0C60101960E94D0
:101B4000E7090E94DF09C0913A01D0913B0184FF6F
:101B50000CC0C530D10509F036C1809125019091A6
:101B600026018E3591050CF42EC10E94DF0987FDF8
:101B70003DC10E94DF0986FF0CC0C530D10509F0C8
:101B800049C180912501909126018E3591050CF473
:101B900041C10E94DF0985FD50C1009103011091F0
:101BA0000401C330D10531F482E390E09093040145
:101BB000809303010E94DF092091340130913501A7
:101BC00083FF08C080910301909104012817390711
:101BD0000CF04BC12F5F3F4F309335012093340100
:101BE00010930401009303018BEEE82E82E0F82E9F
:101BF000CFEFD2E001E010E0D701ED91FD917D0142
:101C0000868D8823A1F12091FF023091000380810D
:101C10009181A901415F5F4F4817590744F10F9621
:101C20008217930724F120910103309102038281EE
:101C30009381A901455F5F4F48175907C4F00B9680
:101C400082179307A4F0168E809136019091370188
:101C5000823091050CF479C10197909337018093FC
:101C600036016BE470E089E290E00E94BC09CE1579
:101C7000DF0511F680913A0190913B01059709F03B
:101C800041C02091FF023091000380911301909197
:101C90001401A901415F5F4F481759079CF14D9608
:101CA000821793077CF12091010330910203809108
:101CB000250190912601A901415F5F4F48175907FF
:101CC0000CF1099682179307ECF080913601909100
:101CD0003701823091050CF43DC101979093370193
:101CE000809336016BE470E089E290E00E94BC09C9
:101CF00087EE93E090931401809313011092990260
:101D00001092980280913A0190913B01059709F059
:101D10004BC02091FF023091000380910F01909100
:101D20001001A901415F5F4F48175907ECF1079671
:101D300082179307CCF180910103909102032091C7
:101D40000D0130910E01AC014A5E5F4F42175307FF
:101D50005CF10596821793073CF5809136019091CE
:101D60003701823091050CF4FCC001979093370144
:101D7000809336016BE470E089E290E00E94BC0938
:101D800087EE93E09093100180930F0190930E01E2
:101D900080930D0110929402109293021092990276
:101DA0001092980210929202DF91CF911F910F91A1
:101DB000FF90EF90DF90CF90BF90AF909F908F906B
:101DC0007F906F90089582E0A80EB11CA8E2AA1639
:101DD000B1042CF4B0920203A0920103CACE88E2AF
:101DE00090E09093020380930103C3CEC530D105E8
:101DF00041F480912501909126018E3591050CF0DA
:101E0000B8CEB2E0AB1AB1081A141B041CF381E07F
:101E100090E0E7CF82E0C80ED11CAFE2CA16D10431
:101E20002CF4D0920003C092FF02B7CE8FE290E074
:101E3000909300038093FF02B0CEC530D10561F4CA
:101E400080912501909126010091030110910401D8
:101E50008E3591050CF0AECEB2E0CB1AD1081C1431
:101E60001D04FCF281E090E0E3CF10923501109266
:101E700034018090FF029090000388E0880E911C4E
:101E80004091810250918202A0900103B090020320
:101E90006501A4E1CA0ED11CB501615F7F4F7501D8
:101EA000BAE0EB0EF11CD50152968CE0A80EB11CE5
:101EB00090E080E030E020E077247394FC01EE0FA6
:101EC000FF1FE556FD4F0190F081E02D6480611009
:101ED00022C07482158291828082C330D10529F498
:101EE0007383628388E290E016C04130510561F04F
:101EF00042305105C1F04115510511F473836283DD
:101F00004217530731F4EECF2115310549F4B3825E
:101F1000A2822F5F3F4F0196883291057CF260CEFE
:101F2000B383A283EDCF2130310549F02230310552
:101F300049F02115310521F7F382E282EACF73835C
:101F40006283E7CFD382C282CDCF10933B0100934F
:101F50003A018DCE81E090E090933B0180933A016D
:101F6000C7CE81E090E090933B0180933A0108CF87
:101F70002F923F924F925F926F927F928F929F9299
:101F8000AF92BF92CF92DF92EF92FF920F931F9387
:101F9000CF93DF93CBE9D2E08FEF482E82E0582E2B
:101FA00092E0892E912CAA24A394B12C34E1C32E63
:101FB00031E0D32E43E0242E312C68807980D30188
:101FC00014968C911497882309F42EC18D919C91BD
:101FD000119712966D917C91139715962C911597E8
:101FE000222309F43BC103978D939C93EE24E39441
:101FF00004E026E04CE251E00E94E709D3018D9114
:102000009C91119744968539910510F014961C9275
:102010000BEE12E0FF24F39468817981FB01858146
:10202000811136C0D801ED91FC91868D882381F114
:10203000DB012D913C91119780819181A9014B5F2A
:102040005F4F4817590724F10F968217930704F141
:1020500012962D913C91139782819381AC01495F37
:102060005F4F42175307A4F446968217930784F0F4
:1020700014961C928481958120910501309106016E
:10208000281739070CF0F5C0821B930B95838483C6
:102090000E5F1F4F4016510609F0BECFE881F9814F
:1020A00085818823A1F1208131818091FF02909167
:1020B0000003A9014B5F5F4F4817590744F10F9682
:1020C0008217930724F1228133818091010390913B
:1020D0000203AC01495F5F4F42175307C4F44696B1
:1020E00082179307A4F014828091360190913701F2
:1020F000823091050CF451C1019790933701809380
:1021000036016BE470E089E290E00E94BC09209106
:102110003A0130913B012530310509F043C160910E
:1021200021017091220120911F01309120018091A5
:102130001D0190911E01161617060CF478C1121697
:1021400013060CF4A7C1181619060CF4A3C1E881F4
:10215000F981608171814091230150912401DB015B
:102160001596A417B5070CF495C1495D5F4F461746
:1021700057070CF48FC16281738140912501509102
:102180002601DB011396A417B5070CF483C1485E42
:102190005F4F461757070CF47DC1148240911B0115
:1021A00050911C01141615060CF074C12091050104
:1021B00030910601421B530B50931C0140931B01AD
:1021C000181619068CF5E881F9814081518120911A
:1021D000230130912401B9016E5F7F4F64177507A9
:1021E0001CF5265E3F4F24173507F4F042815381DA
:1021F0002091250130912601DA011396B901695029
:102200007109A617B70784F02E5F3F4F24173507D3
:102210005CF014822091050130910601821B930B22
:1022200090931E0180931D012296EBEEF2E0EC17D5
:10223000FD0709F0C2CEDF91CF911F910F91FF9062
:10224000EF90DF90CF90BF90AF909F908F907F9056
:102250006F905F904F903F902F9008950396F301F9
:1022600091838083EE24E39404E026E046E251E08B
:10227000C3CE168E6BE470E081E390E00E94BC094F
:1022800020910303309104032F5F3F4F30930403E9
:1022900020930303D801ED91FC91468557858091E9
:1022A000870290918802840F951F909388028093F3
:1022B00087022E3131050CF4EBCE209109013091CB
:1022C0000A012130310509F04FC0409107015091BA
:1022D00008014130510521F49092080180920701D4
:1022E000C296909388028093870210920403109202
:1022F0000303F0929A022330310509F447C080911C
:1023000071008D7F80937100F0929102D0929002C3
:10231000C0928F02D0928E02C0928D020E94EC0871
:10232000E4E0F0E0F0933B01E0933A0182E390E0D7
:102330009093350180933401109218011092170187
:10234000EBEEF2E0A191B1915E961C924E165F0603
:10235000C9F7EBE9F2E0A191B19114961C92B2E0B9
:10236000EB3EFB07C1F794CE2230310509F0BDCF1B
:1023700040910701509108014230510521F43092FB
:102380000801209207018C599F4FABCFA5E0B0E028
:10239000B0933B01A0933A01D3CFB0923B01A092FE
:1023A0003A01B5CE2330310509F03ECFE881F981FD
:1023B00080819181CC970CF437CF82819381AC01DD
:1023C0004E5051094E30510550F410923B0110927D
:1023D0003A01B0920A01A0920901148225CF4091DE
:1023E000070150910801423051050CF41DCFBC018A
:1023F0006F5171096E30710548F410923B011092D3
:102400003A0190920A0180920901E7CF42305105CA
:1024100009F40ACFC0970E9708F006CF10923B013F
:1024200010923A0130930A0120930901D6CFE88136
:10243000F981A081B18140912301509124017D0156
:1024400015E0E10EF11C8A0107501109E016F106B2
:102450000CF14D5F5F4F4A175B07E4F0A281B38137
:1024600040912501509126018A010E5F1F4F0A17E6
:102470001B0784F44B5E5F4F4A175B075CF01482C6
:102480004091050150910601641B750B7093220168
:1024900060932101121613060CF092CEE881F981A7
:1024A000608171814091230150912401DA011696D7
:1024B000A617B7070CF084CE495E5F4F4617570743
:1024C0000CF47ECE628173814091250150912601EA
:1024D000DA011F96A617B7070CF072CE425E5F4F67
:1024E000461757070CF46CCE1482409105015091A9
:1024F0000601241B350B3093200120931F0160CE71
:1025000084EE90E090932401809323018EE190E08B
:10251000909326018093250181E090E090931A0129
:1025200080931901109299021092980228EE33E0DC
:1025300030931C0120931B012CEB32E030932201DD
:102540002093210147EE53E050931401409313016F
:1025500090931201809311013093200120931F0169
:102560005093100140930F0150930E0140930D01C1
:1025700010929402109293021092920230931E01D4
:1025800020931D0190930C0180930B0110929502F2
:102590001092960210929702E7E2F1E01182108207
:1025A0008CEE9FEF938382831582148297838683B8
:1025B00011861086938782870895FC010190002080
:1025C000E9F73197AF01481B590BBC018DE797E044
:1025D0000C94CE070C94DD128F929F92AF92BF9213
:1025E000CF92DF92EF92FF920F931F93CF93DF93DF
:1025F000CDB7DEB7A1970FB6F894DEBF0FBECDBF43
:102600006C01990FEE08FF08F7FE41C06DE28DE7FF
:1026100097E00E94C80B8C0122273327A9012C19AF
:102620003D094E095F0919A2CE0181967C019AE00D
:10263000892E912CA12CB12CCA01B901A5019401BC
:102640000E943429605DF70162937F0121153105F5
:102650004105510589F790E080E0309719F0CF01EE
:102660000E94DD12800F911FA1960FB6F894DEBF75
:102670000FBECDBFDF91CF911F910F91FF90EF90D3
:10268000DF90CF90BF90AF909F908F900895A7015B
:10269000960119A28E010F5D1F4F8AE0C82ED12C22
:1026A000E12CF12CCA01B901A70196010E9434293D
:1026B000605DF80162938F012115310541055105D7
:1026C00089F790E080E0309779F2CF010E94DD1227
:1026D000CBCFCF92DF92EF92FF920F931F93CF93C6
:1026E000DF932AE030E040E850E06AE070E090E0FC
:1026F00080E00E94440B2AE030E047E350E070E0C5
:1027000060E087E390E00E94440B2AE030E04DE572
:1027100050E070E060E08DE590E00E94440BEE2414
:10272000E39408E028E04FEE58E061E070E08FE5C8
:1027300090E00E94E70988E690E090938D078093EF
:102740008C0782E090E090938F0780938E078091B2
:102750008702909188020E94EC12C0913A01D091B8
:102760003B01C230D10509F44FC054F5D7FD30C04C
:1027700026E04FE162E070E08BE390E00E94ED0A1A
:10278000249709F452C0C0910303D09104030BE3D2
:1027900010E0DD27EB960C171D07D4F493E0E92E2B
:1027A000F12C41E0B701C8010E94CF0A8FEFE81A6F
:1027B000F80A87E0E816F104A1F70F5F1F4FEBCF8F
:1027C000C430D105A9F20CF443C0259709F44FC0D9
:1027D000C1E0D0E0D12CC12C80913601909137011D
:1027E000C816D9060CF080C0EE24E39408E028E077
:1027F0004CEA50E061E070E0CE010E94E7098FEF03
:10280000C81AD80A2996E8CF80E490E090938D0703
:1028100080938C0781E090E090938F0780938E07E0
:102820008BE991E00E94EA12D3CFCBE3D0E003E042
:1028300010E041E0B801CE010E94CF0A0F5F1F4FA8
:1028400007301105B1F72196C935D10581F7C0CF01
:1028500080E490E090938D0780938C0781E090E076
:1028600090938F0780938E0780EA91E0DBCF26E07C
:102870004FE162E070E08BE390E00E94ED0A80910E
:102880001B0190911C0120911F0130912001820FAA
:10289000931F20911D0130911E01820F931F2091E3
:1028A000210130912201820F931F67E670E00E94A0
:1028B000D02B0BE310E0EB01DD27EB960C171D0787
:1028C0000CF086CF83E0E82EF12C41E0B701C8017F
:1028D0000E94CF0A8FEFE81AF80A87E0E816F104A1
:1028E000A1F70F5F1F4FEACFDF91CF911F910F919B
:1028F000FF90EF90DF90CF9008950C94EC280E9409
:10290000232D2F923F924F925F926F927F928F92E0
:102910009F92AF92BF92CF92DF92EF92FF920F936E
:102920001F93CF93DF93809117019091180120910D
:102930003A0130913B0140911501509116018417E5
:1029400095070CF466C12530310509F4B9C0109221
:102950001801109217010E9438286FE070E00E9461
:10296000D02B0A96909316018093150190E080E099
:1029700052E8652E712C6FE0462E512C74E1272E03
:10298000312CEAE0CE2ED12CF4E0AF2EB12CA2E017
:10299000EA2EF12CEC01CC0FDD1F8E0105511D4FED
:1029A000D801ED91FC91268D211185C0B1E0B68F43
:1029B000718260820E943828D801ED91FC9169E211
:1029C00070E00E94D02B93838283809009019090C5
:1029D0000A01B2E08B16910409F4C3C023E0821609
:1029E000910409F4F5C08A94892811F580910303B4
:1029F000909104030F970CF4B1C00E943828D801BD
:102A0000ED91FC91B7010E94D02B97838683FE0144
:102A1000E551FD4F0190F081E02D86819781892B52
:102A200009F0BAC081E090E095838483F786E6865A
:102A30008E0105511D4FD801ED91FC911186108634
:102A40000E943828D801ED91FC91B2010E94D02B50
:102A50004E96938782871586148686819781019783
:102A600009F0D5C08281938144970CF0D0C0B1E0C9
:102A7000B48F0E943828C551DD4F0990D881C02DF0
:102A8000B1010E94D02BC296998B888B1D8E1E8A15
:102A90001F8A188E198E6A817B81072E000C880B85
:102AA000990B0E947C2A6A8B7B8B8C8B9D8B1B8E57
:102AB0001A8E8AE090E001968A3091050CF46ACF74
:102AC0003BEE232E32E0332EF101C081D1818E8D79
:102AD000882349F1888199812E813F8121303105F8
:102AE00009F4A1C02230310509F400C1232B91F46F
:102AF0009C0122503109398328836A817B81645F7C
:102B00007F4FEE24E3940CE020E144EF50E0019786
:102B10000E94E709D101ED91FC9180819181803F74
:102B20009F4F0CF4168EE2E02E0E311C8FEF92E0D8
:102B30008215930549F6DF91CF911F910F91FF9078
:102B4000EF90DF90CF90BF90AF909F908F907F904D
:102B50006F905F904F903F902F900895178216824C
:102B600056CF80910303909104030F97D4F00E94F5
:102B70003828D801ED91FC9163E070E00E94D02BE1
:102B800097838683FE01E551FD4F0190F081E02D92
:102B900086819781009761F4F582E482B786A686E4
:102BA00047CF0E943828D801ED91FC91B401E6CFBF
:102BB000019739F4B582A48286E090E097878687F2
:102BC00037CFD582C482A9E0B0E0B787A68730CFDF
:102BD0000E943828D801ED91FC91B4010E94D02BBD
:102BE00097838683009729F4D582C482D786C686C8
:102BF0001FCF019729F4558244825786468618CF05
:102C000089E190E0958384833786268611CF148EE0
:102C100030CF2530310509F453CF01969093180138
:102C2000809317014DCF9C012150310939832883AE
:102C30006A817B81645F7F4FEE24E3940CE020E1A6
:102C400044ED50E00E94E709888599852C8D8431F8
:102C50009105BCF40196998788878A819B812223FC
:102C600071F001969B838A838C859D852A853B859F
:102C70008217930764F401969D878C874BCF019749
:102C8000F1CFF1E02F272C8F19861886EDCF90E039
:102C900080E0FC01EE0FFF1FE556FD4F0190F08133
:102CA000E02D248121110FC021E024832583888118
:102CB00099810896918380838A819B810F96938363
:102CC000828388E290E001968832910514F30E9495
:102CD0003828D101ED91FC916FE070E00E94D02B7B
:102CE0004E96938782871586148614CF6A817B81DE
:102CF000645F7F4FEE24E3940CE020E144EB50E06E
:102D000001960E94E70968817981888999898617E7
:102D100097072CF46150710979836883FBCE0A8D83
:102D20001B8D101611060CF458C00115110509F081
:102D30004FC08091FF0290910003681B790B072E12
:102D4000000C880B990B0E947C2A6B017C016A8124
:102D50007B818091010390910203681B790B072E00
:102D6000000C880B990B0E947C2A4B015C01A70187
:102D70009601C701B6010E94082B2B013C01A50159
:102D80009401C501B4010E94082B9B01AC01C30151
:102D9000B2010E9466290E947B2B2B013C01AC01F1
:102DA0009B01C501B4010E94D2294B015C01A30122
:102DB0009201C701B6010E94D2299B01AC01C50155
:102DC000B4010E94082B90586E8B7F8B888F998F4F
:102DD000C80101969B8F8A8F9DCE625071097983BD
:102DE00068836E897F89888D998D9B01AC010E94D3
:102DF00066292A893B894C895D890E9466296A8BEC
:102E00007B8B8C8B9D8B0E94442A7B836A8382CE32
:102E10001F920F920FB60F9211248F939F93809160
:102E2000E1009091E100937F9093E10083FF0FC058
:102E30001092E90091E09093EB001092EC0092E385
:102E40009093ED0010921C0398E09093F00082FFA5
:102E500022C093E09093E9009091F200992319F039
:102E60009AE39093E80090910D03992341F090919B
:102E70000D03915090930D03911101C05D9A9091B3
:102E80001B03992341F090911B03915090931B03D6
:102E9000911101C0289A84FF18C08091E2008E7EB3
:102EA00081608093E2008091E1008F7E8093E10059
:102EB00080910E038E7E806180930E039F918F918F
:102EC0000F900FBE0F901F90189580FFF7CF809145
:102ED000E2008E7E80618093E2008091E1008E7E30
:102EE0008093E10080910E038E7E8160E5CF1F927A
:102EF0000F920FB60F921124CF92DF92EF92FF92B2
:102F00000F931F932F933F934F935F936F937F93F1
:102F10008F939F93AF93BF93EF93FF93CF93DF93E1
:102F2000CDB7DEB76C97DEBFCDBF1092E9008091C0
:102F3000E80083FF25C068E0CE0145960E94C107E6
:102F400082EF8093E8008D8987FF39C09091E80077
:102F500090FFFCCF982F907609F034C19E894F895D
:102F6000588D2F89F88C911131C0803861F580918E
:102F70000C038093F1001092F1008EEF8093E80033
:102F80006C960FB6F894DEBF0FBECDBFDF91CF9128
:102F9000FF91EF91BF91AF919F918F917F916F9131
:102FA0005F914F913F912F911F910F91FF90EF9063
:102FB000DF90CF900F900FBE0F901F9018959EEF4F
:102FC0009093E800C7CF1092F100D5CF913059F41B
:102FD0008111D3CF4130510581F680910C038D7F53
:102FE00080930C03CACF933049F48111C6CF41308E
:102FF000510519F680910C038260F2CF953041F4AF
:103000008091E80080FFFCCF20682093E300B5CFDB
:10301000963009F0A9C00B8D1C8D22E01092E900BA
:1030200010920A0310920903F2122EC010920803A4
:10303000109207030E9490071F8299E09983FA82F9
:1030400091E09E8390EA98879AEF998720910903EF
:1030500030910A03275F3F4F3C832B838D8310926F
:10306000E90010920A0310920903109308030093D9
:10307000070349E050E0BE016F5F7F4F80E00E9490
:103080006A070E94900779CF109308030093070303
:103090000E94A706DC0112960D911C9101151105E5
:1030A00009F451C1D801ED91FC910480F581E02D26
:1030B000BE016B5E7F4FC8010995009709F03EC1C4
:1030C000F80100851185EACFF3E0FF120EC08F8969
:1030D000882309F440C0823061F440E860E183E075
:1030E0009CE00E94541A811148CF81E28093EB004A
:1030F00047CF813029F440E86BE087EF9BE0F1CFC8
:10310000833099F70E94A706DC011296ED90FC909F
:103110008E010F5F1F4F6801E114F10479F0D701B0
:10312000ED91FC910680F781E02DB801C70109956A
:10313000080F111DF701E084F184EECFD8011C9235
:10314000F60101900020E9F73197BF016C197D0964
:1031500040E0C601C6CF61EE7BE0FB01449150E048
:1031600080E80E946A0709CF973009F4BECF9830F3
:1031700021F481E08093F10000CF993009F0FDCE79
:10318000837009F0B2CFEFE6F1E081E031E096E341
:103190002191222371F08093E9003093EB00DF014D
:1031A00011972C912093EC009093ED008F5F873066
:1031B00079F78EE78093EA001092EA008F89809376
:1031C0001C03DBCE8B8D9C8D1092E90010920A03BC
:1031D000109209039093080380930703898D81114E
:1031E00092C08E899D89913A49F4813209F07DCF50
:1031F00047E050E060E471E080E0B3CF913209F045
:1032000074CF833269F48F89988DB0E0A0E0809309
:103210003C0190933D01A0933E01B0933F01ADCEA0
:10322000803269F48091E80082FFFCCF67E080E49F
:1032300091E00E94C1078BEF8093E8009ECE82321E
:1032400009F09BCE8F8980934701EEEFFFE78591D0
:1032500094918B3F9C4D51F1E0E0F8E0809140016A
:1032600090914101A0914201B0914301803B944073
:10327000A105B105F1F48091470180FD1AC0EE3F30
:103280008AE0F80789F587E797E791838083809143
:10329000600080930B0388E19BE00FB6F894A8953B
:1032A000809360000FBE9093600067CEEEEFFAE06F
:1032B000D5CF808191818737974709F05ECEA89559
:1032C0008091600088618093600080910B038093FF
:1032D0006000EE3F2AE0F20789F08091FE0A9091AB
:1032E000FF0A9183808349CE808191818737980737
:1032F00051F29093FF0A8093FE0AC5CF1092FF0A05
:103300001092FE0A3ACE0E94A706DC0112960D9199
:103310001C910115110509F4E8CED801ED91FC913D
:103320000190F081E02DBE016B5E7F4FC8010995D1
:10333000811123CEF80100851185EBCF18161906EF
:103340000CF41BCED2CEF1E0FF12BECE65EE7BE0D8
:1033500004CF1F920F920FB60F9211242F933F9319
:103360008F939F93AF93BF9380917D0290917E0244
:10337000A0917F02B09180023091770223E0230F69
:103380002D3758F50196A11DB11D2093770280932A
:103390007D0290937E02A0937F02B0938002809181
:1033A000780290917902A0917A02B0917B02019605
:1033B000A11DB11D8093780290937902A0937A02A7
:1033C000B0937B02BF91AF919F918F913F912F91CD
:1033D0000F900FBE0F901F90189526E8230F0296AE
:1033E000A11DB11DD2CF1F920F920FB60F921124C3
:1033F0002F933F934F935F936F937F938F939F93FD
:10340000AF93BF93EF93FF938091730290917402F7
:10341000A0917502B0917602892B8A2B8B2B09F42F
:1034200040C08091720281110BC088B190E489275D
:1034300088B980917102882319F088B1805888B9C1
:103440008091730290917402A0917502B0917602FE
:10345000181619061A061B069CF4809173029091A7
:103460007402A0917502B09176020197A109B10989
:103470008093730290937402A0937502B0937602C6
:10348000FF91EF91BF91AF919F918F917F916F913C
:103490005F914F913F912F910F900FBE0F901F9012
:1034A00018950E94EC08ECCFEF92FF920F931F93B8
:1034B000CF93DF93F82E192FE62E042F81E0860F8D
:1034C000880F0E943C0783E00E943C07CF2DD12F3C
:1034D000EC0EFD2EF11CCE15DF05B9F007FF13C071
:1034E000FE0184910E943C07182F80E00E943C0757
:1034F000812321968111EFCFDF91CF911F910F9101
:10350000FF90EF9008958881EDCF81E0F5CF0F9384
:103510001F93CF93DF938C0181E090E00E947D1494
:1035200080FF32C08AE090E00E947D149FEF980FE8
:103530009E3F50F522E330E0D80150963C932E9305
:103540001F9728E330E052963C932E935197CBE09F
:10355000D0E0D801ED91FC910190F081E02D682F31
:10356000C8010995CE010E947D142196C131D10573
:1035700081F780E00E945D0688EE93E0DF91CF91B5
:103580001F910F910C94DA09DF91CF911F910F9148
:10359000089504970C94871AEDE1F7E013821282E4
:1035A00088EE93E0A0E0B0E084839583A683B783A0
:1035B00089E791E0918380838FEF9FEF95878487E0
:1035C000EDE7F7E0138212821186128680E183878D
:1035D0001086178215868BE891E09183808389E9B4
:1035E00091E095838483108A1786128A118A81E07C
:1035F000838B148A858B168A85E396E090937C07EB
:1036000080937B0780E090E890937A078093790716
:1036100046983E9A47983F9A0895CF93DF9300D0FB
:1036200000D000D0CDB7DEB7789484B5826084BD79
:1036300084B5816084BD85B5826085BD85B58160B6
:1036400085BD80916E00816080936E001092810034
:1036500080918100826080938100809181008160EF
:1036600080938100809180008160809380008091B0
:10367000910082608093910080919100816080939D
:103680009100809190008160809390008091C100B2
:1036900084608093C1008091C10082608093C100EA
:1036A0008091C10081608093C1008091C3008160DE
:1036B0008093C3008091C00082608093C00080919D
:1036C000C20081608093C20080917A008460809300
:1036D0007A0080917A00826080937A0080917A00EB
:1036E000816080937A0080917A00806880937A006C
:1036F00010921C0310920C0310920E038091D700BD
:1037000081608093D70080EA8093D80089B580617A
:1037100089BD89B5826089BD09B400FEFDCF61E035
:1037200070E080E090E00E9420088091D8008F7CBB
:1037300080618093D8008091E000807F8093E000DA
:103740008091E1008E7E8093E1008DE08093E20025
:10375000559A209A81EC80937C0085B1806F85B961
:1037600084B1877E84B984B1876E84B95E9A5F988C
:103770008AB1806D8AB9769A6E9881B3806F81BB69
:10378000899880B38D7080BB80E58CBD81E08DBD54
:1037900085E090E00E94DA095F9A85E090E00E945F
:1037A000DA095E985C98E2EEF6E084918EBD000046
:1037B0000DB407FEFDCF319606E0EF3EF007A9F706
:1037C0005C9A81E8809364008091650081608093B9
:1037D000650080E00E945D060E94DF0987FF15C03A
:1037E0005C9885EA8EBD00000DB407FEFDCF5C9AA3
:1037F0002E982F982D9880916400806280936400A9
:1038000081E083BF889513BEFCCF0E94DF0982FF51
:1038100048C02D980E94DF0984788438E1F40E9422
:10382000D80988EC90E00E94DA092F9882E090E0B5
:103830000E94EC288F3F29F06FEF82E090E00E9419
:10384000F42884EF91E00E94DA092F9A0E94DF09A0
:1038500084788438D9F30E94DF0984718431E1F4DB
:103860000E94D80988EC90E00E94DA092E9882E044
:1038700090E00E94EC28882329F060E082E090E04C
:103880000E94F42884EF91E00E94DA092E9A0E94A7
:10389000DF0984718431D9F388EC90E00E94DA0961
:1038A000B4CF0E94D80982E090E00E947D14882362
:1038B00009F4C6C03E9A3F9A81E080937C0281E081
:1038C00090E00E947D14182F147081FF0EC011111A
:1038D0002E9820EF3FEF3A8329830E94DF0986FF6D
:1038E000B4C02E9A2F9A0E94D80982E390E00E94D9
:1038F000DA090E94DF098111F8CF81E280938807FD
:10390000809164008E7F8093640080917A0080644F
:1039100080937A0080917A0086FDFCCF0091780038
:10392000109179000E94FB07AB01BC01C801B0E017
:10393000A0E0DC01992788278C019D01040F151F49
:10394000261F371FC901B801209164002160209310
:103950006400611571058105910511F00E94E3284D
:103960002BE932E03A83298316E086E090E00E945A
:10397000FE2BDC01E12F1D92EA95E9F7A981BA81BE
:103980008D939D93BA83A983EBEEF2E0EA17FB07D0
:1039900061F70BEE12E01C830B833FE1632E42E8DC
:1039A000842E912C59E1A52EB12C6EE1C62ED12C7E
:1039B00000E410E0772473948FE190E00E94FE2BE6
:1039C000FC01DC01262D1D922A95E9F79182808267
:1039D000B582A482D386C286118B008B748EAB8194
:1039E000BC818D939D93BC83AB83EFEFF2E0EA172C
:1039F000FB0711F722E0222E312C96E1492E512CA3
:103A00008FB7F89440917D0250917E0260917F02C1
:103A1000709180028FBF80918907F42FF81B8F2F40
:103A2000D0908A07DD2009F445C0F0938B071092EF
:103A30008A0780E090E0892B19F30E940000DDCF17
:103A400010927C023E983F983ACF112331F0898141
:103A50009A81049711F42E9A2F9881E00E945D06B6
:103A6000EE24E39400E128E542E356E069817A819F
:103A700084E190E00E94E70980E00E945D068FE00B
:103A800090E00E94DA09A981BA811196BA83A983CC
:103A9000599709F022CF112311F02F9A2D9880E920
:103AA00091E00E94DA090E94D8098DE797E00E9410
:103AB000871A1BCF90918807F91748F48F5F8917F1
:103AC00008F0B7CF81E083BF889513BEB2CF81E005
:103AD00080938A0740938907809184079091850796
:103AE0000196909385078093840780918607809341
:103AF00087070E94DF09809386070E94DF0987FFFE
:103B000028C00E94382880E0EDE1F3E081118FEFBA
:103B1000002481938193819381930394D1F7109230
:103B20008F0710928E0710928D0710928C07E091EC
:103B30003A01F0913B01E730F10540F5EE55F24EC8
:103B40000C94E42BBE1D6D26CA1DED204921AA212F
:103B500044270E94DF0984FDD4CF0E94DF0985FD40
:103B6000D0CF0E94DF0986FDCCCF0E94DF0983FD04
:103B7000C8CF0E94DF0982FDC4CFC5CF0E94691360
:103B80000E94B80F0E947E0D0E94811480E00E9466
:103B90005D064FCF0E94691320E430E04DE350E012
:103BA0006BE070E08DE390E00E94440B81E090E0D8
:103BB000909300038093FF0280918B0290918C027E
:103BC0002DE0289FB001299F700D1124CB01019693
:103BD0009093020380930103645F7F4FEE24E3948C
:103BE0000CE020E14FE75BE082E090E00E94E70913
:103BF00050928D0740928C070FE010E010938F07D2
:103C000000938E0785EA91E00E94EA1250928D0798
:103C100040928C078BE190E090938F0780938E0702
:103C20008CEA91E00E94EA1250928D0740928C0734
:103C300028E230E030938F0720938E0783EB91E0EA
:103C40000E94EA1250928D0740928C0785E390E023
:103C500090938F0780938E0788EB91E00E94EA1281
:103C600010E000E08DE0C82E80918B0290918C02D4
:103C70009E838D830817190769F4C09EB001C19E09
:103C8000700D1124645F7F4F2CE048E284E190E0E6
:103C90000E94ED0A0F5F1F4F0430110529F70E94A3
:103CA000DF0910919A0284FF3BC0AD81BE81A33031
:103CB000B105B1F1111134C01196B0938C02A093EB
:103CC0008B0281E080939A0280918B0290918C020A
:103CD0008130910509F416C20CF08BC1892B09F4CF
:103CE000C5C180E490E090938D0780938C0784E2B7
:103CF00090E090938F0780938E0784EE91E00E946E
:103D0000EA12D11043CFEE24E39408E028E04FEE0E
:103D100058E06EE270E080E490E00E94E70936CF60
:103D20000E94DF0987FF06C0ED81FE81EF2B11F0B5
:103D30001123F1F00E94DF0983FD23C00E94DF09F7
:103D400082FD43C1112309F4BFCF0E94DF0982FD28
:103D5000BBCF0E94DF0983FDB7CF0E94DF0984FD3E
:103D6000B3CF0E94DF0987FDAFCF10929A02ACCF8C
:103D70000D811E810150110910938C0200938B025A
:103D8000A0CF1111DBCF0D811E810130110509F487
:103D900096C00CF04DC0012B09F093CF80918902A1
:103DA00090918A02853091050CF082C0880F991F8E
:103DB000FC01EC59FE4F2081318180918702909166
:103DC0008802821793070CF473C062E370E08FEAF5
:103DD00090E00E94BC098091890290918A02FC01C6
:103DE000EE0FFF1FEC59FE4F2091870230918802A1
:103DF00040815181241B350B309388022093870228
:103E0000019690938A028093890280913601909165
:103E100037010196909337018093360180913801E4
:103E2000909139010196909339018093380149CFDF
:103E30000D811E810230110509F480C00330110587
:103E400009F03FCF809181029091820282309105EA
:103E50007CF5880F991FFC01EA5AFE4F20813181C1
:103E60008091870290918802821793070CF162E398
:103E700070E08FEA90E00E94BC09809181029091ED
:103E80008202FC01EE0FFF1FEA5AFE4F20918702CB
:103E90003091880240815181241B350B3093880278
:103EA000209387020196909382028093810209CF2A
:103EB00062E370E081E390E00E94BC0902CF809150
:103EC0008502909186028430910594F7880F991F9E
:103ED000FC01EA59FE4F2081318180918702909147
:103EE00088028217930724F362E370E08FEA90E080
:103EF0000E94BC0980918502909186020196FC0186
:103F0000EE0FFF1FEC59FE4F20918702309188027F
:103F100040815181241B350B309388022093870206
:103F2000909386028093850280910501909106010D
:103F300001969093060180930501C3CE8091830280
:103F400090918402853091050CF0B2CF880F991FB3
:103F5000FC01E65AFE4F20813181809187029091C9
:103F60008802821793070CF4A3CF62E370E08FEA14
:103F700090E00E94BC098091830290918402FC0130
:103F8000EE0FFF1FE65AFE4F209187023091880204
:103F900040815181241B350B309388022093870286
:103FA00020910301309104012A5031098430910598
:103FB00014F025E030E030930401209303010196D2
:103FC00090938402809383027CCE1111BECE83E055
:103FD00090E090933B0180933A01EBE9F2E0A191EC
:103FE000B19114961C9229813A81E217F307B9F72F
:103FF0006BCE8230910509F4BAC0039709F071CEF7
:10400000EE24E39400E220E24FEE56E060E270E03E
:104010008FE590E00E94E70987E490E090938D0798
:1040200080938C0781E190E090938F0780938E07B7
:104030008AED91E00E94EA128091810290918202C1
:10404000823091050CF04BC029E430E030938D07AD
:1040500020938C072FE230E030938F0720938E0758
:10406000880F991FFC01EA5AFE4F34C0EE24E394F6
:1040700000E220E24FE658E060E270E08FE590E079
:104080000E94E7098CE490E090938D0780938C0761
:1040900081E190E090938F0780938E078EEB91E003
:1040A0000E94EA128091890290918A0285309105DE
:1040B000B4F429E430E030938D0720938C072FE28D
:1040C00030E030938F0720938E07880F991FFC01F3
:1040D000EC59FE4F808191810E94EC1202CE80E467
:1040E00090E090938D0780938C078FE290E09093FF
:1040F0008F0780938E0785EC91E00E94EA12DD2401
:10410000D394EFCDEE24E39400E220E24FEE57E0AB
:1041100060E270E08FE590E00E94E7098CE490E0B7
:1041200090938D0780938C0781E190E090938F07A7
:1041300080938E0789EC91E00E94EA1280918502BB
:10414000909186028430910554F629E430E0309352
:104150008D0720938C072FE230E030938F07209358
:104160008E07880F991FFC01EA59FE4FB3CFEE244A
:10417000E39400E220E24FE657E060E270E08FE572
:1041800090E00E94E70987E490E090938D07809388
:104190008C0781E190E090938F0780938E0780EDEC
:1041A00091E00E94EA12809183029091840285300E
:1041B00091050CF094CF29E430E030938D072093E3
:1041C0008C072FE230E030938F0720938E07880F03
:1041D000991FFC01E65AFE4F7DCF0E9469130E9491
:1041E0007E0D0E94B80F2FE04CE36DE070E082E49A
:1041F00090E00E94ED0A8DE490E090938D0780930B
:104200008C0781E190E090938F0780938E0789EE71
:1042100091E00E94EA1280910701909108010297B3
:10422000C4F02FE04CE36EE170E082E490E00E9485
:10423000ED0AADE4B0E0B0938D07A0938C0782E265
:1042400090E090938F0780938E0781EF91E00E941A
:10425000EA12809107019091080103970CF496CC23
:104260002FE04CE36FE270E082E490E00E94ED0A00
:104270008DE490E090938D0780938C0783E390E02A
:1042800090938F0780938E0789EF91E00E94EA1246
:104290007DCC0E9469130E947E0DE1E4F0E0F09372
:1042A0008D07E0938C078EE190E090938F078093C9
:1042B0008E0781E092E00E94EA1201E410E0109380
:1042C0008D0700938C0728E230E030938F0720930E
:1042D0008E0787E092E00E94EA1210938D07009308
:1042E0008C0784E390E090938F0780938E078091F2
:1042F000090190910A018130910501F580E192E078
:104300000E94EA12EE24E39408E028E04FEE58E021
:1043100063E370E08EE490E00E94E7090E94DF0909
:1043200083FF11C080919A0281110DC030923B0130
:1043300020923A0181E080939A0228CC029711F7EB
:1043400087E192E0DDCF0E94DF0983FD1FCC109250
:104350009A021CCC0E9469130E94B80F0E947E0D25
:104360000E948114C0902501D090260180912301E4
:10437000909124019E838D83EE24E39409E128E249
:104380004FE959E0B6010E94E70960902101709061
:10439000220116141704DCF4E12C00E12BE049E8BB
:1043A00059E0460196E0890E911CB401AD80BE80B3
:1043B000A7E0AA1AB108C5010E94E709EE24E39418
:1043C0002BE043E759E0B401C5010E94E709809161
:1043D0001F01909120011816190674F4EE24E3943D
:1043E0000CE02CE04BE559E0B6016D5E7F4F8D810E
:1043F0009E810C960E94E70980911D0190911E01FB
:1044000018161906B4F4B601695071098D819E81A0
:1044100008962091980230919902EE24E3940CE0E2
:104420002330310509F002C223E145E359E00E943F
:10443000E709161417047CF18091970281112BC0B3
:10444000A0902701B0902801B5E0AA0CBB1CBA953A
:10445000E1F7B6E0CB0ED11CED81FE813997FE83EA
:10446000ED83A5014152554FE12C00E120E1B60159
:10447000CF010E94E709A501415C554FEE24E3946A
:1044800020E1B6018D819E810E94E70961E090E004
:1044900080E00E94140D80911F0190912001181658
:1044A0001906C4F180919602811134C000912B014C
:1044B00010912C01A5E0000F111FAA95E1F71E83B2
:1044C0000D83A0902501B090260111E1A10EB11C31
:1044D000C0902301D09024012AE0C20ED11C4D814E
:1044E0005E814152554FE12C00E120E1B501C6014A
:1044F0000E94E7094D815E81415C554FEE24E394B3
:1045000020E1B501C6010E94E70961E081E090E089
:104510000E94140D80911D0190911E01181619061C
:10452000C4F180919502811134C080912F01909146
:104530003001F5E0880F991FFA95E1F79E838D838E
:10454000A0902501B09026019BE0A91AB108C09067
:104550002301D0902401A9E0CA0ED11C4D815E81B7
:104560004152554FE12C00E120E1B501C6010E9406
:10457000E7094D815E81415C554FEE24E39420E1D3
:10458000B501C6010E94E70961E082E090E00E9467
:10459000140D80911B0190911C01843893400CF004
:1045A0003FC0C0902501D0902601EEE5CE16D10483
:1045B000BCF58091290190912A01181619065CF525
:1045C0000091270110912801E5E0000F111FEA95E5
:1045D000E1F71E830D8313E0C11AD108A0902301D7
:1045E000B090240125E0A20EB11C4D815E814152A4
:1045F000554FE12C00E120E1B601C5010E94E70919
:104600004D815E81415C554FEE24E39420E1B6017B
:10461000C5010E94E70960E090E080E00E94140D6F
:1046200080911B0190911C01843F91400CF03FC090
:10463000C0902501D09026018EE5C816D104BCF5A6
:1046400080912D0190912E01181619065CF5A0910C
:104650002B01B0912C0175E0AA0FBB1F7A95E1F7F1
:10466000BE83AD83B5E0CB0ED11CA0902301B090EA
:104670002401E7E1AE0EB11C4D815E814152554FE0
:10468000E12C00E120E1B601C5010E94E7094D815E
:104690005E81415C554FEE24E39420E1B601C501F3
:1046A0000E94E70960E081E090E00E94140D809193
:1046B0001B0190911C01883C9105E4F5C0902501F7
:1046C000D0902601FEE5CF16D104A4F580913101EA
:1046D000909132011816190644F500912F0110919E
:1046E000300165E0000F111F6A95E1F71E830D830D
:1046F0001FE0C10ED11CA0902301B09024014D8178
:104700005E814152554FE12C00E120E1B601C50127
:104710000E94E7094D815E81415C554FEE24E39490
:1047200020E1B601C5010E94E70960E082E090E067
:104730000E94140D80912301909124018C349105E5
:104740000CF478C001979093240180932301009189
:104750009802109199021E830D830230110509F40D
:10476000B0C10330110509F429C20130110509F067
:104770000DCA8091130190911401873E934049F432
:1047800080912301909124010797909314018093C5
:1047900013018091130190911401833E2FEF920732
:1047A0000CF47EC1049790931401809313018091BF
:1047B000110190911201873091052CF4019690938C
:1047C000120180931101A1E0B0E0BE83AD8380911E
:1047D000110190911201ED81FE818E179F070CF45B
:1047E000D5C96091250170912601695F7F4F809145
:1047F0001301909114010B979F01220F331F220F79
:10480000331F820F931FEE24E3940EE024E047E071
:1048100059E0E0FF02C04FEF58E00E94E7090D8128
:104820001E810F5F1F4F1E830D83D1CF23E14FE009
:1048300059E0FDCD80911B0190911C0118161906BD
:104840000CF0B7C02091250130912601409119014B
:1048500050911A0157FFB0C02831310574F4843FDC
:1048600091400CF0A6C00E943828B1010E94D02BC4
:10487000019690931A01809319014091250150915E
:1048800026014F35510554F02091FF02309100036D
:104890002F5F3F4F309300032093FF028091FF0270
:1048A000909100038439910534F086E090E0909374
:1048B0003B0180933A012091980230919902213076
:1048C000310551F08091190190911A01840F951FC3
:1048D00090932601809325018091170190911801F2
:1048E0004091150150911601841795070CF4D2C020
:1048F000232B09F0CFC010921801109217010E94CB
:1049000038286EE170E00E94D02BCC96909316016F
:10491000809315010E94382863E070E00E94D02B3C
:1049200001969093990280939802209121013091F1
:104930002201121613061CF081309105A1F040915E
:104940001F0150912001141615061CF082309105AC
:1049500051F040911D0150911E01141615060CF4E2
:1049600040C00397F1F5109299021092980280913D
:104970001501909116010A969093180180931701E2
:10498000121613060CF4E3CE80911F0190912001C2
:10499000181619064CF180911D0190911E011816F0
:1049A000190614F184E090E09093990280939802A4
:1049B0001BC081E090E05DCF452B09F45ECF203233
:1049C00031050CF45ACF843F914044F40E943828BA
:1049D000B1010E94D02B809590954BCF8FEF9FEF28
:1049E00048CF1216130684F680919802909199028E
:1049F00082309105C1F183309105E1F1019709F011
:104A0000A6CE809171008D7F8093710010929102EB
:104A10008DE697E09093900280938F0290938E02A0
:104A200080938D0283E992E090936E0780936D07E7
:104A30008BE490E09093700780936F078AEB92E08D
:104A4000909372078093710782E390E090937407CC
:104A50008093730780E090E89093760780937507C2
:104A60000E94EC0874CE6BE470E087E590E00E9451
:104A7000BC096DCE5BE4E52EF12C05EA10E02BE4D9
:104A800030E04FEA50E06BE470E085EA90E00E948D
:104A900094095DCE0196909318018093170157CE2B
:104AA00087EE93E090931401809313011092990282
:104AB0001092980281E090E090931201809311018E
:104AC00076CE80910F0190911001873E934091F432
:104AD000809123019091240104969093100180937A
:104AE0000F018091250190912601489690930E0127
:104AF00080930D0180910D0190910E012091930200
:104B000030919402232B99F520910F0130911001DF
:104B10004091FF0250910003495F5F4F42175307D6
:104B2000FCF021E030E03093940220939302209136
:104B300001033091020382179307DCF581E0809333
:104B4000920260910D0170910E01EE24E39406E053
:104B500028E047EF58E080910F0190911001DDC8E7
:104B6000225031093093100120930F01EACF209198
:104B70009202222309F1059690930E0180930D0174
:104B800080910D0190910E010C97C597D0F227EE00
:104B900033E03093100120930F0130930E012093E6
:104BA0000D011092940210929302109299021092A9
:104BB000980210929202C5CF0597DECF80910B012B
:104BC00090910C01892B09F472C0E091EB02F091F5
:104BD000EC0210920C0110920B0111E0168F8091E3
:104BE000230190912401089691838083809125016F
:104BF0009091260109979383828388EE93E09583B1
:104C000084830E943828E091EB02F091EC026D81E0
:104C10007E810E94D02B9783868317861686118605
:104C200010860E943828E091EB02F091EC026FE0D0
:104C300070E00E94D02B4E9693878287158614864B
:104C400086819781019709F046C0828193814497BC
:104C50000CF041C0148F0E9438280091EB02109193
:104C6000EC021E830D8364E170E00E94D02BC2969B
:104C7000D80151969C938E9350975D961C92F801A3
:104C8000168A178A108E118E62817381072E000C8E
:104C9000880B990B0E947C2AD80152966D937D93C4
:104CA0008D939C9355975B961C921E925A97E09118
:104CB000EB02F091EC02868D81110C94C61D81E00F
:104CC00090E090930C0180930B0110929902109246
:104CD00098020C94C61D148EBECF1092370110920C
:104CE00036010E94691380913301882321F00E94CC
:104CF0008012109233018091270190912801843015
:104D0000910524F5019779F496E9E92EF12C01E358
:104D100010E024E630E04CE250E064E670E089E226
:104D200090E00E9494096091010370910203655F15
:104D30007F4F8091FF0290910003EE24E3940CE0FA
:104D400020E14FE75BE001960E94E709E09129012D
:104D5000F0912A01FE83ED83C0902701D0902801B5
:104D6000F7FD2CC0F5E0CF16D10444F560900103A7
:104D70007090020308E0600E711C8090FF0290901A
:104D800000031FEF811A910A560185E0AA0CBB1C93
:104D90008A95E1F7A5014152554FE12C00E120E150
:104DA000B301C4010E94E709A501415C554FEE24FF
:104DB000E39420E1B301C4010E94E709EBEEF2E0C5
:104DC000A191B1915E961C922B813C812E173F07D9
:104DD000B9F7EBE9F2E0A191B19114961C928981A7
:104DE0009A818E179F07B9F795E0C916D104CCF4C4
:104DF000AD81BE81A330B1053CF41196B0932A0178
:104E0000A09329010C94C61DBFEFCB1ADB0AD092E8
:104E10002801C092270110922A01109229010C94B6
:104E2000C61DED81FE81E431F1053CF43196F0932D
:104E30002A01E09329010C94C61D0CEE1FEF10937C
:104E40002A010093290110922801109227018091D4
:104E50003801909139019093370180933601309257
:104E60003B0120923A01109204031092030322E3C3
:104E700030E0309335012093340181E080939A0231
:104E8000809333010C94C61D809105039091060315
:104E90008230910509F466C064F5009709F44FC0AB
:104EA000019711F00C94C61D88E290E00E94CF0C8F
:104EB000E8E2F0E0F0938D07E0938C070AE010E061
:104EC00010938F0700938E0787E292E00E94DD1215
:104ED00080E392E00E94DD1250928D0740928C0791
:104EE00022E130E030938F0720938E0783E392E036
:104EF000CDC98330910509F45CC0049711F00C947E
:104F0000C61D0E9480121092060310920503309273
:104F10003B0120923A0180913801909139019093A0
:104F20003701809336011092040310920303A2E329
:104F3000B0E0B0933501A09334010C94C61D8AE013
:104F400090E00E94CF0C8BE290E090938D078093CD
:104F50008C07A3E2B0E0B0938F07A0938E078FE198
:104F600092E094C98DE290E00E94CF0C83E290E041
:104F700090938D0780938C07AFE0B0E0B0938F07DC
:104F8000A0938E0783E492E00E94DD1280E392E01A
:104F90000E94DD12E3E2F0E0F0938D07E0938C07CE
:104FA00007E110E010938F0700938E078FE492E0E3
:104FB0006DC985E090E00E94CF0C2AE030E030938C
:104FC0008D0720938C0788E290E090938F07809361
:104FD0008E078BE592E05AC98F929F92AF92BF9253
:104FE000CF92DF92EF92FF92CF93DF93EC01688133
:104FF00079818A819B81611571058105910521F473
:1050000064E279ED8BE597E02DE133EF41E050E08C
:105010000E94022949015A019B01AC01A7EAB1E4AF
:105020000E9421296B017C01ACEEB4EFA501940133
:105030000E942F29DC01CB018C0D9D1DAE1DBF1DD3
:10504000B7FF03C00197A109B04888839983AA8359
:10505000BB839F77DF91CF91FF90EF90DF90CF9050
:10506000BF90AF909F908F9008950E94EC27089575
:1050700088E491E00E94EC270895B0E0A0E08093DE
:10508000480190934901A0934A01B0934B010895C0
:105090008F929F92AF92BF92CF92DF92EF92FF9248
:1050A000CF93DF93EC01688179818A819B816115BF
:1050B00071058105910521F464E279ED8BE597E0B6
:1050C0002DE133EF41E050E00E94022949015A01ED
:1050D0009B01AC01A7EAB1E40E9421296B017C018C
:1050E000ACEEB4EFA50194010E942F29C60ED71E85
:1050F000E81EF91EF7FE06C081E0C81AD108E108D3
:1051000080E8F80AC882D982EA82FB82C701B60128
:105110009F77DF91CF91FF90EF90DF90CF90BF907E
:10512000AF909F908F9008958F929F92AF92BF9271
:10513000CF92DF92EF92FF9260914C0170914D01FE
:1051400080914E0190914F01611571058105910586
:1051500021F464E279ED8BE597E02DE133EF41E056
:1051600050E00E94022949015A019B01AC01A7EAC3
:10517000B1E40E9421296B017C01ACEEB4EFA501E2
:1051800094010E942F29C60ED71EE81EF91EF7FEB5
:1051900006C081E0C81AD108E10880E8F80AC09288
:1051A0004C01D0924D01E0924E01F0924F01C701A7
:1051B000B6019F77FF90EF90DF90CF90BF90AF90B8
:1051C0009F908F90089560934C0170934D01809350
:1051D0004E0190934F010895F999FECF92BD81BD84
:1051E000F89A992780B50895262FF999FECF1FBA0E
:1051F00092BD81BD20BD0FB6F894FA9AF99A0FBE00
:1052000001960895052E97FB1EF400940E9419291B
:1052100057FD07D00E94342907FC03D04EF40C94AC
:10522000192950954095309521953F4F4F4F5F4F2D
:10523000089590958095709561957F4F8F4F9F4F02
:1052400008950E945629A59F900DB49F900DA49F8C
:10525000800D911D11240895B7FF0C9421290E94FF
:105260002129821B930B0895A1E21A2EAA1BBB1BB6
:10527000FD010DC0AA1FBB1FEE1FFF1FA217B30722
:10528000E407F50720F0A21BB30BE40BF50B661F38
:10529000771F881F991F1A9469F7609570958095FC
:1052A00090959B01AC01BD01CF010895A29FB00173
:1052B000B39FC001A39F700D811D1124911DB29F4A
:1052C000700D811D1124911D08955058BB27AA27E8
:1052D0000E947D290C94CE2A0E94C02A38F00E9498
:1052E000C72A20F039F49F3F19F426F40C94BD2A04
:1052F0000EF4E095E7FB0C94B72AE92F0E94DF2A11
:1053000058F3BA17620773078407950720F079F4FA
:10531000A6F50C94012B0EF4E0950B2EBA2FA02DC0
:105320000B01B90190010C01CA01A0011124FF2752
:10533000591B99F0593F50F4503E68F11A16F0404D
:10534000A22F232F342F4427585FF3CF469537954C
:105350002795A795F0405395C9F77EF41F16BA0B11
:10536000620B730B840BBAF09150A1F0FF0FBB1FBF
:10537000661F771F881FC2F70EC0BA0F621F731F08
:10538000841F48F4879577956795B795F7959E3F65
:1053900008F0B0CF9395880F08F09927EE0F9795F6
:1053A000879508950E94E6290C94CE2A0E94C72A68
:1053B00058F00E94C02A40F029F45F3F29F00C9475
:1053C000B72A51110C94022B0C94BD2A0E94DF2A9B
:1053D00068F39923B1F3552391F3951B550BBB2724
:1053E000AA2762177307840738F09F5F5F4F220F69
:1053F000331F441FAA1FA9F335D00E2E3AF0E0E860
:1054000032D091505040E695001CCAF72BD0FE2FA9
:1054100029D0660F771F881FBB1F2617370748073D
:10542000AB07B0E809F0BB0B802DBF01FF279358F5
:105430005F4F3AF09E3F510578F00C94B72A0C94D8
:10544000022B5F3FE4F3983ED4F3869577956795FA
:10545000B795F7959F5FC9F7880F911D969587952A
:1054600097F90895E1E0660F771F881FBB1F621749
:1054700073078407BA0720F0621B730B840BBA0B07
:10548000EE1F88F7E09508950E944B2A6894B111A9
:105490000C94022B08950E94E72A88F09F5798F0F9
:1054A000B92F9927B751B0F0E1F0660F771F881F29
:1054B000991F1AF0BA95C9F714C0B13091F00E9443
:1054C000012BB1E008950C94012B672F782F8827CA
:1054D000B85F39F0B93FCCF3869577956795B3956A
:1054E000D9F73EF490958095709561957F4F8F4FD9
:1054F0009F4F0895E89409C097FB3EF490958095DE
:10550000709561957F4F8F4F9F4F9923A9F0F92F89
:1055100096E9BB279395F695879577956795B79507
:10552000F111F8CFFAF4BB0F11F460FF1BC06F5FED
:105530007F4F8F4F9F4F16C0882311F096E911C0FF
:10554000772321F09EE8872F762F05C0662371F020
:1055500096E8862F70E060E02AF09A95660F771F34
:10556000881FDAF7880F9695879597F9089597F928
:105570009F6780E870E060E008959FEF80EC0895F9
:1055800000240A9416161706180609060895002422
:105590000A9412161306140605060895092E03949C
:1055A000000C11F4882352F0BB0F40F4BF2B11F410
:1055B00060FF04C06F5F7F4F8F4F9F4F089557FD6F
:1055C0009058440F551F59F05F3F71F04795880F71
:1055D00097FB991F61F09F3F79F087950895121608
:1055E00013061406551FF2CF4695F1DF08C01616B4
:1055F00017061806991FF1CF869571056105089465
:105600000895E894BB2766277727CB0197F908957B
:105610000E941B2B0C94CE2A0E94C02A38F00E94B4
:10562000C72A20F0952311F00C94B72A0C94BD2AB8
:1056300011240C94022B0E94DF2A70F3959FC1F372
:10564000950F50E0551F629FF001729FBB27F00D30
:10565000B11D639FAA27F00DB11DAA1F649F662785
:10566000B00DA11D661F829F2227B00DA11D621FD4
:10567000739FB00DA11D621F839FA00D611D221F8E
:10568000749F3327A00D611D231F849F600D211D72
:10569000822F762F6A2F11249F5750409AF0F1F0F5
:1056A00088234AF0EE0FFF1FBB1F661F771F881F5E
:1056B00091505040A9F79E3F510580F00C94B72AB5
:1056C0000C94022B5F3FE4F3983ED4F386957795D4
:1056D0006795B795F795E7959F5FC1F7FE2B880F04
:1056E000911D9695879597F9089519F416F40C94E1
:1056F000BD2A0C94BB2B0E94E72AB8F39923C9F367
:10570000B6F39F57550B87FF0E94C92B0024A0E6D4
:1057100040EA900180585695979528F4805C660F72
:10572000771F881F20F026173707480730F4621BC1
:10573000730B840B202931294A2BA69517940794C3
:10574000202531254A2758F7660F771F881F20F03C
:1057500026173707480730F4620B730B840B200DB4
:10576000311D411DA09581F7B901842F9158880FF3
:105770009695879508959F3F31F0915020F4879535
:1057800077956795B795880F911D9695879597F9A9
:10579000089591505040660F771F881FD2F70895E3
:1057A00097FB072E16F4009407D077FD09D00E94CE
:1057B000EA2B07FC05D03EF4909581959F4F089504
:1057C000709561957F4F0895EE0FFF1F0590F4913E
:1057D000E02D0994AA1BBB1B51E107C0AA1FBB1FE8
:1057E000A617B70710F0A61BB70B881F991F5A956D
:1057F000A9F780959095BC01CD0108950F931F9353
:10580000CF93DF938230910510F482E090E0E09135
:105810009607F091970730E020E0B0E0A0E03097E5
:1058200099F42115310509F44AC0281B390B24309D
:105830003105D8F58A819B816115710589F1FB01DC
:1058400093838283FE0111C04081518102811381C3
:1058500048175907E0F04817590799F4109761F075
:1058600012960C93129713961C933296CF01DF91E8
:10587000CF911F910F91089500939607109397076A
:10588000F4CF2115310551F04217530738F0A90123
:10589000DB019A01BD01DF01F801C1CFEF01F9CFB2
:1058A0009093970780939607CDCFFE01E20FF31FE9
:1058B000819391932250310939832883D7CF209146
:1058C000940730919507232B41F420915201309198
:1058D0005301309395072093940720915001309104
:1058E00051012115310541F42DB73EB740915401C6
:1058F00050915501241B350BE0919407F0919507C9
:10590000E217F307A0F42E1B3F0B2817390778F096
:10591000AC014E5F5F4F2417350748F04E0F5F1FF5
:105920005093950740939407819391939FCFF0E014
:10593000E0E09CCFCF93DF930097E9F0FC01329732
:1059400013821282A0919607B0919707ED0130E083
:1059500020E01097A1F420813181820F931F2091C4
:105960009407309195072817390709F061C0F09323
:105970009507E0939407DF91CF910895EA01CE1740
:10598000DF07E8F54A815B819E0141155105B1F7BA
:10599000E901FB83EA8349915991C40FD51FEC17A4
:1059A000FD0761F4808191810296840F951FE901C2
:1059B00099838883828193819B838A83F0E0E0E0EE
:1059C00012968D919C9113970097B9F52D913C916A
:1059D0001197CD010296820F931F20919407309169
:1059E00095072817390739F6309751F51092970720
:1059F00010929607B0939507A0939407BCCFD383DA
:105A0000C28340815181840F951FC817D90761F463
:105A10004E5F5F4F88819981480F591F51834083A2
:105A20008A819B81938382832115310509F0B0CF50
:105A3000F0939707E09396079ECFFD01DC01C0CF5E
:105A400013821282D7CF81E090E0F8940C94282D35
:045A5000F894FFCFF8
:105A540001F0FF32000100010001000100E703E74B
:105A6400030100E703280032000100E803BC02BC84
:105A740002BC02E4001E000000ECFF0000ECFF008A
:105A840000ECFF013200010001000300FFFFFFFFF3
:105A940000E100000000000001000000010000001F
:105AA400000098078000F401E7036400C8005E0169
:105AB400580284031E00320064002C01F40100C16A
:105AC400808100000000000000BB065308DC06D102
:105AD400062207E006FE0600000000C80BCE07CC35
