:100000000C94C31A0C94EB1A0C94EB1A0C94EB1A84
:100010000C94EB1A0C94EB1A0C94EB1A0C94EB1A4C
:100020000C94EB1A0C94EB1A0C94B31C0C94251D35
:100030000C94EB1A0C94EB1A0C94EB1A0C94EB1A2C
:100040000C94EB1A0C94EB1A0C94EB1A0C94EB1A1C
:100050000C94EB1A0C94EB1A0C94EB1A0C941420DD
:100060000C94EB1A0C94EB1A0C94EB1A0C94EB1AFC
:100070000C94EB1A0C94EB1A0C94EB1A0C94EB1AEC
:100080000C940C210C94EB1A0C94EB1A0C94EB1AB4
:100090000C94EB1A0C94EB1A0C94EB1A0C94EB1ACC
:1000A0000C94EB1A0C94EB1A0C94EB1AB429212A39
:1000B000082B582BAE2B022CCA2C202D732DC02DB3
:1000C0007930423272307230793080308830883006
:1000D0008830A1304232AA30AA30B530C530CE3097
:1000E000D430CE30FE015D128B13506C65617365A8
:1000F0002C205B4E5D2E205768792064696420793E
:100100006F752074616B65206D6520686572653F51
:100110002049276D206D656C74696E672E2E2E0048
:100120004F6B61792C20776865772C207468616E3D
:100130006B732E000001EA00E40000012001ED01D4
:10014000FF01D4133A01FF01D81334012A737765F4
:100150006174732A20486579205B4E5D2C2049200C
:10016000646F6E2774206C696B6520697420696EFA
:1001700020686572652E205468657265206172651D
:10018000206669726573206F6E20746865736520E0
:100190007461626C65732E2043616E207765206CFC
:1001A000656176653F0059756D2E2054686973202E
:1001B00069732070726574747920676F6F64205B57
:1001C0004E5D2120492063616E207365652077684C
:1001D000792068756D616E73206C696B6520746F32
:1001E00020656174207468696E67732E0000035D7A
:1001F000129113556D2E204920646F6E2774207460
:1002000068696E6B2049206C696B6520746869733E
:100210002050697A7A612076657279206D756368FD
:100220002E205468697320697320746F6F20686F83
:10023000742E2049207468696E6B206F6E63652090
:10024000697420636F6F6C73206F66662069742019
:100250006D69676874206265204F4B2074686F7504
:1002600067682E0000024C014001486962616368C2
:1002700069000001A601ED014963652063726561B3
:100280006D000001F301ED0150697A7A610000010F
:1002900088028202010178027202FF016A0264028E
:1002A0004920686561722068756D616E73206E65A6
:1002B000656420746F2065617420666F6F642E2002
:1002C0004920646F6E2774207468696E6B20492022
:1002D0006E65656420746F206561742C206275748E
:1002E00020492077616E7420746F207472792069C0
:1002F0007420616E797761792E2043616E20796F69
:10030000752074616B65206D6520736F6D6577680E
:100310006572653F000003A0028E02556D20736F69
:10032000727279206275742049207265616C6C79F3
:1003300020646F6E2774206C696B65207468697324
:1003400020736F6E672076657279206D7563682EF5
:100350002054686572652069732061206C6F742079
:100360006F662074616C6B2061626F7574206669C2
:1003700072652E204920646F6E2774206C696B654E
:1003800020666972652E2E2E0049207265616C6CA4
:1003900079206C696B65207468697320736F6E6770
:1003A00021204578636570742074686520706172DF
:1003B000742061626F757420746865206669726567
:1003C0002E0000015D12150357656C6C2C2049202E
:1003D0006E65766572206865617264207468617408
:1003E00020736F6E67206265666F72652E2042759E
:1003F00074207468617420776173207072657474FE
:10040000792067726F6F76792E0000011B03C2039B
:100410004C69676874204D79204669726500000157
:100420008903C20357696E74657220576F6E6465E5
:10043000726C616E64000001C803C20354686520D9
:1004400054776973740000013C04360401012404EC
:100450001E04FF0110040A045768617420646F20B1
:10046000796F75207361792077652064616E6365AB
:1004700020746F206120736F6E673F20596F752065
:1004800063616E207069636B2074686520736F6EA2
:10049000672E000003580446044F682E204A756CEE
:1004A0007920736F756E6473206C696B6520697455
:1004B00020776F756C64206265207761726D2E2ED7
:1004C0002E004F682E204D79206269727468646135
:1004D00079206973206F6E204368726973746D614F
:1004E00073210000015D1293044F6821205468615C
:1004F000742773206D79206661766F726974652048
:10050000686F6C6964617920746F6F2100000199D4
:1005100004E304347468206F66204A756C79000027
:1005200001C204E3044D79206269727468646179E0
:10053000000001E904E3044368726973746D617338
:1005400000010137053105000125051F05FF0113D5
:10055000050D054974277320612062656175746912
:1005600066756C204368726973746D617320646191
:100570007920746F6461792E205768617427732025
:10058000796F7572206661766F7269746520686F25
:100590006C696461793F00FD01D413591800015C56
:1005A0000956094F6B61792C205B4E5D2E20596FE7
:1005B000752073686976657220616E6420796F7545
:1005C0007220746565746820636861747465722E46
:1005D00020417265207265616C6C7920737572655B
:1005E00020796F752061726520737572653F000018
:1005F00003530541050002A305970557656C6C2060
:10060000627965207468656E2E00566964656F2096
:1006100067616D65733F20204E6576657220686561
:10062000617264206F662074686F7365206265660E
:100630006F72652120596F75276C6C206861766533
:1006400020746F2073686F77206D6520736F6D6500
:1006500074696D652100596F75206C696B6520693F
:10066000636520736B6174696E673F2054686174C1
:1006700020736F756E6473206C696B652066756E90
:1006800021204E69636520616E642066726F737409
:1006900079210000015D12EF0542656163683F202A
:1006A0004F682C204920686F706520796F75206C29
:1006B000696B6520636F6C64206265616368657354
:1006C0002E2E2E20736F6D65206F66207468656D09
:1006D000206172652061206C6974746C652077619B
:1006E000726D20666F72206D652E000001D4137F3D
:1006F000130001D81385135B4E5D2C2069732074A1
:1007000068617420636F72726563743F000001D486
:1007100013AF130201D813A3134C6574206D652029
:100720006769766520796F752074686973206865DC
:1007300061767920636F61742E204920676F742081
:100740006974206A75737420696E20636173652013
:1007500049206861766520612068756D616E20763C
:10076000697369746F722E2049206B6E6F772074E5
:10077000686520636F6C642069732061206C697404
:10078000746C65206861726420666F7220796F7581
:100790002E204275742049206C696B6520796F7535
:1007A0002061206C6F742C20616E64204920776F6B
:1007B000756C64206C696B6520666F7220757320A0
:1007C000746F2067657420636C6F7365722E20559B
:1007D0006D2E2049276D206E6F7420737572652011
:1007E000686F7720746F2073617920746869732E45
:1007F0002049206B6E6F772049276D206A757374CE
:10080000206120736E6F776D616E2C20616E6420A5
:10081000796F752061726520612068756D616E2E3B
:100820002042757420776F756C6420796F75206D28
:10083000696E642069662049206761766520796F5A
:10084000752061206B6973733F000001D413F505B7
:1008500000015C09560941726520796F7520737536
:100860007265205B4E5D3F2049206B6E6F7720697B
:1008700074206D696768742062652061206C6974FA
:10088000746C6520636F6C6420666F722068756D90
:10089000616E732E20596F7520617265206C6F6FC9
:1008A0006B696E672061206C6974746C6520626C82
:1008B00075652E000001FB05000000010A06930685
:1008C000566964656F2067616D65730000015606A7
:1008D000930649636520736B6174696E670000015C
:1008E000990693064C6F6E672077616C6B73206F6F
:1008F0006E20746865206265616368000002F70617
:10090000EB063F0049742077617320746F6F20639A
:100910006F6C6420666F7220796F7520696E7369E1
:1009200064652046726F73747927732069676C6FF2
:100930006F20616E6420796F7520706173736564D8
:100940002061776179206F66206879706F746865BF
:10095000726D69612E00000219070D074974277333
:100960002061206C6974746C6520636F6C64000096
:100970000256084A084E6F7420617420616C6C0046
:10098000526573746F726520454550524F4D004259
:1009900061636B757020454550524F4D00446F6E3A
:1009A00027742075736520454550524F4D0055738F
:1009B0006520454550524F4D0000015D127F134F99
:1009C0006B6179207468656E2E20486572652068B9
:1009D000652069732E005B4E5D2E20596F7520686F
:1009E000617665206B696C6C65642046726F737408
:1009F000792054485245452074696D65732E20490D
:100A000020616D2073757265207468617420617453
:100A1000207468697320706F696E742074686174E3
:100A200020796F7520617265206E6F7420646F6924
:100A30006E67206974206279206163636964656E02
:100A4000742E20416E6420666F7220776861743F57
:100A50002041726520796F752065787065637469CF
:100A60006E6720736F6D65206B696E64206F662002
:100A7000616368696576656D656E743F2049276DB1
:100A800020736F7272792C206275742049276D2053
:100A90006E6F74206272696E67696E672068696D37
:100AA000206261636B20666F7220796F75207468B5
:100AB00069732074696D652E20446F6E27742065FC
:100AC000787065637420616E797468696E672062FE
:100AD000757420636F616C20666F72204368726961
:100AE00073746D61732066726F6D206E6F77206F07
:100AF0006E2E005B4E5D2E20596F75206B696C6CFD
:100B000065642046726F7374792054574943452EAB
:100B10002049206861766520616E20617766756C7A
:100B200020686172642074696D652062656C696516
:100B300076696E6720746861742077617320616ED6
:100B4000206163636964656E7420746865207365F1
:100B5000636F6E642074696D652E20486F776576CB
:100B600065722C20492077696C6C20676976652056
:100B7000796F75207468652062656E65666974209A
:100B80006F662074686520646F7562742E20446FF0
:100B900020796F752077616E74206D6520746F20E9
:100BA0006272696E672046726F7374792062616346
:100BB0006B20616761696E3F000001D41367130009
:100BC00001D813B4085B4E5D2E205965732C206943
:100BD0007427732053616E746120436C6175732EAA
:100BE00020596F752077657265206578706563742C
:100BF000696E672046726F7374793F20596F752054
:100C00006B696C6C65642068696D2C20796F752048
:100C10006B6E6F773F204920686F706520796F7524
:100C2000206469646E277420646F20746861742086
:100C30006F6E20505552504F53452E2057656C6CA7
:100C40002E204C75636B696C792046726F737479D2
:100C5000206973206D616465206F7574206F662054
:100C60004368726973746D617320736E6F7720616E
:100C70006E64206974206973207374696C6C2043FE
:100C800068726973746D61732C20736F20492063DF
:100C9000616E206272696E672068696D20626163AF
:100CA0006B20746F206C6966652E2E20446F20794E
:100CB0006F752077616E74206D6520746F2062728D
:100CC000696E672046726F737479206261636B206E
:100CD0006E6F773F00FF01E408DE080101D208CC07
:100CE000080001C008BA0849206C696B6520746F60
:100CF0002073696E672C2064616E636520616E6489
:100D0000206C617567682E205768617420646F20BD
:100D1000796F75206C696B6520746F20646F205B40
:100D20004E5D3F0000010209FC0848692C2049275C
:100D30006D2046726F7374792E2020576861742776
:100D40007320796F7572206E616D653F003C46724D
:100D50006F737479206D656C74732E2047616D65B7
:100D6000206F7665722E3E000001D413611C0001D5
:100D7000D813A9134920646F6E2774206B6E6F77A8
:100D800020686F7720746F207361792074686973AD
:100D9000205B4E5D2E20492068617665206E6F7461
:100DA000206265656E2061726F756E642074686183
:100DB00074206C6F6E672C206275742049207468F3
:100DC000696E6B20796F752061726520746865208B
:100DD0006D6F7374207370656369616C20706572E8
:100DE000736F6E20492065766572206D65742E20C4
:100DF000576F756C6420796F75206C696B65207412
:100E00006F20636F6D65206261636B20746F206D6E
:100E1000792069676C6F6F3F004920616D20736FA7
:100E2000206861707079207468617420776520682B
:100E3000617665206265636F6D65207375636820F8
:100E4000636C6F736520667269656E6473205B4EB8
:100E50005D2E204C65742075732068756720636C67
:100E60006F73656C792E204920686F7065207468F7
:100E70006174206D792069637920626F64792069DB
:100E800073206E6F74207468617420636F6C6420CB
:100E9000666F7220796F752E204C657427732068F9
:100EA000616E67206F757420616761696E20736F72
:100EB0006D6574696D652E203C47616D65206F76A8
:100EC00065723E00497420776173206E6963652006
:100ED0006D656574696E6720796F752C205B4E5D5A
:100EE0002E204275742049207468696E6B2C207521
:100EF000682C2049206E65656420746F20676F2020
:100F000077617368206D792068616972206E6F77F0
:100F10002E2053656520796F75206C617465722E83
:100F2000203C47616D65206F7665723E002A6B69D3
:100F300073732A20596F757220736B696E20697301
:100F4000207761726D2C205B4E5D2E205761726D93
:100F500020697320646966666963756C7420666FC6
:100F600072206D652C2062757420796F752772650B
:100F7000206E6F742074686174206261642E205941
:100F80006F75206B696E64206F66206C696B6520DD
:100F900074686520636F6C64206C696B65206D6597
:100FA0002C206576656E2074686F75676820796F90
:100FB00075206172652068756D616E2C20646F6E9E
:100FC000277420796F753F204920646F6E27742045
:100FD0006B6E6F7720686F772077652063616E2076
:100FE0006D616B65207468696E677320776F726BD3
:100FF000206C6F6E67207465726D2C205B4E5D2EC9
:10100000204D652C206265696E67206120736E6FCC
:10101000776D616E20616E6420616C6C2C20616E56
:101020006420796F752068756D616E2E204275742D
:101030002049207468696E6B207765207265616C49
:101040006C792073686172656420736F6D652073BD
:1010500070656369616C206D6F6D656E747320746B
:101060006F6765746865722E205468616E6B2079B5
:101070006F7520666F72206265696E67206D7920DA
:10108000686F6C692D6461746520746869732043AE
:1010900068726973746D61732E204920616C72658A
:1010A000616479206B6E6F7720746869732069734F
:1010B00020612064617920492077696C6C20726519
:1010C0006D656D62657220666F726576657221204E
:1010D0003C4D65727279204368726973746D6173F7
:1010E0002C20476F6F6420656E64696E673A2059E3
:1010F0006F7520776F6E2074686520686561727403
:10110000206F662046726F7374793E004F682C2002
:101110006F6B61792E2057656C6C2C2049206C6FA9
:101120006F6B20666F727761726420746F207365D5
:1011300065696E6720796F7520616761696E205BF4
:101140004E5D2E004F68212049276D20736F20735C
:101150006F7272792E2049206469646E2774206D45
:1011600065616E20746F2062652070757368792EDA
:1011700020556D2C20492764207374696C6C206C99
:10118000696B6520746F20626520626573742066E8
:101190007269656E64732074686F75676821204991
:1011A00020686F706520746861742773204F4B212D
:1011B000205468616E6B20796F7520666F722073A2
:1011C00070656E64696E67204368726973746D61DF
:1011D000732077697468206D6521004D75726465B0
:1011E00072657200467269656E647A6F6E6520463C
:1011F000726F7374790046726F73747920667269C6
:10120000656E647A6F6E6500576F6E2046726F73FD
:101210007479277320686561727400596F75206452
:1012200069656400596F75206B696C6C6564204654
:10123000726F73747900536E7562626564204672D2
:101240006F73747900536E756262656420627920F1
:1012500046726F737479000000040900002D0000CD
:101260000175096F0900015C09560957656C6C2C02
:101270002074686973206973206D7920706C6163D4
:10128000652E20436F6D65206F6E20696E736964F3
:10129000652E20492066696E6420697420636F6D35
:1012A000667920686572652E204920686F70652018
:1012B0006974206973206E6F7420746F6F20636F80
:1012C0006C6420666F7220796F752E0041636869C7
:1012D0006576656D656E7473210053746172742157
:1012E00000D5F08D14A1C881CFD9F1AF200052658F
:1012F00073746F7265206661696C65642100435286
:1013000043206D6973746D61746368210052657365
:10131000746F72696E6720454550524F4D004261AF
:10132000636B696E6720757020454550524F4D00C4
:10133000AE099D098F09800970726F6772657373BA
:101340002E00454550524F4D20746F2073746F72BC
:101350006500486F6C69646174652063616E207517
:10136000736520746865000001BF09B9090000D6E3
:101370000900000002F30AB90B0002C50BB90B000B
:1013800003E70CD50C00012A0D240D00004D0D00C3
:10139000000000C40E00000200190E0000040274D8
:1013A0000D680D00002D0F000000000C1100000062
:1013B000004411000052657365742050726F6772AB
:1013C000657373004512361224121B120812F611AF
:1013D000E411DB11596573004E6F005469746C653C
:1013E0003F0052657475726E20746F004142434431
:1013F00045464748494A4B4C4D4E4F505152535425
:1014000055565758595A200002003C003E023E3AB9
:101410003C3C373C313F80323F2B3C023C003A00A1
:1014200002020002003C003E023E25452C3E333EB7
:101430003A3C3C023C003A000202001D3821388050
:101440001E392039801F3A1F3A1F021F02801E03D7
:101450002003801D042104804000000000000000E3
:10146000000000000000000000000080C0C0E0603C
:101470006020101808080808080808080808080864
:1014800008080808080808080808080808080808DC
:1014900008080808080808080808080808080808CC
:1014A000080808181838206040800000000000007C
:1014B000000000000000000000E0F0F8F8F8E00094
:1014C0000080E0F0F0F0C00000000000000000002C
:1014D000000000000000000000000000000000000C
:1014E000000000000000F0F8FEFF0F0703000000FE
:1014F000000000000000FEFEFE0E0E0E0E0E0E9E00
:10150000FCFCF800001E1E1E1E1EFEFEFE1E1E1E01
:101510001E1E0000FEFEFE0E0E0E0E0E9CFCF8F8C7
:10152000000000000000000000033FF08000000009
:10153000000000000000000000030F1F3F39F00C06
:10154000DF7F3F07070301000000000000000000EC
:10155000000000000000000000000000000000008B
:10156000000000000000FFFFFFFFE000000000009F
:10157000000000000000FFFFFFFF0707070F1FFF2D
:10158000FBE3810000C0C0C0C0C0FFFFFFC0C0C0FF
:10159000C0C00000FFFFFF070707070703030101A3
:1015A00000000000000000000000000107FF000034
:1015B00000000000000000000000000000000083A8
:1015C00083818080C0C0C0C0C0C0C0C0C0C0C0C017
:1015D000808080000000000000000000000000008B
:1015E000000000000000FFFFFFFFFFFEE000000022
:1015F00000000000000001010101000000000001E6
:1016000001010100000101010101010101010101CC
:1016100001010000010101000000000000000000C5
:1016200000000000000000000000000000FF0000BB
:1016300000000000000000000000000000031F3F49
:101640007F7F7F7FFFFFFFFFFFFFFFFFFF7F7F7F2A
:101650003F3F070080800000000000000000000005
:101660000000000000003FFFFFFFFFFFFFFC000045
:10167000000000000000000000000000000000006A
:10168000000000000000000000000000000000005A
:10169000000000000000000000000000000000004A
:1016A00000000000000000000000000000FF00003B
:1016B00000000000000000000000000038989CBC02
:1016C000BEBEBC387878787878787878787C7CBCBE
:1016D0009CCEE7F7F7F7F3E0800000000000000081
:1016E0000000000000000003FFFFFFFFFFFFFF00FE
:1016F00000000000000000000000000000000000EA
:1017000000000000000000000000000000000000D9
:1017100000000000000000000000000000000000C9
:10172000000000000000000000000000FCFF0000BE
:10173000000000000000000080E0F8FCFEFFFFFF5A
:10174000FFFFFFFFFFFFFFFFFFFFFFFFFFFFFFFFA9
:10175000FFFFFFFFFFFFFFFFFF0000000000000092
:1017600000000000000000003F7F7F7F7F7F7F7FC1
:101770007C706060606060606060606060202020FD
:101780002020202020301818181818181818181899
:1017900018181818181818181818383C3C3C3C3CF5
:1017A0003C3C3C3C3C3C3C3C3C3C3C3C3F1F00000B
:1017B00000000000000000003FFFFFFFFFFFFFFFF1
:1017C000FFFFFFFFFFFFFFFFFFFFFFFFFFFFFFFF29
:1017D000FFFFFFFFFFFFFFFFFF0000000000000012
:1017E00000000000000000000000000000000000F9
:1017F00000000000000000000000000000000000E9
:1018000000000000000000000000000000000000D8
:1018100000000000000000000000000000000000C8
:1018200000000000000000000000000000000000B8
:1018300000000080C0E0F0F8FCF8F3E7CFDFFFFF26
:10184000FFFFFFFFFFFFFFFFFFFFFFFFFFFFFFFFA8
:10185000FFFFFFFFFFFFFFFFFF00015D1257128038
:101860004000000000080000000000000000000030
:10187000800000000000000000000000081C0800BC
:101880000000000000000000000000008080C0C0D8
:10189000C0C0C0C0C0C0C0C0C0C0C0C0C0C0C0C048
:1018A000C0C0C0C0C0808000000000000000000078
:1018B000081C0800000000000000000000000000FC
:1018C0000000000000000000000000000000000018
:1018D0000000000000000000000080C08000000048
:1018E00000000000000000000000000000000001F7
:1018F000030100000000000000000000000000C024
:10190000E0F0F0F8F8F8FCFEFEFCFDFBFBFB3B8B87
:10191000E3FBF3F7F7F7F7F7F7F7F7F7F7F7F7F76B
:10192000F70777F7F3F3FBFBFBFAF8F8F8F0F0E0D2
:10193000C0C08000000000000000000000000000A7
:1019400040000000000000000000042C3CDEBF3C12
:101950006C04000000000000000000010000000016
:101960000000000000000000000000000000000077
:1019700000000000000000000060F8FCFEFFFEFE1A
:10198000FEFEFEFEFEFC1DC1FBFBFBFBFBFBF8FBB2
:10199000FBFBFB03F7F7F7F7F7F7F7F7F7F7F7F7BF
:1019A0008333F8FBFBFBFBFBFBF9F9FDFDF9C13DC4
:1019B000FDFCFEFEFEFCF8F0C00000000000000090
:1019C000000000000000000000E0F8F0F8FF7FFEDB
:1019D000BCF8F0E030000000000000000000000053
:1019E00000000000000000000000040000000000F3
:1019F00000000000707CFEFFFFFEFEFC01FDFDFD0F
:101A0000F9FBFBFBFBFBF8FBFBFBFB7B3BBBBB8363
:101A1000BBBBB9B8B9BBBBBBBBBBBBBBBB3B037B95
:101A2000FBF8F9FBFBFBFBFBFBFBFBFBFBFBFBF80E
:101A3000E19D3DFEFEFEFEFEFEFEFCF860000000A5
:101A400000000000800060E058DBFFFEFFE79CFF25
:101A5000FFFFD7EFDF1EF8C0C0400000000000000D
:101A6000000000040E040000000000000000000060
:101A7000E0F8FEFF00FEFCFDFDF9FBFBF8FBFBFBC5
:101A80001BC3E7F7F7F7F71783F1FCFEFFFFFF7FB4
:101A90003F1F1F1F1F1F1F1F1F3F3F7F7FFFFFFE97
:101AA000FEF88337F7F7F7F7F7F7F7F3FBFBFBFBE6
:101AB000FBF308FDFDFDFDFDFDFCFEFEFEFFFCF061
:101AC000000000000107DFFFFF7F9EEFBF3FFFFD2B
:101AD000FFFFFFF9BFFBFFBFFFF9F8800000000028
:101AE000000000000000000000000000000000FEF8
:101AF000FC01FBFBF8F3F7F7F7E7E7EFEFEF0FCFAA
:101B0000C0DFDFDFDFDFDF00FFFFFFFFFFFF0300DE
:101B10000000000000000000000000000001FFFFC6
:101B2000FFFFFF00BFBFBFBFBFBFBFBFBFBF1FCF54
:101B3000CFEFE0EFEFE7F7F7C703FBFBF9FCFEFEA3
:101B4000FE003078FEFEFFFFF7DFFBFFFFDFFFBB8D
:101B5000FFFFFFFBDFFFFFF97BCFFF7B180C0000CF
:101B600000FEFEFEFEFEFEFEFEFEFEFEFEFEFCF99A
:101B7000FBF0E7EFCF9FBFBF3F7F7F7FFFFF00FFFF
:101B8000FFFFFFFFFFFF7F00FFFFFFFFFFFF008062
:101B9000C0E0F0F0F0F0F0F0F0F0F0F0F000FFFF57
:101BA000FFFFFFFC017FFFFFFFFFFFFFFFFFF803C9
:101BB000FFFFFF7F7F7F7F7F3F80DFCFEFE7F3FB7C
:101BC000F9FCFEFEFEFEFCFDF9F3E3E7070FEFFF75
:101BD000F7F7EF0FC7E7F7F2FBF9FCFEFEFEFEFE9C
:101BE000FEFFFFFFFFFFFFFFFFFFFFFFFFFFFFFF06
:101BF000FFFFFFFFFFFFFFFFFFFFFFFEFEFEFEFEFA
:101C0000FCFDFDFDFDFDF0F7F7F7F7F7F7F7F6F050
:101C1000FFFFFFFFFFFFFFFFFFFFFFF1F4F6F7F706
:101C2000F7F7F7F7F7F0FDFDFDFDFDFDFCFEFEFE0D
:101C3000FEFEFEFEFFFFFFFFFFFFFFFFFFFFFFFFB8
:101C4000FFFFFFFFFFFFFFFFFFFFFFF8F8FBFBFBBE
:101C5000FBFBFBFAF8F9FFFFFFFFFFFFFFFFFFFFB2
:101C6000FF00026B125F12DA12CC12B5137A1C0459
:101C70001CFCFCFCF8F8F0000000040CFCFCFCFC74
:101C8000FCF8000000000000000000000000000060
:101C900000000000000000000000000080C0F0C054
:101CA0008000000000000000008080C0E0C0808054
:101CB000000000000000000000000003FEFEFCFC2D
:101CC0007C1C00000000000000000000000000007C
:101CD0000000000000000000000000000000000004
:101CE0000000000000000000000000FFFFFFFFFFF9
:101CF000FFC0C0C0C0C0FFFFFFFFFFFF000000002B
:101D0000008080C0C0C0C0C0C080808000000000D3
:101D10000000406070FCFFFFFFFFFFFC78604000A8
:101D20000000000085C7C3C7050000000080C0E0B8
:101D3000E0F0707060E0FFFFFFFF000000008080B7
:101D4000C0C0C0C0C0C08080800000C0E0E0E0FE35
:101D5000FFFEC6C0C080000080C0E060606060C060
:101D60008000000000FFFFFFFFFF0F0F0F0F0FFFAE
:101D7000FFFFFFFFFFFF000000FEFFFFE783010101
:101D8000010181E3FFFFFF7E000000088CCEEFFF22
:101D9000FFFFFFFFFFFFFFEECC880000000007FF02
:101DA000FFFFF00000007EFFFFFF810000000080C9
:101DB000FFFFFF81000004C6C7E361301018FEFF7B
:101DC000FFFF070000000000FFFFFF810101030388
:101DD0000000FFFFFC1C181818181F1F1C00000F24
:101DE0000F0F0F0F0F0C000000030F0F0F0F0F0F3F
:101DF0000F0C000003070F0F0F0F0F0F0F0F07033C
:101E0000010000000203030303030B0F0F0F0F0B6E
:101E10000303030303020000080F0F0F0F0000006D
:101E200000000103070F0F0F0F0F07070F0F0C0024
:101E30000003070F0F0E0F0F0703070F0F0E000011
:101E40000000070F0F0F0E0C080000000103070F22
:101E50000E0E0E0E0E07038801E001000014004A6A
:101E6000016301000014005D016900000014008896
:101E700001E600000014000B02E00100001400EE77
:101E8000016900000014000B026900000014004BFF
:101E900002E600000014000B02E60000001400EE51
:101EA00001E60000001400B801E6000000140088FC
:101EB00001DA0200001400EE016900000014000BBA
:101EC000026900000014004B02E600000014000B41
:101ED00002E60000001400EE01E60000001400B865
:101EE00001690000001400B80169000000140088B6
:101EF00001E600000014000B02E600000014004A96
:101F000001E600000014008801690000001400B818
:101F1000016900000014008801E600000014005D63
:101F200001E600000014004A01E600000014005D14
:101F300001E600000014008801DA0200000E0188AA
:101F400001E001000014004A016301000014005D7B
:101F5000016900000014008801E600000014000B75
:101F600002E00100001400EE016900000014000B03
:101F7000026900000014004B02E600000014000B90
:101F800002E60000001400EE01E60000001400B8B4
:101F900001E600000014008801DA0200001400EEDF
:101FA000016900000014000B026900000014004BDE
:101FB00002E600000014000B02E60000001400EE30
:101FC00001E60000001400B801690000001400B828
:101FD000016900000014008801E600000014000BF5
:101FE00002E600000014004A01E600000014008828
:101FF00001690000001400B80169000000140088A5
:1020000001E600000014005D01E600000014004A33
:1020100001E600000014002601E60000001400069E
:1020200001DA02000014000601E60000001400B806
:1020300001E60000001400B801E600000014000BE7
:1020400002E600000014000B02E60000001400EE9F
:1020500001E60000001400B801E60000001400884A
:1020600001E600000014004A01E600000014005DD3
:1020700001E60000001400B801E60000001400882A
:1020800001E600000014005D01E600000014004AB3
:1020900001DA02000014004A01E6000000140026E4
:1020A00001E600000014002601E60000001400888C
:1020B00001E600000014008801E60000001400EEB4
:1020C00001E60000001400EE01E600000014004BE1
:1020D00002E001000014004B02E600000014000BB7
:1020E00002690000001400EE01630100001400B852
:1020F00001E600000014008801E600000014005D05
:102100000169000000140026016900000014002687
:1021100001E001000014008801E001000014004A01
:10212000016301000014005D0169000000140088D3
:1021300001E600000014000B02E00100001400EEB4
:10214000016900000014000B026900000014004B3C
:1021500002E600000014000B02E60000001400EE8E
:1021600001E60000001400B801E600000014008839
:1021700001DA0200001400EE016900000014000BF7
:10218000026900000014004B02E600000014000B7E
:1021900002E60000001400EE01E60000001400B8A2
:1021A00001690000001400B80169000000140088F3
:1021B00001E600000014000B02E600000014004AD3
:1021C00001E600000014008801690000001400B856
:1021D000016900000014008801E600000014005DA1
:1021E00001E600000014004A01E600000014002689
:1021F00001E600000014000601DA0200000E0100F2
:1022000080404000000000000000000000000000CE
:10221000C0C0E0E0F0F0F8F8FCFCFCFCFCFCFEFECA
:10222000FEFEFEFEFEFEFEFEFEFEFCFCFCF8F8F8E6
:10223000F8F0F000000000000000000000000000C6
:10224000000000000000000000000000000000008E
:1022500001030F1F3FFFFF7F7F7F7F7F3F3F3F3F98
:102260003F3F3F1F2F77F7F7D1644A1E5DE1EC5ED9
:102270000D63F120000000000000000000000000DD
:10228000000000000000000000000000000000F05E
:10229000F8FC7EBC78F0E0E0C0C0C0C0C0808080A8
:1022A0008080808080808080C6CECFCDCEC0C0CEE2
:1022B000EDEFE6F0F8E04000000000000000000054
:1022C00000000000000000060F1F3E1F0F0680F0F8
:1022D000F9FCFEFFFFFEFEFEFEFE0EE63A1A1AFABB
:1022E000FAF28E1EFEFE0EF63A1A1AF2E61EFEFEF6
:1022F000FEFEFCF9F1E1800000000000000000009B
:102300000000000000000000000000E0FCFFFFFFF4
:10231000FFBFDF7FBFDFFFFFFFFFF8FBF6F5F6F73C
:102320007707E110EBFBF8F3F2E506F7F7F8FFFFAC
:10233000DF7FBFDFFF7FFFFEFCF00000000000003A
:102340000000000000000000000000011F3FFFFF30
:10235000FFFDFEF7FBDDEEEFD79FBF7FFFFFFFFF27
:10236000FEFCF8F9FBFBFBFBF9FCFEFFFFFF7FFF28
:10237000FEF7FBEDF6FBFFFF1F0780C0C080C0C06B
:10238000800000008080C0E0F0F0F8F8F8FCFCF974
:10239000F3E7CFDFFFFFFFFFFFFFFFFFFEFCFCF9CE
:1023A000FBF3F3F7E7E7E7EFE7F7F3FBF9FCFEFFF3
:1023B000FFFFBFDFEFF7F3F0F0F0E1C3C78F0703D4
:1023C000010000FEFFFFFFFFFFFFFFFFFFFFFFFF1A
:1023D000FFFFFFFFFFFFFFFFFFFFFFFFFFFFFFFF0D
:1023E000FFFFFFFFFFFFFFFFFFFFFFFFFFFFFFFFFD
:1023F000FFFFFFFFFFFFFFFFFFFFFFFFFFFFFFFFED
:10240000FEFCF8404000000000000000000000005A
:102410000000C0C0E0E0F0F0F8F8FCFCFCFCFCFCC4
:10242000FEFEFEFEFEFEFEFEFEFEFEFEFCFCFCF8D8
:10243000F8F8F8F0F00000000000000000000000D4
:10244000000000000000000000000000000000008C
:10245000000001030F1F3FFFFF7F7F7F7F7F3F3F14
:102460003F3F3F3F3F1F2F77F7F7D1644A1E5DE1A3
:10247000EC5E0D63F1200000000000000000000091
:10248000000000000000000000000000000000004C
:1024900000F0F8FC7EBC78F0E0E0C0C0C0C0C080B6
:1024A00080808080808080808080C6CECFCDCEC06E
:1024B000C0CEEDEFE6F0F8E04000000000000000C4
:1024C000000000000000000000000000000000000C
:1024D000C0F0F9FCFEFFFFFEFEFEFEFE0EE63A1A1D
:1024E0001AFAFAF28E1EFEFE0EF63A1A1AF2E61EDC
:1024F000FEFEFEFEFCF9F1E180000000000000009D
:1025000000000000000000000000000000E0FCFFF0
:10251000FFFFFFBFDF7FBFDFFFFFFFFFF8FBF6F529
:10252000F6F77707E110EBFBF8F3F2E506F7F7F8BB
:10253000FFFFDF7FBFDFFF7FFFFEFCF0000000003A
:1025400000000000000000000000000000011F3F2C
:10255000FFFFFFFDFEF7FBDDEEF7FFFFFFFFFFFFD5
:10256000FFFFFEFC78797B7BFBFBF9FCFEFFFFFFA6
:10257000FFFFFEF7FBEDF6FBFFFF1F07000000006B
:102580000000000000008080C0E0F0F0F8F8F8FCE7
:10259000FCF9F3E7CFDFFFFFFFFFFFFFFFFFFFFFC8
:1025A000FFFFFDF8F0F0F0F0F8FFFFFFFFFFFFFF87
:1025B000FFFFFFFFBFDFEFF7F3F0F0F0E0C0C080F8
:1025C0000000000000FEFFFFFFFFFFFFFFFFFFFF17
:1025D000FFFFFFFFFFFFFFFFFFFFFFFFFFFFFFFF0B
:1025E000FFFFFFFFFFFFFFFFFFFFFFFFFFFFFFFFFB
:1025F000FFFFFFFFFFFFFFFFFFFFFFFFFFFFFFFFEB
:10260000FFFFFEFCF840400000000000000000005A
:1026100000000000C0C0E0E0F0F0F8F8FCFCFCFCBA
:10262000FCFCFEFEFEFEFEFEFEFEFEFEFEFEFCFCD2
:10263000FCF8F8F8F8F0F0000000000000000000DE
:10264000000000000000000000000000000000008A
:102650000000000001030F1F3FFFFF7F7F7F7F7F90
:102660003F3F3F3F3F3F3F1F2F77F7F7D1644A1E61
:102670005DE1EC5E0D63F120000000000000000051
:10268000000000000000000000000000000000004A
:10269000000000F0F8FC7EBC78F0E0E0C0C0C0C0F4
:1026A000C08080808080808080808080C6CECFCDBA
:1026B000CEC0C0CEEDEFE6F0F8E040000000000034
:1026C0000000000000000000000080C0E0F01010DA
:1026D0000000C0F0F9FCFEFFFFFEFEFEFEFE0EE66F
:1026E0003A1A1AFAFAF28E1EFEFE0EF63A1A1AF28A
:1026F000E61EFEFEFEFEFCF9F1E180000000000097
:10270000000000000000000000000101010000E0E6
:10271000FCFFFFFFFFFFFFFFFFFFFFFFFFFFF8FBD7
:10272000F6F5F6F77707E110EBFBF8F3F2E506F7BD
:10273000F7F8FFFFFFFFFFFFFFFFFFFEFCF00000C9
:102740000000000000000000000000000000000188
:102750001F3FFFFFFFFFFFFFFFFFFFFFFFFFFFFF29
:10276000FFFFFFFF7E7C78797B7B7B7B797CFEFFA4
:10277000FFFFFFFFFFFFFFFFFFFFFFFF1F0720E03F
:10278000C0800000000000008080C0E0F0F0F8F899
:10279000F8FCFCF9F3E7CFDFFFFFFFFFFFFFFFFBD4
:1027A000F9F9F8FCFCFEFEFEFEFEFEFEFEFCF8F96A
:1027B000FBFFFFFFFFFFBFDFEFF7F3F0F0F0E0C735
:1027C000C7870300000000FEFFFFFFFFFFFFFFFFC2
:1027D000FFFFFFFFFFFFFFFFFFFFFFFFFFFFFFFF09
:1027E000FFFFFFFFFFFFFFFFFFFFFFFFFFFFFFFFF9
:1027F000FFFFFFFFFFFFFFFFFFFFFFFFFFFFFFFFE9
:10280000FFFFFFFFFEFCF84040000000000000005A
:1028100000000000000000000000000000000000B8
:1028200000000000000000000000000000000000A8
:102830000000000000000000000000000000000098
:102840000000000000000000000000000000000088
:102850000000000000000000000000000000000078
:102860000000000000000000000000000000000068
:102870000000000000000000000000000000000058
:102880000000000000000000000000000000000048
:10289000000000000000E0E0F0F0F8F8FCFCFEFEB4
:1028A000FEFEFEFEFFFFFFFFFFFFFFFFFFFFFF7FBC
:1028B0007E7EFEFC7C7CFCF8F8000000000000003E
:1028C0000000000000000000000000000000000008
:1028D0000000000000000001070F1F7F7F3F3F3F07
:1028E0003F3F1F1F1F1F1F1F1F0F173B7B7B6832A0
:1028F000A58F2E70762F86B17810000000000000A2
:10290000000000000000000000000080C0C0E0E007
:10291000E0E0F0F00078FC7E3F1E3C787070606074
:1029200060606040404040404040404040406367FD
:10293000676667606067767773F8FCF02080F0E088
:10294000E0C08080800000000006070F0F0F0F0F0F
:102950001F1F3FFFFFDE3E7E7E7F7F7FFFFFFFFF6B
:10296000FFFFFFFFFFFFFFFFFFFFFFFFFFFFFFFF77
:10297000FFFFFFFFFFFFFFFFFEFEFEFEFE7F7F3F2C
:102980003F3F3F3F1F1F0F000000000000000000FE
:1029900000000001030307070707070707070301F4
:1029A0000101010103030303030F0F1F1F3D3D3D01
:1029B0003D3D3D3D1F1F0F0F0701010000000000BE
:1029C0000000000000000000000000000000000007
:1029D00000000000000000000000000000000000F7
:1029E00000000000000000000000000000000000E7
:1029F00000000000000000000000000000000000D7
:102A00000000000000000000004040000000000046
:102A10000000000000000000C0C0E0E0F0F0F8F8A6
:102A2000FCFCFCFCFCFCFEFEFEFEFEFEFEFEFEFED2
:102A3000FEFEFCFCFCF8F8F8F8F0F00000000000E6
:102A40000000000000000000000000000000000086
:102A5000000000000000000001030F1F3FFFFF7F88
:102A60007F7F7F7F3F3F3F3F3F3F3F1F2F77F7F7FE
:102A7000D1644A1E5DE1EC5E0D63F12000000000B0
:102A80000000000000000000000000000000000046
:102A900000000000000000F0F8FC7EBC78F0E0E0F0
:102AA000C0C0C0C0C08080808080808080808080E6
:102AB000C6CECFCDCEC0C0CEEDEFE6F0F8E0400000
:102AC0000000000000000000000000000000000006
:102AD000000000000000C0F0F9FCFEFFFFFEFEFE5B
:102AE000FEFE0EE63A1A1AFAFAF28E1EFEFE0EF6F6
:102AF0003A1A1AF2E61EFEFEFEFEFCF9F1E1800033
:102B000000000000000000000000000000000000C5
:102B1000000000E0FCFFFFFFFFFFFFFFFFFFFFFFE4
:102B2000FFFFF8FBF6F5F6F77707E110EBFBF8F39C
:102B3000F2E506F7F7F8FFFFFFFFFFFFFFFFFFFEDD
:102B4000FCF0000000000000000000000000000099
:102B5000000000011F3FFFFFFFFFFFFFFFFFFFFF20
:102B6000FFFFFFFFFFFFFFFF7E7C78797B7B7B7B96
:102B7000797CFEFFFFFFFFFFFFFFFFFFFFFFFFFF6F
:102B80001F07000000000000000000008080C0E07F
:102B9000F0F0F8F8F8FCFCF9F3E7CFDFFFFFFFFFF8
:102BA000FFFFFFFBF9F9F8FCFCFEFEFEFEFEFEFE59
:102BB000FEFCF8F9FBFFFFFFFFFFBFDFEFF7F3F0CD
:102BC000F0F0E0C0C0800000000000FEFFFFFFFF4B
:102BD000FFFFFFFFFFFFFFFFFFFFFFFFFFFFFFFF05
:102BE000FFFFFFFFFFFFFFFFFFFFFFFFFFFFFFFFF5
:102BF000FFFFFFFFFFFFFFFFFFFFFFFFFFFFFFFFE5
:102C0000FFFFFFFFFFFFFFFFFEFCF840400000005A
:102C100000000000000000000000000000000000B4
:102C2000000000000000C0E0F0F0F8F8F8FCFCFE46
:102C3000FEFEFEFEFEFEFEFEFEFE9E3EFEFEFEFCD6
:102C4000FCF8E0E0000000000000000000000000D0
:102C50000000000000000000000000000000000074
:102C6000C0E0E0E8EEEFAFEFEFEFEFAFEFEFEFAF89
:102C7000EFEFEFAFEFEFEFE777F7B3E0E10103033B
:102C8000010303070F1E3E7CF000800000000000DF
:102C90000000000000000000000000000000607064
:102CA0006F6EEFEEEBEFEFEEEFEBEFEFEFEFEDEF41
:102CB000EFEFEFCDDFD6DFCFCFDD0FEBCF8700001B
:102CC00000000000001F1F1E1E1E1F070000000046
:102CD000000000000000000000000000FAFFFF1EDE
:102CE000EC8C88E90BF7FFFFFFF70BEB8989ECEC25
:102CF0006C9EFEFEFEFEFEFFFFFF7E00FFFFFFF864
:102D00008000000000000000000000000000000043
:102D100000000000000000E0F8FCFCC09F3F7FFFC7
:102D2000FEFEFE7E2FA39ADDDFDFDFCEAE7E7E7E4F
:102D3000FFFFFFFFFFFFFFFF7B8DC0F0FFFFFFFFE7
:102D4000FF7E7870400000000000000000000000DE
:102D5000000000E0F8FCBCF9F3C70F3FFFFEFEFCEB
:102D6000FDE3F8FCFFF7F1FDFDFDF5F5F5FDF1FFE5
:102D7000FEF9E7EFEFF7F9FDFE7F3F3F1F8F87C1B9
:102D8000F0FEFCFFB7EFFF1C00800000000080C0D9
:102D9000E0E0E0E7CFCD9F3F77FFFE7CE0C79FBF3D
:102DA0003F3F7FFFFFFFFFFFFFFFFFFFFFFFFFFF33
:102DB000FFFFFF7F3F8F87F7B1F87CFEFFFDFFF736
:102DC0007F9FCFE7F3F9FCFCFEFFFFFFFEFFFFFF55
:102DD000FFFFFFFFFFFFFFFFFEFCF9E3C78F1B7F35
:102DE000FFF6BCF9F3E7EFCFCFDF9F9F8F87E7F3C5
:102DF000F3B9FCFEF7FFF77F7F3F8FC7F3F9FDFEC6
:102E0000FFFFFFFFFFFFFFFFFFFFFFFFFF4040004F
:102E1000000000000000000000000000C0C0E0E072
:102E2000F0F0F8F8FCFCFCFCFCFCFEFEFEFEFEFEF6
:102E3000FEFEFEFEFEFEFCFCFCF8F8F8F8F0F000EA
:102E40000000000000000000000000000000000082
:102E500000000000000000000000000001030F1F40
:102E60003FFFFF7F7F7F7F7F3F3F3F3F3F3F3F1FD2
:102E70002F77F7F7D1644A1E5DE1EC5E0D63F12018
:102E80000000000000000000000000000000000042
:102E90000000000000000000000000F0F8FC7EBC14
:102EA00078F0E0E0C0C0C0C0C080808080808080BA
:102EB00080808080C6CECFCDCEC0C0CEEDEFE6F014
:102EC000F8E04000000000000000000000000000EA
:102ED00000000000000000000000C0F0F9FCFEFF50
:102EE000FFFEFEFEFEFE0EE63A1A1AFAFAF28E1EF9
:102EF000FEFE0EF63A1A1AF2E61EFEFEFEFEFCF981
:102F0000F1E180000000000000000000000000006F
:102F100000000000000000E0FCFFFFFFFFFFFFFFDC
:102F2000FFFFFFFFFFFFF8FBF6F5F6F77707E1106D
:102F3000EBFBF8F3F2E506F7F7F8FFFFFFFFFFFF03
:102F4000FFFFFFFEFCF0000000000000000000009A
:102F500000000000000000011F3FFFFFFFFFFFFF18
:102F6000FFFFEFEFD79FBF7FFFFFFFFFFEFCF8F9EA
:102F7000FBFBFBFBF9FCFEFFFFFF7FFFFFFFFFFFFB
:102F8000FFFFFFFF1F07000000000000000000001F
:102F90008080C0E0F0F0F8F8F8FCFCF9F3E7CFDF50
:102FA000FFFFFFFFFFFFFFFFFEFCFCF9FBF3F3F762
:102FB000E7E7E7EFE7F7F3FBF9FCFEFFFFFFBFDF13
:102FC000EFF7F3F0F0F0E0C0C0800000000000FE7A
:102FD000FFFFFFFFFFFFFFFFFFFFFFFFFFFFFFFF01
:102FE000FFFFFFFFFFFFFFFFFFFFFFFFFFFFFFFFF1
:102FF000FFFFFFFFFFFFFFFFFFFFFFFFFFFFFFFFE1
:10300000FFFFFFFFFFFFFFFFFFFFFFFFFEFCF801D9
:103010000204081020408000000000003E5B4F5B6F
:103020003E3E6B4F6B3E1C3E7C3E1C183C7E3C186B
:103030001C577D571C1C5E7F5E1C00183C1800FF4F
:10304000E7C3E7FF0018241800FFE7DBE7FF30487D
:103050003A060E2629792926407F050507407F0577
:10306000253F5A3CE73C5A7F3E1C1C08081C1C3E6E
:103070007F14227F22145F5F005F5F06097F017F5C
:10308000006689956A606060606094A2FFA29408FF
:10309000047E040810207E201008082A1C08081C42
:1030A0002A08081E101010100C1E0C1E0C30383E82
:1030B0003830060E3E0E06000000000000005F00E3
:1030C000000007000700147F147F14242A7F2A12AF
:1030D0002313086462364956205000080703000095
:1030E0001C2241000041221C002A1C7F1C2A0808C7
:1030F0003E080800807030000808080808000060DA
:10310000600020100804023E5149453E00427F40C5
:103110000072494949462141494D331814127F1024
:1031200027454545393C4A4949314121110907366E
:1031300049494936464949291E000014000000400B
:103140003400000008142241141414141400412205
:10315000140802015909063E415D594E7C121112B4
:103160007C7F494949363E414141227F4141413EB0
:103170007F494949417F090909013E414151737F16
:103180000808087F00417F41002040413F017F083F
:103190001422417F404040407F021C027F7F040890
:1031A000107F3E4141413E7F090909063E415121C0
:1031B0005E7F09192946264949493203017F0103E7
:1031C0003F4040403F1F2040201F3F4038403F636A
:1031D0001408146303047804036159494D43007FC4
:1031E0004141410204081020004141417F04020195
:1031F0000204404040404000030708002054547837
:10320000407F284444383844444428384444287F84
:10321000385454541800087E090218A4A49C787FDE
:103220000804047800447D40002040403D007F10A9
:1032300028440000417F40007C047804787C080426
:1032400004783844444438FC1824241818242418DA
:10325000FC7C08040408485454542404043F4424C7
:103260003C4040207C1C2040201C3C4030403C44E2
:10327000281028444C9090907C4464544C4400089E
:1032800036410000007700000041360800020102CC
:1032900004023C2623263C1EA1A161123A40402094
:1032A0007A3854545559215555794121545478410F
:1032B000215554784020545579400C1E52721239D1
:1032C000555555593954545459395554545800008A
:1032D000457C410002457D420001457C40F02924A7
:1032E00029F0F0282528F07C545545002054547CC2
:1032F000547C0A097F4932494949323248484832A8
:10330000324A4848303A4141217A3A4240207800D6
:103310009DA0A07D39444444393D4040403D3C247B
:10332000FF2424487E4943662B2FFC2F2BFF0929BD
:10333000F620C0887E090320545479410000447D62
:10334000413048484A32384040227A007A0A0A72AC
:103350007D0D19317D2629292F2826292929263056
:10336000484D4020380808080808080808382F1079
:10337000C8ACBA2F102834FA00007B000008142AC9
:10338000142222142A14089500220095AA00550040
:10339000AAAA55AA55AA000000FF00101010FF00AD
:1033A000141414FF001010FF00FF1010F010F014A0
:1033B0001414FC001414F700FF0000FF00FF1414A5
:1033C000F404FC141417101F10101F101F141414F1
:1033D0001F00101010F0000000001F101010101F30
:1033E00010101010F010000000FF1010101010103E
:1033F000101010FF10000000FF140000FF00FF007D
:10340000001F10170000FC04F414141710171414F4
:10341000F404F40000FF00F714141414141414F747
:1034200000F7141414171410101F101F141414F4A0
:10343000141010F010F000001F101F0000001F14E7
:10344000000000FC140000F010F01010FF10FF143A
:103450001414FF141010101F00000000F010FFFFE4
:10346000FFFFFFF0F0F0F0F0FFFFFF0000000000B2
:10347000FFFF0F0F0F0F0F38444438447C2A2A3EB9
:10348000147E02020606027E027E026355494163F3
:103490003844443C04407E201E2006027E020299ED
:1034A000A5E7A5991C2A492A1C4C7201724C304A86
:1034B0004D4D303048784830BC625A463D3E49490F
:1034C00049007E0101017E2A2A2A2A2A44445F44B7
:1034D0004440514A444040444A51400000FF0103E7
:1034E000E080FF000008086B6B08361236243606B1
:1034F0000F090F06000018180000001010003040DF
:10350000FF0101001F01011E00191D1712003C3CA4
:103510003C3C0000000000080B0002020201000910
:10352000040000010202000005240010010524012E
:103530000101042402060524060001070581031089
:10354000004009040100020A0000000705020240D1
:103550000000070583024000000403090412010073
:1035600002EF0201404123368000010102030141C4
:10357000726475696E6F204C4C43004172647562D1
:103580006F790000413411241FBECFEFDAE0DEBFB7
:10359000CDBF11E0A0E0B1E0EEEEFEE602C0059086
:1035A0000D92A036B107D9F726E0A0E6B1E001C040
:1035B0001D92A337B207E1F71AE1C3ECDAE104C0C8
:1035C0002197FE010E94FE35C23CD107C9F70E9437
:1035D0003C280C9475370C9400004091D501509113
:1035E000D6012091D3013091D40142175307B4F48E
:1035F0009091E8009570E1F39091E80092FD19C078
:103600008093F1008091D5019091D60101968F733E
:103610009927892B19F48EEF8093E8008091D501CA
:103620009091D60101969093D6018093D50181E0C7
:10363000089580E00895CF92DF92EF92FF920F936A
:103640001F93CF93DF931F92CDB7DEB7182F062FAE
:10365000E42E862F880F8E5F99830E94ED1A83E0F7
:103660000E94ED1AF12EC12E9981D92E8C2D8F1921
:10367000801798F4F601E7FE02C0849101C08081B2
:103680000E94ED1A182F80E00E94ED1A8123FFEFAF
:10369000CF1ADF0A8111EACF01C081E00F90DF91DC
:1036A000CF911F910F91FF90EF90DF90CF900895F1
:1036B000DF92EF92FF920F931F93CF93DF93D82E59
:1036C0008A017B01E40EF51EEB01CE15DF0571F0DA
:1036D000D7FE03C0FE01849101C088810E94ED1ACB
:1036E00021968111F2CF8FEF9FEF01C0C801DF91CA
:1036F000CF911F910F91FF90EF90DF90089561504F
:1037000030F02091F100FC0120830196F8CF289839
:1037100084E68093D8010895CF92DF92EF92FF92D2
:103720000F931F93CF93DF936C017A018B01C0E05D
:10373000D0E0CE15DF0589F0D8016D918D01D6015D
:10374000ED91FC910190F081E02DC6010995892B46
:1037500011F47E0102C02196ECCFC701DF91CF9119
:103760001F910F91FF90EF90DF90CF900895CF932E
:10377000DF931F92CDB7DEB76983DC01ED91FC9139
:103780000280F381E02D41E050E0BE016F5F7F4F8A
:1037900009950F90DF91CF91089583E08093E90020
:1037A0008091F200882319F08AE38093E80008955D
:1037B000FC018485958597FD0BC09FB7F89482E046
:1037C0008093E9008091F2009FBF90E001960895F8
:1037D0009FB7F89482E08093E9008091F2009FBF48
:1037E00090E008953FB7F8948091CF019091D00177
:1037F000A091D101B091D20126B5A89B05C02F3F61
:1038000019F00196A11DB11D3FBFBA2FA92F982F06
:103810008827820F911DA11DB11DBC01CD0142E081
:10382000660F771F881F991F4A95D1F708958091D9
:103830006C01E0916A01F0916B01882349F0CF019E
:10384000029690936B0180936A01859194910895FB
:10385000CF01029690936B0180936A0180819181E0
:1038600008958091630108950895089580E090E09F
:1038700008950E9445370F931F93CF93DF931F92B4
:10388000CDB7DEB782E0898342E450E067E175E3BB
:1038900080E80E94581B0E942828DC0112960D9196
:1038A0001C9113970115110569F0D801ED91FC9158
:1038B0000280F381E02DBE016F5F7F4FC801099543
:1038C00097FF07C089810F90DF91CF911F910F91D2
:1038D0000895F80100851185E5CF0E94172890E032
:1038E0000895CF93DF931F92CDB7DEB7FC01848597
:1038F000958597FD05C02FEF3FEF358724870BC0D7
:10390000CE0101960E94E227019719F4898190E087
:1039100002C08FEF9FEF0F90DF91CF9108950F932B
:103920001F93CF93DF931F92CDB7DEB78C01FC01BD
:103930008485958597FF0EC0CE0101960E94E227EF
:10394000019719F4298130E002C02FEF3FEFF80111
:1039500035872487F801848595850F90DF91CF9175
:103960001F910F9108951F920F920FB60F9211247D
:103970008F939F938091E1009091E100937F9093CA
:10398000E10083FF0FC01092E90091E09093EB00FB
:103990001092EC0092E39093ED001092D90198E020
:1039A0009093F00082FF20C093E09093E900909103
:1039B000F200992319F09AE39093E8009091D701CF
:1039C000992339F09091D70191509093D701992381
:1039D00089F19091D801992339F09091D8019150B3
:1039E0009093D801992341F184FF10C08091E200A7
:1039F0008E7E81608093E2008091E1008F7E8093D3
:103A0000E100809161018E7E806111C080FF16C04F
:103A10008091E2008E7E80618093E2008091E100DF
:103A20008E7E8093E100809161018E7E8160809323
:103A3000610104C05D9ACDCF289AD6CF9F918F9116
:103A40000F900FBE0F901F9018951F920F920FB6F8
:103A50000F921124CF92DF92EF92FF920F931F9358
:103A60002F933F934F935F936F937F938F939F9386
:103A7000AF93BF93EF93FF93CF93DF93CDB7DEB7B1
:103A80006C97DEBFCDBF1092E9008091E80083FF04
:103A9000EDC168E0CE0145960E947F1B82EF8093C6
:103AA000E8008D8987FF05C09091E80090FFFCCF6A
:103AB00003C09EEF9093E800982F907609F0C6C05F
:103AC0009E892F89188D91110CC0803829F480911E
:103AD00062018093F10002C01092F1001092F10097
:103AE00048C1422F50E0512B913051F4811141C116
:103AF0004130510509F03DC1809162018D7F0BC0BD
:103B0000933061F4811135C14130510509F031C163
:103B1000809162018260809362012BC1953041F4F3
:103B20008091E80080FFFCCF20682093E30021C152
:103B3000963009F05FC0EB8CFC8C1092E90010927B
:103B4000D6011092D501123091F51092D401109245
:103B5000D3010E943B1C99E0BE016F5F7F4FDB01E8
:103B6000E92F1D92EA95E9F799831A8391E09E83E4
:103B700090EA98879AEF99872091D5013091D601E4
:103B8000275F3F4F3C832B838D831092E900109277
:103B9000D6011092D501F092D401E092D30149E010
:103BA00050E080E00E94581B0E943B1CE2C0F09253
:103BB000D401E092D3010E942828DC011296ED90F6
:103BC000FC901397E114F10409F4C0C0D701ED9102
:103BD000FC910480F581E02DBE016B5E7F4FC70133
:103BE0000995009719F00CF0C4C0C7C0F701E08434
:103BF000F184E8CF973009F4C0C0983021F481E017
:103C00008093F100B6C0993009F0B3C0837009F019
:103C1000B4C0E8E2F1E081E021E036E3908199234D
:103C200061F08093E9002093EB0091919093EC0078
:103C30003093ED008F5F873089F78EE78093EA003D
:103C40001092EA008F898093D90193C08B8D9C8D4F
:103C50001092E9001092D6011092D5019093D401F0
:103C60008093D301898D811156C08E899D89913AA7
:103C700059F4813209F081C047E050E068E071E01A
:103C800080E00E94581B75C0913209F076C08332E3
:103C900089F4888D90E0982F88272F89822BA0E0C7
:103CA000B0E08093040190930501A0930601B093C6
:103CB00007015FC0803269F48091E80082FFFCCF89
:103CC00067E088E091E00E947F1B8BEF8093E80023
:103CD00006C0823209F04DC08F8980930F01809118
:103CE0006001882319F0EEEFFAE002C0E0E0F8E0AE
:103CF0008091080190910901A0910A01B0910B01F6
:103D0000803B9440A105B10509F07BC080910F0173
:103D100080FF93C076C00E942828DC0112960D9186
:103D20001C9113970115110541F1D801ED91FC91FA
:103D30000190F081E02DBE016B5E7F4FC8010995B7
:103D4000811117C0F80100851185ECCF113009F4FD
:103D50004EC0133091F48F89882309F445C0823016
:103D600081F440E867E08BE795E30E941B1B882302
:103D700021F08EEF8093E80079C081E28093EB0020
:103D800075C0813029F440E86BE08FE695E3EDCF14
:103D9000833099F70E942828DC011296ED90FC9060
:103DA00013978E010F5F1F4F6801E114F10479F042
:103DB000D701ED91FC910680F781E02DB801C70194
:103DC0000995080F111DF701E084F184EECFD801A9
:103DD0001C92F60101900020E9F73197BF016C19A0
:103DE0007D0940E0C601C1CF69E575E302C06DE51C
:103DF00075E36115710509F2FB01449150E080E81B
:103E000040CF0FB6F894A8958091600088618093A8
:103E10006000109260000FBEA895EE3F2AE0F20706
:103E200039F08091FE0A9091FF0A91838083A1CF9F
:103E30001092FF0A1092FE0A9CCFEE3F8AE0F8072C
:103E400031F0808191819093FF0A8093FE0A87E789
:103E500097E7918380839BE088E10FB6F894A8955B
:103E6000809360000FBE9093600083CF6C960FB676
:103E7000F894DEBF0FBECDBFDF91CF91FF91EF91E0
:103E8000BF91AF919F918F917F916F915F914F9172
:103E90003F912F911F910F91FF90EF90DF90CF9066
:103EA0000F900FBE0F901F9018958F929F92AF9218
:103EB000BF92CF92DF92EF92FF926B017C010E9442
:103EC000F21B4B015C01C114D104E104F104F1F0D7
:103ED0000E94F21BDC01CB0188199909AA09BB09D0
:103EE000883E9340A105B10570F321E0C21AD108C4
:103EF000E108F10888EE880E83E0981EA11CB11C31
:103F0000C114D104E104F10419F7DDCFFF90EF9063
:103F1000DF90CF90BF90AF909F908F9008958F9239
:103F20009F92AF92BF92CF92DF92EF92FF920F9348
:103F30001F93CF93DF935C016B017A0180910F0196
:103F4000882309F45BC08091D901882309F456C005
:103F50008091610180FF05C08091E00082608093C4
:103F6000E000E70110E00AEF83E0882E9AE3992E43
:103F70002097D9F10E94172881110AC0015009F435
:103F80003DC061E070E080E090E00E94551FF0CFFE
:103F9000282F30E0C217D3070CF48C2F4FB7F894BA
:103FA0008092E9009091E80095FF1DC0282F30E035
:103FB000C21BD30BF601982F915020F08191809372
:103FC000F100FACFC20ED31E112319F09092E8002F
:103FD00009C08091E80085FD06C09092E80011E0DC
:103FE000209709F010E04FBFC3CF1111C3CF5D98E8
:103FF00084E68093D7011E141F0444F081E090E012
:10400000F5019383828380E090E001C0C701DF91D6
:10401000CF911F910F91FF90EF90DF90CF90BF90C5
:10402000AF909F908F9008951F920F920FB60F92AE
:1040300011242F933F938F939F93AF93BF938091BE
:10404000640190916501A0916601B0916701309182
:10405000CE0123E0230F2D3720F40196A11DB11DC1
:1040600005C026E8230F0296A11DB11D2093CE01A5
:104070008093640190936501A0936601B0936701FA
:104080008091CF019091D001A091D101B091D20146
:104090000196A11DB11D8093CF019093D001A093F3
:1040A000D101B093D201BF91AF919F918F913F9178
:1040B0002F910F900FBE0F901F901895CF92DF9207
:1040C000EF92FF920F931F93CF93DF930E94171CE1
:1040D000811520E8920761F4809171008D7F8093B3
:1040E000710010929100469847981092C7018BC0BA
:1040F00021E02093C701813020E8920751F480919C
:1041000068019091690190936B0180936A010E940C
:10411000171C97FD05C02091C601222309F43FC05A
:104120002091C50121113BC021E02093C801EC0181
:10413000DF77209769F481E08093C90146983FE9D1
:10414000C32E3FE0D32EE12CF12CCAEFD0E014C0F7
:104150008E0120E030E060E472E48FE090E0A9019D
:1041600098010E94873569017A0181E0C81AD10857
:10417000E108F1081092C901E0913506F091360688
:104180000995811103C081E08093C9018091C80124
:104190008823B9F18091C901811133C003C0109205
:1041A000C801C5CF46992DC0479A0E94171C009799
:1041B00071F09C01DE010E94DB35DC01CB0129E0BE
:1041C000B595A795979587952A95D1F703C08FEF59
:1041D0009FEFDC01109290002AE020939100D09292
:1041E0009900C09298008093CA019093CB01A0934C
:1041F000CC01B093CD0180917100826080937100F9
:1042000002C04798D2CFDF91CF911F910F91FF90BD
:10421000EF90DF90CF9008951F920F920FB60F92FC
:1042200011242F933F934F935F936F937F938F93BB
:104230009F93AF93BF93EF93FF938091CA019091A7
:10424000CB01A091CC01B091CD01892B8A2B8B2B76
:1042500081F18091C90181110BC098B180E4892757
:1042600088B98091C801882319F088B1805888B92D
:104270008091CA019091CB01A091CC01B091CD0168
:10428000181619061A061B06B4F48091CA019091FB
:10429000CB01A091CC01B091CD010197A109B10949
:1042A0008093CA019093CB01A093CC01B093CD0130
:1042B00002C00E945E20FF91EF91BF91AF919F914C
:1042C0008F917F916F915F914F913F912F910F90BF
:1042D0000FBE0F901F901895BC0180E090E00C94E9
:1042E000551F8FB12CB193B130E0209530952074DB
:1042F0003327A90123E0559547952A95E1F7292F02
:1043000030E02095309520713327359527953595E8
:104310002795242B8095807F822B08956038710526
:10432000D0F440345105B8F4EFE0F0E380E1849F2D
:10433000D001A0781124A60F4770E40FF11D8491DD
:10434000A652BE4F222319F06C91862B03C0809594
:104350006C9186238C9308952F923F924F925F9297
:104360006F927F928F929F92AF92BF92CF92DF9285
:10437000EF92FF920F931F93CF93DF93CDB7DEB7EA
:1043800029970FB6F894DEBF0FBECDBFFC016A308F
:1043900069F4248D808D918D38E0239F800D911DCF
:1043A0001124918F808F178A168AAAC06D3009F464
:1043B000A7C099878887F48C338C228C608C718C91
:1043C0000689178900381105C4F0A885B9855C965F
:1043D0002C915C97422F50E056968D919C91579767
:1043E000B6E02B9F800D911D1124E885F985978BF0
:1043F000868B258D21116EC083C0F0E46F16710489
:1044000024F7C80125E0F29E800D911D1124181695
:104410001906DCF68F2D90E09C838B83C301A8E006
:10442000FA9E800D911D11241816190674F6B5E038
:104430006B9FB0011124FB01E95EFF4CFA83E98315
:1044400030E08885998504969E838D83E981FA8181
:10445000E490353009F4E12C430188E0482EE0FC7B
:1044600002C0532C01C0522C51100BC0321009C095
:10447000E6944A948B819C81880E991E4110EFCF5F
:104480001BC068018C2D801B8F1590F754018A2D5D
:1044900088198F1568F4252DA501B6018D819E819F
:1044A0003F830E948E219FEFA91AB90A3F81EFCF67
:1044B000AFEFCA1ADA0AE6CF3F5FEB81FC810E0F3D
:1044C0001F1F89819A8101969A838983363009F06A
:1044D000BDCF7BCF6AEF64039001659F300D11243F
:1044E00020583F4F281739075CF4A885B985ED910E
:1044F000FC9111970190F081E02D6AE0CD010995C2
:1045000081E090E029960FB6F894DEBF0FBECDBFD4
:10451000DF91CF911F910F91FF90EF90DF90CF909F
:10452000BF90AF909F908F907F906F905F904F90D3
:104530003F902F900895E0916E0120916D01309190
:104540006F018091BA019091BB01332321F033E1D7
:104550008B38930779F48756934161F0ED5FE21B46
:10456000E63058F4F0E0EE0FFF1FE55EFE4F60818D
:10457000718105C06DE07CE202C06FE07EE220E464
:1045800040E480E490E00C945A277F928F929F92AF
:10459000AF92BF92CF92DF92EF92FF920F931F9351
:1045A000CF93DF93EC018B012D813E818B819C8128
:1045B000820F931F8132910514F080E290E09E8378
:1045C0008D838D819E81803E9F4F24F480EE9FEFEE
:1045D0009E838D830E94463563E070E00E94EA3539
:1045E000019745E0880F991F4A95E1F76EE170E069
:1045F0000E94EA35060F171F1C830B83712C50E8AD
:10460000E52EF12C64E0C62ED12C70EEA72E7FE0B3
:10461000B72E8881781608F055C084E0789E800116
:10462000112489809A80800E911EF40120813181AD
:104630008D819E81820F931F91838083E981FA810E
:10464000E00FF11F228133818F819885820F931FA4
:1046500093838283F4018281938181159840FCF0D9
:104660000E944635B7010E94EA3525E0880F991F60
:104670002A95E1F7F4019183808389809A80800EE6
:10468000911E0E944635B6010E94EA35049735E036
:10469000880F991F3A95E1F7F40193838283E981AA
:1046A000FA81E00FF11F808191818115904114F012
:1046B000118210828081918197FF02C0B182A08215
:1046C0007394A7CFDF91CF911F910F91FF90EF903F
:1046D000DF90CF90BF90AF909F908F907F90089584
:1046E0002F923F924F925F926F927F928F929F9202
:1046F000AF92BF92CF92DF92EF92FF920F931F93F0
:10470000CF93DF93009709F424C1CE2C502E59018A
:10471000EA017B018C01DB018C91F801E80FF11DAE
:1047200010828C91833029F56BE571E0C8010E94FD
:104730006537892BF1F46AED862E65E0962EF4013B
:1047400001900020E9F73197AF014A5D5540B4016F
:10475000C8010E944A37F40101900020E9F731971F
:10476000EA5DF540D701EC9398012E0F311DF90158
:1047700010828AE0682E712C9BE0D92E29E0822ECF
:10478000912C39E0232E4DE2342E50E2452EF701D4
:104790004081442309F4DDC02881263008F0D9C0C7
:1047A00030E0F901E059FE4F4B3008F05EC08081E7
:1047B00090E050E0B301681B790B64177507E4F1D2
:1047C000D29EB001D39E700D1124860F971FB801A1
:1047D0008A589E4F0E944A37E881F0E0E059FE4F28
:1047E0009081D7018C91890F8083888190E0FC01B2
:1047F000E059FE4F2081D89EF001D99EF00D112482
:10480000E20FF11DEA58FE4F10821C92888190E061
:10481000FC01E059FE4F20812A3008F0B8CFC110CA
:10482000B6CFD89EF001D99EF00D1124E20FF11DF4
:10483000EA58FE4F408266C0F50180818F5F808319
:10484000E881581670F48E2F90E0FC01E059FE4F7D
:104850002081D89EF001D99EF00D1124E20FF11DA8
:1048600071C0F0E0E059FE4F63C0408150E0C301E9
:10487000841B950B02970CF45DC0D29EC001D39EA1
:10488000900D1124840F951F9401241B350BA90151
:10489000B8018A589E4F0E944A37E881F0E0E059FB
:1048A000FE4F808190E0D7012C91AC014950510915
:1048B000420F511DB401681B790B600F711FC801B5
:1048C0000E945337F70180818950E881F0E0E05978
:1048D000FE4F9081890FD7018C93E881F0E0E05979
:1048E000FE4F2082888190E0FC01E059FE4F20813C
:1048F000D89EF001D99EF00D1124E20FF11DEA5867
:10490000FE4F3082E881F0E0E059FE4F80818F5FFA
:104910008083888190E0FC01E059FE4F2081D89E81
:10492000F001D99EF00D1124E20FF11DEA58FE4F5F
:1049300010822DCFD29EF001D39EF00D11244E0F88
:104940005F1FFA01EA58FE4F108288818F5F8883CB
:104950001ECFDF91CF911F910F91FF90EF90DF90CD
:10496000CF90BF90AF909F908F907F906F905F900F
:104970004F903F902F9008958F929F92AF92BF9249
:10498000CF92DF92EF92FF920F931F93CF93DF931B
:10499000CDB7DEB76C970FB6F894DEBF0FBECDBFB4
:1049A00026E0E0E7F1E0DF011D922A95E9F70097A4
:1049B00009F493C01C8E1B8E1A8E662351F021E0E1
:1049C0002093B901162F4C01A12CB12CFF24F39494
:1049D0002DC01092B901F6CF8C8D863008F058C0EA
:1049E000F60184918C3209F037C08A8D811130C074
:1049F000F601C490C982FA8EF5013196E80DF91DD1
:104A0000E491EC32D9F481E0E82E012F9E01255E7D
:104A10003F4FAE01445E5F4FBE01665E7F4FCE01E9
:104A200001960E947023FFEFAF1ABF0A6401CA0CFF
:104A3000DB1CF6018491882359F1CECFED3218F4B6
:104A4000E13271F4E0CFEE32F1F2EF3349F4DBCF33
:104A5000F1E0AF1AB108D7CF8D32A4F4803211F44F
:104A600080E0D2CF813209F4C0CF8A8DF601C490A4
:104A7000E1E0F0E0EC0FFD1FE80FF11DC0828F5F59
:104A80008A8FD1CF8E3209F4B0CF8F3371F7ADCF8B
:104A9000F6018491811103C08A8D811108C0F6014D
:104AA000C490C11014C08A8D811111C014C0E12CB2
:104AB000012F9E01255E3F4FAE01445E5F4FBE0158
:104AC000665E7F4FCE0101960E947023E8CF81E0A1
:104AD0008093B80102C01092B8016C960FB6F8949A
:104AE000DEBF0FBECDBFDF91CF911F910F91FF9021
:104AF000EF90DF90CF90BF90AF909F908F900895F0
:104B0000CF93C0910F016AE070E080E090E00E94D6
:104B1000551FC11110C08FEF9FEF9093F205809346
:104B2000F105C0910F016AE070E080E090E00E9422
:104B3000551FCC23B1F3CF910895FC01680F791F65
:104B400080E0E617F70751F09191892798E02CE86B
:104B5000869508F482279A95D9F7F3CF0895FC013A
:104B6000808191810C9471355F926F927F928F92C8
:104B70009F92AF92BF92CF92DF92EF92FF920F93EC
:104B80001F93CF93DF9300D0CDB7DEB78C01512CAC
:104B9000CC24CA94DC2C90E1E92EF12C58012EE0B3
:104BA000A20EB11C48013701601A710A8A149B04D5
:104BB00069F0C401860D971D9A838983CE01019601
:104BC0000E94AF25F40181934F01F0CF6DE070E0BA
:104BD000C8010E949D25F8019585891317C0208181
:104BE000F0E1EF16F10441F0452D50E0822F90E006
:104BF00001974817590751F4522EC7010E966701C5
:104C0000823F23E0920731F07C01CCCFF0E1CF1658
:104C1000D1049CF07601E01AF10A0A151B0591F007
:104C2000C701800F911F9A838983CE0101960E944C
:104C3000AF25F80181938F01F0CF8EE0F80111923A
:104C40008A95E9F7C6010F900F90DF91CF911F91E0
:104C50000F91FF90EF90DF90CF90BF90AF909F901B
:104C60008F907F906F905F900895009769F0FC019E
:104C700001900020E9F73197AF01481B590BBC01A7
:104C800087E396E00C948C1B80E090E00895CF932E
:104C9000DF930E943526EC0188E591E00E943526DD
:104CA0008C0F9D1FDF91CF9108952F923F924F92CD
:104CB0005F926F927F928F929F92AF92BF92CF92AC
:104CC000DF92EF92FF920F931F93CF93DF9300D069
:104CD00000D0CDB7DEB75C0130E0262E312C22E0CB
:104CE000221A3108432F50E0421553050CF09FC0A3
:104CF0007A0182E0E80EF11CEA0CFB1CF7018491BA
:104D0000803809F491C0FA013396EA0DFB1DE49155
:104D10008E2F90E0F701E490F12CFA013196EA0D24
:104D2000FB1DE4910E2F10E0F501E40FF51FE49157
:104D30004E2F50E05C834B83BC01601B710B77FFEF
:104D400003C0719561957109A701EB81FC814E1B30
:104D50005F0B57FF03C0519541955109F1E0F9836D
:104D60004617570714F019820BC04E2D2F2D7C01CA
:104D7000842F922F4B812C811C830B83042F122FA5
:104D80004B815C81E416F5065CF4402F212F8C01E9
:104D9000842F922F4B812C81FC82EB82E42EF22E09
:104DA0002701EB81FC814E1A5F0A3C01601A710AEF
:104DB00077FE03C0719461947108620157FE03C0CD
:104DC000FFEFCF1ADF0AD594C7940817190714F01C
:104DD0008FEF01C081E0882E880F99088B819C811C
:104DE000E816F90614F12981222329F021E04B81EC
:104DF0005C81B80104C021E0A8016B817C818BE358
:104E000096E03A830E948E213A81C618D708D7FED1
:104E100004C0080D191DC40CD51C4B815C814F5F6B
:104E20005F4F5C834B83DACF3F5F3E5F5BCF0F907A
:104E30000F900F900F90DF91CF911F910F91FF90E6
:104E4000EF90DF90CF90BF90AF909F908F907F902A
:104E50006F905F904F903F902F9008950F931F9306
:104E6000CF938C01C0E0F8018081C817F8F4D80115
:104E70001196ED91FC911297B4E0CB9FE00DF11DDE
:104E800011244281538185E0559547958A95E1F734
:104E90006081718195E0759567959A95E1F721E0BC
:104EA0008BE396E00E948E21CF5FDDCFCF911F91E3
:104EB0000F910895AF92BF92CF92DF92EF92FF923F
:104EC0000F931F93CF93DF935B0150E0BC01640FFE
:104ED000751F77FD3CC080389105CCF5622F669533
:104EE0006695669570E0277011F06F5F7F4F9C01AB
:104EF00026523E4F7901C12CD12C20E030E02617FC
:104F0000370729F12830310511F1E7018C01A0E0C4
:104F1000B0E0A417B5079CF40038110581F017FD27
:104F200009C0FD01EC0DFD1DEA0DFB1DE491F881AA
:104F3000EF2BE88311960F5F1F4F2196EACF2F5F6B
:104F40003F4FE0E8EE0EF11CC40ED51ED8CFDF9126
:104F5000CF911F910F91FF90EF90DF90CF90BF9076
:104F6000AF90089520914106282329F4909140069E
:104F7000982381E009F480E008958091DA018EBDE4
:104F8000EBEDF1E081910DB407FEFDCF8EBD85E024
:104F9000EA3DF807B9F70DB407FEFDCF089580E0AC
:104FA000EAEDF1E081118FEF0024819381938193E9
:104FB00081930394D1F7E7E3F6E0118E108E178A00
:104FC000168A0895FC018091D901811103C08FEFE9
:104FD0009FEF08959FB7F89482E08093E9002091B5
:104FE000F20030E01216130614F421E030E021152F
:104FF000310559F0289884E68093D8018091F1001A
:1050000080838091F200882319F09FBFC901089521
:105010008BE68093E800F9CFE0913706F0913806EF
:105020000190F081E02D682F87E396E009942FB777
:10503000F89483E08093E9009091E800892F8072D2
:1050400095FF04C09091F20080E4891B2FBF089562
:105050008091590681110DC082E08093550684E04D
:1050600080935606109258061092570681E080935E
:10507000590685E596E00895CF93DF93CDB7DEB767
:10508000A2970FB6F894DEBF0FBECDBF789484B55B
:10509000826084BD84B5816084BD85B5826085BD34
:1050A00085B5816085BD80916E00816080936E00C2
:1050B00010928100809181008260809381008091B4
:1050C0008100816080938100809180008160809365
:1050D0008000809191008260809391008091910086
:1050E0008160809391008091900081608093900016
:1050F0008091C10084608093C1008091C100826072
:105100008093C1008091C10081608093C100809133
:10511000C30081608093C3008091C000826080934F
:10512000C0008091C20081608093C20080917A00AB
:10513000846080937A0080917A00826080937A0004
:1051400080917A00816080937A0080917A008068F3
:1051500080937A001092D90110926201109261013D
:105160008091D70081608093D70080EA8093D80037
:1051700089B5806189BD89B5826089BD09B400FEA9
:10518000FDCF61E070E080E090E00E94551F8091CB
:10519000D8008F7C80618093D8008091E000807F70
:1051A0008093E0008091E1008E7E8093E1008DE0AD
:1051B0008093E200559A209AEEEFFFE78591949153
:1051C0008B3F9C4D19F481E08093600181EC8093CA
:1051D0007C0085B1806F85B9249884B1866E84B9CE
:1051E0005E9A5F988AB1806D8AB9769A6E9881B31B
:1051F000806F81BB899880B38D7080BB80E58CBD4A
:1052000081E08DBD85E090E00E946C215F9A85E091
:1052100090E00E946C215E985C98E1EEF2E18DE0F6
:105220008E0F94919EBD00000DB407FEFDCF319608
:105230008E13F7CF5C9A81E88093640011E010939D
:1052400065000E947121803839F42E9880916400A5
:10525000806280936400FFCF82E090E09A8389832C
:10526000CE0101960E94AF25882329F03E9A3F9AED
:105270001093630104C0109263013E983F9881E24D
:105280008093420681E0809353062FB7F894809173
:10529000640190916501A0916601B09167012FBFF3
:1052A00040914706509148066091490670914A0620
:1052B00020914B06222349F020914306821B8093C4
:1052C0004C0610924B060C94423284179507A607A1
:1052D000B70788F4481B423010F40C94423283B76D
:1052E000817F83BF83B7816083BF889583B78E7FBB
:1052F00083BF0C94423221E020934B0680934306F7
:1053000090934406A0934506B0934606209142062A
:10531000820F911DA11DB11D8093470690934806F1
:10532000A0934906B0934A0680913E0690913F06AD
:10533000019690933F0680933E0610910301909151
:105340000201191709F46BC4109302010E94CF27C0
:10535000812F90E0FC013197EA30F10508F05DC43F
:10536000EA5AFF4F0C94FE350091BC0184E090E0B6
:1053700090934E0680934D061092500610924F0661
:1053800062E573E1CE0101960E9461350E944726D5
:1053900083E190E090934E0680934D0662E473E1C2
:1053A000CE0101960E9461350E94472685E290E079
:1053B00090934E0680934D0668E373E1CE0101960B
:1053C0000E9461350E9447268AE591E00E944726A7
:1053D00090E3C92E93E1D92E10E02DEFF22E81E05B
:1053E000101301C080E08093510681E0101380E02B
:1053F00080935206F601859194910E9468354F2D55
:105400009C014203C001439F900D1124805C9F4F7B
:1054100090934E0680934D06F60165917491CE01EE
:1054200001960E9461350E9447261F5F82E0C80EE8
:10543000D11C1430A1F681E08093510610925206DF
:10544000ECC38091C401811116C0809171008D7FE1
:105450008093710011E010936C0187E59EE19093B9
:105460006B0180936A0190936901809368010E94A7
:105470005E201093C4012CE14AE76FE67CE183E0F3
:1054800090E00E945A2782E090E090934E0680932D
:105490004D0682E290E09093500680934F06A7E677
:1054A000CA2EACE1DA2E10E00AE2BEE3FB2E82E067
:1054B000A82EB12C8091BC01811302C0F98201C0D9
:1054C0000983F60165917491CE0102960E946135BF
:1054D000CE0101960E944726B0924E06A0924D063C
:1054E0001F5F92E0C90ED11C133021F78091C201D9
:1054F0009091C301892B09F06EC00E9446350E942D
:105500004B3589E090E00E9418366C0184E1D601A9
:105510008C9380E590E00E941836F6019283818397
:105520000E94463563E070E00E94EA35019775E01D
:10553000880F991F7A95E1F76EE170E00E94EA35D5
:10554000D60114967C936E931397F12C0AE010E029
:10555000EFE78E2E912CFFE36F2E712CD6018C91EC
:10556000F816A8F5F60183819481968385831087C8
:105570000783F4E0FF9E50011124D60111964D904F
:105580005C9012974A0C5B1C0E944635B4010E9445
:10559000EA3555E0880F991F5A95E1F7F20191839A
:1055A0008083D60111968D919C911297A80EB91EF9
:1055B0000E944635B3010E94EA3565E0880F991FC5
:1055C0006A95E1F7F50193838283F394C7CFD09274
:1055D000C301C092C2010091C2011091C301011523
:1055E000110591F0C8010E942E278091C101B0E2FF
:1055F0008B02C00111246EE170E00E94EA35C801FF
:105600000E94C5221092C1018FEF8093020105C351
:105610008091BA019091BB01ECE181369E0749F47B
:1056200020E440E861E678E180E090E00E945A27BB
:105630002DC08955984151F520E440E869E574E1B1
:1056400080E090E00E945A27EAEDF5E0019000200A
:10565000E9F73197EA5DF54086E08E9F90018F9FD4
:10566000300D11243695279584E390E0821B930B2F
:1056700090934E0680934D068CE190E090935006F7
:1056800080934F068AED95E00E9447260091C20163
:105690001091C3010115110509F4B6CFC8010E948C
:1056A0002E278091C10120E28202C0011124A3CFE4
:1056B0000E949B2282E090E090934E0680934D06DC
:1056C00086E090E09093500680934F066091C00171
:1056D0000091BA011091BB01C8010496FC0125910B
:1056E0003491232B41F0FC0185919491FC01329679
:1056F0008591949102C080E090E00E94BC24012B2F
:1057000021F41092B9011092B8018091B901882357
:1057100029F06EE089E494E10E94552696E7C92EAF
:1057200091E0D92E00E711E022E0A22EB12CC801B1
:10573000A6E08A0FF82EF80181918F01882309F4E1
:105740001EC1C6010E944726B0924E06A0924D0689
:10575000BBE0CB0ED11CF012EECF11C10E949B22F8
:1057600068E183E294E10E94552682E090E0909304
:105770004E0680934D0686E090E09093500680930D
:105780004F066091C0010091BA011091BB01011553
:10579000110529F0F80132968591949102C080E0BC
:1057A00090E00E94BC24012B21F41092B9011092C8
:1057B000B8018091B901882329F06EE089E494E171
:1057C0000E94552616E7C12E11E0D12E00E711E008
:1057D00082E0A82EB12C980146E0240FF22ED801C9
:1057E0008D918D01882309F4CAC0C6010E94472605
:1057F000B0924E06A0924D068BE0C80ED11CF0125E
:10580000EECFBDC00E949B226BE188E094E10E9434
:10581000552682E090E090934E0680934D0686E0F8
:1058200090E09093500680934F06B091BC01BE8FDC
:105830008091BA019091BB01FC013496C590D4903F
:10584000FC01319624912F8F86E0A0E7B1E01D92F4
:105850008A95E9F7222309F45EC0C114D10409F442
:105860005AC01D8E1C8EB2E0CB0ED11C212C10E034
:10587000312CE0E7F1E0EB5FE8A3F601659074906E
:10588000FE8D3F1202C08EE301C08AE2898381E06F
:105890008A8F1A82EE24E394012F9E01245E3F4FEB
:1058A000AE01435E5F4FBE01665E7F4FCE01019643
:1058B0000E947023F22CA12CB12CB5E02B2E4301B9
:1058C0008A0C9B1CF4018491882321F08D8D8630F5
:1058D00008F4E2C52F2CF4018491811103C08A8D54
:1058E000811174C68D8D863008F45EC6339426E02F
:1058F000C20ED11C3F8D3312C0CF112309F45FC6F5
:1059000081E08093B901F4018490882009F45AC69B
:1059100081E08093B801E091BA01F091BB01349627
:1059200085919491892B21F41092B9011092B801BC
:105930008091B901882329F06EE089E494E10E9406
:10594000552656E7C52E51E0D52E00E711E062E05E
:10595000A62EB12C980146E0240FF22ED8018D918D
:105960008D01882361F0C6010E944726B0924E0641
:10597000A0924D068BE0C80ED11CF012EFCF8091A3
:10598000B801882309F449C16EE08BE394E10E94D9
:10599000552643C10E949B226BE188E094E10E945E
:1059A000552682E090E090934E0680934D0686E067
:1059B00090E09093500680934F06EAEDF5E0019059
:1059C0000020E9F73197EA5DF5401E2F4AEDC42E1D
:1059D00045E0D42E560101E09A2D9C198091BC011E
:1059E0009117C8F489130BC0009352061092510608
:1059F000E091BF01F0E0E451FC4E849106C01092AA
:105A0000520600935106F50180810E940C28FFEF99
:105A1000AF1ABF0AE1CF81130DC081E08093520617
:105A200010925106E091BF01F0E0E451FC4E8491E8
:105A30000E940C281092520681E080935106EDC01E
:105A40000E949B2202E010E010934E0600934D0648
:105A500086E090E09093500680934F0662EE73E1EB
:105A6000CE0101960E9461350E94472610934E0692
:105A700000934D066BED73E1CE0101960E946135F6
:105A80000E94472610934E0600934D068091C10157
:105A9000811103C086E591E002C084E591E00E9497
:105AA000352668ED73E1CE0101960E9461350E94B2
:105AB000472682E090E090934E0680934D068091B9
:105AC000C101882319F086E591E002C084E591E0E8
:105AD0000E94352664ED73E1CE0101960E94613586
