:100000000C9457050C947F050C947F050C947F0588
:100010000C947F050C947F050C947F050C947F0550
:100020000C947F050C947F050C94B6130C94281443
:100030000C947F050C947F050C947F050C947F0530
:100040000C947F050C9472080C947F050C947F052A
:100050000C947F050C947F050C947F050C94640729
:100060000C947F050C947F050C947F050C947F0500
:100070000C947F050C947F050C947F050C947F05F0
:100080000C947F050C947F050C947F050C947F05E0
:100090000C947F050C947F050C947F050C947F05D0
:1000A0000C947F050C947F050C947F05031A091AA4
:1000B0000F1A1B1A271A7C1A7C1A7C1A331A3F1A39
:1000C0004B1A571A651A7C1A6E1A7406770666065A
:1000D0006A0670069806980698067B067F068306D1
:1000E00089068D06980693060101FF030101F703B7
:1000F000EC00E80000000000240027002A002D008A
:100100003000D5F08D14A1C881CFD9F1AF20000007
:10011000000000250028002B002E00310003053FC1
:10012000213F1208120A100A0E1C0E0C1E0C141A83
:1001300014161F161E131E1E1B1E1E1F1E3F213FC0
:100140003A2F3A173D173F213F181F02040A041F98
:100150000E04040E1F0A1F0A0E0E1F04110E2E2578
:100160002E2F2A2E262929021F02081F08150E04E9
:10017000040E150E15151B151B040604040C0400B3
:1001800000000017000300031F0A1F16371A190486
:10019000130A153A000300000E11110E000A040A9A
:1001A000040E040030000404040010001804031FAF
:1001B000111F121F101D151711151F07041F1715EA
:1001C0001D1F151D01011F1F151F17151F000A00F8
:1001D000003200040A110A0A0A110A040115020E6B
:1001E00011171E051E1F150A0E110A1F110E1F15CD
:1001F000111F05010E111D1F041F111F1108100FE3
:100200001F041B1F10101F061F1E040F0E110E1FB0
:1002100009060E112E1F051A121509011F011F10C4
:100220001F0F180F1F0C1F1B041B031C0319151392
:10023000001F11030418111F0002010220202000DA
:1002400001020C121E1F120C0C12120C121F0C1A9F
:1002500014041E05242A1E1F021C141D1020201D1C
:100260001F0814111F101E041E1E021C0C120C3E2F
:100270000A040C123E1E040214160A020F120E107B
:100280001E0E100E1E081E120C1226281E322A26C2
:10029000041E21001F00211E040102013F213F0511
:1002A00000893008023802497868140000202020B4
:1002B00020596F6461277300596F646127730005CB
:1002C0000570F858F8A8050570F858F8500505703D
:1002D000F8D0F8A8050570F8D0F850050570A8F812
:1002E000F8A8050570A8F8F850050570F8A8F8A852
:1002F000050570F8A8F850050570F8F8F8A8050588
:100300000000000000050500505000000505000039
:100310000000001605EE4CA4A8EAACCEAAE8A8EAB4
:1003200040AEAC48050570F8C0F870050570F8F8E7
:10033000F870050570F8C0F870050570E0C0E07051
:10034000050570F8D8D850050570F8F8F87005055F
:1003500070F8D8D850050570F8D88800050570F8F1
:1003600018F870050570F8F8F870050570F818F8B9
:100370007005057038183870050550D8D8F8700524
:100380000570F8F8F870050550D8D8F87005050024
:1003900088D8F8700505000088F870050500002071
:1003A0007070050500000020200505885000508869
:1003B00005053848D0F858050570B0E870200505E7
:1003C0001870F8D870050550F8F8E8500505F87071
:1003D000B8E8700505A8F8D8702005052050B8B811
:1003E00070050570F8505070546300000000000064
:1003F00000000000000000000000000000000000FD
:100400007FFFFFFFFFFFFFFFFFFFE0800000000016
:100410000000000000103FFFFFFFFF0FFFFFFFFF86
:10042000C0400000000090000000002040000000DC
:10043000009000000000204000000000900000003C
:10044000002040000000009000000000204000005C
:10045000000090000000002040FF01FFC0903FF826
:100460000FF020410082002090400410082041003D
:10047000820020904004100820410082002090401B
:100480000410082041008200209040041008204100
:100490000082002090400410082040FF01FFC0604F
:1004A0003FF80FF020400000000000000000002096
:1004B000400000000000000000002040000000009C
:1004C00000000000002040000000000000000000CC
:1004D00020400000000000000000002040FF0180DC
:1004E000FFFFF0180FF020410082410000082410A7
:1004F0000820410082410000082410082040FF022B
:1005000040FF0FF0240FF020400002400090002434
:100510000000204000024000900024000020400025
:1005200002400090002400002040000240009000A3
:100530002400002040000240009000240000203FE2
:10054000FF023FC0903FC40FFFC080008200209098
:1005500040041000107FFE82002090400417FFE04E
:100560000002823FC0603FC41400000002824000CD
:100570000000241400000002824000000024140047
:1005800000000282400000002414000000028240AB
:100590000000002414000000028240000000241427
:1005A000000000028241FC03F824140000FFFE82D8
:1005B0004105FA082417FFF0000082417C03E8247B
:1005C000100000FFFF0181400028180FFFF000001D
:1005D0000001400028000000000000000140002849
:1005E00000000000000000014000280000000000A2
:1005F0000000014000280000000000000001400051
:100600002800000000FFFF0181400028180FFFF0C4
:10061000000082417FFFE824100000FFFE824100BD
:1006200000082417FFF000028241FFFFF8241400A5
:1006300000000282400000002414000000028240FA
:100640000000002414000000028240000000241476
:10065000000000028240000000241400000002821A
:10066000400000002414000000028240FFFFF0243C
:100670001400007FFE82410000082417FFE0800084
:100680008241000008241000103FFF0180FF0FF09E
:10069000180FFFC040000000009000000000204044
:1006A00000000000900000000020400000000090CA
:1006B000000000002040000000009000000000202A
:1006C000400000000090000000002040FF01FFC03B
:1006D000903FF80FF0204100820020904004100865
:1006E00020410082002090400410082040FC81FF3F
:1006F000C0603FF813F020400480000000000012AA
:10070000002040048000000000001200204004800F
:1007100000000000001200204004800000000000E3
:1007200012002040048000000000001200203E045F
:100730008180FFFFF0181207C00104824100000809
:100740002412080001048241000008241208003E1F
:10075000030240FF0FF0240C07C04000024000904D
:1007600000240000204000024000900024000020EF
:1007700040000240009000240000204000024000A1
:10078000900024000020400002400090002400005F
:100790002040FFFC3FC0903FC3FFF020410000001D
:1007A0002090400000082041000000209040000000
:1007B000082040FFFFFFC0603FFFFFF02040000027
:1007C00000000000000000204000000000000000C9
:1007D0000000204000000000000000000020400059
:1007E00000000000000000002040000000000000A9
:1007F000000000203FFFFFFFFFFFFFFFFFFFC08063
:10080000000000000000000000107FFFFFFFFFFF5E
:10081000FFFFFFFFE00000000000000000000000FC
:10082000000000000000000000000045006801001A
:10083000000500380168010000401AFFFFFFFFFFBC
:10084000FFFFFF0000000000000000FF0403E100C4
:1008500040810FFF8407F180C0818FFF8E0FF9C1A7
:10086000C1C1CFF7CE0FF9E3C1C1EFFFDF1FFDF725
:10087000C3E1FFFF5F1FFDFFC3E1FFFE9F1FF5FF09
:1008800043E1FDE1BF9F75FF47F1FDEF3B9FF5FFA2
:100890004771FDE87F5FF5FF4FE9FDE87F5FF5FFFA
:1008A0004FE9FDE87F5FF5FF4FE9FDE8FFAFE9FFA6
:1008B0005FF5FDE8FFAFD1FF5FF5FDC8FF2629FE1C
:1008C0005FE5F9F8FFE3DDFFDFFDFF00000000005A
:1008D000000000FFFFFFFFFFFFFFFF000000000020
:1008E000000000A6C66AECE66E66CEAAAA8A4A8A0C
:1008F000AA8AA8AAAEEA4ACAEC8EAC4AAA2A4A8AAE
:10090000AA8AA84ECAE4ECEEAAEACE17534400160F
:100910001378001613140015102000152010005431
:100920000A03E181867F3E186D830F0F0E018386D7
:100930006033186DC3198F1803C38E6033186DE3CD
:1009400030CF1803C39E603630CDE360CF3006C78A
:100950009E7E3E30CDB360CF300CC6F6603330D9CA
:10096000B660CF33CFCCF66061B0DB1E60CF30D83D
:100970006CE6C061B0DB1E618F19986CC6C063B1B4
:100980009B0E330F0FB078C6FF7E1F1B061E0FF69F
:10099000E8DBCFC3B8AEA49B928A827B746E686298
:1009A0005C57524E4945413E3A3734312E2C292767
:1009B0002523211F1D1C1A191716151413121110A7
:1009C0000F0E0D0C0B0A09080706080B00020202A5
:1009D00001000904000001020200000524001001CA
:1009E000052401010104240206052406000107056F
:1009F000810310004009040100020A0000000705FD
:100A000002024000000705830240000004030904BD
:100A100012010002EF020140412336800001010271
:100A2000030141726475696E6F204C4C4300417242
:100A30006475696E6F204C656F6E6172646F000043
:100A40000000002300260029002C002F00040404CD
:100A50000404030405020202020403020202020665
:100A60000606060606040402020204040408020143
:100A700010408040102040804080080204018040E7
:100A800020100201108010204040200000000200D1
:100A9000090F0000030401000C000000000000002A
:100AA000000000000000000000002127152711248D
:100AB0001FBECFEFDAE0DEBFCDBF13E0A0E0B1E0B4
:100AC000E4EAF7E502C005900D92A038B107D9F726
:100AD00027E0A0E8B3E001C01D92A23CB207E1F715
:100AE00015E0C6E5D5E004C02197FE010E94C32AA7
:100AF000C535D107C9F70E9428180C94C52B0C9452
:100B00000000CF92DF92EF92FF920F931F93CF934B
:100B1000DF936C017A018B01C0E0D0E0CE15DF05D8
:100B200089F0D8016D918D01D601ED91FC91019074
:100B3000F081E02DC6010995892B11F47E0102C0D8
:100B40002196ECCFC701DF91CF911F910F91FF90BC
:100B5000EF90DF90CF9008958091A804882319F03A
:100B60008091AA0401C080E09091A904992319F012
:100B70009091AB04890F90E0909399008093980036
:100B80000895089580E090E008950E94A72BFC014D
:100B900024813581232B31F421E061157105A1F009
:100BA000FB0108C0FC01808191816115710531F460
:100BB00021E0FC018081882339F005C00E94B52B1B
:100BC00021E0892B09F020E0822F0895EF92FF9217
:100BD0000F931F93CF93DF93EC017B018A018881F0
:100BE0009981009729F02A813B8124173507F8F471
:100BF000B8016F5F7F4F0E94DD2A009759F09983FB
:100C000088831B830A832C813D81232B81F4FC0183
:100C100010820DC088819981009711F00E94F227FF
:100C2000198218821D821C821B821A8207C01D83B2
:100C30000C83B701888199810E94BE2BCE01DF9180
:100C4000CF911F910F91FF90EF900895CF93DF9375
:100C5000EC016115710559F0FB0101900020E9F7E5
:100C60003197AF01461B570B0E94E6050CC08881E7
:100C70009981009711F00E94F227198218821D8233
:100C80001C821B821A82CE01DF91CF9108956115DB
:100C9000710579F0FB0101900020E9F73197AF0170
:100CA000461B570BDC01ED91FC910280F381E02D96
:100CB000099480E090E0089590E0FC013197EF30D6
:100CC000F105B0F5EB59FF4F0C94C32A80918000D9
:100CD0008F7703C0809180008F7D8093800008957E
:100CE00080918000877FF9CF84B58F7702C084B56B
:100CF0008F7D84BD0895809190008F7707C080918B
:100D000090008F7D03C080919000877F809390003A
:100D100008958091C0008F7703C08091C0008F7DBF
:100D20008093C00008958091C200877F8093C200A5
:100D300008951F93CF93DF93282F30E0F901E557F3
:100D4000F54F8491F901E459F54FD491F901E35B32
:100D5000F54FC491CC23C9F0162F81110E945C0677
:100D6000EC2FF0E0EE0FFF1FE15FFE4FA591B49175
:100D70008FB7F894111105C09C91ED2FE095E923F0
:100D800002C0EC91ED2BEC938FBFDF91CF911F91BF
:100D90000895CF93DF9390E0FC01E459F54F24913F
:100DA000FC01E35BF54F8491882361F190E0880FAB
:100DB000991FFC01EC50FF4FC591D491FC01E15FFC
:100DC000FE4FA591B491611109C09FB7F894888135
:100DD000209582238883EC912E230BC0623061F42E
:100DE0009FB7F8943881822F809583238883EC9174
:100DF0002E2B2C939FBF06C08FB7F894E8812E2B23
:100E000028838FBFDF91CF9108953FB7F8948091E9
:100E1000A0049091A104A091A204B091A30426B5CE
:100E2000A89B05C02F3F19F00196A11DB11D3FBF22
:100E3000BA2FA92F982F8827820F911DA11DB11DB0
:100E4000BC01CD0142E0660F771F881F991F4A95AC
:100E5000D1F708958F929F92AF92BF92CF92DF9277
:100E6000EF92FF926B017C010E9405074B015C0130
:100E7000C114D104E104F104F1F00E940507DC0182
:100E8000CB0188199909AA09BB09883E9340A1059D
:100E9000B10570F321E0C21AD108E108F10888EE2B
:100EA000880E83E0981EA11CB11CC114D104E1047A
:100EB000F10419F7DDCFFF90EF90DF90CF90BF9056
:100EC000AF909F908F9008951F920F920FB60F9240
:100ED00011242F933F938F939F93AF93BF93809150
:100EE000AA069091AB06A091AC06B091AD063091E8
:100EF0009F0423E0230F2D3720F40196A11DB11D7F
:100F000005C026E8230F0296A11DB11D20939F0462
:100F10008093AA069093AB06A093AC06B093AD065F
:100F20008091A0049091A104A091A204B091A30487
:100F30000196A11DB11D8093A0049093A104A093DC
:100F4000A204B093A304BF91AF919F918F913F9161
:100F50002F910F900FBE0F901F901895CF93DF9396
:100F600050E0EA01CC0FDD1FC80FD91F3B8D2C8D3F
:100F7000E32FF22FE60FF11DE60FF11D659174913D
:100F80007CAF6BAFFB0125913491FC013085329F22
:100F9000202D1124DC01A40FB51FDF962C93DF97C1
:100FA000FB0145915491852F90E0422F50E084172A
:100FB000950720F4FB0185919491292FAF5BBF4FDA
:100FC000239F202D11242C93DF91CF910895EF9230
:100FD000FF920F931F93CF93DF931F92CDB7DEB78E
:100FE0007B01262F8C0134E0000F111F3A95E1F7A9
:100FF000F801E95BFD4F8485623048F4FB01FF276F
:10100000EB50F94F85A38B3008F08AE085A3F801F7
:10101000E95BFD4F6081223038F44E2D81EF96E080
:1010200029830E94AE072981F801E95BFD4F3085D5
:101030005285223078F4C70199278453994FFC01D7
:10104000BF964091F906459F402D112445A3329645
:10105000319535A3F801E95BFD4F3481568122308B
:1010600078F4C70199278453994FFC01F396409176
:10107000F906459F402D112445A332963A5335A3D6
:10108000F801E95BFD4F36854281223018F5B70142
:101090007727CB018453994FFC01B59645A332962F
:1010A0002091F906239F202D112425A3B09615A287
:1010B000FB01EE0FFF1FE15FF84F16A215A2FC0126
:1010C000BB9621E025A368557B4FFB012083FC01E3
:1010D000BD9615A20F90DF91CF911F910F91FF90B8
:1010E000EF9008951F920F920FB60F9211242F9335
:1010F0003F934F935F936F937F938F939F93AF93A0
:10110000BF93EF93FF936091AC04611102C090E034
:1011100023C080919D048F5F80939D049091AE04C5
:101120008917A8F39091A80481E089278093A804E7
:1011300010929D048091B004882369F08091000191
:1011400093E4899F802D1124895B809300010E9484
:10115000A32A9093AA0491E06091AD04662319F14B
:1011600080919E048F5F80939E042091AF0482172C
:10117000D0F09091A90481E089278093A90410926E
:101180009E048091B104882379F08091000193E45A
:10119000899F802D1124895B809300010E94A32ADE
:1011A0009093AB0401C091110E94AC05FF91EF91A7
:1011B000BF91AF919F918F917F916F915F914F916F
:1011C0003F912F910F900FBE0F901F901895623096
:1011D00020F570E0DC01A60FB71F9B961C929B9731
:1011E00097961C9297979B01220F331F820F931F94
:1011F000FC01ED5BFF4F118210829D961C92FB015A
:10120000E655FB4F1082FB01E455FB4F1082FB01BA
:10121000E855FB4F10820C94AC050895EF92FF92B5
:101220000F931F93CF93DF938C017B01C42FD0E0EA
:10123000423038F4642F0E94E708F801EC0FFD1FDC
:101240001282FE01EE0FFF1FE00FF11FF08EE78A02
:1012500012A211A2F801EC0FFD1F81E0828389E048
:1012600081A717A613AA17AADF91CF911F910F91FB
:10127000FF90EF9008954F925F926F927F928F92BE
:101280009F92AF92BF92CF92DF92EF92FF920F9315
:101290001F93CF93DF93F901C49031965491EC01E1
:1012A0000F8564350CF018C140330CF015C10C2CBF
:1012B000000CDD08A62F062E000CBB0B7D01EC0CEC
:1012C000FD1C1E141F040CF007C1A52E842E042E35
:1012D000000C9908F401E50FF11D57FDFA951E1653
:1012E0001F060CF0F9C02E5F3F4FE6012796D7FD91
:1012F000279673E0D595C7957A95E1F747FF0AC021
:10130000A52EA40EC89DA001C99D500D1124241B1B
:10131000350B40E0EA2D0A2C000CFF0BE40FF11D09
:1013200047FDFA95F1971CF050E3A52EA41A67FD2E
:1013300060E0F701E535F10514F0E4E5F0E07E2F1B
:10134000FC01D484D426862F062E000C990BFC01B8
:10135000EA1BFB0BDF017F01F7E0EF22FF24E0E84F
:10136000F0E002C0F595E795EA94E2F71E2FB7FD8D
:10137000179653E0B595A7955A95E1F72A0F3B1FAD
:10138000E42FE77051E001C0550FEA95EAF7459563
:1013900045954595B4E54B02800D911D11248E5461
:1013A0009B4FC12C0A2C000CBB08992493942E014E
:1013B0005524EC2DF0E0EA15FB050CF08DC0F90189
:1013C00044910130E1F47C01A12F862E881AB82DBA
:1013D000BE0DB71708F077C0B42FBA2321F0E7018C
:1013E000B881B52BB883B0E0B595A795109719F4DF
:1013F00031964491A0E8DFEFED1AFD0AE8CF011124
:101400001FC0752E70947C01A12FF901862E881AB9
:10141000B82DBE0DB71708F056C0B42FBA2321F06F
:10142000E701B881B721B883B0E0B595A7951097CB
:1014300019F431964491A0E8DFEFED1AFD0AE8CFE8
:10144000033031F07C01A12FF901862E881A37C0B4
:10145000752E7094862E7C01A12FF9018716D8F481
:10146000B42FBA2359F0E701B881682C6D2460FECF
:1014700002C0B52B02C0B721E701B883B0E0B59533
:10148000A795109719F431964491A0E88394DFEF63
:10149000ED1AFD0AE3CFD92416C0B42FBA2321F0E8
:1014A000E701B881B527B883B0E0B595A795109747
:1014B00019F431964491A0E8DFEFED1AFD0AB82D3A
:1014C000BE0DB71750F3550F19F48C5A9F4F51E0CA
:1014D000C394240D351D6DCFDF91CF911F910F91D6
:1014E000FF90EF90DF90CF90BF90AF909F908F9044
:1014F0007F906F905F904F900895FC01643508F0E5
:1015000053C0403308F050C09785742F759575957A
:101510007595262F062E000C330B542F57709230E2
:10152000A1F4F901EE54FB4F84E57802E00DF11DC2
:101530001124808190E0052E02C0959587950A942C
:10154000E2F78095982F91700AC0933041F484851A
:101550008170462740954170841303C014C09111D7
:1015600012C084E57802200D311D1124F901EE54DA
:10157000FB4F81E090E001C0880F5A95EAF7809513
:101580009081892310C084E57802200D311D11243B
:10159000F901EE54FB4F81E090E001C0880F5A95AD
:1015A000EAF79081892B80830895DF92EF92FF9272
:1015B0000F931F93CF93DF931F92CDB7DEB78C01AC
:1015C000D62EF42EE12CE21654F46E2D6D0D4F2D17
:1015D000C80129830E947D0AE3942981F4CF0F90EA
:1015E000DF91CF911F910F91FF90EF90DF900895C1
:1015F0002F923F924F925F926F927F928F929F9223
:10160000AF92BF92CF92DF92EF92FF920F931F9310
:10161000CF93DF93EC016A3019F428859E81C3C013
:101620006D3009F4C6C03E807A84D9844F8483E546
:101630008D150CF4A1C08FE287150CF49DC08F812D
:1016400090E00197389E9001399E300D1124C90118
:101650008D0D911DD7FC9A95181619060CF08CC0AB
:101660008885839DC0011124870D911D77FC9A9573
:10167000181619060CF080C05D2CCD2CE62EF12C2E
:10168000A32C032C000CBB08EC2DED190E2E000C26
:10169000FF0B8F8190E0E817F9070CF06CC0019701
:1016A000E817F90779F0E89E9001E99E300DF89E61
:1016B000300D1124E20FF31F8D859E85E80FF91F71
:1016C000149101C010E0072D672C262D2719022E3A
:1016D000000C330B888590E0281739070CF048C0C0
:1016E00010FF1EC081E0381206C0462D6C2DCE01C1
:1016F0000E947D0A39C0202E4501800E911C07FDF5
:101700009A94822D022C000C990B8815990564F58A
:10171000232D422D652DCE010E94D50A2394F1CFB1
:1017200088899F85891701F18F8781E0381206C06B
:10173000462D6C2DCE010E947D0A15C0202E45013C
:10174000800E911C07FD9A94822D022C000C990B9F
:101750008815990544F4232D422D652DCE010E9454
:10176000D50A2394F1CF4F8616956394030DADCF20
:10177000C394530C89CF4F862E813F818985329F38
:10178000800D112489879D81992399F0082E000CE2
:10179000990B44E550E0239F401951091124481743
:1017A00059073CF498858A85299F800D11248A87E2
:1017B000198681E090E0DF91CF911F910F91FF900A
:1017C000EF90DF90CF90BF90AF909F908F907F90E1
:1017D0006F905F904F903F902F900895DF92EF921F
:1017E000FF920F931F93CF93DF931F92CDB7DEB776
:1017F0008C01D62EF42EE12CE21654F44E2D4F0D12
:101800006D2DC80129830E947D0AE3942981F4CFBC
:101810000F90DF91CF911F910F91FF90EF90DF908C
:1018200008958EBD00000DB407FEFDCF8EB508955E
:10183000CF93DF931F92CDB7DEB76983DC01ED91C3
:10184000FC910280F381E02D41E050E0BE016F5F2A
:101850007F4F09950F90DF91CF91089583E080939A
:10186000E9008091F200882319F08AE38093E80070
:101870000895CF93DF930E94C717EC016DE773E0E3
:1018800080E497E00E9447068C0F9D1FDF91CF9167
:1018900008952F923F924F925F926F927F928F9214
:1018A0009F92AF92BF92CF92DF92EF92FF920F93EF
:1018B0001F93CF93DF93CDB7DEB72D970FB6F89474
:1018C000DEBF0FBECDBF40916707509168076091A2
:1018D000690770916A072FB7F8948091AA069091D2
:1018E000AB06A091AC06B091AD062FBF481B590BBB
:1018F0006A0B7B0B8091660790E0A0E0B0E000915E
:101900005F0710916007209161073091620784178B
:101910009507A607B70730F4011511052105310514
:1019200009F073C380E0012B022B032B09F0AEC337
:101930000E94E81781E00E94E8172CEC622E26E056
:10194000722E02E117E038E0C32E37E0D32E7C86FA
:101950006B86E12CF12CBB24B394AE2CD701A4539D
:10196000B94F97968C919797882309F4F5C08B848B
:101970009C843CE4830E911CF40180818111ECC0B5
:10198000F60120813181F80180819181FC01EE0F07
:10199000FF1FE20FF31F85919491009711F5EB85DE
:1019A000FC85EC5BFF4F8081882329F0D8011D92D4
:1019B0001C92F90114C097961C92979795968C915A
:1019C0008823C1F18E2D0E94E817D801ED91FC917A
:1019D000EE0FFF1FD6018D919C91E80FF91F8591A5
:1019E00094912B853C852C5A3F4F3A8329832B8534
:1019F0003C852A5A3F4F3C832B832B853C85285AB4
:101A00003F4F3E832D832B853C85265A3F4F388799
:101A10002F832B843C843CE5230E311C4B845C8457
:101A2000AEE54A0E511C2B853C85225B3F4F3A8721
:101A300029872EC06E2D81EF96E00E94E7088CC0AA
:101A4000BC01E6E076956795EA95E1F76F71892F1D
:101A500086958695869580512F702230B1F140F59C
:101A600021111EC06B3008F06AE0A985BA856C931D
:101A7000D801ED91FC9111973196ED93FC93EE0F07
:101A8000FF1FD6018D919C91E80FF91F85919491CC
:101A90009C01369527953695279580FDD1CF2CC092
:101AA000213031F74A2D81EF96E00E94AE07E0CF5A
:101AB0002330B1F02430E1F69091F906699F602D52
:101AC0001124F1016083D20115C09091F906699F3C
:101AD000602D1124E981FA816083AB81BC810AC049
:101AE0009091F906699F602D1124ED81FE8160833C
:101AF000AF81B8858C93BCCFEB85FC85E65BFF4F4F
:101B00002F7320838091F906899F802D1124F40181
:101B10008083EB85FC85E459FF4F1082F701EE0FBF
:101B2000FF1FE859FF4FE453F94F11821082EB85F4
:101B3000FC85E05BFF4FB082F701E855FB4FB082B8
:101B4000EB85FC85EE5AFF4F1082D8018D919C9158
:101B5000119701968D939C932B853C852F5F3F4F6A
:101B60003C872B870E5F1F4F32E0C30ED11CEA94D7
:101B7000EF2821F0EE24E394F12CEFCEF5EFEF2ED9
:101B8000F6E0FF2E07EF16E0A8E3CA2EA7E0DA2E54
:101B9000B4E3AB2EB7E0BB2E1C821B828BE3282E56
:101BA000312C92E0492E512CF301E05BFF4F8081F4
:101BB000882309F409C134978081811106C06B81A3
:101BC00081EF96E00E94E708FFC081508083D60134
:101BD0008C91F301E259FF4F4F01930120593F4F80
:101BE0003A832983811152C0D5012D913C912F5FF9
:101BF0003F4FEB81FC81EE0FFF1FE05AFF4FE45394
:101C0000F94FC901880F991F0190F081E02DE80F6D
:101C1000F91F45915491842F8770F4018083CA0184
:101C200063E0969587956A95E1F7BC01769567958F
:101C3000952F96959695A981BA819C936F739091F3
:101C4000F906699F602D1124F6016083EB81FC8108
:101C5000E055FB4F81708083D50111963C932E9304
:101C6000F301EC59FF4F808190E02817390770F09D
:101C700032962081222329F0821B91098D939C9317
:101C800005C06B8181EF96E00E94E708F601808134
:101C900081508083F301EE5AFF4F20812F5F208314
:101CA00038974081A981BA813C91340FEB81FC8146
:101CB000E453F94F82AD380FF7013083F301E85A4E
:101CC000FF4F6081662371F070E0822F022E000CBE
:101CD000990B0E94AF2A32968081869F300D112485
:101CE000D7013C93F701808190E0CB96B1010E942F
:101CF000AF2A8083F301E25BFF4F3081D8013C9330
:101D000036966081662381F0062E000C770B822FB9
:101D1000022E000C990B0E94AF2A32968081869F7A
:101D2000300D1124F8013083F301E45AFF4F608134
:101D3000662391F0822F220F990B70E00E94AF2A48
:101D4000CB01B2010E94AF2A32962081D8019C912A
:101D5000289F900D11249C93F80180814F3341F00E
:101D60008A300CF089E087FD80E0D8018C9302C0B6
:101D7000F8011082F894D701EC91F0E0E157F64FAA
:101D8000E491AB81BC81A255BB4FEC93F8018081FB
:101D9000F301EE58FF4F9081899F802D112490917F
:101DA000FA06899F802D1124D4019C91899F802D52
:101DB0001124EB81FC81E455FB4F8083EB81FC8196
:101DC000E655FB4F80837894BFEF6B1A7B0AEFEFE9
:101DD000EE1AFE0A0F5F1F4FFFEFCF1ADF0A22E055
:101DE000A20EB11C2B813C812130310529F021E06C
:101DF00030E03C832B83D8CE80916B07882309F495
:101E000097C08C3020F49CE0D92ED81A01C0D12C78
:101E100081E08093460710924F071092500710916F
:101E2000480783E0810F3D2D311B335D032FE82EE2
:101E3000880FFF08E30EF11C37FDFA94802F002E67
:101E4000000C990B8E159F055CF42EE4402F63E087
:101E500080E497E03D870E94D50A0F5F3D85EECF75
:101E6000145003E0030F212F41E0602F80E50E9412
:101E70006417212F42E0602F83E00E94641781E005
:101E800080934F0780935007009148078D2D801B4A
:101E90009DE2F92EF80E2EE44F2D63E080E497E0EA
:101EA0000E94D50A13E0100F1F0D4FEF410F2EE4D3
:101EB00063E080E497E00E94D50A035033E0F30E1C
:101EC000202F4F2D60E080E497E00E94EE0B202F42
:101ED0004F2D63E580E497E00E94EE0B41E06F2D0B
:101EE00083E00E94E61642E06F2D80E50E94E61630
:101EF000145044E0612F80E50E94E61648E0612F0F
:101F000083E00E94E61684E08093490780914807A9
:101F1000D81A8D2D815D80934A0780916C0790912E
:101F20006D070E94C71780916B07815080936B07E4
:101F300080914C078F5F80934C0782EBE82E84E002
:101F4000F82ED12C0E94C51682E20E94110CD39467
:101F50008D2D0E94110C87E00E94110C81E20E94DD
:101F6000110C86E10E94110C8FE70E94110CE09188
:101F70005307F0915407908180915607892B8083F5
:101F8000E0915107F091520790818091550780951B
:101F90008923808300E010E0F701E00FF11F8081CA
:101FA0000E94110C0F5F1F4F04351105A9F784E53E
:101FB000E80EF11C96E0D912C5CF8091440781113B
:101FC0000EC088EF91E0E2EBF4E0DF019C011D928E
:101FD00021503040E1F71092490710924A070E94C1
:101FE000050760935F077093600780936107909384
:101FF000620720915B0730915C07621B730B709343
:1020000064076093630780E041C02FB7F894809124
:10201000AA069091AB06A091AC06B091AD062FBF79
:1020200020916607820F911DA11DB11D8093670746
:1020300090936807A0936907B0936A078091570748
:1020400090915807A0915907B0915A070196A11D88
:10205000B11D8093570790935807A0935907B093E9
:102060005A0710925F071092600710926107109252
:1020700062070E94050760935B0770935C0780937B
:102080005D0790935E070E94581681E02D960FB66B
:10209000F894DEBF0FBECDBFDF91CF911F910F919E
:1020A000FF90EF90DF90CF90BF90AF909F908F9078
:1020B0007F906F905F904F903F902F900895CF92B8
:1020C000DF92EF92FF920F931F93CF93DF93EC0178
:1020D0001092E40681E08093460710924507109223
:1020E000440780934F07809350071CE00E94490CDF
:1020F0008823E1F3FE018491882319F000914807B9
:1021000001C000E02FE139E040E060E080E497E0CA
:102110000E943B094CE0400F29E338E060E080E496
:1021200097E00E943B091092490710934A07CE019D
:102130000E94C71780914707982F990F890F8195A3
:102140008D5A8093490780914807982F990F890FDE
:102150008195835D80934A078091570784FF03C070
:102160008BE199E002C087E199E00E94390C9091DF
:102170004707892F880F980F91959D5A909349078B
:1021800080914A078F5F80934A078091FA068823DF
:1021900019F083E199E002C08FE099E00E94390CC8
:1021A00090914707892F880F980F91959D5A90938A
:1021B000490780914A078F5F80934A078BE099E037
:1021C0000E94390C8091E2068130B1F48091FA06C8
:1021D0008F5F082E000C990B6091FB0670E06F5F1B
:1021E0007F4F0E94AF2A8093FA0640E06BE278E0CE
:1021F00081EF96E00E940E098091E1068130B9F0EE
:1022000080916507482F50E060E070E0C09057076C
:10221000D0905807E0905907F0905A07C416D50699
:10222000E606F70608F462CF8F3F09F45FCF8FEF21
:102230008093650760E081EF96E00E94E7081092C6
:10224000F30640E061E378E081EF96E00E940E093A
:1022500081E08093E406DF91CF911F910F91FF9071
:10226000EF90DF90CF9008958F929F92AF92BF92A0
:10227000CF92DF92EF92FF920F931F93CF93DF9352
:10228000CDB7DEB7A1970FB6F894DEBF0FBECDBFB6
:102290006B017C0197FF33C0E0914007F09141074B
:1022A0000190F081E02D6DE280E497E009958C01CA
:1022B00022273327A9012C193D094E095F0919A2CC
:1022C000CE0181967C019AE0892E912CA12CB12C13
:1022D000CA01B901A50194010E94E129605DF701DD
:1022E00062937F01211531054105510589F7BF0131
:1022F00080E497E00E944706800F911F1FC09B015A
:10230000AC0119A28E010F5D1F4F8AE0C82ED12C9F
:10231000E12CF12CCA01B901A70196010E94E12923
:10232000605DF80162938F0121153105410551056A
:1023300089F7BF0180E497E00E944706A1960FB697
:10234000F894DEBF0FBECDBFDF91CF911F910F91EB
:10235000FF90EF90DF90CF90BF90AF909F908F90C5
:102360000895FC018091A704811103C08FEF9FEFB6
:1023700008959FB7F89482E08093E9002091F200DD
:1023800030E01216130614F421E030E02115310577
:1023900059F0289884E68093A6048091F100808308
:1023A0008091F200882319F09FBFC90108958BE640
:1023B0008093E800F9CF2FB7F89483E08093E90089
:1023C0009091E800892F807295FF04C09091F200EF
:1023D00080E4891B2FBF08958F929F92AF92BF9286
:1023E000CF92DF92EF92FF920F931F93CF93DF93E1
:1023F0005C016B017A0180910801882309F45BC0BC
:102400008091A704882309F456C08091A50480FF19
:1024100005C08091E00082608093E000E70110E059
:102420000AEF83E0882E9AE3992E2097D9F10E9433
:10243000DB1181110AC0015009F43DC061E070E078
:1024400080E090E00E942A07F0CF282F30E0C217EA
:10245000D3070CF48C2F4FB7F8948092E900909139
:10246000E80095FF1DC0282F30E0C21BD30BF601FA
:10247000982F915020F081918093F100FACFC20EF5
:10248000D31E112319F09092E80009C08091E80052
:1024900085FD06C09092E80011E0209709F010E059
:1024A0004FBFC3CF1111C3CF5D9884E68093A404BE
:1024B0001E141F0444F081E090E0F50193838283B1
:1024C00080E090E001C0C701DF91CF911F910F9193
:1024D000FF90EF90DF90CF90BF90AF909F908F9044
:1024E00008958091B20681110DC082E08093AE06FE
:1024F00084E08093AF061092B1061092B00681E09E
:102500008093B2068EEA96E00895FC018485958555
:1025100097FD0BC09FB7F89482E08093E90080910B
:10252000F2009FBF90E0019608959FB7F89482E073
:102530008093E9008091F2009FBF90E00895409160
:10254000BE065091BF062091BC063091BD064217D1
:102550005307B4F49091E8009570E1F39091E8008E
:1025600092FD19C08093F1008091BE069091BF0644
:1025700001968F739927892B19F48EEF8093E800C9
:102580008091BE069091BF0601969093BF068093FE
:10259000BE0681E0089580E00895CF92DF92EF9229
:1025A000FF920F931F93CF93DF931F92CDB7DEB7A8
:1025B000182F062FE42E862F880F8E5F99830E9496
:1025C0009F1283E00E949F12F12EC12E9981D92E75
:1025D0008C2D8F19801798F4F601E7FE02C08491C4
:1025E00001C080810E949F12182F80E00E949F12DC
:1025F0008123FFEFCF1ADF0A8111EACF01C081E00A
:102600000F90DF91CF911F910F91FF90EF90DF908E
:10261000CF900895DF92EF92FF920F931F93CF9385
:10262000DF93D82E8A017B01E40EF51EEB01CE1557
:10263000DF0571F0D7FE03C0FE01849101C08881DF
:102640000E949F1221968111F2CF8FEF9FEF01C060
:10265000C801DF91CF911F910F91FF90EF90DF9014
:102660000895615030F02091F100FC012083019623
:10267000F8CF289884E68093A60408950E94DB1181
:1026800090E00895CF93DF931F92CDB7DEB7FC01A2
:102690008485958597FD05C02FEF3FEF358724870B
:1026A0000BC0CE0101960E94B111019719F48981E6
:1026B00090E002C08FEF9FEF0F90DF91CF910895D0
:1026C0000F931F93CF93DF931F92CDB7DEB78C018B
:1026D000FC018485958597FF0EC0CE0101960E946E
:1026E000B111019719F4298130E002C02FEF3FEFBB
:1026F000F80135872487F801848595850F90DF914F
:10270000CF911F910F9108950F931F93CF93DF9354
:102710001F92CDB7DEB782E0898342E450E06AECD5
:1027200079E080E80E940A130E947112DC0112967F
:102730000D911C9113970115110569F0D801ED91C8
:10274000FC910280F381E02DBE016F5F7F4FC801D5
:10275000099597FF07C089810F90DF91CF911F9155
:102760000F910895F80100851185E5CF1F920F9212
:102770000FB60F9211248F939F938091E100909157
:10278000E100937F9093E10083FF0FC01092E90076
:1027900091E09093EB001092EC0092E39093ED00A7
:1027A0001092A70498E09093F00082FF20C093E07D
:1027B0009093E9009091F200992319F09AE3909395
:1027C000E8009091A404992339F09091A4049150C9
:1027D0009093A404992389F19091A604992339F048
:1027E0009091A60491509093A604992341F184FFFF
:1027F00010C08091E2008E7E81608093E200809123
:10280000E1008F7E8093E1008091A5048E7E80613F
:1028100011C080FF16C08091E2008E7E806180939F
:10282000E2008091E1008E7E8093E1008091A5041A
:102830008E7E81608093A50404C05D9ACDCF289AD6
:10284000D6CF9F918F910F900FBE0F901F9018952C
:102850001F920F920FB60F921124CF92DF92EF9238
:10286000FF920F931F932F933F934F935F936F9319
:102870007F938F939F93AF93BF93EF93FF93CF93E8
:10288000DF93CDB7DEB76C97DEBFCDBF1092E90006
:102890008091E80083FFEDC168E0CE0145960E947B
:1028A000311382EF8093E8008D8987FF05C09091F6
:1028B000E80090FFFCCF03C09EEF9093E800982FB4
:1028C000907609F0C6C09E892F89188D91110CC091
:1028D000803829F48091BB068093F10002C01092E9
:1028E000F1001092F10048C1422F50E0512B91307D
:1028F00051F4811141C14130510509F03DC1809130
:10290000BB068D7F0BC0933061F4811135C141301E
:10291000510509F031C18091BB0682608093BB06EE
:102920002BC1953041F48091E80080FFFCCF2068F6
:102930002093E30021C1963009F05FC0EB8CFC8C42
:102940001092E9001092BF061092BE06123091F567
:102950001092BD061092BC060E94841399E0BE013D
:102960006F5F7F4FDB01E92F1D92EA95E9F79983AD
:102970001A8391E09E8390EA98879AEF9987209135
:10298000BE063091BF06275F3F4F3C832B838D836C
:102990001092E9001092BF061092BE06F092BD069A
:1029A000E092BC0649E050E080E00E940A130E94D9
:1029B0008413E2C0F092BD06E092BC060E94711240
:1029C000DC011296ED90FC901397E114F10409F4E8
:1029D000C0C0D701ED91FC910480F581E02DBE01CE
:1029E0006B5E7F4FC7010995009719F00CF0C4C0CA
:1029F000C7C0F701E084F184E8CF973009F4C0C084
:102A0000983021F481E08093F100B6C0993009F04C
:102A1000B3C0837009F0B4C0E8ECF2E081E021E0DB
:102A200036E39081992361F08093E9002093EB00D5
:102A300091919093EC003093ED008F5F873089F790
:102A40008EE78093EA001092EA008F898093A704B2
:102A500093C08B8D9C8D1092E9001092BF0610924E
:102A6000BE069093BD068093BC06898D811156C029
:102A70008E899D89913A59F4813209F081C047E0ED
:102A800050E061E071E080E00E940A1375C091326D
:102A900009F076C0833289F4888D90E0982F8827DA
:102AA0002F89822BA0E0B0E08093090190930A0166
:102AB000A0930B01B0930C015FC0803269F4809148
:102AC000E80082FFFCCF67E081E091E00E943113D3
:102AD0008BEF8093E80006C0823209F04DC08F89E9
:102AE000809308018091BA06882319F0EEEFFAE08E
:102AF00002C0E0E0F8E08091010190910201A09114
:102B00000301B0910401803B9440A105B10509F097
:102B10007BC08091080180FF93C076C00E94711233
:102B2000DC0112960D911C9113970115110541F1CD
:102B3000D801ED91FC910190F081E02DBE016B5E1A
:102B40007F4FC8010995811117C0F80100851185D3
:102B5000ECCF113009F44EC0133091F48F898823E3
:102B600009F445C0823081F440E860E18EE29AE0E9
:102B70000E94CD12882321F08EEF8093E80079C067
:102B800081E28093EB0075C0813029F440E86BE06E
:102B900082E29AE0EDCF833099F70E947112DC0156
:102BA0001296ED90FC9013978E010F5F1F4F6801F6
:102BB000E114F10479F0D701ED91FC910680F781E1
:102BC000E02DB801C7010995080F111DF701E08438
:102BD000F184EECFD8011C92F60101900020E9F7B4
:102BE0003197BF016C197D0940E0C601C1CF6CE08F
:102BF0007AE002C060E17AE06115710509F2FB013B
:102C0000449150E080E840CF0FB6F894A8958091A9
:102C10006000886180936000109260000FBEA895EC
:102C2000EE3F2AE0F20739F08091FE0A9091FF0A08
:102C300091838083A1CF1092FF0A1092FE0A9CCF4D
:102C4000EE3F8AE0F80731F0808191819093FF0A8E
:102C50008093FE0A87E797E7918380839BE088E172
:102C60000FB6F894A895809360000FBE9093600013
:102C700083CF6C960FB6F894DEBF0FBECDBFDF9149
:102C8000CF91FF91EF91BF91AF919F918F917F91E4
:102C90006F915F914F913F912F911F910F91FF90F5
:102CA000EF90DF90CF900F900FBE0F901F90189570
:102CB000CF92DF92EF92FF920F931F93CF93DF9308
:102CC000C6EDD6E00DED16E0FF24FA9496E0E92E6D
:102CD000E00E62E088810E94C906288130E0F90197
:102CE000E557F54F8491F901E459F54FC490F90186
:102CF000E35BF54FD490DD2071F081110E945C06FA
:102D0000ED2DF0E0EE0FFF1FE15CF54FA591B491C2
:102D1000EC91EC2131F5F80180818F5F808360E0D8
:102D200088810E94C90621960F5F1F4FE012D1CF04
:102D30009091DD0691508091E3069E3F38F490918A
:102D4000DF0691509E3F10F48F5F08C08823A1F0EA
:102D50008F3F19F41092E3060FC08FEF8093E306C4
:102D60000BC0F80180818823F1F2F8018F3F11F444
:102D70001082D5CFF082D3CFDF91CF911F910F91E9
:102D8000FF90EF90DF90CF900895CF93DF93E1E530
:102D9000F7E0C081D1819881A5E5B7E08C91892BBE
:102DA0008883C0915307D09154079881809156072A
:102DB0008095892388830190F081E02D90818C910A
:102DC000809589238083DF91CF910895AF92BF9240
:102DD000CF92DF92EF92FF920F931F93CF93DF93E7
:102DE000182F062FC1E0D3E08AEFD82E9EEFE92EF0
:102DF000842F8470C82E842F8270B82E842F887000
:102E0000A82E4170F42E8C2F880F8F5FE80ECC20F7
:102E100081F04D2F400F6C2F610F80E497E00E94EE
:102E20007D0A4C2F400F6D2F610F80E497E00E94C8
:102E30007D0ABB2081F0402F4D1B6C2F610F80E479
:102E400097E00E947D0A402F4C1B6D2F610F80E49C
:102E500097E00E947D0AAA2081F04C2F400F612F3D
:102E60006D1B80E497E00E947D0A4D2F400F612F7B
:102E70006C1B80E497E00E947D0AFF2081F0402FC8
:102E80004C1B612F6D1B80E497E00E947D0A402F50
:102E90004D1B612F6C1B80E497E00E947D0ACD17CB
:102EA00044F4E7FC04C0D150D394D394ED0CCF5F2D
:102EB000AACFDF91CF911F910F91FF90EF90DF90FC
:102EC000CF90BF90AF9008959F92AF92BF92CF9254
:102ED000DF92EF92FF920F931F93CF93DF93F82E21
:102EE000E62EB22E03E0020FD0E0C3E08AEFC82E38
:102EF0001EEF842F8170982EAA24A394A20E4270F4
:102F0000D42EDF5F802F8B19180F9920A1F02C2F62
:102F1000220F2A0D4E2D4C1B6D2F6F0D80E497E074
:102F20000E94EE0B202F4E2D4D1B6C2F6F0D80E459
:102F300097E00E94EE0BDD20A1F02C2F220F2A0D2E
:102F40004E2D4C1B6F2D6D1B80E497E00E94EE0B05
:102F5000202F4E2D4D1B6F2D6C1B80E497E00E949F
:102F6000EE0BDC1744F417FD04C0C150C394C394A6
:102F70001C0D0E5FC6CFDF91CF911F910F91FF9077
:102F8000EF90DF90CF90BF90AF909F9008950F93F8
:102F90001F93CF93DF938C01C0E0D0E0F801EC0FDA
:102FA000FD1F6491662371F0E0914007F0914107A5
:102FB0000190F081E02D80E497E00995892B11F0D4
:102FC0002196ECCFCE01DF91CF911F910F91089503
:102FD000CF93DF93A82FB0E0ED01C453D94F9DA14B
:102FE000992399F19FA1911130C09CA9AA0FBB1FF1
:102FF000A453B94FD0963C91D097D1962C91D197AC
:10300000E32FF22FE90FF11DE90FF11D2591349106
:103010002F3F9FEF390711F41DA217C03AAF332796
:10302000220F331FD696ED91FC91D797E20FF31F35
:1030300065917491823028F4482F81EF96E00E94C8
:103040000E092F968DA18F5F8DA3DF91CF910895EB
:10305000CF93DF93CDB7DEB7A5970FB6F894DEBF59
:103060000FBECDBF789484B5826084BD84B5816085
:1030700084BD85B5826085BD85B5816085BD809143
:103080006E00816080936E001092810080918100BB
:1030900082608093810080918100816080938100B3
:1030A0008091800081608093800080919100826097
:1030B0008093910080919100816080939100809134
:1030C00090008160809390008091C1008460809323
:1030D000C1008091C10082608093C1008091C100D5
:1030E00081608093C1008091C30081608093C300A0
:1030F0008091C00082608093C0008091C200816096
:103100008093C20080917A00846080937A008091DD
:103110007A00826080937A0080917A008160809347
:103120007A0080917A00806880937A001092A704D8
:103130001092BB061092A5048091D7008160809305
:10314000D70080EA8093D80089B5806189BD89B5B0
:10315000826089BD09B400FEFDCF61E070E080E0CF
:1031600090E00E942A078091D8008F7C8061809334
:10317000D8008091E000807F8093E0008091E100A2
:103180008E7E8093E1008DE08093E200559A209A34
:10319000EEEFFFE7859194918B3F9C4D19F481E010
:1031A0008093BA0682E38093660781E090E0A0E016
:1031B000B0E080935F0790936007A0936107B0939E
:1031C000620711E01093FB061093FA068FEF8093CD
:1031D000650784E18093D60682E18093D70683E178
:1031E0008093D80685E18093D90687E08093DA063C
:1031F00088E08093DB061092DC060E94581610933C
:103200004F07109250071093450710934607EDE1C2
:10321000F1E0E491EF5FE0934707EEE1F1E0E49144
:10322000EF5FE09348078FE191E090934E07809322
:103230004D071FB7F89480918003811127C0EEE5F8
:10324000FAE08491EDE7FAE09491E82FF0E0EE0FD8
:10325000FF1FEC50FF4FA591B491EC91E92321F4AD
:1032600061E081E10E94990661E081E10E94C90666
:103270008CB580618CBD8CB580648CBD61E08FE0C5
:103280000E94C90661E080E10E94C9068091800326
:103290008F5F809380031FBF8CB58C7F8CBD8DB5F5
:1032A00081608DBD61E084E00E94C90661E08CE030
:1032B0000E94C90661E086E00E94C90661E086E0DE
:1032C0000E94990661E070E080E090E00E942A0789
:1032D00060E086E00E9499066AE070E080E090E09D
:1032E0000E942A0761E086E00E949906E9E5FAE07B
:1032F000E491F0E0EE0FFF1FE15FFE4F85919491A6
:103300009093520780935107E1E5FAE0E491F0E0F1
:10331000EE0FFF1FE15FFE4F85919491909354074C
:1033200080935307E8E7FAE0E491E0935507E0E77C
:10333000FAE0E491E09356070E94C51602E0E02E01
:1033400001E0F02E1DE01E0DF70184910E94110C8A
:10335000FFEFEF1AFF0A1E11F7CFE0915307F0912C
:103360005407908180915607892B8083E091510703
:10337000F091520790818091550780958923808331
:1033800000E014E080E00E94110C01501109D1F717
:1033900081E08093F90612E010933E07A0EFEA2E39
:1033A000A0E0FA2EF0920D07E0920C0740E060E0FA
:1033B00081EF96E00E94AE0710933F07F0920F074F
:1033C000E0920E0741E060E081EF96E00E94AE07D8
:1033D00061E085E00E94C90661E08DE00E94C906B7
:1033E00061E085E00E94C906E0E9FAE0E4918E2FF1
:1033F00090E0FC013197EF30F10508F07DC0EA5A0A
:10340000FF4F0C94C32A84B5806884BD81E087BDDA
:1034100077C084B5806284BD81E088BD71C0809131
:10342000800080688093800081E090E09093890024
:103430008093880065C080918000806280938000C6
:1034400081E090E090938B0080938A0059C0809136
:10345000800088608093800081E090E090938D00F0
:1034600080938C004DC08091900080688093900084
:1034700081E090E0909399008093980041C0809102
:10348000900080628093900081E090E090939B0098
:1034900080939A0035C0809190008860809390005E
:1034A00081E090E090939D0080939C0029C08091E2
:1034B000C00080688093C0008091C0008F7B8093A3
:1034C000C00081E08093CF001BC08091C00080626B
:1034D0008093C00081E08093D00012C08091C20030
:1034E00088608093C2008091C2008B7F8093C2006D
:1034F00081E08093D20004C060E085E00E949906DC
:1035000080919100887F816080939100F89410925F
:10351000800010928100109285001092840088E152
:1035200091E0909389008093880080918100886069
:1035300080938100809181008160809381008091DF
:103540006F00826080936F0078948091E2068130F2
:1035500019F41092FA060EC040E06FE972E081EFB4
:1035600096E00E940E0941E06FE972E081EF96E07B
:103570000E940E0982E38093660781E08093F9063A
:1035800080916507882321F08DEA92E00E945F1008
:10359000809164008E7F8093640087EC80937C0030
:1035A00080E280937B0062E070E080E090E00E9427
:1035B0002A0780917A00806480937A0080917A0053
:1035C00086FDFCCFE0907800F0907900E094F094D4
:1035D0008EE580937C0062E070E080E090E00E94E5
:1035E0002A0780917A00806480937A0080917A0023
:1035F00086FDFCCF00917800109179000E940507AC
:103600009B01AC0120953095409550950095109503
:103610000E9DD0010F9DB00D1E9DB00D11240E9476
:1036200097296B017C010E9405076C0D7D1D8E1D85
:103630009F1D611571058105910511F00E94DD281E
:103640008091640081608093640068EF72E086EC92
:1036500096E00E9426061092E4060E94490C8823F8
:1036600011F40C94DB266EEF72E086EC96E00E947B
:10367000C705882399F01092990410929A04109229
:103680009B0410929C0483E080939804109297040A
:1036900066E073E086EC96E00E94260666E073E042
:1036A00086EC96E00E94C7058823D1F0E3ECF1E0B8
:1036B000A3E1B4E081918D9322E0E734F207D1F7E2
:1036C00084EF8093120480919704883008F087E09B
:1036D000809311046FE073E086EC96E00E9426066A
:1036E0006FE073E086EC96E00E94C705882309F43A
:1036F0009CC01092100410920F0410920E048FEFD1
:103700009FEF90930D0480930C045DE050930B04A5
:1037100028E120930A0422E030E03093090420934A
:103720000804109207041092060401E010E01093C0
:1037300005040093040410920304109202041093F1
:103740000104009300041093FF030093FE034CE078
:103750004093FD0363E06093FC031092FB0310921F
:10376000FA036EE16093F9035093F5034093F1037C
:103770001093EA030093E9031092E2031092E1032D
:103780001093DA030093D9031092D2031092D1035D
:103790004093F6034FE04093F2031092EC03109233
:1037A000EB031092E4031092E3031093DC03009305
:1037B000DB031092D4031092D3035093F70340938A
:1037C000F3033093EE032093ED031092E60310927F
:1037D000E5031093DE030093DD031092D6031092ED
:1037E000D5034093F8034093F4031092F003109232
:1037F000EF031092E8031092E7039093E0038093A5
:10380000DF031092D8031092D70367E173E080ECD6
:1038100096E00E9426061093D0030093CF036DE13B
:1038200073E086EC96E00E9426066DE173E086EC7C
:1038300096E00E94C705882311F40C94C525809159
:10384000CE038F5F83708093CE03811106C0809179
:10385000CD038F5F81708093CD03F0900A040091B7
:103860000604109107048F2D90E007979C01220F0A
:10387000331F820F931F800F911F8B3F3FEF9307E2
:1038800014F48BEF9FEF9093CC038093CB03809144
:10389000CB039091CC03C99734F088E390E09093E8
:1038A000CC038093CB0380910E0481110BC0409117
:1038B000CB03419528EE33E060E080E497E00E947E
:1038C0003B0904C08091CD03882389F38091FA03DA
:1038D0009091FB03892B61F4809112048E3A11F0D0
:1038E0008A3431F480E991E09093FB038093FA03EA
:1038F000C090FA03D090FB031C141D040CF048C0C8
:103900002091110447E0249F9001112420553C4F41
:103910008091CB0345E3481B69E280E497E00E9475
:103920003B0951E0C51AD108D092FB03C092FA03BB
:1039300080910B048D50823058F562E1F61228C058
:103940001092FB031092FA038091970474E6879F0C
:10395000C0011124092E000CAA0BBB0B4091990445
:1039600050919A0460919B0470919C04840F951F60
:10397000A61FB71F8093990490939A04A0939B0469
:10398000B0939C0461E070E086E090E00E94E7075D
:1039900020910C0430910D04EF2CEE0C2F3F8FEF93
:1039A000380721F52091FD038091FC0390E0820F00
:1039B000911D47E0489F9001499F300D11242C5DD7
:1039C0003C4F4E2D4F0D400F41508091CB03481B73
:1039D00060910B04862F880F680F80910804680F90
:1039E000615080E497E00E943B0951C0690191E079
:1039F000C91AD108D0920D04C0920C04C60165E02A
:103A000070E00E94AF2A892B39F440E06BE278E045
:103A100081EF96E00E940E09C60166EF7FEF0E94DB
:103A2000AF2A6D5E7F4F87E0869F9001879F300DA4
:103A300011242C5D3C4F4E2D4F0D400F4150809175
:103A4000CB03481B60910B04862F880F680F809171
:103A50000804680F615080E497E00E943B09CD287C
:103A6000B1F48FEF9FEF90930D0480930C0480913D
:103A70009804815080939804811103C065E273E03B
:103A800002C06FE073E086EC96E00E942606F0909C
:103A9000F903FF2079F08091CD03811108C023E163
:103AA00033E042E060E280E497E00E943B09FA9450
:103AB000F092F9038091DE0681508E3F10F40C9451
:103AC000E5268091E00681508E3F10F40C94F1269B
:103AD0008091DD0681508E3F10F40C94FD2680917C
:103AE000DF0681508E3F10F40C9409278091F90372
:103AF00081112CC080910E04811128C080910C048A
:103B000090910D04019611F5209104043091050463
:103B10008091080490910904820F931F90930904E7
:103B2000809308048091020490910304080F191FE8
:103B30001093070400930604232B11F4892B31F012
:103B40008091FC038F5F83708093FC038091080455
:103B5000909109040296059758F01092090410926A
:103B6000080490910B0480910404890F80930B0446
:103B700080910604909107040296059758F01092E0
:103B800007041092060490910A0480910204890FA0
:103B900080930A0480910B04811109C08091040470
:103BA00090910504019619F48BE180930B048091A8
:103BB0000B048B3140F0809104049091050401972F
:103BC00011F410920B048091080490910904892B40
:103BD00009F027C18091060490910704892B09F010
:103BE00020C1D0900B04E0900A04E0E2EE9EC001F8
:103BF00011248D0D911D9093C6038093C5039C01E4
:103C0000E3E035952795EA95E1F73093C4032093D7
:103C1000C3038770992707E010E0081B190B109366
:103C2000C2030093C103A9014D5E5B4F5A01DA0143
:103C3000FC908F2D90E0002E02C0959587950A94F8
:103C4000E2F7817099279093C0038093BF03019797
:103C500009F05BC0C0901204CA94C092120461E0E3
:103C600070E0C0FC03C083E090E002C084E090E01C
:103C70000E94E70781E090E001C0880F0A95EAF70B
:103C8000F81AF501F0828091990490919A04A0911C
:103C90009B04B0919C04F1E0DF1619F02AE1D212E6
:103CA00024C034E0E31619F048E1E4121EC0C296C5
:103CB000A11DB11D8093990490939A04A0939B0435
:103CC000B0939C042091970451EF5203C00111243A
:103CD0008C549F4F9093100480930F0488EC90E0D5
:103CE0009093BE038093BD030BC00A96A11DB11D26
:103CF0008093990490939A04A0939B04B0939C049E
:103D0000C11003C08CE380930E04E0910B04F0E03B
:103D10000091C7031091C80320910A0430E0C090BD
:103D2000C903D090CA03AF01400F511FC9018C0DC8
:103D30009D1D65E0880F991F6A95E1F7840F951F17
:103D40007C0173E0F594E7947A95E1F768E070E020
:103D50000E94AF2A47E050E0481B590BD701A15CF5
:103D6000BE4F8C9190E002C0959587954A95E2F7F9
:103D700080FD10C01093050400930404D092030446
:103D8000C09202041093010400930004D092FF0338
:103D9000C092FE038091040490910504E80FF91F7E
:103DA0008091020490910304280F391F15E0220F1F
:103DB000331F1A95E1F7CF01820F931F9093C6032B
:103DC0008093C503FC0103E0F595E7950A95E1F7BB
:103DD000F093C403E093C30368E070E00E94AF2A4D
:103DE00027E030E0281B390B3093C2032093C10336
:103DF000E15CFE4F808190E002C0959587952A9501
:103E0000E2F7817099279093C0038093BF03892BB9
:103E100041F01092050410920404109203041092D1
:103E2000020480910404909105048F3F6FEF960780
:103E300021F488E08093FD0304C0019711F41092EF
:103E4000FD0380910204909103048130910511F4E7
:103E500084E003C0019619F48CE08093FD03809107
:103E60000E04882381F0815080930E0481110BC0D1
:103E7000809197048F5F8093970466E073E086ECEF
:103E800096E00E94260688E090E09093C403809319
:103E9000C303B0E4CB2ED12C0091C3031091C40313
:103EA0000C3711050CF07CC087E090E09093C203C2
:103EB0008093C103D801AD5EBB4F5D01E090C103AB
:103EC000F090C203F7FC65C0F501808190E00E2CF4
:103ED00002C0959587950A94E2F78170992790938F
:103EE000C0038093BF03019709F048C0C6018F71DA
:103EF00099279601F5E035952795FA95E1F7A901FF
:103F0000440F551F4A01820E931E4091CB035091DE
:103F1000CC03841A950A8130910519F08A319105F4
:103F200019F52430310519F028313105E9F4F0E3B1
:103F30008F169104C8F42091CD032130F9F4982F05
:103F4000990F992E980E41E0480D23E0692D80E4E9
:103F500097E00E94D50A61E0690D23E0482D80E4D6
:103F600097E00E94EE0B0AC041E0480D682F660FF3
:103F7000680F6F5F80E497E00E947D0A2FEFC21AFE
:103F8000D20A31E0E31AF108F092C203E092C103D1
:103F900095CF0F5F1F4F1093C4030093C3037CCFD3
:103FA0008091CF039091D00301979093D003809399
:103FB000CF03181619064CF167E173E080EC96E028
:103FC0000E94C705882379F06EE273E080EC96E0EA
:103FD0000E9426062091970444EC4203C00111245C
:103FE000845D9E4F0EC067E173E080EC96E00E9416
:103FF00026068091970456E9859FC0011124885AAE
:104000009D4F9093D0038093CF0380910F049091A4
:104010001004181619060CF061C00E94D8282CE173
:1040200030E040E050E00E9478297093B60360933E
:10403000B5030E94D82821E230E040E050E00E9421
:1040400078297093AE036093AD030E94D8282CE1C9
:1040500030E040E050E00E9478297093B80360930C
:10406000B7030E94D82821E230E040E050E00E94EF
:1040700078297093B0036093AF030E94D8282CE195
:1040800030E040E050E00E9478297093BA036093DA
:10409000B9030E94D82821E230E040E050E00E94BD
:1040A00078297093B2036093B1030E94D8282CE161
:1040B00030E040E050E00E9478297093BC036093A8
:1040C000BB030E94D82821E230E040E050E00E948B
:1040D00078297093B4036093B3039EC06EE273E0DB
:1040E00080EC96E00E94C705882309F11092B60380
:1040F0001092B5031092AE031092AD032BE130E0A5
:104100003093B8032093B7031092B0031092AF031B
:104110001092BA031092B90380E290E09093B20338
:104120008093B1033093BC032093BB0371C06091B3
:104130000B0470E07093B6036093B50340910A04DA
:1041400050E05093AE034093AD03009100041091F2
:1041500001049801220F331F220F331F260F371F30
:104160003093B8032093B703E091FE03F091FF036F
:10417000CF01880F991F880F991F840F951F909367
:10418000B0038093AF03A091F503B0E0000F111FBF
:10419000201B310B2A1B3B0B220F331F2A0F3B1F07
:1041A0003093BA032093B9032091F10330E0EE0F6E
:1041B000FF1F8E1B9F0B821B930B880F991F280FCD
:1041C000391F3093B2032093B1038091F803DB01D0
:1041D000A81BB1092091F403FA01E21BF1099F0128
:1041E000AA9FF001AB9FF00DF00D1124229FC0019A
:1041F000239F900D900D11248E0F9F1F0897C4F4DC
:104200008BE190E09093BC038093BB0380E290E04D
:104210009093B4038093B30325EA33E03A8B298B60
:1042200080E090E0F9012DE030E04FE050E00DC07B
:104230007093BC036093BB035093B4034093B303E8
:10424000EBCF02968830910581F0619171916130D8
:104250007105B9F7DC01AB54BC4F2D933C93DC01E5
:10426000A355BC4F4D935C93ECCF8091A4038F5F1B
:1042700065E00E94A32A292F9093A40380910F0444
:104280009091100418161906E4F401979093100405
:1042900080930F04211131C080910C0490910D0482
:1042A000019659F58091F903811127C080910E0480
:1042B000811123C060E070E082E090E00E94E70797
:1042C0001CC021111AC080910C0490910D0401961C
:1042D000A1F48091F903811110C080910E04811125
:1042E0000CC01091A30360E070E0812F90E00E9469
:1042F000E7071F5F11701093A3038091A1039091B2
:10430000A203181619060CF09FC201979093A203FE
:104310008093A1038091F9038111A0C280910E04C2
:1043200081119CC280910C0490910D04019609F0BA
:1043300095C219ED412E13E0512EE5EFF3E081EE29
:1043400093E061ED73E021EF33E04DE953E009EED6
:10435000602E03E0702EA5EA8A2EA3E09A2EEE24AA
:10436000E394BBE1BB2ED4010D911D914D01D3010E
:104370000130110591F41D921C92DC011D921C92DA
:104380000081D2011C91100F1083D9010C91DB0127
:104390001C91100FD9011C9315C0CD90DC90D20157
:1043A0000D911C910C0D1D1DD3010D931C93DC016F
:1043B000CD90DC90DB010D911C910C0D1D1DDC01DD
:1043C0000D931C93D901FC90BFE0FB1226C0A08086
:1043D000D3010D911C916801B3E0AB9EC00CD11CC0
:1043E0001124A2E1CA1AD108BEE2CB16D104A8F06A
:1043F000DA01DC90D11002C0EC921FC0DA011C92ED
:104400000E5F1F4F05301105C0F0D3011D921C92A5
:10441000D2011C91A10EA08210C0D3010D911C915C
:1044200011970E5F1F4F0530110538F01D921C9239
:104430000081D2011C91100F1083DC010D911C91A1
:1044400011970E5F1F4F0530110538F01D921C9219
:10445000DB011C91F10ED901FC921081111107C0F2
:10446000D2010D911C910F3F1F4F09F4B0821081B2
:104470001B3138F0D2010D911C910130110509F466
:104480001082B2E04B0E511C319602966E5F7F4F48
:104490002F5F3F4F4F5F5F4FA2E06A0E711CB1EE7E
:1044A0004B16B3E05B0609F05ECFE091C503F091D7
:1044B000C603FC87EB8720919B0330919C033A83D2
:1044C00029834091C3035091C4035E834D8360915F
:1044D000C1037091C2037C836B83A0909703B0905B
:1044E00098032090950330909603809199039091C2
:1044F0009A039DA38CA300E010E0812C912CF8017D
:10450000E751FC4F80819181892B09F057C1F80157
:10451000EF51FC4F80819181892B09F04FC1F4014B
:10452000EB50FC4F2081622E712CF401EF50FC4FB8
:104530003081432E512CD301E0E23E9FA00DB11DEE
:104540001124BC87AB87A80147525C4F5A87498723
:10455000DA010D90BC91A02DB88FAF8BF801EB5410
:10456000FC4F408151815A8F498FF801E355FC4F30
:10457000408151815C8F4B8F47E351E05E8B4D8BC7
:104580004FE151E0588B4F8747E151E05E874D87FF
:1045900065E873E07C8B6B8B4FE251E058874F836B
:1045A0006B01E12CF12C43EF420FB8016B557C4FAE
:1045B0007E8F6D8FC8018F529C4F98A38F8FAD89CE
:1045C000BE898D919D91BE8BAD8BEB85FC85E80FEF
:1045D000F91FFA83E983B3E0F595E795BA95E1F71A
:1045E000FE83ED8389819A8168E070E00E94AF2AA2
:1045F00067E070E0681B790B7C836B83E15CFE4FA6
:10460000808190E00B8002C0959587950A94E2F72F
:10461000DC01A170BB27BDA3ACA3423080F43C30C9
:1046200071F4ED8DFE8D80819181019741F0F3E071
:10463000EF16F10421F461E070E07DA36CA3AF817B
:10464000B8858D919D91B887AF83EF89F88DE81774
:10465000F907E9F4F701EE0FFF1FE95DFE4FAF8D9B
:10466000B8A18D919C91608171818617970779F42B
:104670003F3049F42C3059F02F3049F061E070E0C0
:104680007DA36CA304C0E1E0F0E0FDA3ECA3AF8543
:10469000B8898D919D91B88BAF87860D971DA98C98
:1046A000BA8CA81AB90AED85FE8581919191FE8791
:1046B000ED87840D951D2B8C3C8C281A390AAA9CF9
:1046C000B001AB9C700D700D1124229CC001239C85
:1046D000900D900D1124680F791F072E000C880B88
:1046E000990B29A33AA34BA30E94ED280E944E2ABE
:1046F000D6016D937D938D939C93139729A13AA135
:104700004BA1ECA1FDA1319749F460E070E088EC89
:1047100092E46D937D938D939C931397BFEFEB1A67
:10472000FB0AE4E0CE0ED11CF4E0EF16F10409F030
:1047300046CFEE24EA94FE2C23E630E038872F8320
:10474000C12CD12CAB89BC894D905D906D907D9032
:10475000BC8BAB8BEF81F885BF01FF0F880B990BEA
:104760000E94ED289B01AC01C301B2010E94E62822
:1047700018163CF0C301B2010E94122A78876F8399
:104780007601FFEFCF1ADF0A24E0C216D104D1F67A
:10479000C701880F991FFC01E15EFE4F2081318126
:1047A000A985BA852D933C93FC01E95EFE4F80817B
:1047B0009181F801EF52FC4F91838083F401EB501B
:1047C000FC4F80818D3079F4F401EF50FC4F8081F3
:1047D0008F3049F4F801EB55FC4F808191810197AE
:1047E00011F411821082BFEF8B1A9B0A0E5F1F4FCC
:1047F000E4E08E16910409F082CE2CA13DA1309305
:104800009A032093990349815A8150939C034093C2
:104810009B036D817E817093C4036093C3038B817E
:104820009C819093C2038093C103B0929803A0929D
:1048300097033092960320929503AB85BC85B09385
:10484000C603A093C5030AC08091970490E0019627
:10485000880F991F9093A2038093A103E5EFF3E0E3
:10486000FE83ED8339EE632E33E0732E21EF33E0C8
:104870003C832B8341EEA42E43E0B42E75016901E5
:1048800045EA53E058874F837A8269828F0156E464
:10489000852E912C80910B042091080430910904FD
:1048A00043E0849F200D311D1124D8014D918D01CD
:1048B000E981FA8181919191FA83E983F3E04F9F35
:1048C000800D911D1124AC014F5F5F4F42175307BC
:1048D0000CF473C00197281739070CF46EC080914F
:1048E0000A04209106043091070443E0849F200DC0
:1048F000311D1124D6014C91F70180819181F3E0A3
:104900004F9F800D911D1124AC014F5F5F4F4217E7
:1049100053070CF452C00197281739070CF44DC007
:10492000AF81B8858D919C91892B09F046C080910B
:104930000C0490910D04019609F03FC080910F0482
:10494000909110041816190674F58091BD0390918A
:10495000BE03AC01092E000C660B770B2090990466
:1049600030909A0440909B0450909C04420D531D3B
:10497000641D751D4093990450939A0460939B04A1
:1049800070939C04880F991F9093BE038093BD037E
:1049900081E090E0EF81F8859183808361E070E0B1
:1049A00085E090E008C090920D0480920C0461E0D4
:1049B00070E087E090E00E94E7072F8138852E5F46
:1049C0003F4F38872F833FEFC31AD30A42E0E40EEC
:1049D000F11C53E0093F150709F05CCF80910C04EE
:1049E00090910D048F3F6FEF960749F489EDC82E23
:1049F00083E0D82E01ED13E097E0F92E66C0CD9745
:104A0000ACF78091CB039091CC038B3F7FEF97075E
:104A100009F068C06CC080E090E0F801219131910C
:104A20008F012F3FFFEF3F0709F459C021303105B7
:104A300011F486E090E020910F04309110041216DA
:104A4000130614F488E090E0A989BA892D913D916C
:104A5000BA8BA98B2130310511F48AE090E0EB810B
:104A6000FC815191FC83EB83D5016C91B2E0AB0EDC
:104A7000B11CED81FE817191FE83ED83D301EC9138
:104A8000B2E06B0E711C2091CD03820F911DF89E38
:104A90009001F99E300D112421543D4F8091CB039C
:104AA0008095452F440F450F480F460F672F660F1F
:104AB000670F6E0F615080E497E00E943B09E1EEC2
:104AC000CE16E3E0DE0609F49CCFD6018D919D91D0
:104AD0006D01019709F09FCF82E090E09ECF84E0C6
:104AE00090E0A9CFC89709F050C00BE201C000E0E8
:104AF00010919804123090F029E333E0402F60E0E9
:104B000080E497E00E943B09123041F029E333E052
:104B1000402F66E080E497E00E943B096091990491
:104B200070919A0480919B0490919C046A30710565
:104B3000810591053CF036E26436710581059105E9
:104B400024F401C038E220E001C022E0321B683EBC
:104B5000F3E07F078105910514F420E001C022E015
:104B6000321B3093490700934A070E94341188E4AE
:104B7000809349076091970470E06F5F7F4F072E25
:104B8000000C880B990B0E94341168EF72E086ECE0
:104B900096E00E94C705882309F4ABC08091990470
:104BA00090919A04A0919B04B0919C044091810340
:104BB00050918203609183037091840348175907D1
:104BC0006A077B0744F48093810390938203A09348
:104BD0008303B09384031092490710924A0766E357
:104BE00073E080E497E00E94470660919904709119
:104BF0009A0480919B0490919C046A307105810510
:104C000091053CF03CE0643671058105910524F482
:104C100001C03EE020E001C022E0321B683E23E0FC
:104C200072078105910514F420E001C022E0321BD7
:104C30003093490726E020934A070E94341160917F
:104C400081037091820380918303909184036A3081
:104C50007105810591053CF030E4643671058105EC
:104C6000910524F401C032E420E001C022E0321BAF
:104C7000683E43E074078105910514F420E001C00B
:104C800022E0321B3093490726E020934A070E9416
:104C9000341129E338E04DE06AE080E497E00E94B7
:104CA0003B09109249078AE280934A076AE473E05D
:104CB00080E497E00E9447068091E106813069F424
:104CC0006EEF72E086EC96E00E94260640E061E31B
:104CD00078E081EF96E00E940E098091E206813033
:104CE00041F480916507882321F088EB92E00E94CF
:104CF0005F1065E273E086EC96E00E94C7058823AA
:104D000009F459C010924F071092500710E127E2A2
:104D1000412F66E180E497E00E94D50A1F5F1931B8
:104D2000B1F781E080934F078093500788E180932B
:104D3000490782E180934A076FE573E080E497E0DA
:104D40000E94470627E240E166E180E497E00E9486
:104D5000D50A27E248E166E180E497E00E94D50A9F
:104D600029E040E166E180E497E00E94EE0B29E053
:104D700040E16CE380E497E00E94EE0B84E08093D6
:104D800049078AE280934A0769E673E080E497E086
:104D90000E9447068091E206813069F468EF72E074
:104DA00086EC96E00E94260640E061E378E081EF21
:104DB00096E00E940E0980E090E0892B11F40C949B
:104DC0002D1B0E9400000C942D1B8FEF9FEF9093E2
:104DD000CA038093C9031092C8031092C7030C94AE
:104DE000611D81E090E09093CA038093C903109203
:104DF000C8031092C7030C94681D8FEF9FEF909328
:104E0000C8038093C7031092CA031092C9030C947D
:104E10006F1D81E090E09093C8038093C7031092C8
:104E2000CA031092C9030C94761D8091C00690911C
:104E3000C1060E94F2278091C6069091C7060C9485
:104E4000F227EEE6F7E01382128288EE93E0A0E00C
:104E5000B0E084839583A683B78382ED92E091834B
:104E600080838FEF9FEF958784871092430710927E
:104E7000420784EE92E09093410780934007E6EC6E
:104E8000F6E011821082138212821582148240E0B1
:104E900050E06FE773E0CF010E94E605E0ECF6E03A
:104EA00011821082138212821582148240E050E037
:104EB0006FE773E0CF010C94E605CF93DF93823068
:104EC000910510F482E090E0E091C007F091C107F5
:104ED00020E030E0C0E0D0E0309711F14081518116
:104EE00048175907C0F04817590761F48281938128
:104EF000209719F09B838A832BC09093C1078093DE
:104F0000C00726C02115310519F04217530718F4C0
:104F10009A01BE01DF01EF010280F381E02DDCCFB9
:104F20002115310509F1281B390B2430310590F486
:104F300012968D919C9113976115710521F0FB01DB
:104F40009383828304C09093C1078093C007FD01BF
:104F5000329644C0FD01E20FF31F819391932250DA
:104F600031092D933C933AC02091BE073091BF0781
:104F7000232B41F420910F01309110013093BF0792
:104F80002093BE0720910D0130910E0121153105AE
:104F900041F42DB73EB74091110150911201241BED
:104FA000350BE091BE07F091BF07E217F307A0F4BD
:104FB0002E1B3F0B2817390778F0AC014E5F5F4F6F
:104FC0002417350748F04E0F5F1F5093BF074093DB
:104FD000BE078193919302C0E0E0F0E0CF01DF9142
:104FE000CF9108950F931F93CF93DF93009709F408
:104FF0008CC0FC013297138212820091C00710917D
:10500000C1070115110581F420813181820F931FA1
:105010002091BE073091BF072817390779F5F09323
:10502000BF07E093BE0771C0D80140E050E0AE1763
:10503000BF0750F412962D913C911397AD012115A5
:10504000310509F1D901F3CF9D01DA0133832283C0
:1050500060817181860F971F8217930769F4EC01B5
:1050600028813981260F371F2E5F3F4F31832083E0
:105070008A819B8193838283452B29F4F093C10716
:10508000E093C00742C01396FC93EE931297ED0194
:10509000499159919E01240F351FE217F30771F4CE
:1050A00080819181840F951F029611969C938E9317
:1050B0008281938113969C938E931297E0E0F0E0A7
:1050C000D80112968D919C911397009719F0F801D1
:1050D0008C01F6CF8D919C9198012E5F3F4F820FEE
:1050E000931F2091BE073091BF072817390769F435
:1050F000309729F41092C1071092C00702C01382A2
:1051000012821093BF070093BE07DF91CF911F91CA
:105110000F9108958F929F92AF92BF92CF92DF929C
:10512000EF92FF92CF93DF93EC01688179818A81BE
:105130009B81611571058105910521F464E279ED8A
:105140008BE597E02DE133EF41E050E00E947829B4
:1051500049015A019B01AC01A7EAB1E40E949729D9
:105160006B017C01ACEEB4EFA50194010E94A5296E
:10517000DC01CB018C0D9D1DAE1DBF1DB7FF03C013
:105180000197A109B04888839983AA83BB83BC0196
:10519000CD019F77DF91CF91FF90EF90DF90CF907F
:1051A000BF90AF909F908F9008950E948A28089595
:1051B00083E191E00E948A2808956093130170931F
:1051C0001401809315019093160108950E942829D7
:1051D00008F481E00895E89409C097FB3EF49095A7
:1051E0008095709561957F4F8F4F9F4F9923A9F0C0
:1051F000F92F96E9BB279395F6958795779567954F
:10520000B795F111F8CFFAF4BB0F11F460FF1BC092
:105210006F5F7F4F8F4F9F4F16C0882311F096E925
:1052200011C0772321F09EE8872F762F05C06623D3
:1052300071F096E8862F70E060E02AF09A95660F8C
:10524000771F881FDAF7880F9695879597F9089545
:10525000990F0008550FAA0BE0E8FEEF1616170687
:10526000E807F907C0F012161306E407F50798F0EF
:10527000621B730B840B950B39F40A2661F0232B08
:10528000242B252B21F408950A2609F4A140A69584
:105290008FEF811D811D08959FEF80EC089557FDCC
:1052A0009058440F551F59F05F3F71F04795880F94
:1052B00097FB991F61F09F3F79F08795089512162B
:1052C00013061406551FF2CF4695F1DF08C01616D7
:1052D00017061806991FF1CF869571056105089488
:1052E0000895E894BB2766277727CB0197F908959F
:1052F000052E97FB1EF400940E948F2957FD07D0BE
:105300000E94E12907FC03D04EF40C948F2950959C
:105310004095309521953F4F4F4F5F4F08959095A1
:105320008095709561957F4F8F4F9F4F08950E9494
:10533000032AA59F900DB49F900DA49F800D911DF1
:1053400011240895B7FF0C9497290E949729821B76
:10535000930B08952F923F924F925F926F927F929C
:105360008F929F92AF92BF92CF92DF92EF92FF9275
:105370000F931F93CF93DF93CDB7DEB7CA1BDB0B21
:105380000FB6F894DEBF0FBECDBF09942A883988C6
:1053900048885F846E847D848C849B84AA84B984CD
:1053A000C884DF80EE80FD800C811B81AA81B981D9
:1053B000CE0FD11D0FB6F894DEBF0FBECDBFED01ED
:1053C0000895A1E21A2EAA1BBB1BFD010DC0AA1F46
:1053D000BB1FEE1FFF1FA217B307E407F50720F05E
:1053E000A21BB30BE40BF50B661F771F881F991FD9
:1053F0001A9469F760957095809590959B01AC0122
:10540000BD01CF010895A29FB001B39FC001A39F2A
:10541000700D811D1124911DB29F700D811D1124ED
:10542000911D08950E94192A6894B1110C94722953
:1054300008950E94572988F09F5798F0B92F99270F
:10544000B751B0F0E1F0660F771F881F991F1AF06F
:10545000BA95C9F714C0B13091F00E947129B1E03A
:1054600008950C947129672F782F8827B85F39F039
:10547000B93FCCF3869577956795B395D9F73EF408
:1054800090958095709561957F4F8F4F9F4F0895B0
:1054900019F416F40C944C290C948E2A0E94572966
:1054A000B8F39923C9F3B6F39F57550B87FF0E94B2
:1054B0009C2A0024A0E640EA9001805856959795D2
:1054C00028F4805C660F771F881F20F026173707A7
:1054D000480730F4621B730B840B202931294A2BB7
:1054E000A69517940794202531254A2758F7660F6B
:1054F000771F881F20F026173707480730F4620B04
:10550000730B840B200D311D411DA09581F7B9014E
:10551000842F9158880F9695879508959F3F31F075
:10552000915020F4879577956795B795880F911DD1
:105530009695879597F9089591505040660F771F7B
:10554000881FD2F70895991B79E004C0991F961718
:1055500008F0961B881F7A95C9F78095089597FBE8
:10556000072E16F4009407D077FD09D00E94C92AAF
:1055700007FC05D03EF4909581959F4F0895709556
:1055800061957F4F0895EE0FFF1F0590F491E02D78
:105590000994AA1BBB1B51E107C0AA1FBB1FA6177A
:1055A000B70710F0A61BB70B881F991F5A95A9F7CC
:1055B00080959095BC01CD010895A0E0B0E0E3EEA8
:1055C000FAE20C94AE29EC01009721F4CB010E9481
:1055D0005D27B8C0FC01E60FF71F9C01225031097E
:1055E000E217F30708F4ACC0D9010D911C91119793
:1055F00006171707B0F00530110508F49FC0C80161
:1056000004978617970708F499C002501109061BE2
:10561000170B019311936D937C93CF010E94F22796
:105620008DC05B01A01AB10A4C01800E911EA091A1
:10563000C007B091C10740E050E0E12CF12C109779
:1056400009F44AC0A815B905D1F56D907C90119761
:10565000630182E0C80ED11CCA14DB0480F1A301EF
:105660004A195B096A0182E0C80ED11C1296BC90EF
:1056700012971396AC91B5E0CB16D10440F0B282EC
:10568000A38351834083D9016D937C930AC00E5F3D
:105690001F4FC301800F911FF90191838083EB2D70
:1056A000FA2FE114F10431F0D7011396FC93EE9335
:1056B000129744C0F093C107E093C0073FC08D919B
:1056C0009C9111974817590708F4AC017D01129677
:1056D0000D90BC91A02DB3CF8091BE079091BF07D4
:1056E00088159905E1F446175707C8F480910D0114
:1056F00090910E01009741F48DB79EB74091110132
:1057000050911201841B950BE817F907C8F4F09328
:10571000BF07E093BE07F901718360830FC0CB011F
:105720000E945D277C01009759F0A801BE010E94EC
:10573000AC2BCE010E94F227C70104C0CE0102C0EB
:1057400080E090E0CDB7DEB7EEE00C94CA2981E0AE
:1057500090E0F8940C94C52BFB01DC0102C0019091
:105760000D9241505040D8F70895FB01DC018D9116
:10577000019080190110D9F3990B0895FB01DC0108
:1057800001900D920020E1F7089515E0C6E5D5E0FF
:1057900004C0FE010E94C32A2196C735D107C9F76C
:0457A000F894FFCFAB
:1057A4000100E1000000000000FFFFFFFF0000C255
:1057B4000780000100000000000000FFFF0100FF5F
:1057C400FF010000000000000000000100FFFF01D5
:1057D40000FFFF00000000FFFF0100E0FF2000FFCA
:1057E400FFFFFFFFFFFFFF8006001FBDF6FBDFBDCD
:1057F400F6FBDFBDF6FBDF8000001FBDBFDBDFBDB6
:10580400BFDBDF8186181FFDF6FBFFFDF6FBFFFD06
:10581400801BFFFDB9DBFFFDB9DBFE0030C007FDD7
:10582400BFDBFFFDBFDBFFFD801BFFFDBFDBFFFD1B
:10583400BFDBFF8006001FBDF6FBDFBDF6FBDF8C80
:1058440000031FEDBFDB7FEDBFDB7F8186181FBF29
:10585400F6FFDFBFF6FFDF8000001FFFFFFFFFFF43
:10586400FFFFFF00000000000000007FF9FFE0429E
:105874000904204209042042090420FFFFFFFE42DC
:10588400402420424024207E79E7E0020004000204
:1058940000040002000400020004000200040002EC
:1058A40000040002000400020004000200040002DC
:1058B400000400020004007FF9FFE04209042042D2
:1058C40009042073F9FCE012402480124024807EF5
:1058D40079E7E040090020400900207FFFFFE00055
:1058E4000000000000000000001E003B0001000753
:1058F4000000000200050000002300390001000739
:1059040000000002000500000006003E0001000047
:105914000000000200050001000B0042000100002D
:105924000000000700030001002C00320001000009
:105934000000000700030000000000020001000056
:1059440000000007000500000000006C00010000DA
:1059540000000007000500000036002C00010000D4
:105964000000000700320000C18081000000000038
:105974000000180CEC113E132E0C85124213601318
:1059840000000000F80A8105C205C10500000000FE
:10599400C5058105C205C1057469746C65006E6531
:1059A4007767616D65006E65776C6576656C006E12
:1059B40065776C6966650063686173650072756E0E
:1059C4006E696E670067616D656F766572007363FB
:1059D40061747465720020204C41535420202020AF
:1059E4002020202020484947480020413A20504C9C
:1059F40041592020202020423A2051554954004743
:105A0400414D45204F564552005052455353204274
:105A140020544F20434F4E54494E5545000D0A0023
:00000001FF