:100000000C94D60C0C94FE0C0C94FE0C0C94FE0C70
:100010000C94FE0C0C94FE0C0C94FE0C0C94FE0C38
:100020000C94FE0C0C94FE0C0C94F2170C946118BA
:100030000C94FE0C0C94FE0C0C94FE0C0C94FE0C18
:100040000C94FE0C0C943D1B0C94FE0C0C94FE0CBA
:100050000C94FE0C0C94FE0C0C94FE0C0C94931A55
:100060000C94FE0C0C94FE0C0C94FE0C0C94FE0CE8
:100070000C94FE0C0C94FE0C0C94FE0C0C94FE0CD8
:100080000C94DD1A0C94FE0C0C94FE0C0C94FE0CDB
:100090000C94FE0C0C94FE0C0C94FE0C0C94FE0CB8
:1000A0000C94FE0C0C94FE0C0C94FE0C0000000052
:1000B000003E5B4F5B3E3E6B4F6B3E1C3E7C3E1CEE
:1000C000183C7E3C181C577D571C1C5E7F5E1C0034
:1000D000183C1800FFE7C3E7FF0018241800FFE7EB
:1000E000DBE7FF30483A060E2629792926407F05AE
:1000F0000507407F05253F5A3CE73C5A7F3E1C1CC4
:1001000008081C1C3E7F14227F22145F5F005F5F83
:1001100006097F017F006689956A6060606060946F
:10012000A2FFA29408047E040810207E2010080874
:100130002A1C08081C2A08081E101010100C1E0C7F
:100140001E0C30383E3830060E3E0E060000000011
:100150000000005F00000007000700147F147F14F8
:10016000242A7F2A1223130864623649562050003D
:1001700008070300001C2241000041221C002A1C29
:100180007F1C2A08083E0808008070300008080814
:100190000808000060600020100804023E51494534
:1001A0003E00427F400072494949462141494D3352
:1001B0001814127F1027454545393C4A49493141B9
:1001C000211109073649494936464949291E000087
:1001D00014000000403400000008142241141414DC
:1001E0001414004122140802015909063E415D59C8
:1001F0004E7C1211127C7F494949363E41414122D1
:100200007F4141413E7F494949417F090909013EFA
:10021000414151737F0808087F00417F4100204021
:10022000413F017F081422417F404040407F021C33
:10023000027F7F0408107F3E4141413E7F0909094A
:10024000063E4151215E7F09192946264949493216
:1002500003017F01033F4040403F1F2040201F3FDC
:100260004038403F63140814630304780403615961
:10027000494D43007F4141410204081020004141A3
:10028000417F04020102044040404040000307084F
:100290000020545478407F2844443838444444284B
:1002A000384444287F385454541800087E090218F2
:1002B000A4A49C787F0804047800447D400020407A
:1002C000403D007F1028440000417F40007C0478BE
:1002D00004787C080404783844444438FC18242406
:1002E0001818242418FC7C08040408485454542486
:1002F00004043F44243C4040207C1C2040201C3C03
:100300004030403C44281028444C9090907C4464F9
:10031000544C44000836410000007700000041368C
:10032000080002010204023C2623263C1EA1A16112
:10033000123A4040207A3854545559215555794144
:100340002154547841215554784020545579400C1B
:100350001E527212395555555939545454593955FC
:100360005454580000457C410002457D420001453F
:100370007C40F0292429F0F0282528F07C545545AC
:10038000002054547C547C0A097F4932494949323F
:100390003248484832324A4848303A4141217A3A54
:1003A00042402078009DA0A07D39444444393D401E
:1003B00040403D3C24FF2424487E4943662B2FFCCB
:1003C0002F2BFF0929F620C0887E09032054547979
:1003D000410000447D413048484A32384040227A4A
:1003E000007A0A0A727D0D19317D2629292F2826C7
:1003F0002929292630484D402038080808080808CF
:100400000808382F10C8ACBA2F102834FA00007B27
:10041000000008142A142222142A1408950022002D
:1004200095AA005500AAAA55AA55AA000000FF00E7
:10043000101010FF00141414FF001010FF00FF1024
:1004400010F010F0141414FC001414F700FF000056
:10045000FF00FF1414F404FC141417101F10101FD5
:10046000101F1414141F00101010F0000000001FC3
:10047000101010101F10101010F010000000FF10CE
:100480001010101010101010FF10000000FF1400CA
:1004900000FF00FF00001F10170000FC04F41414FC
:1004A0001710171414F404F40000FF00F7141414C8
:1004B00014141414F700F7141414171410101F1048
:1004C0001F141414F4141010F010F000001F101F6B
:1004D0000000001F14000000FC140000F010F010D9
:1004E00010FF10FF141414FF141010101F00000050
:1004F00000F010FFFFFFFFFFF0F0F0F0F0FFFFFF54
:100500000000000000FFFF0F0F0F0F0F38444438AA
:10051000447C2A2A3E147E02020606027E027E02E5
:1005200063554941633844443C04407E201E200604
:10053000027E020299A5E7A5991C2A492A1C4C7241
:1005400001724C304A4D4D303048784830BC625AC8
:10055000463D3E494949007E0101017E2A2A2A2A58
:100560002A44445F444440514A444040444A514034
:100570000000FF0103E080FF000008086B6B0836F5
:1005800012362436060F090F060000181800000066
:100590001010003040FF0101001F01011E00191D55
:1005A0001712003C3C3C3C00000000000601150115
:1005B000260137014A015D01720188019F01B801DE
:1005C000D201EE010B022A024B026E029302BA0222
:1005D000E40210033F037003A403DC031704550473
:1005E0009704DD0427057505C80520067D06E0068D
:1005F0004907B8072D08A9082D09B9094D0AEA0AC3
:10060000900B400CFA0CC00D910E6F0F5A10531145
:100610005B1272139A14D41520178018F519801BD9
:10062000231DDE1EB420A622B524E4263429A72BE0
:10063000402E0031EA330037453ABC3D68414C4515
:100640006B49C84D68524F57805C006210111213FD
:10065000151617181A1C1D1F21232527292C2E318A
:1006600034373A3E4145494E52575C62686E757B5D
:10067000838B939CA5AFB9C4D0DCE9F7F0F89C8ECE
:100680008783878E9CF8F00000FEFF0303030303BB
:10069000070EFCF80000FEFF0303030303070EFC34
:1006A000F80000FFFF00000000000000FFFF000056
:1006B000FEFF8383838383C7EE7C380000F8FC0E43
:1006C00007030303070EFCF800003F7FE0C08080B3
:1006D000C0E07F3FFFFF01010101010101FFFF00B9
:1006E00000FFFF0C0C0C0C1C3E77E3C100007FFFE9
:1006F000C0C0C0C0C0E0703F1F00001F3F70E0C01E
:10070000C0C0E0703F1F00007FFFC1C1C1C1C1E395
:10071000773E1C00001F3F70E0C0C0C0E0703F1F6C
:10072000000000000001FFFF01000000D5F08D1463
:10073000A1C881CFD9F1AF20007F3F90A8A4924AF1
:100740002AA9A4920A32525249259554B0D9763B2F
:100750005425955452492595541292525249053FB9
:1007600039E79C73CE39E79C838BB6DBED76D82CCA
:100770009D0EBADA6EB7DBED767853492515E4673E
:10078000D3E53AD7B9CE75EE52D58ADCA64BA55241
:10079000A9542A954AA7A34FA7D325D3952C9D8E5C
:1007A000DFA6CB75AE739DEBDCA5AA15B94D974EB0
:1007B000A7D3E9BC8592A4924A2AA9A4924AC2531B
:1007C000524925955412AA0A5DE93064D3A5AA526C
:1007D00055A9AA5455AA2A55AD8A5A6EB73EC27475
:1007E0003A5D6E7BB993950E49E9D0944EA7D3E953
:1007F000741855524985B9ED76BBDD6E87A3B6DB1B
:10080000ED76BB1DCF4A2AA930A49C53DB743A9DD8
:100810005E472FD7252B59C94A56B2922DA9E5BA62
:10082000DCA5D3E97C5EF9F4362AA7A44AA552A92F
:10083000542A954AA7E3774AAA743A9D4EA7720AAA
:100840001E4BA78387A4924A2AA9A4924A424DE943
:10085000F53A9D4E67B7B16F954EA7D3E97472F61E
:10086000ADD2E9743A9DCD86A6ADD2E95CE73AD720
:10087000B9CE75E45B25D3E9747ABD0EA34A2AA9E3
:10088000F0BBDD0E076DB7C341CE39E79C730ED9BF
:100890004A2AA9A4924A2AA9E02FE79C73CE3907D5
:1008A000312AA9A4924A2AFCA7D34143E9743A1DEC
:1008B000BA9D73CE39E79C73CE215F4925155CA59F
:1008C000A4920AB2DA6EB7DBB108902C0221902B09
:1008D00002219025022180F07F3F808848A7D329FC
:1008E000A9A4924A2AA9A4924E5A259D23D4E97418
:1008F0004A9552A55429554A9552A55429554A2A34
:10090000A948753A9D4EA952AA942AA54A49259507
:1009100054524945AAD3E9942AA54AA952AA942A2D
:10092000A54AA952AA945452214C2999DD39E7AC21
:100930009352214A4925955452499D4EA7535249F5
:1009400025955470A24EA7A5924A2AA9A4924A2A94
:10095000E7B24BE538753A5D4A9552A55429554A98
:100960009552A554292595545211EA743A5D3A9D41
:100970000E8D3A9D2EA54AA952AA942AA54AA9529B
:10098000AA94924A2AA958772E9DCE2A25B75BE5CC
:10099000EC3AED9C1D713A9D4E835F4C87F4655D8A
:1009A000FDF555072D2A1753AE921D575EC14F4ACC
:1009B00076AABA529DEC64272B59B94E75AA535D9D
:1009C000D52907FB75AEBF3E57CBE1B965E53A9532
:1009D000EA54CAC140F958D3F96CD0557E9FFB64E4
:1009E00065D3D94A7D36B90CFFCEA572A95C272BF9
:1009F0003B084B903F022190410088800088904145
:100A00000088800088904100889042022180F07F19
:100A10003F40242EA5D26B259DB3DB9D5332B6A457
:100A20009B74BBDD6EB718B2DBED7666A7E4362AA1
:100A3000A7A4924A2AA9A4934E2A3BE576BBDD6E71
:100A40003164B7DBEDD44AC96D3AA79C73CE392720
:100A50009DD35B25A522C49073CE39E79C738A2968
:100A6000BD94536695744E3AE9AC924A6E934BE549
:100A70009CB2C1566925A5B2DBA55232946DB7DB95
:100A8000EDDBED766BB7DBED76C6AD92CE49E9A432
:100A9000924A2AA9A4724E39A7E4C8B3DBED1673B3
:100AA00069259D93CE49E79C73CE29A7A4724EC9B0
:100AB00068ED76BB7DBBDD2AE99C73523AE7A4C2A0
:100AC0009CDD6EB7E02D97D9ACF2F960D76D3E345E
:100AD00066D343AFD99CB2F9FC984F8E20A5564AF5
:100AE000A75B9D5FAD14513657B9CA6783FAF2A967
:100AF00055F527BBBE9395AC5CA7BAD4D9EA4A5D3D
:100B000050603E57D9CAE7534AAD946E753ABF5A02
:100B100029E67D90553A9DCE67F7F97C56C90A02C1
:100B2000CCD5AABA2BD5EE5DA5BA2A55ADCAF5B279
:100B3000E595AC6CAD83FA2AA96C369B5C67D3E96A
:100B400074A08BD6EBE4EA5295EBAA54A752CE39A7
:100B500097EA4AE5BA5255AB557639EC0D1010803C
:100B600080F08884C4243F3F24C48488F0808001BE
:100B7000010F11212324FCFC242321110F01013F2B
:100B80003F90940EAECA2A1BE2B3C191C351E970E3
:100B90001DEC940F561A02AB6CB6820C2B9BAD5019
:100BA0009D5536C82F6406C90D0567950DF21BFBD0
:100BB000E1788C86DAACB24165C1B610100080C015
:100BC000E0F0F8FCFEFEF0F0F0F0F0F000000103C1
:100BD000070F1F3F7F7F0F0F0F0F0F0F0000F0F069
:100BE000F0F0F0F0FEFEFCF8F0E0C08000000F0F27
:100BF0000F0F0F0F7F7F3F1F0F070301000080C003
:100C0000E0F0F8FCFEFEFCF8F0E0C080000001011E
:100C1000017F7F7F7F7F7F7F7F01010100008080D8
:100C200080FEFEFEFEFEFEFEFE80808000000103D0
:100C3000070F1F3F7F7F3F1F0F07030100000000CA
:100C40000080E0781E1E78E08000000000006078E0
:100C50007E7F7C1C0C0C1C7C7F7E786000404000FA
:100C60000000000000000000000000000000000084
:100C70000000000000000000000000000000000074
:100C8000F0F0F0E0C0C080000000000000000000B4
:100C90000000000000000000000000000000000054
:100CA0000000000000000000000000000000000044
:100CB0000000000000000000000000000000FEFC3A
:100CC000010103070F0F1F3F3F7EFCF08000000073
:100CD0000000000000000000000000000000000014
:100CE0000000000000000000000000000000000004
:100CF000000000C02010104804048442A252925206
:100D000092224284040448101020C1030F1C30605A
:100D10004000000000000000000000000000000093
:100D200000000000000000000000000000000000C3
:100D3000F00E8140C08000F00E51AA55AA55AA5568
:100D4000AA55AA54A10EF00080C040810EF0000008
:100D50000000000000000000000000000000000093
:100D60000000000000000000000000000000000083
:100D70008F7081030201000F70852A55AA55AA556C
:100D8000AA55AA558A700F0001020381708F0000D6
:100D90000000000000000000000000000000000053
:100DA00000000000000000000000000000000098AB
:100DB000245BA4AB542828502420214244494A49AA
:100DC0004A454221202450282854ABA45B24980093
:100DD0000000000000000000000000000000000013
:100DE0000000000000000000402010080402010084
:100DF00000000000000000000000000000000000F3
:100E000000000000000000000000000000000001E1
:100E10000204081020400000000000000000000054
:100E20000000300805050931000000000000000046
:100E300000000000000000000000000000000000B2
:100E400000000000000000000000000000000000A2
:100E50000000000000003109050508300000000016
:100E60000000000000000000000000000000000082
:100E7000384492AAAAAA9244380000000000000058
:100E80000000000000384492AAAAAA924438000048
:100E90000000000000000000000000000000000052
:100EA0000000000000000000000000000000000042
:100EB00000E0104FA24F10E0000000000000000012
:100EC000000000000000E0104FA24F10E000000002
:100ED0000000000000000000000000000000000012
:100EE00042422418007800202000508824545402E4
:100EF000FD02020A02028242C342C242C242C2420E
:100F0000C242C242C243C28202020A0202FD02542B
:100F10005424885000202000780018244242000009
:100F200000000000000000000000000001010102BC
:100F3000FF50F850F850FF55AA55AA55AA55AA5582
:100F4000AA55AA55AA55AAFF50F850F850FF020119
:100F5000010100000000000000000000000000008F
:100F600000000000000000000000000080808040C1
:100F7000FF0000000000FF55AA55AA55AA55AA5522
:100F8000AA55AA55AA55AAFF0000000000FF4080FC
:100F90008080000000000000000000000000000051
:100FA00042422418001E000404000A11242A2A4088
:100FB000BF40404840404041C14141414141414121
:100FC0004141414141C141404040484040BF402A29
:100FD0002A24110A000404001E00182442420000C2
:100FE0000000000000000000000000000000000001
:100FF000000708F245F208070000000000000000AA
:101000000000000000000708F245F2080700000099
:1010100000000000000000000000000000000000D0
:1010200000000000000000000000000000000018A8
:10103000244299A5A5A599422418000000000000AB
:101040000000000018244299A5A5A5994224180083
:101050000000000000000000000000000000000090
:101060000000000000000000000000000000000080
:101070000000000000000000000000000000000070
:101080000000000000000000000000000000000060
:101090000000000000000000000000000000000050
:1010A0000000000000000000000000000000000040
:1010B0000000000000000000000000000000000030
:1010C0000000000000000000000000000000000020
:1010D0000000000000000000000000000000000010
:1010E0000000000000000000C03088488830C000C8
:1010F00000806010082404844828B020408000004C
:10110000804020B02848840424081060800000C07B
:101110003088488830C00000000000000000000057
:101120000000000000000000030C1112110C03006D
:10113000FC0360B020001F204E91A0914E201F1F85
:10114000204E91A0914E201F0020B06003FC0003B0
:101150000C1112110C030000000000000000000040
:101160000000000000000000C03088488830C00047
:10117000010E30C1020404000070A854AAAA5555FB
:10118000AAAA54A8700000040402C1300E0100C0D5
:101190003088488830C000000000000000000000D7
:1011A0000000000000000000030C1112110C0300ED
:1011B000000000010608080812102021224275755F
:1011C0004222212010120808080601000000000336
:1011D0000C1112110C0300000000000000000000C0
:1011E00000000000000000000000000000000000FF
:1011F00000000000000000000000000000000000EF
:1012000000000000000000000000000000000000DE
:1012100000000000000000000000000000000000CE
:1012200000000000000000000000000000000000BE
:1012300000000000000000000000000000000000AE
:10124000000000000000000000000000000000009E
:10125000000000000000000000000000000000008E
:10126000000000000000000000000000000000007E
:101270000000000000000000E01008C422D2D2D21A
:10128000D222C40810E000000000000000000000AE
:10129000000000000000000000000000000000004E
:1012A000000000000000000000000000000000003E
:1012B000000000000000000003048853242B2B2BA7
:1012C0002B245388040300000000000000000000ED
:1012D000000000000000000000000000000000000E
:1012E0001E212D211E102020FE0000000000000005
:1012F0000000008040205048484744534343434344
:1013000043435344474848502040800000000000B9
:101310000000000000FE2020101E212D211E0000D4
:10132000007884B48478407F00000000000000F062
:10133000F00C438000F00000FCAA56AA56AA5656AC
:10134000AA56AA56AAFC0000F00080430CF0F00058
:101350000000000000007F407884B4847800000022
:101360001E212D211E102020FE0000000000000F75
:101370000F30C40300FF0000FFAA55AA55AA555517
:10138000AA55AA55AAFF0000FF0003C4300F0F00A2
:101390000000000000FE2020101E212D211E000054
:1013A000007884B48478407F000000000000008052
:1013B0005826424122F38C9494A5A5C5D5C5C5C530
:1013C000C5D5C5A5A594948CF3224142265880002A
:1013D0000000000000007F407884B48478000000A2
:1013E000000000000000000000000000000E31C0FE
:1013F00000000000000000000000000000000000ED
:101400000000000000000000000000000000C031EB
:101410000E000000000000000000000000000000BE
:1014200000000000000000000000000060100A0A38
:101430001262000000000000000000000000000038
:1014400000000000000000000000000062120A0A14
:10145000106000000000000000000000000000001C
:10146000000000000000000000000000000000007C
:1014700000C0E0F0D0E86C78300000000000000010
:10148000000000000030786CE8D0F0E0C000000000
:10149000000000000000000000000000000000004C
:1014A000000000000000000000000000000000003C
:1014B000071FFFF8E79F7EF8E080000000000000B3
:1014C0000000000080E0F87E9FE7F8FF1F070000A3
:1014D000000000000000000000000000000000000C
:1014E00000000000000000000000000000000000FC
:1014F0000000000103C727AEDD5FAF42428181815A
:10150000814242AF5FDDAE27C7030100000000004B
:1015100000000000000000000000000000000000CB
:1015200000000000000000000000000000000000BB
:1015300000000038C718B76F877B850502020202DA
:10154000020205857B876FB718C7380000000000CE
:10155000000000000000000000000000000000008B
:10156000000000000000000000000000C0E0E0C03B
:1015700020A020C021A6494BB752D5AAAA54B4B482
:1015800054AAAAD552B74B49A621C020A020C0E03A
:10159000E0C00000000000000000000000000000AB
:1015A00000000000000000000000000007070F0717
:1015B000080B0807080BC42BD7D7AFAF5CD85E5E0B
:1015C000D85CAFAFD7D72BC40B0807080B08070FA1
:1015D00007070000000000000000000000000000FD
:1015E00000000000000000000000000000000000FB
:1015F0000000000000000F708F73BC473807000028
:10160000073847BC738F700F000000000000000017
:1016100000000000000000000000000000000000CA
:1016200000000000000000000000000000000000BA
:1016300000000000000000000001000000000000A9
:101640000000000001000000000000000000000099
:10165000000000000000000000000000000000206A
:101660001C0001020408F010101090505040A0A877
:10167000A4A4A8A040505090101010F0080402013B
:10168000000000884880017C827D867F8383010181
:101690000101010183837F867D867C01804888006B
:1016A00000000F500807F88070C926A5D52DEBEB78
:1016B0000909EBEB2DD5A526C97080F80708500F56
:1016C00000000804020100000700030302030303F3
:1016D00000000303030203030007000001020408E3
:1016E00000902B00889037011090350088903400CE
:1016F00088800199902B00889038011090360088DE
:1017000090350088800199902B0088903700889050
:101710003000889035008890340088800199902BA3
:101720000088903700889034008890360088903583
:101730000088800199902B008890370088903000B5
:10174000889035008890340088800199902B00881B
:101750009037008890340088903600889035008853
:10176000800199902B008890390110903700889063
:1017700036008890350199902B008890390110909F
:101780003700889036008890350199902E00889017
:101790003A01109036008890380088800199902E88
:1017A0000088903A011090360088903800888001B7
:1017B00010902F0088903F0088903F00888000881C
:1017C000902F0088903D0088903D00888000889090
:1017D0002F0088903B0088903B0088800088902FE5
:1017E000008890390199902F912F0088903F8100B7
:1017F00088903F0088800088902F0088903D008866
:10180000903D0088800088902F0088903B00889051
:101810003B0088800088902F00889039011080015B
:1018200010902B008890370110903500889034007C
:1018300088800199902B008890380110903600889C
:101840009035008880E07F3F804708494A2AA9A454
:1018500092CA2A9DDE2A093E8E5F4925955452C9B7
:101860006576BB540E9C1C8AA4543ABEB49252E9CD
:1018700078F1249554524954F16D9574CEAE957516
:10188000CEB9C9B23BA7E4AC52492595544853524E
:10189000492529F1249554524954F1E1891F4F7C7F
:1018A000FC292B9D5472B972FCF0113F6F5A49A963
:1018B000747C693E5449259554124F78E3C72BBE7A
:1018C000F0852AA9A4924AE2890F4F4A2AA9A44284
:1018D000161F3F5F3A5A7EE01102080B0002020217
:1018E00000000904000001020200000524001001AC
:1018F0000524010101042402060524060001070550
:10190000810310004009040100020A0000000705DD
:10191000020240000007058302400000040309049E
:1019200012010002EF020140412336800001010252
:10193000030141726475696E6F204C4C4300417223
:101940006475696E6F204C656F6E6172646F000024
:10195000000000240027002A002D003000000000B5
:1019600000250028002B002E003100040802011081
:1019700040804010204080408008020401804020C8
:1019800010020110801020404020040404040403CD
:10199000040502020202040302020202060606060F
:1019A00006060404020202040400FD1B11241FBEEB
:1019B000CFEFDAE0DEBFCDBF12E0A0E0B1E0EAEAAF
:1019C000FFE402C005900D92AC31B107D9F727E0D2
:1019D000ACE1B2E001C01D92AC39B207E1F71CE006
:1019E000C6EDDCE004C02197FE010E94C827C53D7A
:1019F000D107C9F70E945E1C0C94D3270C940000F9
:101A0000809130020895EEE5F2E0A0E0B8E00080B9
:101A10000EBC8111012C1197A0FDFDCF0192B9F7E9
:101A20000DB4089580E0EEE5F2E081118FEF00241F
:101A300081938193819381930394D1F708959F9229
:101A4000AF92BF92CF92DF92EF92FF920F931F93CC
:101A5000CF93DF938091C80697E3E92E97E0F92EA4
:101A6000F701B12C8B1124C00091C506809141076C
:101A7000080F1127111FC3ECD6E060E870E0A12C1D
:101A8000992493946B01C00ED11EBA14B1F0072EA5
:101A9000000C880B990B0E94CF266E837F8388876A
:101AA0009987F70191927F01A3942B96B601EACF13
:101AB0009191911102C0B394D5CFDF91CF911F9135
:101AC0000F91FF90EF90DF90CF90BF90AF909F90DD
:101AD0000895FC0120818091B3069091B406821B89
:101AE00091099093B4068093B306181619068CF0EA
:101AF0008091B1069091B20601979093B2068093BF
:101B0000B1068091B5069091B6069093B406809385
:101B1000B3061092B7061092B8061092B90610924A
:101B2000BA061092BB061092BC061092BD06109227
:101B3000BE068AE090E0A0E0B0E08093BF069093FC
:101B4000C006A093C106B093C20608959C018038D8
:101B5000910564F5480F592F511D4138510514F076
:101B600040E850E0421BCB018770992791E001C00B
:101B7000990F8A95EAF777FF02C0695F7F4FFB01F3
:101B800083E0F595E7958A95E1F7F695FE2FEE2728
:101B9000F795E795E20FF31FE25AFD4F415030F001
:101BA0008191DF011197892B8C93F8CF0895909143
:101BB0008F07982329F490918E07982381E009F4E8
:101BC00080E00895FC0180915202882311F13FB713
:101BD000F89482E08093E9002091F200822F90E057
:101BE0001816190614F481E090E0882339F028983B
:101BF00044E6409351024091F1004083222339F0A2
:101C00002091F200211103C02BE62093E8003FBF92
:101C100008958FEF9FEF08952FB7F89483E0809396
:101C2000E9009091E800892F807295FF04C090919F
:101C3000F20080E4891B2FBF089580914902811131
:101C40000DC082E08093450284E0809346021092AA
:101C500048021092470281E08093490285E492E0B5
:101C60000895CF93DF931F92CDB7DEB76983DC0170
:101C7000ED91FC910280F381E02D41E050E0BE0146
:101C80006F5F7F4F09950F90DF91CF91089583E0AB
:101C90008093E9008091F200882319F08AE3809311
:101CA000E80008950E940C0E90E00895CF93DF9312
:101CB0001F92CDB7DEB7FC018485958597FD08C0DE
:101CC0002FEF3FEF358724870F90DF91CF91089555
:101CD000CE0101960E94E20D019719F4898190E0EE
:101CE000F3CF8FEF9FEFF0CF0F931F93CF93DF933F
:101CF0001F92CDB7DEB78C01FC018485958597FFD7
:101D00000BC0CE0101960E94E20D019771F489810A
:101D100090E0F80195878487F801848595850F9078
:101D2000DF91CF911F910F9108958FEF9FEFF1CF2A
:101D3000FC018485958597FD0BC09FB7F89482E0E0
:101D40008093E9008091F2009FBF90E00196089592
:101D50009FB7F89482E08093E9008091F2009FBFE2
:101D600090E0089540913F025091400220913D0241
:101D700030913E0242175307B4F49091E8009570F9
:101D8000E1F39091E80092FD19C08093F1008091F9
:101D90003F029091400201968F739927892B19F485
:101DA0008EEF8093E80080913F029091400201966F
:101DB0009093400280933F0281E0089580E008956F
:101DC000DF92EF92FF920F931F93CF93DF93D82E62
:101DD0008A01EB017B01E40EF51ECE15DF0559F0FB
:101DE000D7FE12C0FE0184910E94B20E219681118D
:101DF000F4CF0FEF1FEFC801DF91CF911F910F912B
:101E0000FF90EF90DF9008958881EECF0F931F939E
:101E1000CF93DF931F92CDB7DEB782E0898342E490
:101E200050E06AED78E180E80E94E00E0E941D0E0D
:101E3000DC0112960D911C910115110589F0D80154
:101E4000ED91FC910280F381E02DBE016F5F7F4F29
:101E5000C801099597FD04C0F80100851185ECCFF4
:101E600089810F90DF91CF911F910F91089561505B
:101E700030F02091F100FC0120830196F8CF2898E2
:101E800084E6809351020895AF92BF92CF92DF9281
:101E9000EF92FF920F931F93CF93DF936C017B011F
:101EA0008B01040F151FEB015E01AE18BF08C017B0
:101EB000D10759F06991D601ED91FC910190F08123
:101EC000E02DC6010995892B79F7C501DF91CF91E6
:101ED0001F910F91FF90EF90DF90CF90BF90AF9048
:101EE00008953FB7F89480912C0290912D02A09113
:101EF0002E02B0912F0226B5A89B05C02F3F19F0E6
:101F00000196A11DB11D3FBFBA2FA92F982F882779
:101F1000BC01CD01620F711D811D911D42E0660F54
:101F2000771F881F991F4A95D1F708958F929F9226
:101F3000AF92BF92CF92DF92EF92FF926B017C0142
:101F40000E94710F4B015C01C114D104E104F10442
:101F5000B9F00E94710F681979098A099B09683ED6
:101F600073408105910580F321E0C21AD108E10890
:101F7000F10888EE880E83E0981EA11CB11CE4CF06
:101F8000FF90EF90DF90CF90BF90AF909F908F9099
:101F900008958F929F92AF92BF92CF92DF92EF926D
:101FA000FF920F931F93CF93DF936C017B018A0104
:101FB00080910B01882309F45CC080915202882330
:101FC00009F457C08091440280FF05C08091E00071
:101FD00082608093E000E801B12C8AEFA82E93E0A4
:101FE000892E2AE3922E209711F4BB20D9F10E946A
:101FF0000C0E81110AC0AA94AA20D9F161E070E008
:1020000080E090E00E94960FEECF8C171D0611F035
:102010000CF08C2F9FB7F8948092E9002091E80093
:1020200025FD02C09FBFDFCF282F30E0C21BD30B9E
:10203000F701815020F041914093F100FACFE20E78
:10204000F31EBB2021F09092E800B12CEBCF8091E1
:10205000E80085FDE7CF9092E800BB24B394209779
:1020600009F3F3CF5D9884E68093430210161106BE
:102070003CF081E090E0F6019383828310E000E081
:10208000C801DF91CF911F910F91FF90EF90DF90EA
:10209000CF90BF90AF909F908F900895CF92DF9296
:1020A000EF92FF921F93CF93DF93E82FF0E0EB5C6A
:1020B000FE4F1081E62FF0E0603398F5E45BF94FB6
:1020C000E491CE2FD0E0F12CE12C60E074E284EFBB
:1020D00090E0A7019E010E94552521503109410938
:1020E000510991E02115310581E0480751056CF057
:1020F00060E970ED83E090E0A7019E010E94552504
:10210000215031094109510993E0113089F0133010
:1021100039F1DF91CF911F91FF90EF90DF90CF9039
:102120000895EE0FFF1FE45BFA4FC591D491CBCF1A
:1021300080912A028111EDCF80918100887F892BC7
:10214000809381003093890020938800109285004D
:102150001092840080916F00826080936F00D9CFCD
:1021600080919100887F892B809391003093990012
:10217000209398001092950010929400D093290219
:10218000C093280281E080932702809171008260D1
:1021900080937100BECFE82FF0E0EB5CFE4F8081B2
:1021A000813019F08330A9F0089580912A028111BD
:1021B0000FC080916F008D7F80936F0080915602D9
:1021C000E0915702F0915802908180958923808395
:1021D000089510922702809126028111F9CF8091F3
:1021E0005302E0915402F0915502EECFCF93C0E03C
:1021F00080915D02C81728F48C2F0E94CB10CF5F0E
:10220000F7CF10925C02CF91089580915D028230E9
:1022100009F46FC0282F30E0F901EB5CFE4F6081BC
:10222000265A3D4F95E0F9019083813031F4909129
:102230005A02953011F4809359028F5F80935D02AA
:10224000EFE8F9E18491E0E7F9E1249190E0880F6B
:10225000991FFC01E35AF64E45915491FC01E15B54
:10226000F64EA591B4918C91822B8C93613019F02C
:102270006330D9F0089580916400877F8093640073
:10228000109280001092810080918100886080937C
:102290008100809181008160809381005093580279
:1022A0004093570220935602089580916500877FDE
:1022B000809365001092900010929100809191009F
:1022C000886080939100809191008160809391005B
:1022D00050935502409354022093530280915D0223
:1022E000882321F06CE380E00E944E1080E00C9483
:1022F000CB100895CF93DF93D1E0E0913802F091B5
:102300003902AF014F5F5F4F50933902409338025B
:102310002491822F807FC22FCF70803821F48C2FA0
:102320000E94CB10EACF803919F5E091AE06F0910A
:10233000AF0609958D2780932502E0913802F09130
:102340003902CF010196909339028093380264914B
:1023500080915D02C81788F6C13021F4809159023E
:102360008111CBCF67FDC9CF8C2F0E944E10C5CFF6
:1023700087FD3CC03296F0933902E0933802FA01AF
:102380004491A0912802B0912902322F242F0E945B
:10239000A9256C507E4F8F4F9F4F28EE33E040E0D1
:1023A00050E00E948725209321023093220240931F
:1023B0002302509324028091210290912202A09145
:1023C0002302B0912402892B8A2B8B2B61F481E0AC
:1023D00090E0A0E0B0E08093210290932202A093CD
:1023E0002302B0932402DF91CF910895803E49F4F7
:1023F00080913A0290913B02909339028093380287
:102400007CCF803F09F079CF10925C02ECCF8F92A5
:102410009F92AF92BF92CF92DF92EF92FF920F9373
:102420001F93CF93DF93EC01FA01C49031969491FE
:102430004E5F5F4FAC2DB0E02223E1F001E010E0F1
:10244000892F877011F410E000E0E92FE695E695FA
:10245000E695E00FF12FF11DEA9F8001EB9F100D33
:10246000FA9F100D1124209FF001219FF00D1124DF
:102470004E0F5F1F8D010C0F1D1F101611060CF063
:1024800098C0C038D1050CF094C09B01290F311DB4
:10249000121613060CF08DC0603471050CF089C063
:1024A0004115510509F485C0F62FF770EF2E9B01F9
:1024B00077FF02C0295F3F4FE3E035952795EA9506
:1024C000E1F7F22F77FF04C0EE2011F0FFEFF20FDB
:1024D000222733272C1B3D0BD7FD02C030E020E024
:1024E000FC2C003811051CF080E8F82EFC1AF21ABA
:1024F0006F2F0F2E000C770B162F1095FF3F0CF04F
:1025000010E0E1E0892F877009F4E0E09695969558
:1025100096959E0F690F711D6930710514F098E052
:102520009F1BD12EDF0E6D2D70E867035001112423
:10253000B5016C0F7D1F620F731FC19E200D311DF1
:102540001124420F531F2E2D0E2C000C330B9F0F06
:102550009D1579F1EB01C25ADD4F10E000E00F1537
:1025600010F5FA01E00FF11FE491F0E04F01022EA7
:1025700002C0880C991C0A94E2F7D7FC03C088813A
:1025800088298883EE2059F086E08D1544F05E019D
:10259000E0E8AE0EB11CF5018081892980830F5FD0
:1025A0001F4F2196DCCFD3944A0F5B1F60587F4F9B
:1025B000CFCFDF91CF911F910F91FF90EF90DF90E0
:1025C000CF90BF90AF909F908F9008952D9A0895CF
:1025D000BC0190E080E00C94960F8FB18095807FD5
:1025E000669B88601C9B846008953E9A3F9A81E0B8
:1025F00080933002089520E191E061FD94E060FD58
:10260000990F62FD9295687F269FD0011124A80F33
:10261000A25ABD4F8C9140FF03C0892B8C93089523
:1026200090958923FBCFDF92EF92FF920F931F9338
:10263000CF93DF937C01EB01D22E8B01040F111D90
:10264000C8010134110514F080E490E0C817D907DF
:102650005CF480E8E816F10428F44D2DBE01C701B2
:102660000E94FB122196ECCFDF91CF911F910F9129
:10267000FF90EF90DF900895CF92DF92EF92FF925C
:102680000F93CF936B017A01C22F422FB701C6017E
:102690000E94A60DB701600F711D61507109603471
:1026A000710524F44C2FC6010E94A60D21E0402F95
:1026B000B701C6010E941313C6018C0F911D21E0C2
:1026C000402FB7010197CF910F91FF90EF90DF90CE
:1026D000CF900C9413132F923F924F925F926F9270
:1026E0007F928F929F92AF92BF92CF92DF92EF92A2
:1026F000FF920F931F93CF93DF93CDB7DEB7289749
:102700000FB6F894DEBF0FBECDBF9E838D836A30B7
:1027100061F5DC0155968C91B8E08B9F90011124F6
:10272000ED81FE8181899289820F931F928B818B2B
:10273000108A178681E090E028960FB6F894DEBFE5
:102740000FBECDBFDF91CF911F910F91FF90EF9002
:10275000DF90CF90BF90AF909F908F907F906F90C1
:102760005F904F903F902F9008956D3019F32D8119
:102770003E8138872F83D9011F960D911C91509768
:10278000003811050CF07CC05196AD90BC90B0E4BF
:10279000AB16B1040CF074C0F901258825E0C8011E
:1027A000229E800D911D1124181619060CF068C088
:1027B000622C712CC30133E0880F991F3A95E1F721
:1027C0008A0D9B1D181619060CF05AC0F489FB835C
:1027D000AF81B8855396BC91BC83629FB001112430
:1027E000FB01E455FF4F2F011982F2018491F98119
:1027F000F53009F480E0450128E02A83A82FB0E0F5
:10280000BE83AD833C8080FF3B80311004C0BB8120
:10281000EC81BE17F9F078018E2D801B8215D0F463
:10282000D12CC12CC21490F4F0E8EF16F10450F44E
:10283000B601680D791D6034710520F4432DC70180
:102840000E94FB122FEFC21AD20AECCF3FEFE31A1D
:10285000F30AE2CF8D819E81959587959A8191505B
:102860009A83860C971C9111C9CFA981AF5FA98368
:10287000BFEF4B1A5B0A060D171DA63009F0B5CF46
:10288000EF81F8852589422F50E087859089F6E011
:102890002F9F800D911D1124AF81B88550969C9378
:1028A0008E931F9756962C915697222309F442CF68
:1028B0006AEF64039001659F300D112420583F4F4B
:1028C000281739070CF036CFED91FC911197019044
:1028D000F081E02D6AE0CD0109952CCF1F93CF93B5
:1028E000DF93DC0130E020E050E040E011E0C1E0A7
:1028F000D0E02617370791F114968C911497811127
:1029000015C014961C93149712968D919C91139751
:10291000ED91FC911197E80FF91FE4911596EC9356
:102920001597019613969C938E93129714969C91EB
:10293000149715968C911597892349F0FE01022E64
:1029400002C0EE0FFF1F0A94E2F74E2B5F2B990F88
:1029500014969C9314972F5F3F4FCBCFCA01DF9102
:10296000CF911F9108954F925F926F927F928F92B5
:102970009F92AF92BF92CF92DF92EF92FF920F930E
:102980001F93CF93DF9300D000D000D0CDB7DEB738
:102990009A8389831C821B821D821E8268E070E0FC
:1029A000CE0101960E946E1401967C0168E070E0F1
:1029B000CE0101960E946E148C0161E070E0CE01A0
:1029C00001960E946E141E141F040CF06CC0980136
:1029D0002F5F3F4F121613060CF065C06901F3E03C
:1029E000D594C794FA95E1F727703327232B19F074
:1029F0009FEFC91AD90A982E55245394812C10E0C0
:102A000000E0B12CA12C44244394AC14BD040CF080
:102A10004AC066246394712C61E070E0CE01019697
:102A20000E946E14892B21F482E0680E711CF4CF91
:102A3000B301CE0101960E946E14019630E020E0B1
:102A40002817390770F591108528652D660F31F527
:102A5000A5014F5F5F4F4930510580F400381105E3
:102A60006CF4F501F695FE2FEE27F795E795E00F4C
:102A7000F11FE25AFD4F7081872A80820F5F1F4F3E
:102A8000552453940E151F052CF05A0155245394C8
:102A900010E000E02F5F3F4F862ED2CF562E682DDC
:102AA000F9CF9424B2CF26960FB6F894DEBF0FBEAE
:102AB000CDBFDF91CF911F910F91FF90EF90DF90ED
:102AC000CF90BF90AF909F908F907F906F905F90CE
:102AD0004F9008958F929F92AF92BF92CF92DF92C4
:102AE000EF920F931F93CF93DF934A01EB015B01AA
:102AF000A20EB11C040F152F111DCA15DB0594F48D
:102B00006401C016D10664F4C038D1052CF44E2DF2
:102B1000B601CE010E94FB128FEFC81AD80AF1CF7E
:102B20002196EBCFDF91CF911F910F91EF90DF9026
:102B3000CF90BF90AF909F908F9008950895CF93BE
:102B4000DF93EC01FB01828193819B838A838781E0
:102B5000908598878F838185898782858A878385F9
:102B60008B8784858C8785858D8786858E878785ED
:102B70009089988B8F87818992899A8B898B838999
:102B80008B8B84898C8B85898D8B86898E8B86E057
:102B90007796DE01579601900D928A95E1F7CE0166
:102BA000DF91CF910895CF92DF92EF92FF920F9332
:102BB0001F93CF93DF93FC01DB01E788F08CC18D7D
:102BC000D28D848DCD90DC90119712960D911C9131
:102BD000139714964C91149715962C91638D6E0D46
:102BE0007F2D711DC616D7069CF44C0D5D2D511D11
:102BF000E416F5066CF48C0F9D2F911D081719072C
:102C00003CF4200F312F311D81E0C217D3070CF0A7
:102C100080E0DF91CF911F910F91FF90EF90DF90B7
:102C2000CF900895089590E080E008958F929F924C
:102C3000AF92BF920F931F93CF93DF93CDB7DEB7C1
:102C4000A1970FB6F894DEBF0FBECDBF19A24230D8
:102C500008F44AE08E010F5D1F4F842E912CB12C99
:102C6000A12CA50194010E948725E62FB901CA0174
:102C7000EA3044F5E05DD801EE938D01232B242B3F
:102C8000252B79F790E080E0109769F0FD01019025
:102C90000020E9F73197AF014A1B5B0BBD0185E8C6
:102CA00097E00E94440FA1960FB6F894DEBF0FBEC6
:102CB000CDBFDF91CF911F910F91BF90AF909F90AB
:102CC0008F900895E95CD7CF6115710551F0FB0134
:102CD00001900020E9F73197AF01461B570B0C9488
:102CE000440F90E080E00895CF93DF930E94120D8F
:102CF000C5E8D7E0188A1F8681E08E8B80E290E0DD
:102D00009A8B898BE091C306F091C406EE0FFF1FEA
:102D1000E95CFE4F60817181CE010E94641680E003
:102D20000E94030D88E893E10E94E8121E8ADF9159
:102D3000CF9108950C943F250E94CE272F923F9269
:102D40004F925F926F927F928F929F92AF92BF92BB
:102D5000CF92DF92EF92FF920F931F93CF93DF9367
:102D60007C01FC0123803480912C82589F4F6C01A0
:102D700090E3A92EB12C412C512C20EA622E2FE396
:102D8000722E38E0832E2114310409F4C9C0092DB4
:102D900010E0E7019BE0999EC00DD11D11242696FD
:102DA00020FE2CC0F7018281F6019081890F9927BE
:102DB000991F809FB001819F700D909F700D11240D
:102DC00060587F4F072E000C880B990B0E94CF266E
:102DD000688379838A839B83BD82AC824E825F82C3
:102DE000688679868A860E0D1F1DF801EC58FF4F04
:102DF00081E08083369427949394C5CF0E94E72482
:102E000024E030E040E050E00E945525F701828147
:102E1000613009F445C018F1623009F461C0F6016F
:102E20009081890F9927991F809FB001819F700D14
:102E3000909F700D112460587F4F072E000C880B57
:102E4000990B0E94CF26688379838A839B83BD82F6
:102E5000AC824E825F8268867986F0E11FC0F601FF
:102E60009081890F9927991F809FB001819F700DD4
:102E7000909F700D112460587F4F072E000C880B17
:102E8000990B0E94CF26688379838A839B83BD82B6
:102E9000AC824E825F8268867986F0E2FA87A3CFA1
:102EA000F6019081890F9927991F809FB001819F1A
:102EB000700D909F700D112460587F4F072E000CED
:102EC000880B990B0E94CF26688379838A839B8322
:102ED000BD82AC824E825F8268867986F0E4DECF66
:102EE000F6019081890F9927991F809FB001819FDA
:102EF000700D909F700D112460587F4F072E000CAD
:102F0000880B990B0E94CF26688379838A839B83E1
:102F1000BD82AC824E825F8268867986F0E8BECF41
:102F2000DF91CF911F910F91FF90EF90DF90CF90A5
:102F3000BF90AF909F908F907F906F905F904F90D9
:102F40003F902F900895CF92DF92EF92FF92CF9310
:102F5000DF93FC011182108280E182838AE0858305
:102F6000DF011696CF018C589F4FC12CD12CE12C3C
:102F700023E4F22E20E330E040E050E060EA7FE31B
:102F8000CD92DD92ED92FC92139715963C932E9381
:102F9000149716964D935D936D937C9319971B969A
:102FA000A817B90769F78AE0ED0119928A95E9F740
:102FB00081E08C93DF01A258BF4F88E08C93A08101
:102FC000B181AA0FBB1FA05FBE4F8D919C919483CE
:102FD0008383CF01DF91CF91FF90EF90DF90CF906F
:102FE0000C949E161F920F920FB60F9211248F937E
:102FF0009F938091E1009091E100937F9093E10095
:1030000083FF0FC01092E90091E09093EB001092C3
:10301000EC0092E39093ED001092520298E09093AE
:10302000F00082FF22C093E09093E9009091F200BB
:10303000992319F09AE39093E80090914302992321
:1030400041F090914302915090934302911101C03D
:103050005D9A90915102992341F0909151029150C3
:1030600090935102911101C0289A84FF18C0809159
:10307000E2008E7E81608093E2008091E1008F7E8D
:103080008093E100809144028E7E806180934402AF
:103090009F918F910F900FBE0F901F90189580FFFA
:1030A000F7CF8091E2008E7E80618093E200809174
:1030B000E1008E7E8093E100809144028E7E8160EB
:1030C000E5CF1F920F920FB60F921124CF92DF928D
:1030D000EF92FF920F931F932F933F934F935F9322
:1030E0006F937F938F939F93AF93BF93EF93FF93D0
:1030F000CF93DF93CDB7DEB76C97DEBFCDBF109215
:10310000E9008091E80083FF25C068E0CE01459684
:103110000E94370F82EF8093E8008D8987FF39C0C6
:103120009091E80090FFFCCF982F907609F034C181
:103130009E894F89588D2F89F88C911131C0803824
:1031400061F5809142028093F1001092F1008EEFC0
:103150008093E8006C960FB6F894DEBF0FBECDBF2B
:10316000DF91CF91FF91EF91BF91AF919F918F919F
:103170007F916F915F914F913F912F911F910F918F
:10318000FF90EF90DF90CF900F900FBE0F901F90A9
:1031900018959EEF9093E800C7CF1092F100D5CF1D
:1031A000913059F48111D3CF4130510581F680918E
:1031B00042028D7F80934202CACF933049F481113D
:1031C000C6CF4130510519F6809142028260F2CF9C
:1031D000953041F48091E80080FFFCCF2068209377
:1031E000E300B5CF963009F0A9C00B8D1C8D22E00D
:1031F0001092E9001092400210923F02F2122EC08B
:1032000010923E0210923D020E94060F1F8299E02A
:103210009983FA8291E09E8390EA98879AEF998742
:1032200020913F0230914002275F3F4F3C832B8328
:103230008D831092E9001092400210923F02109389
:103240003E0200933D0249E050E0BE016F5F7F4FB8
:1032500080E00E94E00E0E94060F79CF10933E029C
:1032600000933D020E941D0EDC0112960D911C91EF
:103270000115110509F451C1D801ED91FC910480AB
:10328000F581E02DBE016B5E7F4FC8010995009767
:1032900009F03EC1F80100851185EACFF3E0FF1285
:1032A0000EC08F89882309F440C0823061F440E861
:1032B00060E18EE399E10E94AE1B811148CF81E26B
:1032C0008093EB0047CF813029F440E86BE082E344
:1032D00099E1F1CF833099F70E941D0EDC0112961F
:1032E000ED90FC908E010F5F1F4F6801E114F10417
:1032F00079F0D701ED91FC910680F781E02DB801BE
:10330000C7010995080F111DF701E084F184EECF84
:10331000D8011C92F60101900020E9F73197BF0116
:103320006C197D0940E0C601C6CF6CE179E1FB0173
:10333000449150E080E80E94E00E09CF973009F4F4
:10334000BECF983021F481E08093F10000CF993016
:1033500009F0FDCE837009F0B2CFEFE2F1E081E039
:1033600031E096E32191222371F08093E9003093BC
:10337000EB00DF0111972C912093EC009093ED006E
:103380008F5F873079F78EE78093EA001092EA002A
:103390008F8980935202DBCE8B8D9C8D1092E90039
:1033A0001092400210923F0290933E0280933D02A1
:1033B000898D811192C08E899D89913A49F481321B
:1033C00009F07DCF47E050E064E071E080E0B3CFEA
:1033D000913209F074CF833269F48F89988DB0E00F
:1033E000A0E08093000190930101A0930201B093AB
:1033F0000301ADCE803269F48091E80082FFFCCFFA
:1034000067E084E091E00E94370F8BEF8093E80043
:103410009ECE823209F09BCE8F8980930B01EEEF16
:10342000FFE7859194918B3F9C4D51F1E0E0F8E0EE
:103430008091040190910501A0910601B0910701CE
:10344000803B9440A105B105F1F480910B0180FD12
:103450001AC0EE3F8AE0F80789F587E797E791837E
:103460008083809160008093410288E19BE00FB6E9
:10347000F894A895809360000FBE9093600067CE8B
:10348000EEEFFAE0D5CF808191818737974709F039
:103490005ECEA895809160008861809360008091E5
:1034A000410280936000EE3F2AE0F20789F08091AC
:1034B000FE0A9091FF0A9183808349CE8081918199
:1034C0008737980751F29093FF0A8093FE0AC5CF81
:1034D0001092FF0A1092FE0A3ACE0E941D0EDC01E5
:1034E00012960D911C910115110509F4E8CED80131
:1034F000ED91FC910190F081E02DBE016B5E7F4F5C
:10350000C8010995811123CEF80100851185EBCF03
:10351000181619060CF41BCED2CEF1E0FF12BECE67
:1035200060E279E104CF1F920F920FB60F9211243F
:103530002F933F938F939F93AF93BF9380913102CB
:1035400090913202A0913302B091340230912B025B
:1035500023E0230F2D3758F50196A11DB11D2093AF
:103560002B028093310290933202A0933302B093E6
:10357000340280912C0290912D02A0912E02B091E4
:103580002F020196A11DB11D80932C0290932D0254
:10359000A0932E02B0932F02BF91AF919F918F9174
:1035A0003F912F910F900FBE0F901F90189526E816
:1035B000230F0296A11DB11DD2CF1F920F920FB6FD
:1035C0000F9211242F933F934F935F936F937F93A9
:1035D0008F939F93AF93BF93EF93FF9380912702B5
:1035E000882389F08091260281110DC080912502E7
:1035F000811109C090915302E0915402F09155025B
:1036000080818927808380915C02882329F18091C1
:10361000210290912202A0912302B0912402892BD1
:103620008A2B8B2BC9F08091210290912202A091CC
:103630002302B09124020197A109B10980932102CC
:1036400090932202A0932302B0932402892B8A2B09
:103650008B2B11F40E947A11FF91EF91BF91AF91E2
:103660009F918F917F916F915F914F913F912F919A
:103670000F900FBE0F901F9018951F920F920FB6CC
:103680000F9211248F939F93AF93BF93EF93FF9368
:1036900080912A02882309F454C080911D029091E0
:1036A0001E02A0911F02B0912002892B8A2B8B2B26
:1036B000A1F190915602E0915702F0915802808159
:1036C0008927808380911D0290911E02A0911F0284
:1036D000B0912002181619061A061B069CF4809158
:1036E0001D0290911E02A0911F02B091200201972D
:1036F000A109B10980931D0290931E02A0931F029D
:10370000B0932002FF91EF91BF91AF919F918F9164
:103710000F900FBE0F901F901895109226021092D6
:103720002A0280916F008D7F80936F0080915602F6
:10373000E0915702F091580290818095892380830F
:10374000E1CF809125028111DDCF90915602E09169
:103750005702F091580280818927F1CFEF92FF92B2
:103760000F931F93CF93DF93F82E192FE62E042F7C
:1037700081E0860F880F0E94B20E83E00E94B20E95
:10378000CF2DD12FEC0EFD2EF11CCE15DF05B9F09B
:1037900007FF13C0FE0184910E94B20E182F80E033
:1037A0000E94B20E812321968111EFCFDF91CF913C
:1037B0001F910F91FF90EF9008958881EDCF81E0E8
:1037C000F5CFFC01138212821186128680E1838775
:1037D0001086178215868EE191E0918380838CE2BA
:1037E00091E095838483108A1786128A118A81E07A
:1037F000838B148A858B168A0895CF92DF92EF927D
:10380000FF92CF93DF93EEE5F6E01382128288EE0B
:1038100093E0A0E0B0E084839583A683B78385E43A
:1038200091E0918380838FEF9FEF9587848785E870
:1038300097E00E94E11B80E09DE09093AF068093AB
:10384000AE0688E697E00E94E11B8BE497E00E94B9
:10385000E11BE2E4F7E01082CFEFD0E0D283C18336
:10386000D483C3838AE0C82ED12CE12CF12CC582ED
:10387000D682E782F08683EC96E00E94A317E0EB05
:10388000F6E082E4808383E090E092838183D483B6
:10389000C383D683C583178210861186128613864A
:1038A000148615861686C786D08AE18AF28ADF9149
:1038B000CF91FF90EF90DF90CF900895CF93DF935B
:1038C000CDB7DEB7C458D1090FB6F894DEBF0FBE2E
:1038D000CDBF789484B5826084BD84B5816084BD99
:1038E00085B5826085BD85B5816085BD80916E009E
:1038F000816080936E0010928100809181008260CF
:10390000809381008091810081608093810080910B
:10391000800081608093800080919100826080931C
:10392000910080919100816080939100809190003E
:103930008160809390008091C10084608093C10079
:103940008091C10082608093C1008091C10081603C
:103950008093C1008091C30081608093C3008091F7
:10396000C00082608093C0008091C200816080931B
:10397000C20080917A00846080937A0080917A00FE
:10398000826080937A0080917A00816080937A00CF
:1039900080917A00806880937A001092520210928F
:1039A0004202109244028091D70081608093D70038
:1039B00080EA8093D80089B5806189BD89B582602D
:1039C00089BD09B400FEFDCF61E070E080E090E0C9
:1039D0000E94960F8091D8008F7C80618093D800E0
:1039E0008091E000807F8093E0008091E1008E7EF6
:1039F0008093E1008DE08093E200559A209A81EC5B
:103A000080937C0085B1806F85B984B1877E84B94D
:103A100084B1876E84B95E9A5F988AB1806D8AB9E5
:103A2000769A6E9881B3806F81BB899880B38D70D0
:103A300080BB80E58CBD81E08DBD85E090E00E947B
:103A4000E8125F9A85E090E00E94E8125E985C9828
:103A5000ECE2F7E084918EBD00000DB407FEFDCFCF
:103A6000319607E0E933F007A9F75C9A81E8809383
:103A700064008091650081608093650080E00E9411
:103A8000030D0E94ED1287FF15C05C9885EA8EBD7C
:103A900000000DB407FEFDCF5C9A2E982F982D984C
:103AA0008091640080628093640081E083BF889588
:103AB00013BEFCCF0E94ED1282FF48C02D980E94D9
:103AC000ED1284788438E1F40E94E61288EC90E0EC
:103AD0000E94E8122F9882E090E00E943F258F3FDD
:103AE00029F06FEF82E090E00E94472584EF91E09B
:103AF0000E94E8122F9A0E94ED1284788438D9F33C
:103B00000E94ED1284718431E1F40E94E61288EC87
:103B100090E00E94E8122E9882E090E00E943F25FB
:103B2000882329F060E082E090E00E94472584EF3E
:103B300091E00E94E8122E9A0E94ED128471843165
:103B4000D9F388EC90E00E94E812B4CF0E94E6120C
:103B500082E090E00E949A16882309F4A2C00E9495
:103B6000F51281E090E00E949A16182F1470712EC1
:103B700081FF11C011112E9801EF1FEF88E0E82E90
:103B8000F12C98E5692E0E94ED1286FF8FC02E9AC7
:103B90002F9A0E94E61282E390E00E94E8120E94AF
:103BA000ED128111F8CF0E94120D1092970710921A
:103BB000960710929507109294070E94F5120E94A2
:103BC00005110E94051189E397E00E94B31480E07B
:103BD0000E94030D88EB9BE00E94E8120E94120DE8
:103BE00010929707109296071092950710929407DB
:103BF000809164008E7F8093640080917A0080645D
:103C000080937A0080917A0086FDFCCF0091780045
:103C1000109179000E94710FAB01BC01C801B0E0A6
:103C2000A0E0DC01992788278C019D01040F151F56
:103C3000261F371FC901B80120916400216020931D
:103C40006400611571058105910511F00E9436250A
:103C5000EAE04E2E512C612C712C71EE272E76E16C
:103C6000372E8FB7F8944091310250913202609113
:103C70003302709134028FBF80919107142F181B6B
:103C8000812F90919207992309F4A7C0109393076D
:103C90001092920780E090E0892B19F30E940000B7
:103CA000DCCF109230023E983F985BCF772029F00E
:103CB0000430110511F42E9A2F9881E00E94030D13
:103CC000980117FF04C022273327201B310B2770D0
:103CD0003327C80117FD0796B3E095958795BA95E8
:103CE000E1F717FF05C00197A701421B530B9A018B
:103CF000BC017695762F662777956795625A7D4F3A
:103D0000B0E0A0E02701421A530A8E3F5FEF95070B
:103D100009F43FC06A9E50016B9EB00C112450E024
:103D200040E0F501E458F94F5F014B01F0E88F0ED8
:103D3000911C8F3F980791F0F501E40FF51FE49176
:103D40006B01C40ED51EF0E01F01022E01C0220C33
:103D50000A94EAF7F60134882328248A21153105CC
:103D600099F0F501E40FF51FE4916401C40ED51E2E
:103D7000F0E01F01042C02C0359427940A94E2F766
:103D8000F60134882328248A4F5F5F4F4835510558
:103D900081F6019660587F4F1197E1F480E00E9410
:103DA000030D8FE090E00E94E8120F5F1F4F093172
:103DB000110509F0E8CE772011F02F9A2D9880E9AF
:103DC00091E00E94E8120E94E61285E897E00E94C6
:103DD0005624E1CEA1E0B0E098CF9091900719175A
:103DE00048F48F5F891708F055CF81E083BF88952D
:103DF00013BE50CFDD24D394D09292074093910705
:103E000080918C0790918D07019690938D078093F8
:103E10008C0780918E0780938F070E94ED1280930C
:103E20008E070E94120D109297071092960710921B
:103E300095071092940780913C02823009F4D2C415
:103E400048F48823B1F1813009F44AC180E00E942E
:103E5000030D20CF833009F4FEC48430B9F788ED18
:103E600098E00E94B31480915C02811114C080918B
:103E70003502811110C0EAECF8E0F0933B02E093C8
:103E80003A02F0933902E09338020E947A11D092FC
:103E90005C02D092350288E00E94D70D8823B1F2EF
:103EA0001092370210923C020E94F61010923502D6
:103EB000CDCF86E498E10E94B31480E190E0909326
:103EC00095078093940728E330E030939707209379
:103ED000960763E571E085E897E00E94641688E044
:103EE0000E94D70D882309F4B1CFD0923C021092E2
:103EF00042074FEF50E050934407409343075093DD
:103F00004607409345074092470750924807609202
:103F1000490770924A07CE0101960E94A3178FE7C6
:103F2000FE013196A3ECB6E001900D928A95E1F77F
:103F300082E48093B00683E090E09093B206809391
:103F4000B106AFEFB0E0B093B406A093B306B09360
:103F5000B606A093B5061092B7061092B806109256
:103F6000B9061092BA061092BB061092BC061092C7
:103F7000BD061092BE064092BF065092C0066092E7
:103F8000C1067092C20680918707909188079C8332
:103F90008B8380918C0790918D079987888780917A
:103FA0008E078A8780918F078B87809190078C87F7
:103FB000809191078D87809192078E8780919307DA
:103FC0008F876EE1E62E61E0F62EFA82E9820CE23E
:103FD00011E01E830D838091940790919507998B32
:103FE000888B80919607909197079B8B8A8B809105
:103FF00098078C8B809199078D8B80919A078E8B77
:1040000080919B078F8B80E490E0998F888FE0E30D
:10401000F0E0FB8FEA8F80E18C8F8D8FBE016F5FA8
:104020007F4F88E697E00E949F15809187079091C7
:1040300088079C838B8380918C0790918D0799874B
:10404000888780918E078A8780918F078B878091E0
:1040500090078C87809191078D87809192078E873A
:10406000809193078F87FA82E9821E830D83809166
:10407000940790919507998B888B809196079091E2
:1040800097079B8B8A8B809198078C8B80919907DF
:104090008D8B80919A078E8B80919B078F8B84E408
:1040A00090E0998F888F84E390E09B8F8A8F88E0DF
:1040B0008C8F8D8FBE016F5F7F4F8BE497E00E94E6
:1040C0009F150E94741630923B0220923A02309261
:1040D0003902209238020E947A11D0925C02B6CE48
:1040E0008091B1069091B206892B31F484E08093DF
:1040F0003C020E94F610AACE80913702853010F063
:1041000083E0F5CFE0904307F09044070091C806A4
:104110001E141F040CF46AC0909142079F5F909395
:10412000420720914507309146073093440720937A
:1041300043078F5F809337028091C3069091C40636
:1041400001969093C4068093C306880F991FFC01C3
:10415000E05FFE4F808191819093C7068093C606F1
:10416000E7E3F7E080E0801719F011928F5FFBCF53
:1041700083EC96E00E949E160E94F6108091370212
:10418000853010F40E94741630923B0220923A025D
:1041900030923902209238020E947A1181E0809395
:1041A0005C024092BF065092C0066092C1067092B7
:1041B000C2060FEF10E01093B4060093B30623E09D
:1041C00030E03093B2062093B1061092BB061092F5
:1041D000BC061092BD061092BE061092B706109251
:1041E000B8061092B9061092BA0630CE80E20E944C
:1041F000D70D811105C080E40E94D70D8823C9F036
:1042000043ECC42E46E0D42E47E357E0CD57DF4FB2
:1042100059834883C358D040DA01F60180E010E0AA
:104220008017D1F110899D913B96911135C08F5F18
:10423000F7CF80E80E94D70D8111E2CF80E10E9484
:10424000D70D8111DDCF88E00E94D70D8111D8CF25
:1042500084E00E94D70D81112BC123ECE22E26E0D1
:10426000F22E37E3C32E37E0D32E10E070E060E08B
:10427000101709F421C1F701668177818085918546
:104280000E949726D6018D916D01BBE0EB0EF11CCB
:10429000811112C11F5FECCF8090C50687E397E0C4
:1042A000CF57DF4F99838883C158D04080E0912C4D
:1042B000B12CA12C70E060E0901619F1D6011A968D
:1042C000AD90BC901B9716966D917D918D919C91B0
:1042D00019970E949726CF57DF4FE881F981C1587F
:1042E000D0408191CF57DF4FF983E883C158D04048
:1042F000FBE0CF0ED11C811103C09394882DDCCF3D
:10430000882D7A836983BC82AB828D838E83BE01C4
:104310006F5F7F4F88E697E00E94D31581110DC033
:1043200080914707C058DF4F8883C058D040CE01E6
:1043300080589F4F0E94690D52C0BE016F5F7F4F32
:104340008BE497E00E94D315082F80E20E94D70DDE
:10435000882309F48EC0103219F78091B706909126
:10436000B806A091B906B091BA060196A11DB11D7B
:104370008093B7069093B806A093B906B093BA0697
:10438000002301F12091BB063091BC064091BD068F
:104390005091BE062F5F3F4F4F4F5F4F2093BB069C
:1043A0003093BC064093BD065093BE06AAE0B0E031
:1043B0000E9474256093BF067093C0068093C10667
:1043C0009093C20688E00E94D70D882341F0809127
:1043D000BF06E81AF108F0924407E09243073091D3
:1043E000C80690E080E08317A0F4FC01CD57DF4FB2
:1043F000A881B981C358D0402D91CD57DF4FB983E3
:10440000A883C358D0400196222369F3E95CF84F92
:1044100010820E941F0DD12C9BE0C92E8091C806EE
:10442000D81608F066C08D2D90E08C01095C184FFD
:10443000F80120812223D9F0C89E9001C99E300D39
:104440001124A9014D53594F7A01DA0116968D9026
:104450009D90AD90BC901997C501B4010E9497261C
:1044600061347105ACF5F80110820E941F0DD394E0
:10447000D5CF80E40E94D70D882321F0103409F0B5
:104480004FCF6BCF80E80E94D70D882321F01038E2
:1044900009F046CF62CF80E10E94D70D882321F03A
:1044A000103109F03DCF59CF183009F039CF55CF31
:1044B00082E080933C02AFCF613471050CF0ABCF4A
:1044C000809147078983CE0101960E94690DA3CF91
:1044D000D7011C962D913D914D915C911F97C5017F
:1044E000B4010E94B825F70166837783808791879E
:1044F000BECF0FE220E450E040E060E470E089E8E5
:1045000097E00E943C1300E120E440E350E060E4C7
:1045100070E089E897E00E943C1320E04DE55BE005
:1045200060E370E080E490E00E9407128FE79BE078
:104530000E94B314E12C0FE12FE140E150E060E173
:1045400070E089E897E00E946A15F12C8BE0E82E74
:104550008091C806F816A8F58F2D90E0FC01E95C63
:10456000F84F20812223F9F0E89E8001E99E100D8A
:1045700011240D53194FD80116966D917D918D918F
:104580009C9119970E949726CB01F801628573854B
:104590002089203181F048F4283079F020E04BEB7D
:1045A0005BE00E940712F394D3CF203441F020380F
:1045B000A9F722E0F4CF23E0F2CF24E0F0CF21E00E
:1045C000EECF6091430770914407072E000C880BD3
:1045D000990B0E94CF266B017C0160914507709179
:1045E000460790E080E00E94CD269B01AC01C70108
:1045F000B6010E94252620E030E040E752E40E9408
:104600005B270E949E26262FEE24E39402E041E0E1
:1046100050E061E070E089E897E00E946A1520911F
:1046200042074DE55CE070E060E090E080E00E94D1
:1046300007128091B00690E09093950780939407BD
:1046400002E010E0109397070093960764E671E08C
:1046500085E897E00E9464168091B00690E0C096CD
:10466000909395078093940710939707009396076C
:104670006091B1067091B20690E080E04AE00E943D
:1046800016168091B00690E090939507809394075A
:104690008AE090E090939707809396076BE671E02D
:1046A00085E897E00E9464166091B3067091B406A5
:1046B000072E000C880B990B0E94CF266B017C0102
:1046C0006091B5067091B60690E080E00E94CD261C
:1046D0009B01AC01C701B6010E94252620E030E015
:1046E00044E352E40E945B270E949E26262F80917D
:1046F000B006682F70E0605F7F4FEE24E39404E023
:104700004AE050E089E897E00E946A156091B0069F
:1047100070E00CE120E242E150E089E897E00E947D
:104720003C138091B00620E04FE556E162E170E075
:1047300090E00E9407128091B00690E082969093DC
:1047400095078093940702E110E010939707009378
:1047500096076EE671E085E897E00E946416809106
:10476000B00690E08A9690939507809394071093F3
:104770009707009396076091B7067091B8068091ED
:10478000B9069091BA064AE00E9416168091B006CA
:1047900090E08296909395078093940702E210E050
:1047A000109397070093960760E771E085E897E01C
:1047B0000E9464168091B00690E08A9690939507C7
:1047C0008093940710939707009396076091BF0614
:1047D0007091C0068091C1069091C2064AE00E9485
:1047E000161634CB00E310E010939507009394075E
:1047F00028E130E0309397072093960762E771E055
:1048000085E897E00E9464164CE150E050939507CC
:104810004093940784E290E09093970780939607E3
:1048200069E771E085E897E00E94641600E220E6FF
:1048300040E150E060E170E089E897E00E943C13BD
:104840000E94F61084E00E94D70D882309F4FECA66
:10485000D0923C0238CC8FE09AE00E94B314809151
:104860005C02811114C080913602811110C0A3EF47
:10487000B9E0B0933B02A0933A02B0933902A093FF
:1048800038020E947A11D0925C02D092360288E0FF
:104890000E94D70D882309F4D9CA109237021092CA
:1048A0003C020E94F61010923602D0CA0F931F935A
:1048B000CF93DF938C0181E090E00E949A1680FFF5
:1048C00032C08AE090E00E949A169FEF980F9E3FB8
:1048D00050F522E330E0D80150963C932E931F9779
:1048E00028E330E052963C932E935197CBE0D0E0F2
:1048F000D801ED91FC910190F081E02D682FC80165
:104900000995CE010E949A162196C131D10581F7F1
:1049100080E00E94030D88EE93E0DF91CF911F911C
:104920000F910C94E812DF91CF911F910F91089590
:1049300004970C9456248F929F92AF92BF92CF927D
:10494000DF92EF92FF92CF93DF93EC016881798140
:104950008A819B81611571058105910521F464E2CD
:1049600079ED8BE597E02DE133EF41E050E00E94D7
:10497000552549015A019B01AC01A7EAB1E40E9407
:1049800074256B017C01ACEEB4EFA50194010E948B
:104990008225C60ED71EE81EF91EF7FE06C081E06E
:1049A000C81AD108E10880E8F80AC882D982EA82E8
:1049B000FB82C701B6019F77DF91CF91FF90EF9007
:1049C000DF90CF90BF90AF909F908F9008958F927F
:1049D0009F92AF92BF92CF92DF92EF92FF9260913F
:1049E0000C0170910D0180910E0190910F016115E4
:1049F00071058105910521F464E279ED8BE597E07D
:104A00002DE133EF41E050E00E94552549015A0164
:104A10009B01AC01A7EAB1E40E9474256B017C0103
:104A2000ACEEB4EFA50194010E948225C60ED71EFC
:104A3000E81EF91EF7FE06C081E0C81AD108E10899
:104A400080E8F80AC0920C01D0920D01E0920E01AC
:104A5000F0920F01C701B6019F77FF90EF90DF90B2
:104A6000CF90BF90AF909F908F90089560930C016E
:104A700070930D0180930E0190930F010895F999A1
:104A8000FECF92BD81BDF89A992780B50895262F53
:104A9000F999FECF1FBA92BD81BD20BD0FB6F89423
:104AA000FA9AF99A0FBE01960895052E97FB1EF407
:104AB00000940E946C2557FD07D00E94872507FCB3
:104AC00003D04EF40C946C2550954095309521956B
:104AD0003F4F4F4F5F4F089590958095709561952A
:104AE0007F4F8F4F9F4F08950E94A925A59F900D3E
:104AF000B49F900DA49F800D911D11240895B7FFC0
:104B00000C9474250E947425821B930B0895A1E2D6
:104B10001A2EAA1BBB1BFD010DC0AA1FBB1FEE1F37
:104B2000FF1FA217B307E407F50720F0A21BB30B82
:104B3000E40BF50B661F771F881F991F1A9469F7FE
:104B400060957095809590959B01AC01BD01CF015A
:104B50000895A29FB001B39FC001A39F700D811D56
:104B60001124911DB29F700D811D1124911D089576
:104B70005058BB27AA270E94D0250C9421270E94B9
:104B8000132738F00E941A2720F039F49F3F19F4B8
:104B900026F40C9410270EF4E095E7FB0C940A27FA
:104BA000E92F0E94322758F3BA1762077307840768
:104BB000950720F079F4A6F50C9454270EF4E095AF
:104BC0000B2EBA2FA02D0B01B90190010C01CA01C7
:104BD000A0011124FF27591B99F0593F50F4503E72
:104BE00068F11A16F040A22F232F342F4427585F64
:104BF000F3CF469537952795A795F0405395C9F77C
:104C00007EF41F16BA0B620B730B840BBAF0915033
:104C1000A1F0FF0FBB1F661F771F881FC2F70EC0D2
:104C2000BA0F621F731F841F48F4879577956795A5
:104C3000B795F7959E3F08F0B0CF9395880F08F091
:104C40009927EE0F9795879508950E9439260C9421
:104C500021270E941A2758F00E94132740F029F4B8
:104C60005F3F29F00C940A2751110C9455270C949E
:104C700010270E94322768F39923B1F3552391F34B
:104C8000951B550BBB27AA2762177307840738F0BB
:104C90009F5F5F4F220F331F441FAA1FA9F335D018
:104CA0000E2E3AF0E0E832D091505040E695001CCC
:104CB000CAF72BD0FE2F29D0660F771F881FBB1F86
:104CC000261737074807AB07B0E809F0BB0B802D64
:104CD000BF01FF2793585F4F3AF09E3F510578F090
:104CE0000C940A270C9455275F3FE4F3983ED4F3C5
:104CF000869577956795B795F7959F5FC9F7880F64
:104D0000911D9695879597F90895E1E0660F771FB5
:104D1000881FBB1F621773078407BA0720F0621B46
:104D2000730B840BBA0BEE1F88F7E09508950E9471
:104D30009E266894B1110C94552708950E943A2735
:104D400088F09F5798F0B92F9927B751B0F0E1F04C
:104D5000660F771F881F991F1AF0BA95C9F714C0FC
:104D6000B13091F00E945427B1E008950C9454277B
:104D7000672F782F8827B85F39F0B93FCCF3869535
:104D800077956795B395D9F73EF490958095709592
:104D900061957F4F8F4F9F4F0895E89409C097FB0F
:104DA0003EF490958095709561957F4F8F4F9F4F02
:104DB0009923A9F0F92F96E9BB279395F695879546
:104DC00077956795B795F111F8CFFAF4BB0F11F409
:104DD00060FF1BC06F5F7F4F8F4F9F4F16C08823B0
:104DE00011F096E911C0772321F09EE8872F762FE6
:104DF00005C0662371F096E8862F70E060E02AF027
:104E00009A95660F771F881FDAF7880F9695879512
:104E100097F9089597F99F6780E870E060E008953A
:104E20009FEF80EC089500240A94161617061806C2
:104E30000906089500240A9412161306140605069E
:104E40000895092E0394000C11F4882352F0BB0F2F
:104E500040F4BF2B11F460FF04C06F5F7F4F8F4F92
:104E60009F4F089557FD9058440F551F59F05F3FCD
:104E700071F04795880F97FB991F61F09F3F79F07C
:104E800087950895121613061406551FF2CF4695FE
:104E9000F1DF08C0161617061806991FF1CF869580
:104EA0007105610508940895E894BB276627772764
:104EB000CB0197F908950E946E270C9421270E9438
:104EC000132738F00E941A2720F0952311F00C9434
:104ED0000A270C94102711240C9455270E9432277E
:104EE00070F3959FC1F3950F50E0551F629FF0013D
:104EF000729FBB27F00DB11D639FAA27F00DB11D56
:104F0000AA1F649F6627B00DA11D661F829F2227DE
:104F1000B00DA11D621F739FB00DA11D621F839F65
:104F2000A00D611D221F749F3327A00D611D231F3B
:104F3000849F600D211D822F762F6A2F11249F5789
:104F400050409AF0F1F088234AF0EE0FFF1FBB1F8C
:104F5000661F771F881F91505040A9F79E3F51054B
:104F600080F00C940A270C9455275F3FE4F3983E99
:104F7000D4F3869577956795B795F795E7959F5FF5
:104F8000C1F7FE2B880F911D9695879597F9089587
:104F9000EE0FFF1F0590F491E02D099481E090E061
:0A4FA000F8940C94D327F894FFCF87
:104FAA00FFFFFFFF00E10000000000000100000019
:104FBA0049026202840281021002000000006B139F
:104FCA00440F131612165624FCFF0000982400C141
:104FDA008081000000030186019D01BC01CF01EF21
:104FEA000100000000310EC90F520E470E980E56EE
:104FFA000E740E5072657373204120746F2073749F
:10500A00617274004C697665732000485000530041
:10501A004400506175736564004220746F20756E98
:10502A007061757365004C6574277320646F207313
:10503A006F6D6520747261696E696E6700596F756C
:10504A002063616E27742073746F70207468652002
:10505A00436F6E647563746F72732100596F7520A4
:10506A0063616E27742062656174206D6521005743
:10507A0065206E65656420746F2073746F70206F8D
:10508A00757220726F6775652042656174210059D7
:10509A006F7572205268797468756D207673206D09
:1050AA00792053796D70686F6E792E2057686F205A
:0C50BA0077696C6C2077696E213F000064
:00000001FF
