:100000000C9473060C949B060C949B060C949B0614
:100010000C949B060C949B060C949B060C949B06DC
:100020000C949B060C949B060C94FB2A0C946A2B54
:100030000C949B060C949B060C949B060C949B06BC
:100040000C949B060C94F02D0C949B060C949B0630
:100050000C949B060C949B060C949B060C949C2D74
:100060000C949B060C949B060C949B060C949B068C
:100070000C949B060C949B060C949B060C949B067C
:100080000C94E62D0C949B060C949B060C949B06FA
:100090000C949B060C949B060C949B060C949B065C
:1000A0000C949B060C949B060C949B064A015D01E4
:1000B000720188019F01B801D201EE010B022A02F0
:1000C0004B026E029302BA02E40210033F03700374
:1000D000A403DC03170455049704DD042705750504
:1000E000C80520067D06E00649070301FFB6BE18D5
:1000F0001C366E7C1C0C02010930408090F0FCFE26
:10010000FEFFFF000307070F0FA8FC8AAFA9AFAAE5
:10011000AE8AFCA8776D6F575B3D7D6E7F6B6F5C21
:100120002B777700001804F4F8F00000000804F4BE
:10013000F8F00000000004F4F8F00000000000F403
:10014000F8F00000000000F0F8F00000000000F0FF
:10015000F0F000000000181800000000001824242F
:100160001800001024429A994228102C421184A1B0
:100170009542144982000100800194AAF98DAEAC29
:10018000A8ACAE8DF9A81054547CFCF45C180000A7
:10019000090A0A3F3F2101034824AABEFEEAAE8CA9
:1001A000800805343E3E270000012828525ABCF43E
:1001B0005C180002051D3A0D3F3921015094A4B886
:1001C000F8E8F8300008120A2E3D3F1A0202003803
:1001D00074DCDC746C94200003273D3B2D0A120470
:1001E000070D040E060C0E0A0F050C0E060C0E0A67
:1001F000070D0C060E0C0C0A0F0D040E060C0C0C51
:1002000000070D0E060C0C00060D040E060C0E0960
:10021000020F050C060E0705020F050D040E06065B
:10022000060F050C060E060A18DC9CB43800000701
:100230003A22000018DC9CB43800003B270A100862
:100240000CEE4E5A1C00102B051D10000CEE4E5AE1
:100250001C0009150739200018B4ACB41800273A5F
:10026000023A27003068586830002E3505352E00D8
:1002700060D0B0D060002C3A0A3A2C00C6ADABADCD
:10028000C60008060006080098342C3418C0213A2D
:100290000B3A21000018DC9CB4381028070A120918
:1002A0008EDAFEDA8E321213131212312220BBBB09
:1002B000099BBBBBBBBBBBBBBBB010BBB111B0BFD1
:1002C00010BBBF1B00118F6AAFFF20F48020FC0120
:1002D0008F665F2BBBB3645CCCECF3CCF2808FE811
:1002E0001F275FA845F4DF888FE81F365333333B61
:1002F000F285F4430B0337F2808F699F47330BF38A
:10030000BBBBBBF48F46BBF4B03310837F4AAFFF57
:100310006716F35F881111133333333333333333B9
:100320003333333333115E335E43335E311110BBED
:10033000BBBBBBBBB21112111211112111118D02E5
:100340000D610B0D02218FC80002121BF3B0BF20FC
:1003500018DF3D5F4DF2B28F2B3333333330F4026D
:100360000FA88DF3D5F4DF318F4BBB0120BFFF17F2
:10037000316454996F2CCCCF2817F70BF4733337B3
:10038000FA145F2AAF8710113330BF881221337FF0
:100390002737F386F355F2CCCCF1BB1012128FA89D
:1003A0002112218F28217F225FE82111223333334C
:1003B00033312212121111128F2813333333333E8B
:1003C00033312220BB02111110BBBBBBBBBB0B0BDB
:1003D000BF2121BBBBB0211D182120BF5B46BFFF41
:1003E0004820F7BBDBB0208FE71CCECCCCF188F2E5
:1003F0007318FADF368F273333333336458F2DF5B5
:1004000018F28118FADF355F20120BBF1BB01658A7
:10041000F2DF528F28218F2737F5DF27206F3BF837
:10042000BB18F2DF37321F28128F3BBBBBB0333310
:100430001017FD817F1DF981187F90B02222333380
:10044000333337F2711133333333333111113333E3
:100450003CEF5B501BBBBBBBBBBBF2451BB054505E
:100460000110BBB0560BBBBF1DF6606FBEC568F573
:100470005F20BFB5F1DF655F2CCCC5F4D99513E2E1
:10048000565FD599CECCCCCC5056F55F4DAA611DA8
:100490001145CECCCCCC55F35AAF1DF65045F55C8A
:1004A000CCCC0550F2B015F1DF616CEC456F1DF25C
:1004B0005E4560699CCECBF76F50645CEF485F1D72
:1004C000F3BBBBBBDF19905AAF2DFC5F7DF27315F8
:1004D000F1DF9DF1AA45653333333333333333339F
:1004E000333333331133333333333333330000187F
:1004F000002800390043005400660071008900A103
:1005000000B200C300D400E200F70005011D013570
:100510000142015001620178018C019801AF01C6CE
:1005200001D201E401F8010E022202300248020861
:10053000087AFAFA6A3A38080000071C181F1610E1
:100540000008087AFAFA6A3A380800001F1E1C0BE5
:100550000E0C060404B57D7DB51D1C0400081D1F8E
:10056000060C0F08040404B5FD7DB51D1C040C1E0B
:10057000071C1E1713000008087AFAFA6A3A3808AE
:100580000000071E1C1916100008087AFAFA6A3AC9
:1005900038080000071E1C1C1711001010F4F4F49A
:1005A000D474701000000E19111E1C10000818F0F1
:1005B000F4E4A8C8D080000C1E03031D1D11000424
:1005C00004BD7D7DB51D1C04040F1C1603070E0C15
:1005D000063C4299BDBDBD9942BC04060E0F071FE3
:1005E0001E03013C4299BDBDBD99423C03031D1F42
:1005F000071F1D0303BC4299BDBDBD99423C0103C9
:100600001E1F070F0E0604C8887AAABAAA7A88C8DD
:100610000001171F0A1F17010008087AAABAAA7A50
:1006200008080103171F0A1F17030108087AAABA4E
:10063000AA7A08080603171F0A1F17030600C0E05E
:10064000E4F49D3D7DF59D9C0480C0E0E4F41D7DB7
:10065000FDF59D1C04C0C0E0E4B41DDDFDB51D1C0E
:1006600004101038380010383810003038101028B6
:10067000301010182810103818C0F0C0C0E0C0802A
:10068000D0C040B0C0C07080C0F040030F0303076B
:1006900003010B03020D03030E01030F020FFF1FE3
:1006A00000000810000004102000040000084000B2
:1006B000100000042000000000F0FFF87CEACEEA01
:1006C0007CD5F08D14A1C881CFD9F1AF20001402E0
:1006D0001302120215020702080204010C010601AE
:1006E00000060F7B321E150D06C653993C6E2499E9
:1006F000C2E775B6E348169BDFC7539B3B6B2B9352
:10070000C77F7B7F6F7F7D7F7F7F5F7B7F7F6F7FFB
:10071000007777757757777700C7539B2B73070F51
:100720000EC693A9743D9B63C0FE85354F4D35873A
:10073000FDFFFFE7C3CFC3A2670203010103070662
:10074000030305030503050300FF1111111111FF38
:1007500000FF1513151315FF00180E031E1D171D9E
:100760001E1C1E1D01021C1E07050301010E111196
:100770000E00121F10191515121115150A0C0A1F5B
:1007800008171515090E151509011905030A151580
:100790000A1215150E060F1E0F0600000000240099
:1007A00027002A002D00300000000000250028004E
:1007B0002B002E003100040404040403040502028B
:1007C00002020403020202020606060606060404EA
:1007D000020202040404080201104080401020407C
:1007E0008040800802040180402010020110801027
:1007F000204040200000000200090F000003040117
:10080000000C0000000000000000000000000000DC
:10081000000000080B0002020200000904000001B1
:100820000202000005240010010524010101042436
:100830000206052406000107058103100040090493
:100840000100020A0000000705020240000007053F
:1008500083024000000403090412010002EF0201B8
:100860004041233680000101020301417264756931
:100870006E6F204C4C430041726475696E6F204C62
:10088000656F6E6172646F00000000000000005F21
:1008900000000007000700147F147F14242A7F2A19
:1008A00012231308646236495620500008070300DB
:1008B000001C2241000041221C002A1C7F1C2A0827
:1008C000083E08080080703000080808080800008A
:1008D00060600020100804023E5149453E00427FFE
:1008E000400072494949462141494D331814127F4D
:1008F0001027454545393C4A4949314121110907ED
:100900003649494936464949291E0000140000006D
:10091000403400000008142241141414141400413F
:1009200022140802015909063E415D594E7C1211FC
:10093000127C7F494949363E414141227F41414134
:100940003E7F494949417F090909013E41415173AF
:100950007F0808087F00417F41002040413F017F20
:10096000081422417F404040407F021C027F7F04E8
:1009700008107F3E4141413E7F090909063E415131
:10098000215E7F09192946264949493203017F0121
:10099000033F4040403F1F2040201F3F4038403F22
:1009A000631408146303047804036159494D430038
:1009B0007F4141410204081020004141417F04026F
:1009C0000102044040404040000307080020545406
:1009D00078407F28444438384444442838444428E4
:1009E0007F385454541800087E090218A4A49C7837
:1009F0007F0804047800447D40002040403D007F93
:100A00001028440000417F40007C047804787C0872
:100A10000404783844444438FC1824241818242446
:100A200018FC7C08040408485454542404043F442B
:100A3000243C4040207C1C2040201C3C4030403C5A
:100A400044281028444C9090907C4464544C4400BA
:100A5000083641000000770000004136080002011E
:100A60000204023C2623263C1EA1A161123A40400A
:100A7000207A385454555921555579412154547888
:100A800041215554784020545579400C1E52721221
:100A900039555555593954545459395554545800A9
:100AA00000457C410002457D420001457C40F02923
:100AB0002429F0F0282528F07C5455450020545472
:100AC0007C547C0A097F49324949493232484848B6
:100AD00032324A4848303A4141217A3A42402078FD
:100AE000009DA0A07D39444444393D4040403D3CF8
:100AF00024FF2424487E4943662B2FFC2F2BFF091B
:100B000029F620C0887E090320545479410000440E
:100B10007D413048484A32384040227A007A0A0AF9
:100B2000727D0D19317D2629292F2826292929266C
:100B300030484D4020380808080808080808382FB1
:100B400010C8ACBA2F102834FA00007B000008143B
:100B50002A142222142A14089500220095AA00556E
:100B600000AAAA55AA55AA000000FF00101010FF05
:100B700000141414FF001010FF00FF1010F010F00C
:100B8000141414FC001414F700FF0000FF00FF14FD
:100B900014F404FC141417101F10101F101F141449
:100BA000141F00101010F0000000001F1010101093
:100BB0001F10101010F010000000FF101010101087
:100BC00010101010FF10000000FF140000FF00FFC5
:100BD00000001F10170000FC04F414141710171461
:100BE00014F404F40000FF00F71414141414141483
:100BF000F700F7141414171410101F101F141414F6
:100C0000F4141010F010F000001F101F0000001F5F
:100C100014000000FC140000F010F01010FF10FF92
:100C2000141414FF141010101F00000000F010FF27
:100C3000FFFFFFFFF0F0F0F0F0FFFFFF000000000B
:100C400000FFFF0F0F0F0F0F38444438447C2A2A4F
:100C50003E147E02020606027E027E026355494170
:100C6000633844443C04407E201E2006027E02027B
:100C700099A5E7A5991C2A492A1C4C7201724C308F
:100C80004A4D4D303048784830BC625A463D3E4966
:100C90004949007E0101017E2A2A2A2A2A44445F0A
:100CA000444440514A444040444A51400000FF01FE
:100CB00003E080FF000008086B6B0836123624360C
:100CC000060F090F060000181800000010100000A1
:100CD0000004000000040E040004041F04040404C3
:100CE0001F0404000B2E11241FBECFEFDAE0DEBF7D
:100CF000CDBF13E0A0E0B1E0E0EDFBE602C005905F
:100D00000D92A230B107D9F729E0A2E0B3E001C00B
:100D10001D92A635B207E1F716E0C3E7D6E004C09E
:100D20002197FE010E94DB35C237D107C9F70E9427
:100D3000892F0C94E6350C940000462F4770669579
:100D40006695669590E8699FB00111246B517C4FC0
:100D5000860F972F911DFC01818990E021E030E002
:100D6000042E02C0220F331F0A94E2F7822393233A
:100D700002C0959587954A95E2F708952F923F9284
:100D80004F925F926F927F928F929F92AF92BF929B
:100D9000CF92DF92EF92FF920F931F93CF93DF9347
:100DA000CDB7DEB72A970FB6F894DEBF0FBECDBF22
:100DB0005E834D83EF82E82F082E000CFF0B822EFE
:100DC000912CAF01480D591D57FDFEC0462F062E30
:100DD000000C550BDA01A00FB11DB7FDF5C0603452
:100DE0000CF0F2C057FF03C0519541955109942F63
:100DF0009770362F67FF02C037E0360F359535956F
:100E0000359567FF04C048E0491B942F315048E0F6
:100E1000491B4987069506950695682F6195482FC9
:100E2000440F440B6423688740E8442E512C4E1A2B
:100E30005F0A841495040CF424012150288422199B
:100E4000CC2009F451C02A872FEF298320E83203F0
:100E500050011124030F0C8370E060E0712C612CB1
:100E6000CC24C394D12C3F3F0CF488C0A50140583A
:100E70005F4F5B834A8318850A8514150CF07EC08A
:100E8000582E510EE02E002E000CFF08F701E60D43
:100E9000F71D2D803E80E20DF31DE4913F3F09F4E4
:100EA00096C04E2F092E01C0440F0A94EAF7D501CF
:100EB000A50DB11D57FCBA95AB51BC4F5196FC9195
:100EC00051972F2E242249F0160102C0220C331C08
:100ED000EA94E2F7710162297F292F81213049F4D8
:100EE0004F2B51964C930CC048854A8751E059834B
:100EF000ADCF2F8021102DC04095F4235196FC9347
:100F0000992399F1373089F1AA81BB81A50DB11DD3
:100F100057FCBA95F0E0098402C0F595E7950A946C
:100F2000E2F7AB51BC4F5196FC9051974F2D4E2399
:100F300049F0A601002E02C0440F551F0A94E2F7A3
:100F4000642B752B4F81413049F4EF295196EC9376
:100F50000CC02F812230A1F64F27C3CF5F815111E2
:100F600008C0E095FE225196FC924981040F1F5F54
:100F700084CF2F812230C9F7EF25E8CF3F5F680C7F
:100F8000791C50E8A50EB11C2C80321519F03830B0
:100F900009F069CFCB012A960FB6F894DEBF0FBED9
:100FA000CDBFDF91CF911F910F91FF90EF90DF9018
:100FB000CF90BF90AF909F908F907F906F905F90F9
:100FC0004F903F902F90089570E060E0E3CF911133
:100FD0009BCFCBCF86EF93E020E0B22FB111BFEFD4
:100FE000FC010024B193B193B193B1930394D1F771
:100FF0000895CF93DF93CDB7DEB729970FB6F89456
:10100000DEBF0FBECDBF8230F4F099E0E4E3F1E043
:10101000DE01119601900D929A95E1F789300CF05E
:1010200088E0E1E0F0E0EC0FFD1FE80FF11D87FD27
:10103000FA95808129960FB6F894DEBF0FBECDBF1A
:10104000DF91CF91089580913D0190913E01A09153
:101050003F01B091400189839A83AB83BC83E62F23
:10106000660FFF0BF595E79581E090E08C0F9D1FD3
:10107000E80FF91F608170E08091EB039091EC0321
:101080000E94B3359C0181E0232BA1F280E0D2CFF6
:10109000FC0180917C03882311F13FB7F89482E032
:1010A0008093E9002091F200822F90E01816190633
:1010B00014F481E090E0882339F0289844E64093C6
:1010C0007B034091F1004083222339F02091F2000C
:1010D000211103C02BE62093E8003FBF08958FEF56
:1010E0009FEF08952FB7F89483E08093E9009091E3
:1010F000E800892F807295FF04C09091F20080E48F
:10110000891B2FBF08958091730381110DC082E068
:1011100080936F0384E080937003109272031092A7
:10112000710381E0809373038FE693E00895CF937A
:10113000DF931F92CDB7DEB76983DC01ED91FC919F
:101140000280F381E02D41E050E0BE016F5F7F4FF0
:1011500009950F90DF91CF91089583E08093E90086
:101160008091F200882319F08AE38093E8000895C3
:101170000E94720890E00895CF93DF931F92CDB73D
:10118000DEB7FC018485958597FD08C02FEF3FEF02
:10119000358724870F90DF91CF910895CE01019676
:1011A0000E944808019719F4898190E0F3CF8FEFEE
:1011B0009FEFF0CF0F931F93CF93DF931F92CDB785
:1011C000DEB78C01FC018485958597FF0BC0CE01AD
:1011D00001960E944808019771F4898190E0F80116
:1011E00095878487F801848595850F90DF91CF914D
:1011F0001F910F9108958FEF9FEFF1CFFC01848530
:10120000958597FD0BC09FB7F89482E08093E90025
:101210008091F2009FBF90E0019608959FB7F894E7
:1012200082E08093E9008091F2009FBF90E00895F2
:101230004091690350916A032091670330916803DC
:1012400042175307B4F49091E8009570E1F3909140
:10125000E80092FD19C08093F1008091690390919C
:101260006A0301968F739927892B19F48EEF809367
:10127000E8008091690390916A03019690936A0354
:101280008093690381E0089580E00895EF92FF92D2
:101290000F931F93CF93DF93F82E192FE62E042F71
:1012A00081E0860F880F0E94180983E00E941809C8
:1012B000CF2DD12FEC0EFD2EF11CCE15DF05B9F090
:1012C00007FF13C0FE0184910E941809182F80E0C7
:1012D0000E941809812321968111EFCFDF91CF91D0
:1012E0001F910F91FF90EF9008958881EDCF81E0DD
:1012F000F5CFDF92EF92FF920F931F93CF93DF937F
:10130000D82E8A01EB017B01E40EF51ECE15DF0518
:1013100059F0D7FE12C0FE0184910E94180921964F
:101320008111F4CF0FEF1FEFC801DF91CF911F9113
:101330000F91FF90EF90DF9008958881EECF0F938B
:101340001F93CF93DF931F92CDB7DEB782E08983DF
:1013500042E450E063E178E080E80E9479090E946D
:101360008308DC0112960D911C910115110589F07D
:10137000D801ED91FC910280F381E02DBE016F5FF9
:101380007F4FC801099597FD04C0F80100851185BC
:10139000ECCF89810F90DF91CF911F910F9108952C
:1013A000615030F02091F100FC0120830196F8CFCC
:1013B000289884E680937B030895282F30E0F90174
:1013C000EC50F84F9491F901EB52F84F84912A5464
:1013D000384FF9012491222309F430C09923E9F010
:1013E00091509F30D0F4E92FF0E0E750F64F0C9485
:1013F000DB35270A2B0A080A1F0A230A0D0A0D0AE1
:101400000D0A2E0A340A380A3C0A420A0D0A460A14
:10141000909180009F7790938000E22FF0E0EE0F94
:10142000FF1FE855F84FA591B4919FB7F894EC9140
:10143000611132C080958E238C939FBF0895909147
:1014400080009F7DE8CF90918000977FE4CF94B596
:101450009F7794BDE2CF94B59F7DFBCF9091900094
:101460009F7790939000D9CF909190009F7DF9CF76
:1014700090919000977FF5CF9091C0009F779093C7
:10148000C000CBCF9091C0009F7DF9CF9091C2005A
:10149000977F9093C200C1CF8E2BCECFCF93DF9397
:1014A00090E0FC01EB52F84F24918A54984FFC01D4
:1014B00084918823C9F090E0880F991FFC01E656BB
:1014C000F84FA591B491FC01E855F84FC591D4911E
:1014D00061110DC09FB7F8948C91209582238C9355
:1014E0008881282328839FBFDF91CF9108956230A0
:1014F00051F49FB7F8943C91822F809583238C936D
:10150000E8812E2BEFCF8FB7F894EC912E2B2C93F4
:101510008FBFEACF1F93CF93DF93182FEB0161E0CA
:101520000E944E0A209739F460E0812FDF91CF911D
:101530001F910C94DD09CF3FD10511F461E0F5CF87
:10154000E12FF0E0EC50F84FE491E150EF3008F07B
:101550007FC0F0E0E255F54F0C94DB35BD0AC50ABB
:10156000CA0AD40ADE0A280B280B280BE80AF20A5A
:10157000FC0A060B130B280B1B0B84B5806884BD7B
:10158000C7BDDF91CF911F91089584B5806284BD5E
:10159000C8BDF7CF80918000806880938000D09391
:1015A0008900C0938800EDCF809180008062809395
:1015B0008000D0938B00C0938A00E3CF809180009D
:1015C000886080938000D0938D00C0938C00D9CF29
:1015D00080919000806880939000D0939900C09390
:1015E0009800CFCF80919000806280939000D0933C
:1015F0009B00C0939A00C5CF809190008860809333
:101600009000D0939D00C0939C00BBCF8091C00000
:1016100080688093C0008091C0008F7B8093C00061
:10162000C093CF00AECF8091C00080628093C00095
:10163000C093D000A6CF8091C20088608093C20082
:101640008091C2008B7F8093C200C093D20099CF5B
:10165000C038D1050CF072CF67CF3FB7F8948091B6
:10166000630390916403A0916503B091660326B56E
:10167000A89B05C02F3F19F00196A11DB11D3FBFCA
:10168000BA2FA92F982F8827BC01CD01620F711D99
:10169000811D911D42E0660F771F881F991F4A9593
:1016A000D1F708958F929F92AF92BF92CF92DF921F
:1016B000EF92FF924B015C010E942D0B6B017C01AC
:1016C0000E942D0B6C197D098E099F09683E73409D
:1016D00081059105A8F321E0821A9108A108B108BB
:1016E00088EEC80E83E0D81EE11CF11C8114910421
:1016F000A104B10429F7FF90EF90DF90CF90BF9045
:10170000AF909F908F9008958F929F92AF92BF92CB
:10171000CF92DF92EF92FF920F931F93CF93DF93BD
:101720006C017B018A0180912C01882309F45CC043
:1017300080917C03882309F457C080916E0380FF59
:1017400005C08091E00082608093E000E801B12C48
:101750008AEFA82E93E0892E2AE3922E209711F487
:10176000BB20D9F10E94720881110AC0AA94AA2054
:10177000D9F161E070E080E090E00E94520BEECF82
:101780008C171D0611F00CF08C2F9FB7F8948092E7
:10179000E9002091E80025FD02C09FBFDFCF282F80
:1017A00030E0C21BD30BF701815020F041914093F0
:1017B000F100FACFE20EF31EBB2021F09092E80078
:1017C000B12CEBCF8091E80085FDE7CF9092E80047
:1017D000BB24B394209709F3F3CF5D9884E68093FC
:1017E0006D03101611063CF081E090E0F601938342
:1017F000828310E000E0C801DF91CF911F910F912B
:10180000FF90EF90DF90CF90BF90AF909F908F9020
:101810000895AF92BF92CF92DF92EF92FF920F9313
:101820001F93CF93DF936C017B018B01040F151F76
:10183000EB015E01AE18BF08C017D10759F06991DE
:10184000D601ED91FC910190F081E02DC601099542
:10185000892B79F7C501DF91CF911F910F91FF90EF
:10186000EF90DF90CF90BF90AF90089580914A03A2
:10187000815080934A03089590911401913031F47E
:101880008093150186E0809314010895209115013D
:10189000281306C0943078F0915090931401089565
:1018A000963018F49F5F9093140190911401963034
:1018B00011F4809315010895909141032091400304
:1018C000920F691760F4442319F08093410308953F
:1018D0006150609341038FEF809340030895981700
:1018E00018F09093410308958F5F8093410381E046
:1018F000F3CF88E080932D0189E08093410381E05C
:101900008093400380931401089586E080932D0115
:1019100087E0809341038FEF80934003809115010E
:10192000811109C080912E0190912F01039690930F
:101930002F0180932E01089580912D01873049F465
:1019400080913D03882329F0809194038B5F8093DD
:10195000940383E080932D0188E08093410381E02C
:101960008093400310923C038BE080933B031092E2
:101970003A03089510922D011092410381E0809363
:1019800040038093140108951F93CF93DF93A82FF2
:10199000B0E035E0839FF0011124E050FF4F8381D8
:1019A0008F5F8383C82FD0E01481382F1303C001C9
:1019B000112497FD0F9634E0959587953A95E1F7B8
:1019C00035E03A9FF0013B9FF00D1124E050FF4FAE
:1019D0000190F081E02D8E0F9F1FFB01918380838A
:1019E000CE01820F911D27FD9A959C012C9FC0016D
:1019F0002D9F900D3C9F900D112497FD0F9624E094
:101A0000959587952A95E1F795E09A9FF0019B9F20
:101A1000F00D1124E050FF4F9281890FFA0180836D
:101A2000DF91CF911F91089590E0880F991FFC01DD
:101A3000EA5EFE4F30813F5F30832181422F50E0CC
:101A4000DA01AB56BE4FAC910A2E000CBB0B3A1715
:101A50001B06ACF0108247575E4FDB013C91DA0168
:101A60004C91340FDB013C93243010F02150218342
:101A70008A5E9E4FFC0191818BE0891B089580E076
:101A800008959C01E0E0F1E090E084E0A081B18164
:101A9000A837BC4E09F4892F9F5F35969430B1F773
:101AA000843059F095E0899FF0011124E050FF4FF8
:101AB000318320836283138244830895E6E1F1E059
:101AC00090E084E021812F3F09F4892F9F5F3296B7
:101AD0009430C1F7843049F0E82FF0E0EE0FFF1F9B
:101AE000EA5EFE4F10829BE0918308952F923F9211
:101AF0004F925F926F927F928F929F92AF92BF921E
:101B0000CF92DF92EF92FF920F931F93CF93DF93C9
:101B1000CDB7DEB72A970FB6F894DEBF0FBECDBFA4
:101B200089836C834D838091840390918703980F00
:101B30009E83805F90918803890F8F8380917F03BC
:101B400020918203280F2A87885F8887622E712C54
:101B5000F301EE0FFF1FE351FB4FA590B4902295C8
:101B6000207F2A83512C412C8A859885891708F07B
:101B7000C1C0F301E40DF51DEE0FFF1FE151FB4F56
:101B80002590349080917F03FA84F81AFF0CFF0CA3
:101B9000FF0C8091810326E0281BF20E89818111C0
:101BA00007C0DD24D3949D819F1554F0D12C08C02B
:101BB00029812C30D9F7DD24D3948D818F15B4F38E
:101BC000812C9924939485E01FEFA214B30408F0AC
:101BD00086C0992099F0F501EB55FD4F94919B83B8
:101BE00092959F709987882069F08985180F812CBC
:101BF0008FE091E09926A90CB11CE7CF2B812F70C3
:101C00002987F1CF99859F3009F466C01F5F2E8127
:101C1000121778F39F81191708F061C029852E30BB
:101C200049F499819D3079F42C812D3009F448C014
:101C30008DE0DFCF298599812917A8F19C81921722
:101C4000B8F32C3029F4D11030C0812C8CE0D1CFE6
:101C50002985253010F02B3051F59A81912BC92E12
:101C6000CC0CCC0CC9269C2D9695969596959C25CA
:101C70009170298588E0289FA00111244F51594F68
:101C800080918403212F281B822F880F880F880FB3
:101C900030918603C92EEE24E39408E028E06F2DEE
:101CA000831B0E94BE068985A4CF9CE099879985F5
:101CB0009750923040F491E08F30D9F290E0D9CF34
:101CC0002DE02987F4CF998599509230B8F791E0AB
:101CD00029858213F3CFCDCF882483948ACF2A8598
:101CE0002F5F2A878FEF481A580A9A81905F9A834C
:101CF00051013ACF2A960FB6F894DEBF0FBECDBF82
:101D0000DF91CF911F910F91FF90EF90DF90CF90D7
:101D1000BF90AF909F908F907F906F905F904F900B
:101D20003F902F90089580914C0380934A0308952B
:101D3000CF92DF92EF92FF920F931F93CF93DF9397
:101D40007C019091910380919203891790F4909374
:101D500092038091850380938E038091800380930A
:101D60008D0380918C0380938B0380918A038093F1
:101D7000890380912D01893008F474C0D62FC09159
:101D80009203C11138C08FEF8093200980932109FD
:101D9000F0922F01E0922E01D093940380914A0398
:101DA00080934C0385E080934E0380934D03EBE1D9
:101DB000F8E023E438E09FEF968385818F7D85836B
:101DC00038962E173F07C1F7E8EFF7E02BE138E030
:101DD00095E085818F7D8583968337962E173F0703
:101DE000C1F7DF91CF911F910F91FF90EF90DF909E
:101DF000CF900C94BA0C8C2F877021E030E06901F1
:101E000001C0CC0C8A95EAF70C2F0695069506952D
:101E100010E0065E164FF80186818C2121F48AE1DC
:101E200099E00E94360CF8018681C82AC6828C2F60
:101E30008D7F893009F0ACCFCF5FC77001E010E033
:101E400001C0000FCA95EAF780912109802321F48F
:101E50008AE199E00E94360C80912109082B0093B9
:101E6000210996CFDF91CF911F910F91FF90EF90B5
:101E7000DF90CF900895E0919103ED3048F4F0E0C9
:101E8000EE0FFF1FE159FE4F0190F081E02D099404
:101E9000089510929303809392038093910380930B
:101EA000900391E090938F0310928E0360938D03C3
:101EB00010928C0310928B0360938A0360938903C2
:101EC000109284031092850360937F0360938003D4
:101ED000882349F080E280937E038BEF80937D031B
:101EE00081E00C943B0F80E0F6CF70E0660F771F27
:101EF000FB01E351FB4F25913491FB01E151FB4F75
:101F00006591749151E0580F40E090E02617370733
:101F100044F5F901EB55FD4FE4918E2F82958F70BA
:101F2000411106C08F3091F09F5F591305C008958D
:101F3000980F9517C0F440E08E2F8F70411108C0A4
:101F40008F3069F09F5F591307C0089541E0F4CFC7
:101F5000980F951740F440E02F5F3F4FD7CF41E0F7
:101F6000FBCF84E008958FE0089597FD079623E066
:101F7000959587952A95E1F78033910560F46695EC
:101F8000669566950E94750F93EF980F81E09230E9
:101F900008F080E0089584E0F7CF0F931F93CF936C
:101FA000DF93042F97FD0796EC01E3E0D595C795E5
:101FB000EA95E1F7C033D10508F051C0162F169508
:101FC00016951695612F8C2F0E94750F982F8F30C4
:101FD000D1F560919303AAE0B3E090E06917C1F1F5
:101FE000ED91FD91858180FF2CC024812695269559
:101FF0002695121326C0428153819A0157FF02C0D1
:10200000295F3F4F73E0359527957A95E1F7C21721
:10201000D30741F485FB882780F9DF91CF911F9189
:102020000F9108959A01285F3F4F37FF02C0295F43
:102030003F4F43E0359527954A95E1F7C217D307FF
:1020400049F39F5FCBCF011106C081E09D3029F796
:1020500080E0E3CF94E081E09B30F8F2F9CF01110A
:10206000F9CF81E0DACFDF92EF92FF920F931F93C7
:10207000CF93DF936623A1F1FC01E280F380FA01A4
:102080003896EE15FF0564F1F7013896E417F50769
:102090003CF1D22F8C01FC01C481C695C695C69532
:1020A000DD24D394DC0ED695D695D695FFEFEF1AA6
:1020B000FF0ACC0FCC0FCC0FDD1550F0C85F40E00D
:1020C0006C2FC7010E94CD0F81110AC0D394F4CFA9
:1020D000F8018581806485830E945E0DF801818707
:1020E000DF91CF911F910F91FF90EF90DF900895B6
:1020F000FB0142815381358135FB662760F92481DC
:102100000C943310EFE7F3E09081990F990F990F3A
:102110002281920F891B8A5F0895E4E8F3E09081A1
:10212000990F990F990F891B9281891B0895CF925E
:10213000EF920F931F93CF93DF938C01FC01828169
:1021400093810E948D10D82FF80184810E94821003
:10215000C82FC12CEE24E39408E023E049EB56E0BD
:10216000682F8D2F0E94BE0661E06C0FCC24C394B3
:1021700023E049EB56E084E08D0F0E94BE06DF911C
:10218000CF911F910F91EF90CF900895AF92BF9292
:10219000CF92EF920F931F93CF93DF935C01C62FE3
:1021A000FC0184810E948210182F0C2E000CDD0B84
:1021B000F501828193818C0F9D1F0E948D10C12C8F
:1021C000EE24E39408E023E04DE956E0612F0E94FD
:1021D000BE06F50184818F5F0E948210182FF501E1
:1021E0008281938104968C0F9D1F0E948D10CC24B8
:1021F000C39423E04DE956E0612F0E94BE06DF91B3
:10220000CF911F910F91EF90CF90BF90AF90089515
:10221000CF92EF920F931F93CF93DF93EC01623035
:1022200079F59E812091EB033091EC03911130C040
:10223000C9016AE570E00E94B335892B11F481E091
:102240008E838A819B810E948D10182F8C810E9421
:102250008210682F9D81892F80714E8196FF27C043
:1022600093E0499FA00111248823F1F04557594F6D
:10227000C12CEE24E39408E023E0812F0E94BE06E7
:1022800080E0DF91CF911F910F91EF90CF90089553
:1022900023703327232BA9F6892F90E0019666E05F
:1022A00070E00E94C735CCCF4758594FE1CFCC24BE
:1022B000C394811101C0C12C84E0489FA001112466
:1022C0004F59594FEE24E39408E024E0D6CFCF9243
:1022D000EF920F93CF93E82E80912E0190912F01D2
:1022E0000E948D10C82F809194030E948210682F45
:1022F000C09015014091410380912D01873089F4F0
:102300008CE0489FA0011124435C594F6B5F08E0AB
:102310002CE08C2F0E94BE06CF910F91EF90CF90B2
:10232000089582E1489FA0011124415D5A4F00E1C8
:1023300029E0EFCFAF92BF92CF92DF92EF92FF9260
:102340000F931F93CF93DF937C01062F142F862FBB
:102350000E948210C82FC12ED12C5601AE0CBF1C7A
:102360008034B0F040E0602FC7010E94CD0F811192
:102370002FC040E0602FC501DF91CF911F910F91D9
:10238000FF90EF90DF90CF90BF90AF900C94CD0F67
:10239000C7010E948D10D82F87FD13C0C5010E9470
:1023A0008D1087FDE6CF80E890E08D1B9109D7FD69
:1023B00093958C159D05C4F0D7FF18C01D0FD0E074
:1023C00015C040E0602FC7010E94CD0F882331F374
:1023D00081E0DF91CF911F910F91FF90EF90DF90FF
:1023E000CF90BF90AF90089510E81D1B8C2F877081
:1023F00031E001C0330F8A95EAF7C695C695C695B8
:1024000020E8C29FC00111248D0F911D8A509C4F5E
:10241000FC012E2F281B211720F421912323C9F31F
:10242000D7CF80E0D6CF40912D01473009F044E06E
:1024300020912E0130912F01682FC90102960C9432
:102440009A110F931F93CF93DF93062FD42FC22F90
:102450000E948D10182F802F0E948210982F4D2FD0
:1024600050E0410F511D17FD5A9557FD0BC02C2F01
:1024700030E0280F311D87FD3A9537FD03C081E01C
:1024800090340CF080E0DF91CF911F910F9108956F
:10249000EF92FF920F931F93CF938C017B01C0E0CB
:1024A00080919303C81788F4EC2FF0E0EE0FFF1F24
:1024B000E65FFC4F60817181FB01858181FF03C074
:1024C000C801F7010995CF5FEBCFCF911F910F9115
:1024D000FF90EF9008958F929F92AF92BF92CF920C
:1024E000DF92EF92FF920F931F93CF93DF9300D071
:1024F00000D000D01F92CDB7DEB75C01683009F480
:102500007AC0693009F4CDC0623031F4DC0115962F
:102510008C91159785FD14C080E027960FB6F8942E
:10252000DEBF0FBECDBFDF91CF911F910F91FF9006
:10253000EF90DF90CF90BF90AF909F908F900895D5
:1025400086FD3EC040912E0150912F0161E08091A7
:102550002D01893008F060E020919403C5010E94AC
:10256000331068E770E1C5010E94481287E0E1E49A
:10257000F1E0DE01119601900D928A95E1F78090CD
:10258000EB039090EC0328E730E0E8E8E20FC401A9
:10259000B9010E94B335892B61F481E090E08C0F82
:1025A0009D1F8E0F911DFC016081C5010E94C61008
:1025B000B3CF2F5F3F4F2F37310539F760E0F5CFAD
:1025C00019968C91843028F4B5016C5F7F4F0E947E
:1025D000140DF5016481685F40E0828193810E945F
:1025E000CD0F882359F3D50115968C9115978F7DC2
:1025F00015968C93E3CFFC01858185FD8DCF80916D
:10260000EB039091EC0363E070E00E94B335892BFB
:1026100031F4808594819F5F94838F5F8087D5019B
:1026200018968C911897853068F01996EC91E430E3
:1026300038F4F0E0EE0FFF1FEA5EFE4F8FEF81836C
:1026400081E06BCF833020F460E0C5010E94C610AA
:10265000912C812C25E0D22EF501108584818E5F8E
:10266000811B0E948210F82ED50112968D919C91AB
:10267000880D991D0E948D101D9DA00111244056AA
:10268000594FC12C92E0E92E08E025E06F2D0E9401
:10269000BE06B4E08B0E911CE8E08E169104E1F6C4
:1026A0003BCFDC0115968C9115978F7B15968C93FB
:1026B000159718961C9230CFE0919303E150E09368
:1026C0009303F0E0EE0FFF1FE65FFC4F20813181A6
:1026D000E82FF0E0EE0FFF1FE65FFC4F3183208311
:1026E0000895CF93DF93D82FC0E080919303C8174C
:1026F000C0F4EC2FF0E0EE0FFF1FE65FFC4F80818F
:102700009181DC01ED91FC910190F081E02D6D2F24
:102710000995882321F08C2F0E945C13C150CF5F54
:10272000E4CFDF91CF910895CF93C0E080919303E0
:10273000C817C0F4EC2FF0E0EE0FFF1FE65FFC4F70
:102740000190F081E02D28E048E06481828193814E
:102750000E942112811104C08C2F0E945C13C15071
:10276000CF5FE4CFCF910895FF920F931F93CF9344
:10277000DF93EC01F98018818F2D811B1816C4F4AA
:102780000A81602F0E94F907800F8A831B8291E0E3
:102790009C8388303CF188508A831F5F1883F11234
:1027A00021C0DF91CF911F910F91FF900C94941352
:1027B0008823B1F00A81602F619581950E94F90705
:1027C000081B802F0A839FEF9B831C82093F54F4D0
:1027D000885F8A8311501883F11204C01B82E1CFF5
:1027E0001B821C82DF91CF911F910F91FF90089562
:1027F000AC01909193039831B8F4EAE0F3E020E063
:10280000921739F0619171916417750769F02F5F24
:10281000F7CFE92FF0E0EE0FFF1FE65FFC4F51838B
:1028200040839F5F909393030895DC01611107C07B
:102830008FEF16968C93169717968C930895862F84
:10284000877021E030E001C0220F8A95EAF71596E3
:102850008C911597669566956695FD01E60FF11DBD
:10286000968185FF17C0292B2683E42FE695E695F0
:10287000E695EA0FFB2FF11D477021E030E001C023
:10288000220F4A95EAF79681922339F080621596D5
:102890008C93089520952923E7CF8F7DF8CFCF9390
:1028A000DF93C82FD62F462F682F84E399E00E942C
:1028B00015144D2F6C2F87E299E00E9415144D2FAF
:1028C0006C2F8AE199E00E9415144D2F6C2F8DE03A
:1028D00099E00E9415144D2F6C2F8CED98E00E940A
:1028E00015144D2F6C2F8EEC98E00E9415144D2F6F
:1028F0006C2F80EC98E00E9415144D2F6C2F82EB0A
:1029000098E00E9415144D2F6C2F88EA98E00E94E1
:1029100015144D2F6C2F8EE998E00E9415144D2F41
:102920006C2F84E998E00E9415144D2F6C2F8AE8D3
:1029300098E00E9415144D2F6C2F80E898E00E94BB
:1029400015144D2F6C2F8BE498E0DF91CF910C94F0
:102950001514CF933091850320918003381302C062
:10296000261779F190918C03981304C091E040915F
:102970008A03461390E030938C0320938A0380935C
:10298000850360938003992329F080918F038195BB
:1029900080938F0380919103C0918F03C80F6C2F98
:1029A0000E944F14C09391039091900381E09C1773
:1029B00008F080E09C1710F4C0939003CF910C9422
:1029C0003B0FCF910895EF92FF920F931F93CF93F8
:1029D000DF93EC01011105C09D81892F807295FF65
:1029E00019C0122F042F7B01CE010E94F813FB8225
:1029F000EA820C8310621D83E881F9810190F081E5
:102A0000E02D69E0CE01DF91CF911F910F91FF90F2
:102A1000EF90099490919303EAE0F3E0981779F02E
:102A2000219131912C173D0741F4DF91CF911F91F6
:102A30000F91FF90EF900C945C138F5FEFCFDF91BD
:102A4000CF911F910F91FF90EF9008950F93CF9327
:102A5000C82F6BEE84E890E00E94980E0E94930EBF
:102A60000C2F20E043EC6DEE70E084E998E00E94CA
:102A7000E31420E048EC66EA70E08AE199E00E9405
:102A8000E31422E94AEC6BED70E08CED98E00E94D3
:102A9000E31420E040EF68EB70E08BE498E00E94E4
:102AA000E31420E444EF65ED70E08EEC98E00E94C2
:102AB000E314CF910F9108950F93CF93C82F63EC38
:102AC00086E690E00E94980E0E94930E0C2F20E064
:102AD00040EF69E170E08AE199E00E94E31422E0AE
:102AE00042EC65E270E08CED98E00E94E31422E095
:102AF00042ED66E470E08EEC98E00E94E31422E080
:102B00004AEE60E570E080EC98E00E94E31422E178
:102B10004AED60E270E082EB98E00E94E31420E06E
:102B200040EF6EE670E084E399E00E94E314CF91F9
:102B30000F9108950F93CF93C82F6BE88EE690E026
:102B40000E94980E0E94930E0C2F20E040EB62E250
:102B500070E088EA98E00E94E31420E040EB60E334
:102B600070E08EE998E00E94E31420E040EB60E71B
:102B700070E08AE199E00E94E31420E040E968E413
:102B800070E08BE498E00E94E31420E040E96AE5FD
:102B900070E087E299E00E94E314CF910F910895CD
:102BA0000F93CF93C82F63E584E890E00E94980EBE
:102BB0000E94930E0C2F20E040E761EC70E088EA61
:102BC00098E00E94E31420E040E769EB70E08EE9B2
:102BD00098E00E94E31420E040E56BEE70E08AE1AB
:102BE00099E00E94E314CF910F9108950F93CF9332
:102BF000C82F0E94930E0C2F20E048E26EE070E098
:102C000088EA98E00E94E31420E040E26CE670E07D
:102C10008EE998E00E94E31420E048E061E570E06E
:102C200084E998E00E94E31420E048E068E270E064
:102C30008AE898E00E94E31420E04AE061E170E055
:102C400080E898E00E94E31480915003813081F481
:102C500020E048E268E070E08AE199E00E94E31435
:102C600020E040E26DE370E08DE099E00E94E31423
:102C7000CF910F910895AF92BF92CF92DF92EF92D2
:102C8000FF920F931F93CF93DF938C01D62FD42EF7
:102C9000FC0184810E948210D80EFFE3FD15E0F153
:102CA000F801828193810E948D10C12C10E000E018
:102CB000082E000C990B7C01F1E0EF1AF1086D2F42
:102CC00070E05B01A80EB91E6F5F7F4FEB01C80F6C
:102CD000D91F2FEFA21AB20AC701801B910B8038AF
:102CE000910538F46D2D8E2D8C190E949D06813032
:102CF000F9F0CE01800F911F8038910538F46D2DC9
:102D00008C2D8A0D0E949D068130A1F00F5F1F4F10
:102D1000C3940530110501F780E0DF91CF911F9139
:102D20000F91FF90EF90DF90CF90BF90AF900895FC
:102D300081E0F3CF82E0F1CFEF92FF920F931F93E8
:102D4000CF93DF93EC017B01042F122F0E94F81325
:102D5000FB82EA820C831D83E881F9810190F08176
:102D6000E02D69E0CE01DF91CF911F910F91FF908F
:102D7000EF9009940F93CF93C82F63E086EF90E014
:102D80000E94980E0E94930E0C2F20E040E36CE905
:102D900070E08AE199E00E94E31422E744E16FECDD
:102DA00070E083E498E00E949C1620E146E167EA27
:102DB00070E086E099E00E949C1620E046E064EB1B
:102DC00070E08FEF98E00E949C1620E149E068E8EF
:102DD00070E088EF98E00E949C1620E54BE268E8DE
:102DE00070E081EF98E00E949C1620E440E269E8E0
:102DF00070E08AEE98E00E949C1620E048E168EBC3
:102E000070E08BE498E00E94E314CF910F91089555
:102E10000F93CF93C82F0E94930E0C2F20E048E011
:102E200060E671E08AE199E00E94E31420E147E165
:102E30006FE071E086E099E00E949C1620E14FE18E
:102E400067E071E08FEF98E00E949C1620E440E27A
:102E50006AE671E088EF98E00E949C1620E542E067
:102E600066E171E081EF98E00E949C1622E942E160
:102E700066E571E08CED98E00E94E31420E544E300
:102E80006EE471E08EEC98E00E94E3148FE1809391
:102E90007F0820E047E261E071E081E798E00E946E
:102EA0009C1680E28093700820E148E064E771E0BE
:102EB00082E698E0CF910F910C949C160F93CF93DC
:102EC000C82F6BE68BE491E00E94980E0E94930E4F
:102ED0000C2F20E048E468E371E084E998E00E9468
:102EE000E31420E040E76DE071E08AE199E00E94A0
:102EF000E31420E14DE667E071E086E099E00E948E
:102F00009C1620E14FE56FE071E08FEF98E00E94A2
:102F10009C1620E547E66CE071E088EF98E00E949F
:102F20009C1620E54AE66FE671E081EF98E00E948A
:102F30009C1620E040E760E271E08BE498E00E949C
:102F4000E31422E04AE465E171E08CED98E00E9430
:102F5000E31422E14AE567E571E08EEC98E00E9417
:102F6000E31422E04AE469E471E080EC98E00E9416
:102F7000E31420E040E76BE671E084E399E00E940F
:102F8000E31420E444E765E171E082EB98E00E94FD
:102F9000E314CF910F9108950F93CF93C82F6BEA4D
:102FA00087E391E00E94980E0E94930E0C2F20E080
:102FB0004AE868E471E084E998E00E94E31420E0C4
:102FC00043E861E171E08AE898E00E94E31422E6B8
:102FD00044E962E271E083E498E00E949C1620E1FB
:102FE0004DE967E071E086E099E00E949C1620E5DB
:102FF00048E860E471E08FEF98E00E949C1620E5BD
:1030000042E86EE271E088EF98E00E949C1620E5AD
:103010004BE864E571E081EF98E00E949C1620E5A2
:103020004AE867E671E08AEE98E00E949C1620E488
:1030300044EA67E571E08CED98E00E94E31420E536
:1030400044EA61E471E08EEC98E00E94E31487E4C6
:1030500080937F0820E147E963E771E081E798E02A
:10306000CF910F910C949C160F93CF93C82F6BECBC
:1030700080E091E00E94980E0E94930E0C2F20E0B9
:1030800048EC66E271E08AE199E00E94E31420E0F6
:1030900048ED6BE671E087E299E00E94E31488E670
:1030A00080937F0820E148EE6BE671E081E798E0CD
:1030B0000E949C1680E38093700820E04FED68E347
:1030C00071E082E698E00E949C1687E58093610893
:1030D00020E140EC63E771E083E598E0CF910F9148
:1030E0000C949C160F93CF93C82F63E88CEE90E05E
:1030F0000E94980E0E94930E0C2F20E040EA6EEB87
:1031000070E08AE199E00E94E31420E145EA68ED6D
:1031100070E086E099E00E949C1620E149EA68EDA3
:1031200070E08FEF98E00E949C1620E04FE964EC7D
:1031300070E088EF98E00E949C1620E049E964EC7A
:1031400070E081EF98E00E949C1620E448E86FEC64
:1031500070E08AEE98E00E949C1622E842E861EA5C
:1031600070E08CED98E00E94E314CF910F910895E8
:1031700063E484E390E00E94980E0E94930E22E3A1
:1031800044E46BE570E083E498E00C949C16909125
:103190005D039823981306C020915C03292381E0E6
:1031A000291301C080E0089588E00E94C718882391
:1031B00089F090914D03191664F4915028E0920221
:1031C000F0011124E55EF74F258125FF03C09150E2
:1031D000A8F780E00895BF92CF92DF92EF92FF921E
:1031E0000F931F93CF93DF9311E06A3008F012E042
:1031F000C12FCC0FCC0FC10FC80FDC2EF12C8AE0F1
:10320000B82E8BEFD80E862F6B2D0E94A735D82FA6
:1032100084E0989FA00111244359584FC12CEE24FB
:10322000E39408E024E060E08D2D0E94BE066D2F3F
:10323000F3941F11E6CF8C2FDF91CF911F910F9147
:10324000FF90EF90DF90CF90BF90089560E080E016
:103250000E94490F88EC90E090932F0180932E01FB
:1032600010925003089595E0899FF0011124EE5AC1
:10327000FC4F108241835283638374830895CF93FC
:10328000C0914D03C1502C2F0C2E000C330BC901E3
:1032900043E0880F991F4A95E1F7855E974F27FD18
:1032A0003BC0F901DC0121503109089715964C917A
:1032B000159745FDF4CF80912E0190912F0120911B
:1032C0001501222369F19C01215031098091940359
:1032D0008B5F93E0EE0FFF1F9A95E1F7E55EF74FE6
:1032E0003383228384831682178215968C911597D7
:1032F000806215968C931597CD010E94F813C093A8
:103300004D03409148015091490160914A017091EB
:103310004B0181E00E94331910923F03CF91089531
:1033200020912D01273039F42CE0280F392F311D41
:1033300029503109CBCF29E0F8CF29E020932D0186
:103340002CE0209341032FEF2093400321E040978E
:1033500008F020E08091150147EF821349E0609169
:10336000940380912E0190912F010E94410D809332
:103370003E0380914F0318161CF4815080934F0335
:1033800040914C0150914D0160914E0170914F015F
:1033900080E00C943319CF93DF93C0912D01C93095
:1033A000B8F580E00E946711009721F0DF91CF917E
:1033B0000C949D19C33061F580919403845F0E9441
:1033C0008210C82F80912E0190912F010E948D10A4
:1033D000E82FC034E8F48C2F877021E001C0220F61
:1033E0008A95EAF7C695C695C69580E8C89FE0011C
:1033F0001124EE5FEC0FFD2FF11DEA50FC4FAF01E1
:103400004C5F5F4F8191822331F4E417F507D1F7C8
:10341000DF91CF91089580E290E0C8CFCF92EF92F4
:103420000F931F93CF938C01E62EFC018281938131
:103430000E948D10C82FF80184810E948210682F8D
:10344000F801858184FBCC24C0F8408587FF11C03A
:10345000FCE04F9FA0011124485D5D4F00E126E094
:103460008C2F0E94BE06CF911F910F91EF90CF90AD
:10347000089586FF09C088E0489FA00111244052AA
:103480005E4F08E028E0ECCFE2E14E9FA00111245E
:103490004A575E4F00E129E0E3CFEF92FF920F938E
:1034A0001F93CF93DF938C01F62EFC01858122813F
:1034B0003381E901219784FD05C0C485C20FD32F54
:1034C000D11D2196EE24E39486FD02C082E0E82E11
:1034D00041E0F8016481CE010E94CD0F882351F0B4
:1034E000FF24F3948F2DDF91CF911F910F91FF90C7
:1034F000EF900895F801858186FF10C0FF2091F3B9
:10350000EE0CEE0CEE0CF80164816E0D40E0CE0185
:103510000E94CD0F91E0F82EF926E4CF6481685F18
:1035200040E0CE010E94CD0F882341F3D9CFCF9345
:10353000DF93EC0180912E0190912F0104964A8136
:103540005B81BA01615071092D81322F3071495F61
:103550005F4F4817590754F4332321F180E128279E
:103560002D8381E08A8784E0888716C086179707B5
:1035700034F08A85823091F4DF91CF91089533231E
:1035800069F360E0CE010E944D1A8111F2CF8A8565
:10359000882391F31A8618861986EECF82E08A87EF
:1035A00085E0E2CF8617970764F7D8CFEF92FF92B6
:1035B0000F931F93CF93DF93EC01673009F434C16D
:1035C00038F46330A1F0653009F4F6C010E0ECC0C7
:1035D000683009F4FBC06930C9F78D81982F907469
:1035E00087FD9EC188E091119CC189E09AC10D813F
:1035F00005FFECCFEA80FB802D854C856C81C701EF
:103600000E942112182F882309F4CCC0902F9860B3
:103610009D8329852F5F29878A85823009F441C0DF
:10362000D8F5882309F455C0813009F48FC060E0D3
:10363000CE010E940E1AAC01892B41F29C85969511
:1036400021E030E002C0220F331F9A95E2F791E0AB
:10365000421753070CF090E08D818295817049E00C
:10366000981301C047EF8A85833051F4EB85E4302D
:1036700038F4F0E0EE0FFF1FEA5EFE4F8FEF81831C
:103680006C818A819B810E94410D8B8784E08A87AF
:103690008D818F7D8D839ACF833009F46AC0853008
:1036A00031F63885E32FF0E0EA59FE4F40812413CC
:1036B000BECF1986383009F059C025E0288706FFAB
:1036C00004C0823009F04AC02A878D8187FFAFCFBE
:1036D0001BC083E097FD08C081E006FD05C0E885BA
:1036E000F0E0E559FE4F80812813A1CF1986888527
:1036F000833071F4188604FF0EC081E0E81AF108E7
:10370000FB82EA8297FF0BC0CE010E94971A8FCFEF
:103710008F5F8887F0CFEFEFEE1AFE0AF1CF61E0FE
:10372000CE010E944D1A882309F481CF8D8186FF36
:1037300006C082E08A8785E08887198678CF90E185
:1037400089278D8381E08A8784E0F6CF85E097FF23
:103750008EE028136CCF1A861886EFCF80E1982769
:103760009D8381E08A8784E08887AFCF3F5F388779
:10377000ACCF8B85843090F4BE016C5F7F4F0E948C
:10378000140D8150823008F052CF8A819B812D81A7
:1037900024FF06C001979B838A8349CF80E0F1CF45
:1037A0000196F9CF077F0D83812FDF91CF911F9174
:1037B0000F91FF90EF9008958D818872883209F003
:1037C00005CF61E0CE010E940E1A00CF8D8185FDEC
:1037D000FDCE62E0CE010E940E1A8B85843048F443
:1037E00022EEAE014C5F5F4FBE016E5F7F4F0E94C5
:1037F000C40C2D854C856C818A819B810E9421128D
:103800008111E4CEEB85E43050F485E0E89FF001CF
:103810001124E050FF4F88E79CEE918380838D81D7
:103820008F7D8D8311E0C0CF8D81982F9872983253
:1038300009F0CCCE6C8170E086FF30C06C5F7F4FAA
:10384000F62E4C8542508A819B8101960E949A11E6
:10385000182F8A85111152C0833009F044C0EB85BE
:1038600000E0E430F0F4F0E0EE0FFF1FEA5EFE4F00
:10387000E181F0E0E757FE4F0081E02EE1E0EE1538
:1038800080F44C8542508A819B816F2D6E0D01968C
:103890000E949A1181110150EA94F0CF625F7F4F2C
:1038A000CFCF8B85843008F091CE002309F48ECEE3
:1038B00090E0880F991FFC01EA5EFE4F4181202FA6
:1038C00030E0E42FF0E0E757FE4F6081062E000C59
:1038D000770B2617370714F44F5FF3CF8A5E9E4F9E
:1038E000FC01418361CF83E08A870E945E0D8B8754
:1038F0008D8187FF6BCE89E0888756CF833009F0B2
:1039000065CE1A8618861986EB85E43008F05ECEFF
:10391000F0E0EE0FFF1FEA5EFE4F8FEF818356CE81
:1039200086E08C8784E0911101C08CE08D871A8637
:10393000188619864BCECF92EF920F931F93CF9399
:10394000DF93EC018C810E948210182F8A819B8169
:103950000E948D104E8198E04902A00111244D5D16
:103960005E4FC12CEE24E39408E028E0612F0E9412
:10397000BE06DF91CF911F910F91EF90CF900895E8
:10398000CF92EF920F931F93CF93DF93EC016623B7
:1039900051F0683029F180E0DF91CF911F910F91B4
:1039A000EF90CF9008952E812630ACF38091EB03F9
:1039B0009091EC0366E070E00E94B335892B11F41E
:1039C0002F5F2E838E818B3039F48FEF8E838D8124
:1039D0008F7D8D8381E0E0CFCE010E949B1CDBCFE9
:1039E0002E812F3FB9F32630B4F68091EB039091EE
:1039F000EC0364E170E00E94B335892B11F42F5F72
:103A00002E838091EB039091EC0325E030E0B90127
:103A10000E94B335892B49F48F81082E000C990B35
:103A20000196B9010E94C7358F838E8186300CF0D4
:103A3000B2CFCE010E949B1C8C810E948210182F55
:103A40008E81082E000C990B959587952A813B81D4
:103A5000820F931F0E948D104F8195E04902A001B3
:103A600011244056594FC12C32E0E32E08E025E0E6
:103A7000612F0E94BE068FCFE42FE695E695E6956E
:103A800030E8E39FF0011124E60FF11DE80FF91F64
:103A90008189942F977041E050E001C0440F9A95BE
:103AA000EAF7222319F0482B418B089540954823CB
:103AB000FBCF0F931F93CF93DF93C82F162F022FA7
:103AC000D82FD40FD13868F4603458F4CD1748F4A7
:103AD000202F412F6C2F85EE93E00E943C1DCF5F7D
:103AE000F5CFDF91CF911F910F910895FF920F9322
:103AF0001F93CF93DF93182FC62FF42ED62FD20FFC
:103B0000CD1740F4202F4F2D6C2F812F0E94591D6F
:103B1000CF5FF6CFDF91CF911F910F91FF90089566
:103B20000F931F93CF93DF9380912D019EEF980FFA
:103B3000923008F0B9C040913C034F5F40933C0382
:103B400090913B03292F30E0F901EB56FE4F608145
:103B5000062E000C770B46171706CCF010923C038C
:103B600027573E4FF901208130919403823009F0AC
:103B70008DC0321B3093940381E0890F80933B0307
:103B80008C3028F083E080932D0190933B0380914B
:103B90003A038F5F80933A03909114018917D8F00C
:103BA00010923A0380915D0385FF78C081E00E9406
:103BB0003C0C80911401813071F080912E01909124
:103BC0002F0120911501222309F46CC001979093D5
:103BD0002F0180932E018091090381110E94790C9D
:103BE00080E00E94711381E00E94711382E00E94C4
:103BF00071130E94CB1983E00E94711384E00E942C
:103C0000711385E00E9471130E94CB198091940377
:103C10000E948210845F90912D01933041F4E091D5
:103C20003B03F0E0E757FE4F90819095890FD82F26
:103C300080340CF0DFE34D2F6CE080E00E94760DC5
:103C400086E00E94711310912D01193008F009C30C
:103C5000C0919403123009F082C28C2F0E9413127B
:103C6000882309F4B0C2809194038F5F80939403FA
:103C7000CF5F8C2F0E941312CF5F882309F4A1C25B
:103C8000809194038F5F80939403F3CF230F20934D
:103C90009403943008F47BCF915077CF86FF89CF7F
:103CA00080E085CF019693CF843009F087C0809162
:103CB000EB039091EC0363E070E00E94B335892B35
:103CC00039F48091410390914003890F809341031F
:103CD00080914103863008F46BC085E080934103F6
:103CE0008FEF80934003C0914E03C1506C2F0C2E78
:103CF000000C770BF7E0CF02C00111248850984FD9
:103D000067FD6ECF9B01FC015581615071090797DA
:103D100055FDF6CF7091150160919403685F809115
:103D20002E0190912F01711101C00996452F40621B
:103D30004583772391F1452F4063458348E056FF43
:103D400043E057E0529FD001539FB00D1124A8507B
:103D5000B84F841B910913969C938E93129787E01A
:103D6000829FD001839FB00D1124A850B84F1496A4
:103D70006C93149716961C92CF010E94F813C0936F
:103D80004E03409150015091510160915201709148
:103D9000530181E00E94331923CF4F7E458347E0D2
:103DA000429FD001439FB00D1124A850B84FD3CFEC
:103DB000843008F015CF0E94BA0C12CF853009F07C
:103DC00040C080913F03811104C00E94D4188093A9
:103DD0003F038091EB039091EC0363E070E00E945D
:103DE000B335892B39F48091410390914003890FB9
:103DF0008093410380914103883008F4F1CE809193
:103E00003F0381110E943F1980915D0384FF16C01A
:103E100087E080932D011092410381E0809340035D
:103E2000809115018111DCCE80912E0190912F019E
:103E3000039790932F0180932E01D2CE0E94850C80
:103E4000CFCE8630B9F48091EB039091EC0363E020
:103E500070E00E94B335892B39F480914103909131
:103E60004003890F8093410380914103863008F01D
:103E7000B7CEA1CF873009F041C00E94D41881117C
:103E80000E943F1980915D0384FD04C090913D0321
:103E90009923A1F285FF1DC081E0809315018091D7
:103EA000EB039091EC0363E070E00E94B335892B43
:103EB00009F096CE80912E0190912F010197909359
:103EC0002F0180932E0141E062E080E00E945C0CB3
:103ED00087CE86FF85CE109215018091EB039091DD
:103EE000EC0363E070E00E94B335892B09F078CED3
:103EF00080912E0190912F010196E1CF883091F5AC
:103F00008091EB039091EC0363E070E00E94B33585
:103F1000892B09F065CE80915D0387FF09C08091F0
:103F2000940381508093940340E06BE089E0CECF0E
:103F300084FF04C0809194038F5FF4CF85FF0AC093
:103F400080912E0190912F01019790932F018093E2
:103F50002E01EACF86FF44CE80912E0190912F0151
:103F60000196F3CF893009F045C08091EB03909121
:103F7000EC0383709927892B81F420914103822FD0
:103F80008D7F8C3029F4909140039195909340035C
:103F900080914003820F80934103C0913E03C4305F
:103FA00040F422EE44E953E06EE271E08C2F0E946F
:103FB000C40C2CE049E06091940380912E01909113
:103FC0002F010E94211281110BCEC43050F425E044
:103FD000C29FF0011124E050FF4F88E79CEE9183CF
:103FE00080838AE080932D0185E080937E03809317
:103FF0007D03F6CD893008F0F3CD84E00E94C71828
:104000008823A9F182E080932D0188E08093410309
:1040100010923C0310923B0310923A0340915401DA
:1040200050915501609156017091570181E00E94B5
:10403000331988E00E94C718882309F4D1CD8091F4
:104040004E0318160CF0CCCD815097E08902F00198
:104050001124E850F84F258125FD7DC084E0809330
:10406000410391E09093400380932D01B9CD80915D
:104070005D0384FF1AC080910903811104C08091FF
:104080000803882329F080E10E94C71881110AC023
:1040900085E080932D0186E08093410381E0809349
:1040A0004003C7CF0E94790CC4CF87FF04C0909112
:1040B00009039111F7CF85FF29C0C1E0C093150115
:1040C00083E08093140180E20E94C718882321F0C6
:1040D00010924103C0932D018091EB039091EC036A
:1040E00063E070E00E94B335892B09F0A2CF809184
:1040F0002E0190912F01019790932F0180932E0113
:1041000041E063E080E00E945C0C93CF86FF20C01A
:104110001092150183E08093140180E40E94C71877
:10412000882329F01092410381E080932D01809132
:10413000EB039091EC0363E070E00E94B335892BB0
:1041400009F077CF80912E0190912F010196D4CF65
:104150000E94BA0C6ECF815008F078CF41CD133059
:1041600031F58CE08C0F0E941312882361F180914D
:104170009403815080939403C55F8C2F0E94131287
:10418000C150882331F0809194038150809394032F
:10419000F4CF0E94BA0C409158015091590160919E
:1041A0005A0170915B0181E00E9433190CC08DE0CF
:1041B0008C0F0E9413128111B8C0809109038111E4
:1041C00002C00E949C0C83E00E9467110097B1F02E
:1041D00031E0309314012091150187709927892BC4
:1041E00009F0232780912E0190912F01222309F4B9
:1041F000ADC0019690932F0180932E0180912D01E7
:10420000873089F480912E0190912F012091150122
:10421000211101C00396609194036E5F49E00E94F2
:104220009A1180933D0300912E0110912F010C5F94
:104230001F4F609194036B5FC8010E94B50F8111FD
:1042400006C060919403645FC8010E94B50F80931B
:10425000090360919403635FC8010E94B50F8093C6
:1042600008034D2F6CE08CE00E94760D87E00E94E1
:10427000711388E00E9471134D2F6DE08DE00E9454
:10428000760DC0912D0182E0C93009F081E00E94D5
:104290006711C930B0F460917F03687F8091940307
:1042A00090E048E0649F90011124AC01465F5F4FAD
:1042B000241735070CF44CC06850809185030E9488
:1042C000A91484E893E00E94B4138FE793E00E945E
:1042D000B413C0917E031C161CF500E02C2F40E89F
:1042E00060E080E00E94761D60E46C1B2C2F40E8AB
:1042F00080E00E94761D80917D03C80FC0937E03ED
:10430000C03274F08091120985FF97C080914F03ED
:10431000811155C082E0809350038BEF80937D0321
:10432000DF91CF911F910F910895183009F04BCF75
:1043300080915D0384FD07C080910903811143CF03
:104340000E94BA0C40CF80910803F8CF019752CF5A
:10435000C73041F40796265C3F4F8217930724F03D
:10436000685FABCF0296F7CF80918403807F209166
:104370002E0130912F01B901C73069F4685F7F4F7A
:1043800098E0899FA0011124461757073CF06091DF
:104390008003805194CF6A5F7F4FF2CFC73061F4C2
:1043A0002C5F3F4F40585F4F241735070CF489CFDF
:1043B00060918003805F83CF2E5F3F4FF3CF80916A
:1043C0009203809391038093900381E080938F0305
:1043D00080918B0380938C038091890380938A035F
:1043E00080918E03809384038093850380918D0355
:1043F00080937F0380938003109293038FEF8093C9
:1044000017018093190180931B0180931D0188E798
:104410009CEE90930101809300019093060180939C
:10442000050190930B0180930A01909310018093F2
:104430000F0181E00E943B0F70CF83E08093500317
:104440006FCF9F92AF92BF92CF92DF92EF92FF9287
:104450000F931F93CF93DF936C01E62E942E20527F
:1044600085E0289FE0011124C857D74F10E080E075
:10447000153011F0FE018491F12CA82EB12C80FF93
:1044800007C0202F4F2D490D6E2DC6010E943C1DE7
:10449000C50195958795F394F8E0FF12EECFE3946C
:1044A00021961F5F163019F7DF91CF911F910F9161
:1044B000FF90EF90DF90CF90BF90AF909F900895C6
:1044C000DF92EF92FF920F931F93CF93DF93282FEA
:1044D000C82F10E03AE01F5F8C2F632F0E94A73592
:1044E000C82F8111F8CF912F990F910F990F8091BB
:1044F000F607980FDAEFD90FE090F7079093F607D9
:104500008AE0D82EC11791F0822F6D2D0E94A73519
:10451000F82E20E3290F01E04E2D6D2F85EE93E05C
:104520000E9421222F2DD650CF5FECCFDF91CF916B
:104530001F910F91FF90EF90DF9008950F93CF930D
:10454000DF93262FFC01EE5EFB4FEC01CF5EDB4FCD
:1045500001E0408168810E94212288818A5F8883EE
:10456000DF91CF910F9108958F929F92AF92BF925A
:10457000CF92DF92EF92FF920F931F93CF93DF932F
:10458000EC01623009F457C088F4613009F45AC074
:1045900080E0DF91CF911F910F91FF90EF90DF901E
:1045A000CF90BF90AF909F908F900895633009F4A3
:1045B00057C0683069F7AA80BB80C5010E948D1082
:1045C000082FFC808F2D0E948210182F48858D8126
:1045D00085FF98C04F3F09F05DC08091EB0390913B
:1045E000EC0366E970E00E94B335892B89F6898572
:1045F000813009F049C085E089878A0D9B2D911D86
:1046000097FD079643E0959587954A95E1F7182F12
:10461000F694F694F6940F2D0770D1F16F2D812F3B
:104620000E94750F8F3091F1000F000F000F025F95
:1046300001500887ADCF8D8185FFAACFCE010E94A2
:104640009710A6CF1D8115FFA3CF40E066E00E9422
:104650003B16882309F49CCF1F7D1D83188698CFB5
:104660001D8115FF95CF8A819B8103960E948D1035
:10467000082F8C810E948210682F802F0E949D0637
:10468000813009F085CFE8CF81E0B6CFFA94C3CF6F
:104690000EE0CECF4F5F488726E0210F022E000CA0
:1046A000330B642F70E0C9010496861797071CF43A
:1046B0008FEF88876DCF8985F02EF80E621773070C
:1046C000ACF025E0842F622F0E94A735929FA001B5
:1046D00011244056594F6CEF610FC12C32E0E32E8C
:1046E00008E08EEF8F0D0E94BE0652CFF7FC50CF30
:1046F000403408F04DCF21E06F2D85EE93E00E940D
:104700003C1D46CF8091EB039091EC0363E070E099
:104710000E94B335892B11F44F5F48878885853017
:1047200088F5823018F4CE010E949710FF24FA9485
:10473000F00EB12CA12C95E0892E912C25E0D22EE3
:104740001F5F88858A0D9B2D911DB4010E94C7357E
:10475000D89EA001D99E500D11244056594FC12C0E
:1047600082E0E82E08E025E0612F8F2D0E94BE0632
:104770008FEFA81AB80A83E0F80E83E0A816B104F8
:1047800001F706CF81E005CF089590E080E008951D
:10479000AF92BF92CF92EF920F93CF93DF935C01D2
:1047A000FC01828193810E948D10C82FF5018481C4
:1047B0000E948210D82FC12CEE24E39400E126E061
:1047C0004DEF50E0682F8C2F0E94BE06CC24C3947E
:1047D00026E04DEF50E06D2F86E08C0F0E94BE0664
:1047E000F50125815FEF24FF51E08091EB0390916B
:1047F000EC0387709927892B51F426FD08C0F50139
:10480000268130E02F5F3F4F237033272683F50149
:104810004681513041F064E070E0CB01841B910986
:104820000E94C735482F442329F0CC24C39480E04C
:10483000433011F4C12C82E047FD4F5F4595F4E011
:104840004F02A00111244B505F4F62E06D0F8C0F9F
:104850009C2D990F9C0D990FE12C08E024E0890F05
:104860000E94BE06DF91CF910F91EF90CF90BF9045
:10487000AF900895CF92DF92FF920F931F93CF9343
:10488000DF93EC011D81012F0074DF80663009F495
:10489000B2C070F4662309F4ACC0613079F080E0F6
:1048A000DF91CF911F910F91FF90DF90CF900895EE
:1048B0006730B9F0693099F784E03CC0002379F3A0
:1048C00084E0D812ECCF48E06CE0CE010E943B16A9
:1048D000882329F31F7A823011F01D83E0CF106105
:1048E000FCCFFF24F39414FF02C0FF24FA946C81E0
:1048F000645F8A819B8144E004960E949A11811131
:104900001BC084E0D81669F08F81843040F6AE0178
:104910004C5F5F4FBE016E5F7F4F20E00E94C40C72
:10492000BECF4F2D440F4F0D440F6C818A819B8168
:104930000E94410D8F83B3CF84E0D81679F0EF81C8
:10494000E43008F0B9CF85E0E89FF0011124E05091
:10495000FF4F88E79CEE91838083AECF8091EB037D
:104960009091EC0363E070E00E94B335892B09F06D
:1049700096CF011194CFCF2C0F2C000CDD080A81AB
:104980001B810C0D1D1D1B830A8381E0F81202C0E0
:10499000045F1F4F41E06C81C8010E94CD0F882346
:1049A000D1F08A819B818C199D099B838A836C81BC
:1049B000605F40E00E94CD0F8823B1F06C81605FA2
:1049C0008A819B8140E008960E94CD0F882361F088
:1049D0008D8180640CC06C81685F40E0C8010E94DA
:1049E000CD0F8111DECF5BCF8D8190E189278D8343
:1049F00056CF011154CFCE010E94C82350CFCF9281
:104A0000EF920F931F93CF93DF936830D9F5EC01AA
:104A10008E81843048F422EEAE014C5F5F4FBE01C0
:104A20006E5F7F4F0E94C40C8A819B810E948D1013
:104A3000182F8C810E948210CD80C4FACC24C0F83B
:104A400092E0E92E08E025E040EF50E0682F812F4A
:104A50000E94BE0628E045E06C818A819B810E940D
:104A6000211281110FC0EE81E43050F485E0E89FFF
:104A7000F0011124E050FF4F88E79CEE9183808382
:104A800081E001C080E0DF91CF911F910F91EF9005
:104A9000CF9008950F931F93CF93DF93FC01EA010A
:104AA000358182819381A685B0E0432F40718C01CE
:104AB00034FF44C00A1B1B0BDC0118976623C9F1A5
:104AC00054815A5F2517A8F530E0245F3F4F5217F5
:104AD000130609F074F59E01285F3F4F2017310738
:104AE00044F1C817D9072CF5BF016A5F7F4F2385B2
:104AF000922F90629387442339F1822F80638387BA
:104B000098E026FF93E0A91BB109B187A087EF01C8
:104B100052871486CB010E94F81340915C0150919A
:104B20005D0160915E0170915F0180E00E94331928
:104B30001D86DF91CF911F910F9108950F5F1F4F39
:104B40008A0F9B1FD801BACF9F7E9387DECFDC01EF
:104B5000FB011D968C911D978F3F51F4428153812B
:104B6000958195FB662760F92481CD010C944A2537
:104B70000895CF92EF920F931F93CF93DF93EC01A1
:104B8000663051F16930F1F16230B9F48D858F3FB3
:104B9000E1F440912E0150912F0161E080912D01AF
:104BA000893008F060E020919403CE010E944A25EC
:104BB00067EA75E2CE010E94481280E0DF91CF9152
:104BC0001F910F91EF90CF9008958F5F843B10F469
:104BD0008D87F3CF8FEFFCCF8C810E948210182F2E
:104BE0008A819B810E948D10CD80C4FACC24C0F8AC
:104BF000EE24E39408E024E04CEE50E0612F0E94A4
:104C0000BE06DBCF8FEF8D878B858F7D8B8785E011
:104C10008C87D3CFBF92CF92DF92EF92FF920F9308
:104C20001F93CF93DF937C01B62EFC01D681858143
:104C3000C3E086FDC8E084FD2AC0D150DC0FDD242E
:104C4000D394C0E0F70102811381C8010E948D1046
:104C5000C82EF70184810E948210F82EDC17F1F033
:104C60006F2D8C2D8C0F0E949D068B1115C0C801D5
:104C70008C0F911DC7FD9A950297DF91CF911F91DF
:104C80000F91FF90EF90DF90CF90BF900895C150AB
:104C9000D195DD24DA94D6CFCD0DE0CF80E69AEE23
:104CA000ECCFFF920F931F93CF93DF93FC01F62E6F
:104CB000028113818581968184FF02C0091B11093D
:104CC000C8E086FFC3E0C90F84810E948210D82FFC
:104CD000C8010E948D102F2D4C2F6D2FDF91CF9189
:104CE0001F910F91FF900C94591DCF92DF92EF927C
:104CF000FF920F931F93CF93DF93EC01643071F019
:104D0000673069F1623019F48D8185FD02C010E0D1
:104D10001CC061E0CE010E945126F9CF0D8105FF34
:104D2000F6CF60E00E940A2611E080362AEE920754
:104D300009F410E080369A4E21F00F7D0D8385E056
:104D40008E8360E0CE010E945126812FDF91CF91AA
:104D50001F910F91FF90EF90DF90CF9008950D81FC
:104D60001E8105FF44C061E00E940A266C01412FAC
:104D700050E08A819B8104FF2CC0841B950B9B8390
:104D80008A83802F8074F82E82E006FF84E08E8371
:104D90008A819B810E948D10182F08E0F11001C0BC
:104DA00003E08C810E94821021E0402F682F812F28
:104DB0000E94591D90E6C9169AEED90679F08D81A8
:104DC0008F7D8D83DB82CA828C8184508C831E828E
:104DD0009ECF480F591F5B834A83D3CF17FF97CFCE
:104DE0008D818F7D8D8385E08E8311E0AECF153070
:104DF000E0F78C810E948210D82E8A819B810E94CC
:104E00008D1004FBCC24C0F825E0129FA0011124D2
:104E10004056594F92E0E92E08E025E06D2D0E94A2
:104E2000BE068091EB039091EC0363E070E00E947A
:104E3000B335892B09F06BCF8E818F5F8E8367CF5F
:104E4000CF92DF92EF92FF92CF93E82FF0E0E651FE
:104E5000FF4FC491E62FF0E0EE0FFF1FEC5BFF4F1A
:104E6000C590D490F12CE12C60E074E284EF90E0E6
:104E7000A70196010E944435215031094109510989
:104E800091E02115310581E0480751056CF060E99A
:104E900070ED83E090E0A70196010E944435215017
:104EA00031094109510993E0C13041F0C330B1F0FB
:104EB000CF91FF90EF90DF90CF9008958091810087
:104EC000887F892B8093810030938900209388000C
:104ED00080916F00826080936F00EACF8091910093
:104EE000887F892B809391003093990020939800BC
:104EF00080917100826080937100DACFE82FF0E03A
:104F0000E651FF4FE491E13019F0E33089F0089564
:104F100080916F008D7F80936F0080910503E091F9
:104F20000603F0910703908180958923808308957B
:104F300080910203E0910303F0910403F4CFCF9337
:104F4000DF93C82FE62FF0E0E651FF4FD49161E0E8
:104F50000E944E0AD13029F0D33049F1DF91CF9130
:104F600008951092800010928100809181008860E5
:104F700080938100809181008160809381008C2FDB
:104F800090E0FC01EA54F84FE491F0E0EE0FFF1FCF
:104F9000E855F84F25913491309307032093060389
:104FA0008B52984FFC01849180930503D7CF1092C8
:104FB0009000109291008091910088608093910000
:104FC000809191008160809391008C2F90E0FC0192
:104FD000EA54F84FE491F0E0EE0FFF1FE855F84F68
:104FE0002591349130930403209303038B52984FFF
:104FF000FC018491809302036CE380E00E942027EF
:1050000080E0DF91CF910C947E274F925F926F9258
:105010007F92AF92BF92CF92DF92EF92FF920F9367
:105020001F93CF93DF93EC01B62EA42E122F398558
:105030008091EB039091EC033F3F09F076C06885C7
:1050400070E00E94B335892B09F050C01986402EBC
:10505000002E000C550866087708CE2CEE0CDD08F3
:10506000EE08FF08C418D508E608F7080E94EC34DB
:10507000A70196010E944435460E571E681E791EF0
:105080004C86041142C00E94EC34212F110F330BC7
:10509000440B550B2E5F3F4F4F4F5F4F0E944435DF
:1050A00062507109810991096B870E94EC342CE8E8
:1050B00030E040E050E00E944435665F7F4F8F4F04
:1050C0009F4F6887498547FD11C085E04802A001D0
:1050D00011244153534F6C856A0D8B85C12C92E08E
:1050E000E92E08E025E08B0D0E94BE06DF91CF91EE
:1050F0001F910F91FF90EF90DF90CF90BF90AF90F6
:105100007F906F905F904F9008950E94EC3422E062
:1051100030E040E050E00E9444356B87611103C0ED
:105120008DEF8B87C2CF1B87C0CF80FDCBCF9A85F9
:10513000390F39873F3F11F0333021F691959A8727
:10514000C1CF8F929F92AF92BF92CF92EF92FF9278
:105150000F931F93CF93DF935C014A01F22EC02F70
:10516000683009F05FC0FC01958195FF5BC042810A
:105170005381148180912D018930B8F520912E0141
:1051800030912F012C5F3F4F2417350774F1BA017E
:105190006F0D711D6217730744F120919403265F10
:1051A000211718F1612F70E0685F7F4F26171706EF
:1051B00009F0DCF49F7D958340916001509161017D
:1051C000609162017091630180E00E943319C1E037
:1051D0008C2FDF91CF911F910F91FF90EF90CF9087
:1051E000BF90AF909F908F900895CA010E948D103C
:1051F000D82F812F0E948210182FC12CEE24E39407
:1052000008E02F2DA401682F8D2F0E94BE06CC230D
:1052100059F096E0E92E01E029E0412F6D2FC501FC
:105220000E940528C0E0D4CF84E0E82E0EEF23E0F2
:10523000412F6D2FC5010E940528CACF0F9300E0B2
:1052400025E04CEB56E00E94A128882329F090919C
:105250004C039F5F90934C030F9108950F9300E0D0
:1052600025E040EA52E00E94A128882341F09AE01C
:1052700090932D0195E090937E0390937D030F9181
:1052800008950F9301E02BE04BE751E00E94A12825
:10529000882319F095E090934D030F9108950F9393
:1052A00001E02BE049E051E00E94A128882319F099
:1052B00095E090934E030F9108952F923F924F9255
:1052C0005F926F927F928F929F92AF92BF92CF9296
:1052D000DF92EF92FF920F931F93CF93DF9300D053
:1052E0001F92CDB7DEB79B838A83663009F473C003
:1052F000693009F49DC0613009F083C0FC0115815B
:1053000015FF7FC040E060E10E943B16882309F44E
:1053100078C01F7DEA81FB81158381E4E82E89E056
:10532000F82E312C212C00E096E0892E912CA12C16
:10533000B12C2CE0422E512C612C712CEA81FB8186
:10534000F481F983EA81FB81C280D380C20CD31C33
:1053500001112DC00E94EC34A50194010E94443536
:1053600010EF160F0E94EC3422E030E040E050E0F5
:105370000E944435F7012581672B682B692B49F181
:1053800020612583412F6981C6010E94410DF701EB
:105390008683C7010E94F8130F5FF6E02F0E311CC1
:1053A00087E0E80EF11C033049F681E02BC00130A4
:1053B00041F40E94EC34A30192010E9444351AEF9B
:1053C000D0CF0E94EC34A50194010E9444351AE02C
:1053D000C8CF2F7ED6CFEA81FB8184810E948210C4
:1053E000182FEA81FB81828193810E948D10C12C4C
:1053F000EE24E39408E02FE044E151E0612F0E94A5
:10540000BE0680E00F900F900F90DF91CF911F911B
:105410000F91FF90EF90DF90CF90BF90AF909F9053
:105420008F907F906F905F904F903F902F90089556
:10543000EA81FB81858181608583E3CFFC01019056
:105440000020E9F73197AF01481B590BBC0185EEED
:1054500093E00C94090CCF92EF920F93CF93DF93CC
:1054600080914C030E94602286E392E00E941E2AF3
:105470008AE00E9460226091F7076150C6EFD7E092
:105480008881C12CEE24E39408E025E04CEB56E043
:105490008E5F0E94BE068881835F8883DF91CF91F3
:1054A0000F91EF90CF900895CF92EF920F93CF93FB
:1054B000C82F88E00E94C718811104C084E00E94B0
:1054C000C71881110E942619CC23C9F1C12CEE24E2
:1054D000E39408E025E040EA52E068E08DE30E94B2
:1054E000BE0684E0E82E0EEF23E048E06DE38DE099
:1054F00099E00E94052885E18093F6078AE1809370
:10550000F70788E392E00E941E2A87E08093F6075F
:105510008EE28093F70788E492E00E941E2A8BE2D5
:105520008093F60788E38093F7078CE592E00E946A
:105530001E2ACF910F91EF90CF900C942B2A80913F
:10554000EB039091EC0383709927892BA9F42091A8
:105550001F01822F8D7F8C3029F490911E0191952F
:1055600090931E0180911E01820F80931F018091F4
:10557000490381508093490380911F0192E1899FE3
:10558000A0011124415D5A4FC12CEE24E39400E1A7
:1055900029E0609149038C500E94BE06C0E1C0938F
:1055A000F60788E08093F70781E692E00E941E2AC2
:1055B000C093F6078AE18093F7078EE692E00E9497
:1055C0001E2AC093F60784E28093F7078EE792E0E5
:1055D0000E941E2AC093F60786E38093F7070E9475
:1055E0002B2A81E992E0CF910F91EF90CF900C940C
:1055F0001E2A0E94E1351F920F920FB60F921124BE
:105600008F939F938091E1009091E100937F90931D
:10561000E10083FF0FC01092E90091E09093EB004E
:105620001092EC0092E39093ED0010927C0398E0CE
:105630009093F00082FF22C093E09093E900909154
:10564000F200992319F09AE39093E80090916D038A
:10565000992341F090916D03915090936D039111B6
:1056600001C05D9A90917B03992341F090917B0357
:10567000915090937B03911101C0289A84FF18C028
:105680008091E2008E7E81608093E2008091E10053
:105690008F7E8093E10080916E038E7E8061809387
:1056A0006E039F918F910F900FBE0F901F901895D2
:1056B00080FFF7CF8091E2008E7E80618093E200D0
:1056C0008091E1008E7E8093E10080916E038E7E5A
:1056D0008160E5CF1F920F920FB60F921124CF92E7
:1056E000DF92EF92FF920F931F932F933F934F936D
:1056F0005F936F937F938F939F93AF93BF93EF933A
:10570000FF93CF93DF93CDB7DEB76C97DEBFCDBFEE
:105710001092E9008091E80083FF25C068E0CE0187
:1057200045960E94D00982EF8093E8008D8987FF1B
:1057300039C09091E80090FFFCCF982F907609F047
:1057400034C19E894F89588D2F89F88C911131C0B1
:10575000803861F580916C038093F1001092F10024
:105760008EEF8093E8006C960FB6F894DEBF0FBE04
:10577000CDBFDF91CF91FF91EF91BF91AF919F91FD
:105780008F917F916F915F914F913F912F911F91D9
:105790000F91FF90EF90DF90CF900F900FBE0F9082
:1057A0001F9018959EEF9093E800C7CF1092F100DC
:1057B000D5CF913059F48111D3CF4130510581F6C5
:1057C00080916C038D7F80936C03CACF933049F432
:1057D0008111C6CF4130510519F680916C0382606A
:1057E000F2CF953041F48091E80080FFFCCF206833
:1057F0002093E300B5CF963009F0A9C00B8D1C8D26
:1058000022E01092E90010926A0310926903F212EA
:105810002EC010926803109267030E949F091F8296
:1058200099E09983FA8291E09E8390EA98879AEFB3
:1058300099872091690330916A03275F3F4F3C832A
:105840002B838D831092E90010926A0310926903F2
:10585000109368030093670349E050E0BE016F5F57
:105860007F4F80E00E9479090E949F0979CF1093B1
:105870006803009367030E948308DC0112960D9170
:105880001C910115110509F451C1D801ED91FC914C
:105890000480F581E02DBE016B5E7F4FC801099544
:1058A000009709F03EC1F80100851185EACFF3E0C9
:1058B000FF120EC08F89882309F440C0823061F442
:1058C00040E860E187E798E00E944609811148CFEF
:1058D00081E28093EB0047CF813029F440E86BE010
:1058E0008BE698E0F1CF833099F70E948308DC01C2
:1058F0001296ED90FC908E010F5F1F4F6801E1142E
:10590000F10479F0D701ED91FC910680F781E02D4B
:10591000B801C7010995080F111DF701E084F18452
:10592000EECFD8011C92F60101900020E9F73197E3
:10593000BF016C197D0940E0C601C6CF65E578E07E
:10594000FB01449150E080E80E94790909CF97302B
:1059500009F4BECF983021F481E08093F10000CFAC
:10596000993009F0FDCE837009F0B2CFE2EAF1E0A0
:1059700081E031E096E32191222371F08093E900E8
:105980003093EB00DF0111972C912093EC00909362
:10599000ED008F5F873079F78EE78093EA001092F1
:1059A000EA008F8980937C03DBCE8B8D9C8D1092D7
:1059B000E90010926A031092690390936803809340
:1059C0006703898D811192C08E899D89913A49F42E
:1059D000813209F07DCF47E050E065E271E080E080
:1059E000B3CF913209F074CF833269F48F89988DE7
:1059F000B0E0A0E08093210190932201A0932301C5
:105A0000B0932401ADCE803269F48091E80082FF2A
:105A1000FCCF67E085E291E00E94D0098BEF809394
:105A2000E8009ECE823209F09BCE8F8980932C01B4
:105A3000EEEFFFE7859194918B3F9C4D51F1E0E0B3
:105A4000F8E08091250190912601A0912701B09165
:105A50002801803B9440A105B105F1F480912C010F
:105A600080FD1AC0EE3F8AE0F80789F587E797E7DF
:105A7000918380838091600080936B0388E19BE039
:105A80000FB6F894A895809360000FBE90936000C5
:105A900067CEEEEFFAE0D5CF8081918187379747C7
:105AA00009F05ECEA89580916000886180936000C7
:105AB00080916B0380936000EE3F2AE0F20789F04B
:105AC0008091FE0A9091FF0A9183808349CE808164
:105AD00091818737980751F29093FF0A8093FE0ACD
