:100000000C941E0A0C94460A0C94460A0C94460A58
:100010000C94460A0C94460A0C94460A0C94460A20
:100020000C94460A0C94460A0C948E100C94FD1005
:100030000C94460A0C94460A0C94460A0C94460A00
:100040000C94460A0C94460A0C94460A0C94460AF0
:100050000C94460A0C94460A0C94460A0C942F13EE
:100060000C94460A0C94460A0C94460A0C94460AD0
:100070000C94460A0C94460A0C94460A0C94460AC0
:100080000C94460A0C94460A0C94460A0C94460AB0
:100090000C94460A0C94460A0C94460A0C94460AA0
:1000A0000C94460A0C94460A0C94460A4472656104
:1000B0006D657232333435005068617261700010C2
:1000C0001000FEFEFEFEFEFEFEFEFEFEFEFEFEFE3C
:1000D000FE00FFFFFFFFFFFFFFFFFFFF3FDFEFF728
:1000E000F7FEFEFEFEFEFEFEFEFEFEFEFEFEFEFE37
:1000F000FEF7F7F7F7F7F7F7F7F7F7F7F7F7F7F789
:10010000F7FEFEFEFEFEFEFEFEFEFEFEFEFEAA5612
:1001100000F7EFDF3FFFFFFFFFFFFFFFFFFFAA55E5
:100120000000FFFFFFFFFFFFFFFFFFFF00FFFFFFDC
:100130000100FFFFFFFFFFFFFFFFFFFFE0DFBFBF8B
:100140007C000001FFFFFFFFFFFFFFFFFF0100003A
:1001500001F8F8FCFF7F7FFFFFFF7F7FFFFCF8F8CF
:100160007CFFFFFF00FFFFFFFFFFFFFFFFFFAA5520
:1001700000BFBFDFE0FFFFFFFFFFFFFFFFFFAA554C
:100180000000FFFFFFFFFFFFFFFFFFFFFFFFFFFF7D
:10019000FF003F5F3F5F3F5F3F5F3F5F3F5F3F5F0E
:1001A0003FF0EFEFEFE0E0EFEFEFE0E0EFEFEFF049
:1001B000FF5F3F5F3F5F3F5F3F5F3F5F3F5F3F5F8F
:1001C0003FFFFFFFFFFFFFFFFFFFFFFFFFFFAA55FE
:1001D000005F3F5F3F5F3F5F3F5F3F5F3F5F2A558D
:1001E00000101000FEFEFEFEFEFEFEFEFEFEFEFE07
:1001F000FEFEFE00FFFF7F7FFFFFFFFFFFFFFFFF11
:10020000FFFFFFFEFEFEFEFEFEFEFEFEFEFEFEFE0B
:10021000FEFEFEFFFFFFFFFFFFFFFFFFFFFFFFFFF1
:10022000FFFFFFFEFEFEFEFEFEFEFEFEFEFEFEFEEB
:10023000AA5600FFFFFFFFFFFFFFFFFF7F7FFFFFCB
:10024000AA550000F9F6EFEFF6E0EEDEDEBE7E7DA9
:10025000FDFDFB00FFFFFFFFFFFFFFFFFFFFFFFFB5
:100260003EDDC3FBFBF7EFEFDFDFDFDFEFF7F7FB91
:10027000FBFDFDDFBFBFBF756F6F6D777F7F7F7F3A
:100280001FE7FBFDFD7EBEDEDEEEF0F6EFEFF6F9DA
:10029000AA5500FDFEFFFFFFFFFFFFFFFFFFFFFF6F
:1002A000AA550000FFFFFFFFFFFFFFFFFFFFFFFF5B
:1002B000FFFEFE003F5F3F5F3F5F3F5F3F5F3F5F8F
:1002C0003F5F3FFDFDFBFBFBFBF7F7F7F7F7F7F7AA
:1002D000FBFCFF5F3F5F3F5F3F5F3F5F3F5F3F5F15
:1002E0003F5F3FFFFFFFFFFFFFFFFFFFFFFFFFFF3E
:1002F000AA55005F3F5F3F5F3F5F3F5F3F5F3F5FEC
:100300002A5500101000FEFEFEFEBE16EA06EE069E
:10031000EA16FEFEFE00FFFFFBFFDFFFFEFEFEFE15
:10032000FEC7BB7DFDFEFEFEFE3EDEEEEEEEEEDE29
:100330003EFEFEFE7EFDFBFBF0EFDF3F7F7F7F9FFB
:10034000E7F8FDFE7F7E7EFEFEFEFEFEFEFEFEFE6A
:10035000FEFEAA56007FBF9EA1BFBF7FFFFFFFFF2B
:10036000FFFFAA550000FFFFFFEFFDFFFFFF877BA8
:10037000FDFDFEFEFE00FFFFFFFEFFFFF7FFBFFFDC
:10038000FEFEFEFEC2FE7DBDDBE1CA95AA15AAD423
:1003900021F5F6EEEFBC7F7F7F7FBFCFB17EFFFF01
:1003A000FFFE7D83F7EFDFDF9F5FDFEFF0FFFFFFF3
:1003B000FFFFAA5500EFEFEFF7F8FFFFFFFFFFFF8A
:1003C000FFFFAA550000FFFFFFFFFFFFFFFFFFE752
:1003D000D7B7776FEF003F5F3F5F3F5F3F5F3F5FA4
:1003E0003F5F3F5F3EF7FBDBEB7AB5D30FFFFEFCD1
:1003F00002DEEFAF6F5E3E5E2E573B5C3F5F2F51DC
:100400003E5E3D5B3BEFDFBFBFDFDF5F9FFFFFFF78
:10041000FFFFAA55005B3B5B3D5D3E5F3F5F3F5F7B
:100420003F5F2A5500101000FEFEFEFEFEFEFEFE9F
:10043000FEFEFEFEFEFEFE00FFFFFFFFFFFFFFFFD2
:10044000FFFFFF7FBFDFEFFEFEFEFEFE7E7E7EBE75
:10045000BEBEBEBEBEBEBEF7FBFDFEFEFFFBF5F59B
:10046000EDEDDBDBDBB7B77E7EFEFEFEFEFEFEFEC5
:10047000FEFEFEFEAA56006F6F9EFEFDFBC73FFF0D
:10048000FFFFFFFFAA550000FFFFFFFFFFFFFF7FF9
:100490008FF3FCFFFFFFFD00FFFFFFFFFFFF07F8EB
:1004A000FFFFFDFAF6F6EEFAFAF6F6F6EEDDDDBB44
:1004B000BBB7776F9FFFFFEEEDDDDDBBB7B7AFDFFB
:1004C000FFFFFF7FFF7FBFFFFFFFFF7FAF15C0FF75
:1004D000FFFFFFFFAA55005FAFD7EBF5F8FEFFFF68
:1004E000FFFFFFFFAA550000FFFFFFFFFFFFFCF328
:1004F000EFDFBFBF7F7F3F003F5F3F5F3F5F3F5FFB
:100500003F5F3F5F3F5F3F5F2F5F2F572F97ABD717
:10051000CBE5EAF5FAFDFE5F3F5F3F5F3F5F3F5F80
:100520003F5F3F5F3F5F3FFFFFFFFFFFFFFFFFFFBB
:10053000FFFFFFFFAA55005F3F5F3F5F3F5F3F5FE9
:100540003F5F3F5F2A5500101000FEFEFEEECEAE6C
:10055000AE6EDEDEDEBEBE72CA009FAFAFAFAFB71B
:10056000B7B7767675EBDFFFFE3AF6EE9E7EFEFEBF
:10057000FEFEFEFEFEDEEEEEF6F9FFDFDFA07FFF01
:10058000FBFDFBFDBBDFBFDFBF76B6FEF876C686A0
:1005900046F6B6F6C686AA5600FFF7FB7E9FEFF733
:1005A000FFFE3ECDFDFBAA5500007FBF5FEFF7EBDE
:1005B0005DBD8E77FB7803FFFF00BFDFAFB2BDBE2E
:1005C000BF7F7F7FFEF0F7FBDD3EC1FBF7CF3FFC37
:1005D00003FFFFFF0313030387DEEFDFDFFFFEFDF3
:1005E000FE0F8DDEFEFDBEBEDC1F9F3F3FBF3F9F67
:1005F0001F9E1F9FCFFFAA5500BEBEFCFEFCFEFE45
:100600005CBE1E5DBFFFAA550000FFFFFBFDFDFDA8
:10061000FBFF7F7F7E7DFDFDFB003F5F3F5F3F5F18
:100620003F5E3F5F3F5F3E5F3FFBF7F701FDFD9B96
:10063000FBFCFDFB9BFDFD03FF5F3F5F3C5F3F5FFE
:10064000315030513F5F3F403BFFFFFFF7FBFBF76F
:100650007BFB777FFFFFAA550057374F2F5F3F5F28
:100660003D5E3C5D3E5F2A5500437265646974736C
:1006700000506C61790000000000003E5B4F5B3E63
:100680003E6B4F6B3E1C3E7C3E1C183C7E3C181C57
:10069000577D571C1C5E7F5E1C00183C1800FFE74E
:1006A000C3E7FF0018241800FFE7DBE7FF30483AF4
:1006B000060E2629792926407F050507407F052556
:1006C0003F5A3CE73C5A7F3E1C1C08081C1C3E7FDE
:1006D00014227F22145F5F005F5F06097F017F00A5
:1006E0006689956A606060606094A2FFA2940804C5
:1006F0007E040810207E201008082A1C08081C2AE6
:1007000008081E101010100C1E0C1E0C30383E383D
:1007100030060E3E0E06000000000000005F0000E4
:100720000007000700147F147F14242A7F2A122355
:100730001308646236495620500008070300001C65
:100740002241000041221C002A1C7F1C2A08083E6E
:100750000808008070300008080808080000606081
:100760000020100804023E5149453E00427F4000EF
:1007700072494949462141494D331814127F1027C7
:10078000454545393C4A4949314121110907364916
:10079000494936464949291E0000140000004034EA
:1007A00000000008142241141414141400412214EF
:1007B0000802015909063E415D594E7C1211127C16
:1007C0007F494949363E414141227F4141413E7F77
:1007D000494949417F090909013E414151737F0857
:1007E00008087F00417F41002040413F017F0814FD
:1007F00022417F404040407F021C027F7F0408105E
:100800007F3E4141413E7F090909063E4151215E3B
:100810007F09192946264949493203017F01033FCF
:100820004040403F1F2040201F3F4038403F63145E
:1008300008146303047804036159494D43007F4160
:1008400041410204081020004141417F040201029D
:1008500004404040404000030708002054547840C2
:100860007F284444383844444428384444287F3856
:100870005454541800087E090218A4A49C787F08D8
:1008800004047800447D40002040403D007F102853
:10089000440000417F40007C047804787C08040414
:1008A000783844444438FC1824241818242418FCAC
:1008B0007C08040408485454542404043F44243C51
:1008C0004040207C1C2040201C3C4030403C4428C0
:1008D0001028444C9090907C4464544C440008365A
:1008E00041000000770000004136080002010204C8
:1008F000023C2623263C1EA1A161123A4040207AE8
:100900003854545559215555794121545478412131
:100910005554784020545579400C1E527212395566
:100920005555593954545459395554545800004563
:100930007C410002457D420001457C40F02924298C
:10094000F0F0282528F07C545545002054547C5460
:100950007C0A097F49324949493232484848323293
:100960004A4848303A4141217A3A42402078009D35
:10097000A0A07D39444444393D4040403D3C24FFE3
:100980002424487E4943662B2FFC2F2BFF0929F690
:1009900020C0887E090320545479410000447D41E1
:1009A0003048484A32384040227A007A0A0A727D3A
:1009B0000D19317D2629292F282629292926304855
:1009C0004D4020380808080808080808382F10C8C3
:1009D000ACBA2F102834FA00007B000008142A1447
:1009E0002222142A14089500220095AA005500AA74
:1009F000AA55AA55AA000000FF00101010FF00140D
:100A00001414FF001010FF00FF1010F010F0141469
:100A100014FC001414F700FF0000FF00FF1414F48E
:100A200004FC141417101F10101F101F1414141F8F
:100A300000101010F0000000001F101010101F1008
:100A4000101010F010000000FF1010101010101007
:100A50001010FF10000000FF140000FF00FF000056
:100A60001F10170000FC04F414141710171414F4CA
:100A700004F40000FF00F714141414141414F70005
:100A8000F7141414171410101F101F141414F41456
:100A90001010F010F000001F101F0000001F1400C5
:100AA0000000FC140000F010F01010FF10FF1414F0
:100AB00014FF141010101F00000000F010FFFFFFC3
:100AC000FFFFF0F0F0F0F0FFFFFF0000000000FF7C
:100AD000FF0F0F0F0F0F38444438447C2A2A3E146E
:100AE0007E02020606027E027E0263554941633899
:100AF00044443C04407E201E2006027E020299A54A
:100B0000E7A5991C2A492A1C4C7201724C304A4DA7
:100B10004D303048784830BC625A463D3E494949DC
:100B2000007E0101017E2A2A2A2A2A44445F444485
:100B300040514A444040444A51400000FF0103E014
:100B400080FF000008086B6B083612362436060F4B
:100B5000090F06000018180000001010003040FFB8
:100B60000101001F01011E00191D1712003C3C3C31
:100B70003C0000000000F0F89C8E8783878E9CF874
:100B8000F00000FEFF0303030303070EFCF8000060
:100B9000FEFF0303030303070EFCF80000FFFF0042
:100BA000000000000000FFFF0000FEFF838383833E
:100BB00083C7EE7C380000F8FC0E07030303070E22
:100BC000FCF800003F7FE0C08080C0E07F3FFFFF77
:100BD00001010101010101FFFF0000FFFF0C0C0CEE
:100BE0000C1C3E77E3C100007FFFC0C0C0C0C0E066
:100BF000703F1F00001F3F70E0C0C0C0E0703F1F8B
:100C000000007FFFC1C1C1C1C1E3773E1C00001FCE
:100C10003F70E0C0C0C0E0703F1F00000000000156
:100C2000FFFF01000000D5F08D14A1C881CFD9F1DC
:100C3000AF20002020002020004170616368652003
:100C40004C6963656E636520322E3000AC00B800DD
:100C5000417274697374733A00B80050726F6772AE
:100C6000616D6D6572733A005375636365737321CB
:100C700000080800080C7E7E0C0800001818187E7A
:100C80003C18000010307E7E30100000183C7E18AA
:100C900018180052656164793F0047052504030375
:100CA000E101BF00200010008022000000000000D1
:100CB0000000000000000000000000000000000034
:100CC000F0F00C0C0C0C0C0C30300000FCFC0000A4
:100CD00000000000000000000C0C0C0CFCFC0C0CD4
:100CE0000C0C0000FCFC0C0C0C0C0C0CF0F00000CC
:100CF0000C0C0C0CFCFC0C0C0C0C0000FCFC303044
:100D0000C0C000000000FCFC0000F0F00C0C0C0C5B
:100D10000C0C30300000000000000000000000005B
:100D200000000000000000000000000000000000C3
:100D300000000000000000000000000000000000B3
:100D40003030C3C3C3C3C3C33C3C0000FFFFC0C0BB
:100D5000C0C0C0C0C0C00000C0C0C0C0FFFFC0C095
:100D6000C0C00000FFFFC0C0C0C0C0C03F3F000007
:100D7000C0C0C0C0FFFFC0C0C0C00000FFFF000077
:100D8000000003030C0CFFFF00003F3FC0C0C0C0C9
:100D9000CCCC3C3C00000000000000000000000043
:100DA0000000000000000000000000000000000043
:100DB0000000000000000000000000000000000033
:100DC0000000000000000000000000000C0C0C0CF3
:100DD000FCFC0C0C0C0C00000C0C0C0CFCFC0C0CAB
:100DE0000C0C0000FCFC00000000000000000000F3
:100DF000FCFC0C0C0C0C0C0C0C0C0000F0F00C0CA3
:100E00000C0C0C0C30300000000000000000000052
:100E100000000000000000000000000000000000D2
:100E200000000000000000000000000000000000C2
:100E300000000000000000000000000000000000B2
:100E400000000000000000000000000000000000A2
:100E5000FFFF000000000000C0C0C0C0FFFFC0C016
:100E6000C0C00000FFFFC0C0C0C0C0C0C0C0000004
:100E7000FFFFC3C3C3C3C3C3C3C300003030C3C376
:100E8000C3C3C3C33C3C00000000000000000000DE
:100E90000000000000000000000000000000000052
:100EA0000000000000000000000000000000000042
:100EB0000000000000000000000000000000000032
:100EC0000000000000000000000000000000000022
:100ED0000000000000000000000000000000000012
:100EE0000000000000000000000000000000000002
:100EF00000000000000000000000000000000000F2
:100F000000000000000000000000000000000000E1
:100F100000000000000000000000000000000000D1
:100F200000000000000000000000710602690603D6
:100F3000447265616D657232333435005068617298
:100F40006170003030000000000000000000000070
:100F500000008040201088C4E4F2F2F2F2F2F2F2D3
:100F6000E4C4881020408000000000000000000061
:100F70000000000000000000000000000000C03081
:100F80000C03C0F0FCFFFFFFFFFFFFFFFFFFFFFFB1
:100F9000FFFFFFFFFCF0C0030C30C00000000000AA
:100FA00000000000000000000000C0300C03C0F092
:100FB000FCFFFFFFFFFFFFFFFFFFFFFFFFFFFFFF44
:100FC000FFFFFFFFFFFFFFFFFCF0C0030C30C0007E
:100FD0000000000000000000FC0300F0FCFFFFFF29
:100FE000FFFFFFFFFF0101010101010101010101FB
:100FF00001010101FFFFFFFFFFFFFFFFFCF0000306
:10100000FC000000000000001F20408F1F3F3F3FFA
:101010003F3F3F3F3F000000000000000000000095
:10102000000000003F3F3F3F3F3F3F3F1F8F4020BA
:101030001F0000000000000000000000010101018D
:101040000101010101010101010101010101010190
:101050000101010101010101010101010100000083
:101060000000000000303000000000000000000020
:101070000000000000000080804040202020202050
:101080002020204040808000000000000000000080
:101090000000000000000000000000000000000050
:1010A00080601088E4F2F97C7C7E7EFFFFFFFFFF0A
:1010B000FFFFFF7E7E7C7CF9F2E4881060800000F8
:1010C000000000000000000000000000000000FE22
:1010D0000100FEFFFF0100000000000001FFFFFF14
:1010E000FF0100000000000001FFFFFE0001FE0004
:1010F00000000000000000000000000000000001EF
:10110000061821479F3E7CF8F8F8F8FCFEFFFFFF29
:10111000FFFEFCF8F8F8F87C3E9F47211806010016
:1011200000000000000000000000000000000000BF
:1011300000000000000102FC00017F7F03037F7FAD
:1011400003037F7F0100FC0201000000000000009B
:10115000000000000000000000000000000000008F
:101160000000000000000000010202020202020270
:101170000202020202010000000000000000000064
:10118000000000000000004572726F723A20496E44
:1011900076616C69642053746174650A506C656192
:1011A0007365207265706F72742074686973207043
:1011B000726F626C656D0A746F207468652061756A
:1011C00074686F722E00080B00020202000009040E
:1011D00000000102020000052400100105240101A5
:1011E00001042402060524060001070581031000FE
:1011F0004009040100020A00000007050202400045
:1012000000070583024000000403090412010002E4
:10121000EF020140412336800001010203014172C7
:101220006475696E6F204C4C430041726475626F47
:10123000790040400030CC0432B204A4A29294A4BD
:10124000A29294A4A29294A4A29294A4A29294A4EE
:10125000A29294A4A49492A2A49492A2A49492A2DE
:10126000A49492A2A49492A2A49492A2A404B232AE
:1012700004CC30000033CC00669900FF0000000071
:10128000000000000000000000000000000000005E
:10129000000000000000000000000000000000004E
:1012A000000000000000000000000000FF00996640
:1012B00000CC33000033CC00669900FF0000000032
:1012C000040808F81010F0E0E0E020F090100800AA
:1012D0000000000000040C1830E02060E0E0E02096
:1012E00020E040602010000000000000FF00996630
:1012F00000CC33000033CC00669900FF00000000F2
:101300000000000F18102323232320301F008080AB
:1013100040603C000000000000030C181111190C83
:10132000060300000000000000000000FF009966B6
:1013300000CC330000CC3300669900FF00000000B1
:101340000000000000000000000000000000070C8A
:10135000080808080000000000000000000000006D
:10136000000000000000000000000000FF0099667F
:101370000033CC0000CC3300669900FF0000000071
:101380000004040C1C3602030101010101010101EA
:101390000101010101010101020202020404089895
:1013A000D06030100000000000000000FF009966CF
:1013B0000033CC0000CC3300669900FF0000000031
:1013C000000000000000000000000000000000001D
:1013D000000000000000000000000000000000010C
:1013E000000000000000000000000000FF009966FF
:1013F0000033CC00000C33204C4D202545492925D5
:10140000454929254549292545492925454929256C
:10141000454929252529494525294945252949455C
:1014200025294945252949452529494525204D4C4A
:1014300020330C004D6F76657300F11311241FBE2D
:10144000CFEFDAE0DEBFCDBF11E0A0E0B1E0E4E431
:10145000F6E302C005900D92AC33B107D9F725E051
:10146000ACE3B1E001C01D92A83DB207E1F71AE07C
:10147000CEE1DAE004C02197FE010E94151BCD31B8
:10148000D107C9F70E9427140C94201B0C9400006C
:10149000EBE5F1E0A0E0B8E000800EBC8111012C8A
:1014A0001197A0FDFDCF0192B9F70DB408959C01ED
:1014B0008038910564F5480F592F511D4138510569
:1014C00014F040E850E0421BCB018770992791E06F
:1014D00001C0990F8A95EAF777FF02C0695F7F4FD5
:1014E000FB0183E0F595E7958A95E1F7F695FE2FE8
:1014F000EE27F795E795E20FF31FE55AFE4F4150AF
:1015000030F08191DF011197892B8C93F8CF0895EA
:10151000FC0180915A01882311F13FB7F89482E0D1
:101520008093E9002091F200822F90E018161906AE
:1015300014F481E090E0882339F0289844E6409341
:1015400059014091F1004083222339F02091F200AB
:10155000211103C02BE62093E8003FBF08958FEFD1
:101560009FEF08952FB7F89483E08093E90090915E
:10157000E800892F807295FF04C09091F20080E40A
:10158000891B2FBF08958091510181110DC082E008
:1015900080934D0184E080934E011092500110928F
:1015A0004F0181E0809351018DE491E00895CF9344
:1015B000DF931F92CDB7DEB76983DC01ED91FC911B
:1015C0000280F381E02D41E050E0BE016F5F7F4F6C
:1015D00009950F90DF91CF91089583E08093E90002
:1015E0008091F200882319F08AE38093E80008953F
:1015F0000E94B20A90E00895CF93DF931F92CDB777
:10160000DEB7FC018485958597FD08C02FEF3FEF7D
:10161000358724870F90DF91CF910895CE010196F1
:101620000E94880A019719F4898190E0F3CF8FEF27
:101630009FEFF0CF0F931F93CF93DF931F92CDB700
:10164000DEB78C01FC018485958597FF0BC0CE0128
:1016500001960E94880A019771F4898190E0F8014F
:1016600095878487F801848595850F90DF91CF91C8
:101670001F910F9108958FEF9FEFF1CFFC018485AB
:10168000958597FD0BC09FB7F89482E08093E900A1
:101690008091F2009FBF90E0019608959FB7F89463
:1016A00082E08093E9008091F2009FBF90E008956E
:1016B00040914701509148012091450130914601E8
:1016C00042175307B4F49091E8009570E1F39091BC
:1016D000E80092FD19C08093F1008091470190913C
:1016E000480101968F739927892B19F48EEF809307
:1016F000E80080914701909148010196909348013C
:101700008093470181E0089580E00895DF92EF9291
:10171000FF920F931F93CF93DF93D82E8A01EB0193
:101720007B01E40EF51ECE15DF0559F0D7FE12C081
:10173000FE0184910E94580B21968111F4CF0FEF86
:101740001FEFC801DF91CF911F910F91FF90EF9094
:10175000DF9008958881EECF0F931F93CF93DF938F
:101760001F92CDB7DEB782E0898342E450E066EC99
:1017700071E180E80E94860B0E94C30ADC01129688
:101780000D911C910115110589F0D801ED91FC9185
:101790000280F381E02DBE016F5F7F4FC801099584
:1017A00097FD04C0F80100851185ECCF89810F9069
:1017B000DF91CF911F910F910895615030F02091EA
:1017C000F100FC0120830196F8CF289884E68093ED
:1017D000590108953FB7F8948091410190914201D9
:1017E000A0914301B091440126B5A89B05C02F3FAD
:1017F00019F00196A11DB11D3FBFBA2FA92F982F37
:101800008827BC01CD01620F711D811D911D42E031
:10181000660F771F881F991F4A95D1F708958F92F9
:101820009F92AF92BF92CF92DF92EF92FF926B01A5
:101830007C010E94EA0B4B015C01C114D104E1045C
:10184000F104B9F00E94EA0B681979098A099B0929
:10185000683E73408105910580F321E0C21AD108EA
:10186000E108F10888EE880E83E0981EA11CB11CE7
:10187000E4CFFF90EF90DF90CF90BF90AF909F901C
:101880008F9008958F929F92AF92BF92CF92DF92E6
:10189000EF92FF920F931F93CF93DF936C017B0125
:1018A0008A0180910B01882309F45CC080915A0160
:1018B000882309F457C080914C0180FF05C08091B6
:1018C000E00082608093E000E801B12C8AEFA82E4E
:1018D00093E0892E2AE3922E209711F4BB20D9F1B0
:1018E0000E94B20A81110AC0AA94AA20D9F161E02B
:1018F00070E080E090E00E940F0CEECF8C171D0688
:1019000011F00CF08C2F9FB7F8948092E900209191
:10191000E80025FD02C09FBFDFCF282F30E0C21BAB
:10192000D30BF701815020F041914093F100FACFA1
:10193000E20EF31EBB2021F09092E800B12CEBCF19
:101940008091E80085FDE7CF9092E800BB24B39436
:10195000209709F3F3CF5D9884E680934B0110162E
:1019600011063CF081E090E0F6019383828310E061
:1019700000E0C801DF91CF911F910F91FF90EF9090
:10198000DF90CF90BF90AF909F908F900895EF928F
:10199000FF920F931F93CF93DF938C017B01D0E0D5
:1019A000C0E0F701EC0FFD1F6491662361F0D801E0
:1019B000ED91FC910190F081E02DC8010995892BF2
:1019C00011F02196EECFCE01DF91CF911F910F91B3
:1019D000FF90EF900895AF92BF92CF92DF92EF9277
:1019E000FF920F931F93CF93DF936C017B018B01C9
:1019F000040F151FEB015E01AE18BF08C017D10719
:101A000059F06991D601ED91FC910190F081E02DA2
:101A1000C6010995892B79F7C501DF91CF911F91F7
:101A20000F91FF90EF90DF90CF90BF90AF9008950F
:101A30006F927F928F929F92AF92BF92CF92DF92DE
:101A4000EF92FF920F931F93CF93DF938C01411579
:101A5000510509F4D4C0FA01D490319694914E5FA7
:101A60005F4FAD2DB0E02223E1F0C1E0D0E0892F3F
:101A7000877011F4D0E0C0E0E92FE695E695E69591
:101A8000EC0FFD2FF11DEA9FE001EB9FD00DFA9FB7
:101A9000D00D11242C9FF0012D9FF00D11244E0F1D
:101AA0005F1F7D01E00EF11E1E141F040CF0A7C085
:101AB000003811050CF0A3C09B01290F311D12162F
:101AC00013060CF09CC0603471050CF098C04115F1
:101AD000510509F494C0D62FD7709B0177FF02C03F
:101AE000295F3F4F83E0359527958A95E1F7F22FDF
:101AF00077FF04C0DD2311F0FFEFF20F2227332719
:101B0000201B310B17FD02C030E020E0C0E8C01BF5
:101B100060E8E616F1040CF4CD2DC21B6F2F0F2EDA
:101B2000000C770BF62EF094FF3F0CF0F12CE1E067
:101B3000892F877009F4E0E09695969596959E0F0B
:101B4000690F711D6930710514F098E09F1B9F2C7F
:101B50009F0E792D60E8760350011124B501600FC6
:101B6000711F620F731FDF9C200D311D1124420F66
:101B7000531FED2E0D2E000CFF082FEF30E00D2E21
:101B800002C0220F331F0A94E2F720953095832E6E
:101B90009F0F9915A1F18B01055A1E4FD12CC12C15
:101BA000CC1638F5FA01EC0DFD1DE491F0E03F0193
:101BB0000E2C02C0660C771C0A94E2F797FC05C055
:101BC000F8018081822386298083DD2361F0F6E09D
:101BD000F9154CF0580180E8A80EB11CF501808180
:101BE000882187298083FFEFCF1ADF0A0F5F1F4FFD
:101BF000D7CF93944A0F5B1F60587F4FCACFDF91B6
:101C0000CF911F910F91FF90EF90DF90CF90BF90F9
:101C1000AF909F908F907F906F900895CF92DF92BA
:101C2000EF92FF920F931F93CF93DF9388ECE82EF0
:101C300085E0F82EC8E0D0E0670108E210E0F60188
:101C400021916F014091C6055091C705BE01C801A1
:101C50000E94180D005F1F4F0835110581F7F3E052
:101C6000EF0EF11C6096C833D10531F7DF91CF91AB
:101C70001F910F91FF90EF90DF90CF90089520E09B
:101C800042E352E170E060E080E290E00C94180DD5
:101C90002D9A0895BC0190E080E00C940F0C8FB158
:101CA0008095807F669B88601C9B8460089520E1FE
:101CB00091E061FD94E060FD990F62FD9295687F6F
:101CC000269FD0011124A80FA55ABE4F8C9140FF2A
:101CD00003C0892B8C93089590958923FBCFDF92C5
:101CE000EF92FF920F931F93CF93DF937C01EB0151
:101CF000D22E8B01040F111DC8010134110514F0FF
:101D000080E490E0C817D9075CF480E8E816F10495
:101D100028F44D2DBE01C7010E94570E2196ECCF2D
:101D2000DF91CF911F910F91FF90EF90DF90089579
:101D3000CF92DF92EF92FF920F93CF936B017A01D4
:101D4000C22F403451052CF4422FB701C6010E9426
:101D5000570AB701600F711D615071096034710538
:101D600024F44C2FC6010E94570A21E0402FB701EE
:101D7000C6010E946F0EC6018C0F911D21E0402FFD
:101D8000B7010197CF910F91FF90EF90DF90CF9027
:101D90000C946F0EAF92BF92CF92DF92EF92FF92B0
:101DA0000F931F93CF93DF935A01EB016B01C20E88
:101DB000D11C040F152F111DCC15DD05C4F47501C0
:101DC000C8010134110514F080E490E0E816F9062A
:101DD00064F4C038D1052CF440E0B701CE010E9474
:101DE000570E8FEFE81AF80AEBCF2196E5CFDF9177
:101DF000CF911F910F91FF90EF90DF90CF90BF9008
:101E0000AF9008952F923F924F925F926F927F9280
:101E10008F929F92AF92BF92CF92DF92EF92FF92FA
:101E20000F931F93CF93DF93CDB7DEB728970FB6ED
:101E3000F894DEBF0FBECDBF9E838D836A3061F5FF
:101E4000DC0155968C91B8E08B9F90011124ED81B7
:101E5000FE8181899289820F931F928B818B108AD8
:101E6000178681E090E028960FB6F894DEBF0FBE8B
:101E7000CDBFDF91CF911F910F91FF90EF90DF9039
:101E8000CF90BF90AF909F908F907F906F905F901A
:101E90004F903F902F9008956D3019F32D813E8122
:101EA00038872F83D9011F960D911C9150970038C8
:101EB00011050CF07CC05196AD90BC90B0E4AB160F
:101EC000B1040CF074C0F901258825E0C801229EF8
:101ED000800D911D1124181619060CF068C0622C93
:101EE000712CC30133E0880F991F3A95E1F78A0DF1
:101EF0009B1D181619060CF05AC0F489FB83AF819C
:101F0000B8855396BC91BC83629FB0011124FB013C
:101F1000EA58F94F2F011982F2018491F981F530C5
:101F200009F480E0450128E02A83A82FB0E0BE83B1
:101F3000AD833C8080FF3B80311004C0BB81EC81CD
:101F4000BE17F9F078018E2D801B8215D0F4D12CAC
:101F5000C12CC21490F4F0E8EF16F10450F4B6016D
:101F6000680D791D6034710520F4432DC7010E946E
:101F7000570E2FEFC21AD20AECCF3FEFE31AF30A43
:101F8000E2CF8D819E81959587959A8191509A8314
:101F9000860C971C9111C9CFA981AF5FA983BFEFB0
:101FA0004B1A5B0A060D171DA63009F0B5CFEF815D
:101FB000F8852589422F50E087859089F6E02F9F8C
:101FC000800D911D1124AF81B88550969C938E93FE
:101FD0001F9756962C915697222309F442CF6AEF09
:101FE00064039001659F300D112420583F4F28173E
:101FF00039070CF036CFED91FC9111970190F081EB
:10200000E02D6AE0CD0109952CCFFC019681962345
:1020100021F48581682381E009F480E00895089522
:10202000089590E080E00895FB0101900020E9F719
:102030003197AF01461B570BDC01ED91FC910280FB
:10204000F381E02D09940F931F93CF93DF93EC015D
:102050000E94C70C8C0169E371E0CE010E9414104C
:10206000800F911FDF91CF911F910F9108958F9253
:102070009F92AF92BF92EF92FF920F931F93CF93D5
:10208000DF93CDB7DEB7A1970FB6F894DEBF0FBED2
:10209000CDBF7C0164E374E10E9423102091D3053D
:1020A0003091D4054091D5055091D60519A28E01E5
:1020B0000F5D1F4F8AE0882E912CA12CB12CCA01F4
:1020C000B901A50194010E94F31A605DF8016293C1
:1020D0008F01211531054105510589F7309721F010
:1020E000BF01C7010E94141069E371E0C7010E949B
:1020F0001410A1960FB6F894DEBF0FBECDBFDF91CE
:10210000CF911F910F91FF90EF90BF90AF909F9054
:102110008F9008950C94DD1A0E941B1B1F920F9242
:102120000FB60F9211248F939F938091E1009091AD
:10213000E100937F9093E10083FF0FC01092E900CC
:1021400091E09093EB001092EC0092E39093ED00FD
:1021500010925A0198E09093F00082FF22C093E021
:102160009093E9009091F200992319F09AE39093EB
:10217000E80090914B01992341F090914B019150CF
:1021800090934B01911101C05D9A9091590199234F
:1021900041F090915901915090935901911101C0D2
:1021A000289A84FF18C08091E2008E7E816080931F
:1021B000E2008091E1008F7E8093E10080914C01EC
:1021C0008E7E806180934C019F918F910F900FBE06
:1021D0000F901F90189580FFF7CF8091E2008E7EC0
:1021E00080618093E2008091E1008E7E8093E10027
:1021F00080914C018E7E8160E5CF1F920F920FB6C9
:102200000F921124CF92DF92EF92FF920F931F93C0
:102210002F933F934F935F936F937F938F939F93EE
:10222000AF93BF93EF93FF93CF93DF93CDB7DEB719
:102230006C97DEBFCDBF1092E9008091E80083FF6C
:1022400025C068E0CE0145960E94DD0B82EF8093A9
:10225000E8008D8987FF39C09091E80090FFFCCF9E
:10226000982F907609F034C19E894F89588D2F8917
:10227000F88C911131C0803861F580914A018093CA
:10228000F1001092F1008EEF8093E8006C960FB68B
:10229000F894DEBF0FBECDBFDF91CF91FF91EF91DC
:1022A000BF91AF919F918F917F916F915F914F916E
:1022B0003F912F911F910F91FF90EF90DF90CF9062
:1022C0000F900FBE0F901F9018959EEF9093E8000F
:1022D000C7CF1092F100D5CF913059F48111D3CFEF
:1022E0004130510581F680914A018D7F80934A01EA
:1022F000CACF933049F48111C6CF4130510519F648
:1023000080914A018260F2CF953041F48091E800DB
:1023100080FFFCCF20682093E300B5CF963009F012
:10232000A9C00B8D1C8D22E01092E900109248018B
:1023300010924701F2122EC01092460110924501F0
:102340000E94AC0B1F8299E09983FA8291E09E83F0
:1023500090EA98879AEF9987209147013091480138
:10236000275F3F4F3C832B838D831092E9001092AF
:10237000480110924701109346010093450149E03E
:1023800050E0BE016F5F7F4F80E00E94860B0E948D
:10239000AC0B79CF10934601009345010E94C30A0C
:1023A000DC0112960D911C910115110509F451C122
:1023B000D801ED91FC910480F581E02DBE016B5EAA
:1023C0007F4FC8010995009709F03EC1F8010085CB
:1023D0001185EACFF3E0FF120EC08F89882309F43C
:1023E00040C0823061F440E867E08AE292E10E94F6
:1023F0007913811148CF81E28093EB0047CF813080
:1024000029F440E86BE08EE192E1F1CF833099F757
:102410000E94C30ADC011296ED90FC908E010F5FC2
:102420001F4F6801E114F10479F0D701ED91FC919F
:102430000680F781E02DB801C7010995080F111D2D
:10244000F701E084F184EECFD8011C92F6010190EF
:102450000020E9F73197BF016C197D0940E0C60102
:10246000C6CF68E072E1FB01449150E080E80E9431
:10247000860B09CF973009F4BECF983021F481E064
:102480008093F10000CF993009F0FDCE837009F000
:10249000B2CFEDE0F1E081E031E096E3219122233B
:1024A00071F08093E9003093EB00DF0111972C91DC
:1024B0002093EC009093ED008F5F873079F78EE7E3
:1024C0008093EA001092EA008F8980935A01DBCE54
:1024D0008B8D9C8D1092E90010924801109247015B
:1024E0009093460180934501898D811192C08E8918
:1024F0009D89913A49F4813209F07DCF47E050E05F
:1025000064E071E080E0B3CF913209F074CF8332A0
:1025100069F48F89988DB0E0A0E0809300019093DA
:102520000101A0930201B0930301ADCE803269F4A2
:102530008091E80082FFFCCF67E084E091E00E9498
:10254000DD0B8BEF8093E8009ECE823209F09BCEAC
:102550008F8980930B01EEEFFFE7859194918B3F7C
:102560009C4D51F1E0E0F8E080910401909105016B
:10257000A0910601B0910701803B9440A105B105EF
:10258000F1F480910B0180FD1AC0EE3F8AE0F8075C
:1025900089F587E797E79183808380916000809336
:1025A000490188E19BE00FB6F894A89580936000FC
:1025B0000FBE9093600067CEEEEFFAE0D5CF80813A
:1025C00091818737974709F05ECEA895809160008A
:1025D0008861809360008091490180936000EE3FA4
:1025E0002AE0F20789F08091FE0A9091FF0A918318
:1025F000808349CE808191818737980751F29093EB
:10260000FF0A8093FE0AC5CF1092FF0A1092FE0ABD
:102610003ACE0E94C30ADC0112960D911C9101155D
:10262000110509F4E8CED801ED91FC910190F081FB
:10263000E02DBE016B5E7F4FC8010995811123CE4D
:10264000F80100851185EBCF181619060CF41BCE86
:10265000D2CEF1E0FF12BECE6CE072E104CF1F9249
:102660000F920FB60F9211242F933F938F939F9346
:10267000AF93BF9380913D0190913E01A0913F01A6
:10268000B091400130913C0123E0230F2D3758F5E4
:102690000196A11DB11D20933C0180933D019093B3
:1026A0003E01A0933F01B093400180914101909180
:1026B0004201A0914301B09144010196A11DB11DB9
:1026C0008093410190934201A0934301B093440150
:1026D000BF91AF919F918F913F912F910F900FBE1E
:1026E0000F901F90189526E8230F0296A11DB11D8B
:1026F000D2CFEF92FF920F931F93CF93DF93F82ED9
:10270000192FE62E042F81E0860F880F0E94580BA8
:1027100083E00E94580BCF2DD12FEC0EFD2EF11C23
:10272000CE15DF05B9F007FF13C0FE0184910E94AA
:10273000580B182F80E00E94580B8123219681119D
:10274000EFCFDF91CF911F910F91FF90EF90089500
:102750008881EDCF81E0F5CF0F931F93CF93DF9367
:102760008C0181E090E00E948A1080FF32C08AE0F4
:1027700090E00E948A109FEF980F9E3F50F522E351
:1027800030E0D80150963C932E931F9728E330E019
:1027900052963C932E935197CBE0D0E0D801ED9127
:1027A000FC910190F081E02D682FC8010995CE01C0
:1027B0000E948A102196C131D10581F780E00E94E4
:1027C000480A88EE93E0DF91CF911F910F910C940E
:1027D0004A0EDF91CF911F910F91089504970C94A9
:1027E000AC13EBE5F5E01382128288EE93E0A0E0F3
:1027F000B0E084839583A683B78387E191E09183DA
:1028000080838FEF9FEF95878487EBEAF5E0108256
:10281000148213821286138680E1848711861086C3
:10282000168689E291E09283818387E391E0968323
:102830008583118A108A138A128A81E0848B158A13
:10284000868B178A118E128E148E138E0895CF9355
:10285000DF93CDB7DEB729970FB6F894DEBF0FBE72
:10286000CDBF789484B5826084BD84B5816084BD19
:1028700085B5826085BD85B5816085BD80916E001E
:10288000816080936E00109281008091810082604F
:10289000809381008091810081608093810080918C
:1028A000800081608093800080919100826080939D
:1028B00091008091910081608093910080919000BF
:1028C0008160809390008091C10084608093C100FA
:1028D0008091C10082608093C1008091C1008160BD
:1028E0008093C1008091C30081608093C300809178
:1028F000C00082608093C0008091C200816080939C
:10290000C20080917A00846080937A0080917A007E
:10291000826080937A0080917A00816080937A004F
:1029200080917A00806880937A0010925A01109208
:102930004A0110924C018091D70081608093D700AA
:1029400080EA8093D80089B5806189BD89B58260AD
:1029500089BD09B400FEFDCF61E070E080E090E049
:102960000E940F0C8091D8008F7C80618093D800EA
:102970008091E000807F8093E0008091E1008E7E76
:102980008093E1008DE08093E200559A209A81ECDB
:1029900080937C0085B1806F85B984B1877E84B9CE
:1029A00084B1876E84B95E9A5F988AB1806D8AB966
:1029B000769A6E9881B3806F81BB899880B38D7051
:1029C00080BB80E58CBD81E08DBD85E090E00E94FC
:1029D0004A0E5F9A85E090E00E944A0E5E985C98ED
:1029E000E6E2FCE084918EBD00000DB407FEFDCF51
:1029F00031964CE0E333F407A9F75C9A81E88093C1
:102A000064008091650081608093650080E00E9491
:102A1000480A0E944F0E87FF15C05C9885EA8EBD5C
:102A200000000DB407FEFDCF5C9A2E982F982D98CC
:102A30008091640080628093640081E083BF889508
:102A400013BEFCCF0E944F0E82FF48C02D980E94FB
:102A50004F0E84788438E1F40E94480E88EC90E0B0
:102A60000E944A0E2F9882E090E00E94DD1A8F3F6C
:102A700029F06FEF82E090E00E94E51A84EF91E088
:102A80000E944A0E2F9A0E944F0E84788438D9F300
:102A90000E944F0E84718431E1F40E94480E88EC4C
:102AA00090E00E944A0E2E9882E090E00E94DD1A8B
:102AB000882329F060E082E090E00E94E51A84EF2C
:102AC00091E00E944A0E2E9A0E944F0E847184312A
:102AD000D9F388EC90E00E944A0EB4CF0E94480ED1
:102AE00082E090E00E948A10882309F44AC03E9A4E
:102AF0003F9A81E090E00E948A10582F5470752E02
:102B000081FF11C051112E9801EF1FEFA8E0EA2EAE
:102B1000F12CB8E56B2E0E944F0E86FF35C02E9A21
:102B20002F9A0E94480E82E390E00E944A0E0E9473
:102B30004F0E8111F8CF40E1242E312C5EE2852E1C
:102B4000912C8FB7F89440913D0150913E016091D6
:102B50003F01709140018FBF8091B805F42FF81BA1
:102B60008F2F1091B905112309F4A5C0F093BA0570
:102B70001092B90580E090E0892B19F30E940000C3
:102B8000E0CF3E983F98B5CF772029F0043011056B
:102B900011F42E9A2F9881E00E94480A980117FF9D
:102BA00004C022273327201B310B27703327C8018D
:102BB00017FD0796F3E095958795FA95E1F717FFCE
:102BC00005C00197D701A21BB30B9D01BC017695EF
:102BD000762F662777956795655A7E4FB0E0A0E01F
:102BE0002701421A530A8E3FEFEF9E0709F43FC0B8
:102BF0006A9E50016B9EB00C112450E040E0F5013C
:102C0000EA58F44F5F014B01F0E88F0E911C8F3FA3
:102C1000980791F0F501E40FF51FE4916B01C40EE4
:102C2000D51EF0E01F01022E01C0220C0A94EAF723
:102C3000F60134882328248A2115310599F0F501FD
:102C4000E40FF51FE4916401C40ED51EF0E01F01EE
:102C5000042C02C0359427940A94E2F7F6013488D4
:102C60002328248A4F5F5F4F4835510581F601962E
:102C700060587F4F1197E1F480E00E94480A8FE08E
:102C800090E00E944A0E0F5F1F4F0931110509F0B5
:102C900042CF772011F02F9A2D9880E991E00E9481
:102CA0004A0E0E94480E8CEA95E00E94AC133BCF7E
:102CB000A1E0B0E098CF9091B705F91748F48F5F85
:102CC000891708F057CF81E083BF889513BE52CF94
:102CD00001E00093B9054093B8058091B305909148
:102CE000B40501969093B4058093B3058091B50522
:102CF0008093B6050E944F0E8093B505EBE5F1E099
:102D000011111FEF00241193119311931193039448
:102D1000D1F71092BE051092BD051092BC0510921D
:102D2000BB058091AB05813009F44DC068F082305D
:102D300009F4B7C0833009F4F3C367E871E18CEAA2
:102D400095E00E942310C0C068E080EB95E00E94EF
:102D5000051081110093AB0520E045E650E164E0E9
:102D600070E088E090E00E94180D20E043E45FE00E
:102D700064E070E084E490E00E94180D4EE050E0C2
:102D80005093BC054093BB0588E390E09093BE054B
:102D90008093BD056CE37FE08CEA95E00E94C70C50
:102DA000ACE3B0E0B093BC05A093BB05E8E3F0E072
:102DB000F093BE05E093BD0560E37FE08CEA95E00B
:102DC0000E94C70C81C060E880EB95E00E9405106E
:102DD000882339F08091C405882319F081508093AD
:102DE000C40560E180EB95E00E940510882339F06E
:102DF0008091C405811103C081E08093C40568E01F
:102E000080EB95E00E940510882359F0E091C405FD
:102E100043E0E49FF0011124E45DF04FE491E0937E
:102E2000AB0520E048EA5CE064E070E090E080E020
:102E30000E94180D3092BC052092BB059092BE05F1
:102E40008092BD058091C40566EA7CE0882311F07C
:102E500064EA7CE08CEA95E00E94C70CEAE2FFE0BD
:102E6000659174918CEA95E00E94C70C3092BC0584
:102E70002092BB0586E390E09093BE058093BD054C
:102E80008091C40566EA7CE0813011F064EA7CE060
:102E90008CEA95E00E94C70CEDE2FFE06591749129
:102EA0008DCF8091C505813009F401C188F0823051
:102EB00009F434C28091C505813009F48FC208F449
:102EC00044C2823009F4FCC280E00E94480A52CE1B
:102ED00068E080EB95E00E940510882309F4DBC0D0
:102EE000809164008E7F8093640080917A0080647A
:102EF00080937A0080917A0086FDFCCF0091780063
:102F0000109179000E94EA0B30E020E0980111272F
:102F10000027DC01CB01800F911FA21FB31F20915E
:102F200064002160209364006C017D011DE0CC0CE5
:102F3000DD1CEE1CFF1C1A95D1F7C826D926EA26FF
:102F4000FB26D701C60101E1B695A7959795879510
:102F50000A95D1F7C826D926EA26FB26D701C6014D
:102F600025E0880F991FAA1FBB1F2A95D1F7C826F5
:102F7000D926EA26FB26C701B60125E030E040E06D
:102F800050E00E94F31AFB01EE0FFF1FE656F34FCD
:102F9000859194919093C7058093C6058E010F5F2C
:102FA0001F4FF80180E0580181938F5F8930E1F76E
:102FB000A9E04A2E512C612C712CD701C6015DE08D
:102FC000880F991FAA1FBB1F5A95D1F78C259D25E5
:102FD000AE25BF25AC01BD01E1E17695679557951A
:102FE0004795EA95D1F784279527A627B727AC01FF
:102FF000BD01F5E0440F551F661F771FFA95D1F705
:103000006C017D01C426D526E626F726C701B60148
:10301000A30192010E94F31AD80118962C911897D7
:10302000F501E60FF71F808118968C932083B1E09D
:103030004B1A51086108710801501109E1E04E1660
:1030400051046104710409F0B8CF5091D105409149
:10305000D20590E030E020E0722FD901A853BA4F9A
:1030600080E0E82FE70FEA0DFB2DF11D6081611173
:1030700002C0492F582F6D938F5F833091F79F5F68
:103080002D5F3F4F933041F75093D1054093D205C8
:1030900081E08093C50564E080EB95E00E94051017
:1030A000882309F407CF81E08093AB0503CF60E26A
:1030B00080EB95E00E940510882399F1E091D105FD
:1030C000E23078F58091D205A1E0AE0FA093D10552
:1030D000282F30E0C901880F991F820F931F855553
:1030E0009A4FA80FB92FB11D5D962C915D97E80FEF
:1030F000F92FF11D858D5D968C93258F8091D305D9
:103100009091D405A091D505B091D6050196A11D49
:10311000B11D8093D3059093D405A093D505B093AA
:10312000D60560E480EB95E00E940510882399F1B4
:10313000E091D105EE2379F18091D205AFEFAE0F8A
:10314000A093D105282F30E0C901880F991F820F65
:10315000931F85559A4FA80FB92FB11D5D962C91DD
:103160005D97E80FF92FF11D858D5D968C93258F66
:103170008091D3059091D405A091D505B091D60545
:103180000196A11DB11D8093D3059093D405A09302
:10319000D505B093D60560E880EB95E00E94051058
:1031A0008823D9F14091D2054230B8F5E091D1059C
:1031B000A1E0A40FA093D20550E08E2F90E02A2F1B
:1031C00030E0D901AA0FBB1FA20FB31FA555BA4FFC
:1031D000A80FB91F5D962C915D97FA01EE0FFF1FA6
:1031E000E40FF51FE555FA4FE80FF91F858D5D9641
:1031F0008C93258F8091D3059091D405A091D5050E
:10320000B091D6050196A11DB11D8093D305909371
:10321000D405A093D505B093D60560E180EB95E089
:103220000E9405108823D9F14091D2054423B9F1B9
:10323000E091D105AFEFA40FA093D20550E08E2FFF
:1032400090E02A2F30E0D901AA0FBB1FA20FB31FB5
:10325000A555BA4FA80FB91F5D962C915D97FA013D
:10326000EE0FFF1FE40FF51FE555FA4FE80FF91FAA
:10327000858D5D968C93258F8091D3059091D40593
:10328000A091D505B091D6050196A11DB11D8093E1
:10329000D3059093D405A093D505B093D60568E0E7
:1032A00080EB95E00E940510882301F10E944F0EEB
:1032B00082FF1CC01092C80581E08093C90582E09E
:1032C0008093CA0593E09093CB0594E09093CC054E
:1032D00095E09093CD0596E09093CE0597E090937E
:1032E000CF0598E09093D0058093C505EBEAF5E013
:1032F00080E0958D9813DECD268D91E0980F2913EF
:10330000D9CD278D92E0980F9213D4CD8D5F33964F
:10331000893079F782E08093C505CCCD68E080EBF9
:1033200095E00E940510882309F4B5CE1092C705D8
:103330001092C6051092D3051092D4051092D505AF
:103340001092D6051092C505A6CE0E943F0E98E0B9
:10335000E92EF12C88E2C82ED12C00E120E1A70152
:10336000B60180EB95E00E94CA0E20E1A701B601EC
:1033700080EB95E00E94980EF0E1CF0ED11C48E55D
:10338000C416D10451F750E1E50EF11C88E3E816AC
:10339000F10401F78CEA95E00E9437100BE027E278
:1033A0004AE150E06CE270E080EB95E00E94CA0ECA
:1033B00027E24AE150E06CE270E080EB95E00E9489
:1033C000980E9092BC058092BB05ACE1B0E0B09342
:1033D000BE05A093BD0563E97CE0F0CC0E943F0EE2
:1033E0008091C6059091C705892B11F00E940E0EA1
:1033F000E090D105B0E1EB9E70011124E8E2EE0E01
:10340000F11CC090D205F0E1CF9E6001112448E08C
:10341000C40ED11C00E120E1A601B70180EB95E0CC
:103420000E94CA0E20E1A601B70180EB95E00E9440
:10343000980E0091D10550E1059F800111248091E3
:10344000D20590E1899F70011124882351F022E078
:1034500041E75CE0B7016C5F7F4FC8018C960E942A
:10346000180D8091D205823050F420E041E75CE0F5
:10347000B7016C5E7F4FC8018C960E94180D809139
:10348000D105882351F021E041E75CE0B701645F9A
:103490007F4FC80184960E94180D8091D10582301B
:1034A00050F4B701645F7F4F23E041E75CE0C8015F
:1034B000C4960E94180D8CEA95E00E94371004CD46
:1034C0000E943F0E8091C6059091C705892B11F08F
:1034D0000E940E0E8CEA95E00E9437100BE023E369
:1034E0004AE150E066E270E080EB95E00E94CA0E8F
:1034F00023E34AE150E066E270E080EB95E00E9451
:10350000980E88E290E09093BC058093BB05ACE1F7
:10351000B0E0B093BE05A093BD0568E67CE04ECC5C
:1035200064E080EB95E00E94051081110093AB05EB
:103530006BE57CE08CEA95E00E94231066E37CE07A
:103540008CEA95E00E94C70CE9E5FCE06591749176
:103550008CEA95E00E94231069E371E08CEA95E023
:103560000E94141060E57CE08CEA95E00E94231034
:1035700063E37CE08CEA95E00E94C70CECE4FCE09D
:10358000659174918CEA95E00E94231063E37CE0DE
:103590008CEA95E00E94C70CEEE4FCE06591749122
:1035A0008CEA95E00E94231069E371E08CEA95E0D3
:1035B0000E94141069E37CE001CCF999FECF92BD22
:1035C00081BDF89A992780B50895262FF999FECFE5
:1035D0001FBA92BD81BD20BD0FB6F894FA9AF99A30
:1035E0000FBE01960895A1E21A2EAA1BBB1BFD0176
:1035F0000DC0AA1FBB1FEE1FFF1FA217B307E407D2
:10360000F50720F0A21BB30BE40BF50B661F771F29
:10361000881F991F1A9469F7609570958095909509
:103620009B01AC01BD01CF010895EE0FFF1F059076
:10363000F491E02D099481E090E0F8940C94201B23
:04364000F894FFCF2C
:10364400FFFFFFFF00E100000000000000C18081D7
:1036540000000000000000D70A420CF80AED0A3E00
:103664000BFC0A1A0B00000000020FEB0C111010E7
:0C36740010AC13FCFF0000EE130D0A0068
:00000001FF
