:100000000C9436080C945E080C945E080C945E0800
:100010000C945E080C945E080C945E080C945E08C8
:100020000C945E080C945E080C9447160C94B91658
:100030000C945E080C945E080C945E080C945E08A8
:100040000C945E080C945E080C945E080C945E0898
:100050000C945E080C945E080C945E080C943109B4
:100060000C945E080C945E080C945E080C945E0878
:100070000C945E080C945E080C945E080C945E0868
:100080000C94290A0C945E080C945E080C945E088B
:100090000C945E080C945E080C945E080C945E0848
:1000A0000C945E080C945E080C945E08F0F89C8E2C
:1000B0008783878E9CF8F00000FEFF030303030391
:1000C000070EFCF80000FEFF0303030303070EFC0A
:1000D000F80000FFFF00000000000000FFFF00002C
:1000E000FEFF8383838383C7EE7C380000F8FC0E19
:1000F00007030303070EFCF800003F7FE0C0808089
:10010000C0E07F3FFFFF01010101010101FFFF008E
:1001100000FFFF0C0C0C0C1C3E77E3C100007FFFBE
:10012000C0C0C0C0C0E0703F1F00001F3F70E0C0F3
:10013000C0C0E0703F1F00007FFFC1C1C1C1C1E36B
:10014000773E1C00001F3F70E0C0C0C0E0703F1F42
:10015000000000000001FFFF01000000D5F08D1439
:10016000A1C881CFD9F1AF200058022D0000000AAC
:1001700000E8032D000080DC006400000019005836
:10018000026400000019007003F401008032002DA9
:100190000000000A0032002D0000806400640000AE
:1001A00080E8030A0000801010000000FC0A8A4A60
:1001B0004A4A8A0AFC000000000000003F404F50FD
:1001C00050504F403F00000000000000FC0A0A8A27
:1001D000CA0A0A0AFC000000000000003F4050501C
:1001E0005F5050403F00000000000000FC0A8A4AB7
:1001F0004A4A8A0AFC000000000000003F405C52AE
:10020000525251403F00000000000000FC0A4A4AE0
:100210004A4A8A0AFC000000000000003F4050509B
:1002200052524D403F000000001010FE010101013C
:1002300001018181010101010101FE7F8080808037
:10024000808081818080808080807FFE01011919FB
:1002500001010101010101010101FE7F8080808017
:10026000808080808080989880807FFE01011919AD
:1002700001018181010101010101FE7F80808080F7
:10028000808081818080989880807FFE010119198B
:1002900001010101010119190101FE7F8080989877
:1002A000808080808080989880807FFE010119196D
:1002B00001018181010119190101FE7F8080989857
:1002C000808081818080989880807FFE010199994B
:1002D00001010101010199990101FE7F8080999935
:1002E000808080808080999980807F101083FF02B9
:1002F0000202020283830202020202FF83C1FF4064
:1003000040404040C1C14040404040FFC183FF02E7
:100310001A1A020203030202020202FF83C1FF4013
:1003200040404040C0C04040585840FFC183FF0299
:100330001A1A020283830202020202FF83C1FF40F3
:1003400040404040C1C14040585840FFC183FF0277
:100350001A1A0202030302021A1A02FF83C1FF40A3
:1003600058584040C0C04040585840FFC183FF0229
:100370001A1A0202838302021A1A02FF83C1FF4083
:1003800058584040C1C14040585840FFC183FF0207
:100390009A9A0202030302029A9A02FF83C1FF4063
:1003A00059594040C0C04040595940FFC1504C418C
:1003B00059455220332057494E5300504C4159451E
:1003C0005220322057494E5300504C41594552203B
:1003D000312057494E53005045524645435420471B
:1003E000414D45005048454E4F4D454E414C004D06
:1003F000415354455246554C004558434550544985
:100400004F4E414C00494E4352454449424C4500F1
:100410004F555354414E44494E47004E49434500C1
:10042000444543454E540041434345505441424C9A
:1004300045004641495200415746554C00445245FB
:10044000414446554C004853002020508C02020184
:10045000010101010101010101010101010101018C
:10046000010101010101010101010101010101017C
:10047000010101010101010101010101010101016C
:10048000010101010101010101010101010101015C
:10049000010101010101010101010101010101014C
:1004A000010101010101010101010101010101013C
:1004B000010101010101010101010101010101012C
:1004C00001010102028C5020200000000102020400
:1004D00004040404040404040404040404040404DC
:1004E00004040404040404040404040404040404CC
:1004F00004040404040404040404040404040404BC
:1005000004040404040404040404040404040404AB
:10051000040404040404040404040404040404049B
:10052000040404040404040404040404040404048B
:10053000040404040404040404040404040404047B
:10054000040404020201000000534F554E44204FA2
:10055000464600534F554E44204F4E003320504CDA
:10056000415945522047414D45003220504C415998
:1005700045522047414D4500534F4C4F2047414D78
:10058000450003071C78E0F03C0F0300C0E0784E04
:100590004FFFF0000001010103FF01010101010112
:1005A00081C171190D0703010003071C78E0F03CBD
:1005B0000F03000000060301000000060300000016
:1005C000000007060000000000070000000004060D
:1005D00007040404040404040000000006030100EE
:1005E00000000000000000000000000000EFEFEF3E
:1005F000EF00E0E0E0E000000000000000EFEFEFBF
:10060000EF000000EFEFEFEF000F0F0F0F000F0FE5
:100610000F0F000000E0E0EFEF0F0F00000F0FEFF3
:10062000EFE0E0000000000000000000000000001B
:10063000000000000000000000000000000000BDFD
:10064000BDBDBD000101013D3C3CBC80808000BDC2
:10065000BDBDBD000000BDBDBDBD003C3C3C3C007F
:1006600000000000000000BDBDBDBD000000000096
:1006700000BDBDBDBD000000000000000000000086
:10068000000000000000000000000000000000006A
:1006900000F7F7F7F7000000000000000707070762
:1006A00000F7F7F7F7000000F7F7F7F700F0F0F0C2
:1006B000F000F0F0F0F00000000707F7F7F0F000AE
:1006C00000F0F0F7F707070000000000000000004E
:1006D00000000000000000007878787800787878D2
:1006E0007800E0E0E0E00000007878787800787842
:1006F00078780078787878000000787878780078D2
:1007000078787800787878780000007878787800C1
:100710007878787800E0E0E0E00000000000787889
:1007200078780000787878780000EFEFEFEF00E05D
:10073000E0E0E0003D3D3D3D000000EFEFEFEF0069
:10074000E0E0E0E000000000000000000000000029
:1007500000EFEFEFEF0000000000000000EFEFEF10
:10076000EF00E0E0E0E0003D3D3D3D000000EFEF48
:10077000EFEF000000000000EFEFEFEFBDBDBDBDEB
:10078000000101013D3CBCBC8080000000BDBDBD3E
:10079000BD00818181810080808080000000000098
:1007A000000000BDBDBDBD0000000000000000BD98
:1007B000BDBDBD000101013D3CBCBC80800000000E
:1007C0003D3DBDBD808000008080BDBD3D3D070733
:1007D00007070000000000000707070700000007E8
:1007E00007070700070707070007070707000000BC
:1007F00000000000000707070700000000000000DD
:1008000000070707070000000000000707070700B0
:1008100000000000070707070000070707070000A0
:10082000FE0101010101010101010101010101FEBE
:10083000030404040404040404040404040404037A
:10084000FC0201010101010101010101010101019C
:10085000010102FCFF000000000000000000000099
:1008600000000000000000FF030408080808080852
:1008700008080808080808080808040300FE010121
:1008800021212121C101618101816101FE0000FE60
:100890000101E1010101E101618101816101FE00CC
:1008A00000FE010181C1E1F1F9F1E1C18101010124
:1008B000FE0000FE010101014141C1C1C101010170
:1008C0000101FE0000FE01010101010181C9E97978
:1008D00039F90101FE0000FE010101012111119110
:1008E000F16101010101FE0000FE0101E1A1A1A1F0
:1008F0002101618101816101FE000000007F808093
:100900008889898986808C8281828C807F00007FA3
:100910008080818181818F808C8281828C807F0028
:10092000007F80809F83839F9F9393939F8080808D
:100930007F00007F8080989C8E8783818780808065
:1009400080807F00007F8080989C8E87838180805C
:10095000808080807F00007F8080808080808D8D7F
:100960008080808080807F00007F80808888888869
:1009700087808C8281828C807F00000000FE0101D4
:10098000010101018181010101010101FE0000FE5F
:100990000101191901010101010101010101FE001B
:1009A00000FE01011919010181810101010101010B
:1009B000FE0000FE010119190101010101011919CF
:1009C0000101FE0000FE01011919010181810101EF
:1009D00019190101FE0000FE0101999901010101AF
:1009E000010199990101FE00C04080008040800013
:1009F000C080C000C000C00080404000007F8080F8
:100A00008080808081818080808080807F00007FE6
:100A100080808080808080808080989880807F0027
:100A2000007F808080808080818180809898808015
:100A30007F00007F80809898808080808080989858
:100A400080807F00007F8080989880808181808076
:100A5000989880807F00007F808099998080808036
:100A60008080999980807F000705020003040300BD
:100A7000070307000704070005050300FF00000047
:100A80000000000000000000000000000000000066
:100A90000000000000000000000000000000000056
:100AA00000000000FF010202020202020202020232
:100AB0000202020202020202020202020202020216
:100AC0000202020202020202020202020201503388
:100AD0002D0050322D0050312D000102040810204D
:100AE000408000000000003E5B4F5B3E3E6B4F6B62
:100AF0003E1C3E7C3E1C183C7E3C181C577D571CFF
:100B00001C5E7F5E1C00183C1800FFE7C3E7FF0077
:100B100018241800FFE7DBE7FF30483A060E2629C5
:100B2000792926407F050507407F05253F5A3CE788
:100B30003C5A7F3E1C1C08081C1C3E7F14227F224E
:100B4000145F5F005F5F06097F017F006689956A19
:100B5000606060606094A2FFA29408047E040810A4
:100B6000207E201008082A1C08081C2A08081E10CD
:100B70001010100C1E0C1E0C30383E3830060E3E85
:100B80000E06000000000000005F000000070007E4
:100B900000147F147F14242A7F2A1223130864620E
:100BA00036495620500008070300001C224100006F
:100BB00041221C002A1C7F1C2A08083E08080080CD
:100BC0007030000808080808000060600020100865
:100BD00004023E5149453E00427F40007249494966
:100BE000462141494D331814127F10274545453998
:100BF0003C4A49493141211109073649494936469C
:100C00004949291E0000140000004034000000087B
:100C1000142241141414141400412214080201591E
:100C200009063E415D594E7C1211127C7F494949AB
:100C3000363E414141227F4141413E7F4949494140
:100C40007F090909013E414151737F0808087F006F
:100C5000417F41002040413F017F081422417F40F5
:100C60004040407F021C027F7F0408107F3E4141CC
:100C7000413E7F090909063E4151215E7F0919293C
:100C800046264949493203017F01033F4040403F26
:100C90001F2040201F3F4038403F63140814630367
:100CA000047804036159494D43007F4141410204E6
:100CB000081020004141417F0402010204404040ED
:100CC0004040000307080020545478407F284444E3
:100CD000383844444428384444287F3854545418FD
:100CE00000087E090218A4A49C787F0804047800F8
:100CF000447D40002040403D007F102844000041DA
:100D00007F40007C047804787C08040478384444EC
:100D10004438FC1824241818242418FC7C080404E3
:100D200008485454542404043F44243C4040207C4C
:100D30001C2040201C3C4030403C44281028444C9F
:100D40009090907C4464544C44000836410000006C
:100D5000770000004136080002010204023C26230D
:100D6000263C1EA1A161123A4040207A38545455C5
:100D70005921555579412154547841215554784091
:100D800020545579400C1E52721239555555593917
:100D90005454545939555454580000457C4100026C
:100DA000457D420001457C40F0292429F0F02825AA
:100DB00028F07C545545002054547C547C0A097F0B
:100DC0004932494949323248484832324A48483023
:100DD0003A4141217A3A42402078009DA0A07D39D5
:100DE000444444393D4040403D3C24FF2424487E57
:100DF0004943662B2FFC2F2BFF0929F620C0887E44
:100E0000090320545479410000447D413048484A48
:100E100032384040227A007A0A0A727D0D19317DFB
:100E20002629292F28262929292630484D402038CF
:100E30000808080808080808382F10C8ACBA2F108E
:100E40002834FA00007B000008142A142222142AF5
:100E500014089500220095AA005500AAAA55AA5583
:100E6000AA000000FF00101010FF00141414FF006F
:100E70001010FF00FF1010F010F0141414FC0014F8
:100E800014F700FF0000FF00FF1414F404FC141416
:100E900017101F10101F101F1414141F0010101013
:100EA000F0000000001F101010101F10101010F0A4
:100EB00010000000FF101010101010101010FF1084
:100EC000000000FF140000FF00FF00001F101700CB
:100ED00000FC04F414141710171414F404F40000A4
:100EE000FF00F714141414141414F700F714141456
:100EF000171410101F101F141414F4141010F010F5
:100F0000F000001F101F0000001F14000000FC1460
:100F10000000F010F01010FF10FF141414FF141054
:100F200010101F00000000F010FFFFFFFFFFF0F0A7
:100F3000F0F0F0FFFFFF0000000000FFFF0F0F0FB9
:100F40000F0F38444438447C2A2A3E147E0202069D
:100F500006027E027E0263554941633844443C04E4
:100F6000407E201E2006027E020299A5E7A5991C5C
:100F70002A492A1C4C7201724C304A4D4D3030487F
:100F8000784830BC625A463D3E494949007E0101DD
:100F9000017E2A2A2A2A2A44445F444440514A4472
:100FA0004040444A51400000FF0103E080FF000040
:100FB00008086B6B083612362436060F090F060038
:100FC0000018180000001010003040FF0101001F41
:100FD00001011E00191D1712003C3C3C3C000000A2
:100FE0000000080B000202020100090400000102D7
:100FF000020000052400100105240101010424025F
:1010000006052406000107058103100040090401BC
:1010100000020A00000007050202400000070583E5
:10102000024000000403090441726475696E6F2078
:101030004C4C430041726475696E6F204C656F6E55
:101040006172646F0012010002000000404123360B
:101050008000010102030112010002EF0201404180
:10106000233680000101020301006F2111241FBEFD
:10107000CFEFDAE0DEBFCDBF26E0AEE3B1E001C0E6
:101080001D92A638B207E1F711E0A0E0B1E0EAED69
:10109000F5E402C005900D92AE33B107D9F718E020
:1010A000C6E3D8E004C02197FE010E940B22C5339D
:1010B000D107C9F70E94F6180C94EB220C9400009B
:1010C000CF92DF92EF92FF920F931F93CF93DF9314
:1010D0006C017A018B01C0E0D0E0CE15DF0589F00C
:1010E000D8016D918D01D601ED91FC910190F081B7
:1010F000E02DC6010995892B11F47E0102C02196CD
:10110000ECCFC701DF91CF911F910F91FF90EF902E
:10111000DF90CF90089580918501E0918301F09157
:101120008401882349F0CF01029690938401809333
:101130008301859194910895CF0102969093840143
:101140008093830180819181089580915D0108954C
:10115000089520E030E080E090E00196F901EC5B3A
:10116000FE4F4381840F911D2B5F3F4F2931310585
:10117000A1F7089520E030E0082E000C990BF9014A
:10118000EC5BFE4F438150E04817590739F02B5F65
:101190003F4F2931310599F780E0089581E00895A6
:1011A0000E9411223FB7F8948091790190917A01C1
:1011B000A0917B01B0917C0126B5A89B05C02F3F73
:1011C00019F00196A11DB11D3FBFBA2FA92F982F6D
:1011D0008827820F911DA11DB11DBC01CD0142E0E8
:1011E000660F771F881F991F4A95D1F708958F9230
:1011F0009F92AF92BF92CF92DF92EF92FF926B01DC
:101200007C010E94D2084B015C01C114D104E104AD
:10121000F104F1F00E94D208DC01CB018819990990
:10122000AA09BB09883E9340A105B10570F321E0EE
:10123000C21AD108E108F10888EE880E83E0981EF2
:10124000A11CB11CC114D104E104F10419F7DDCFD4
:10125000FF90EF90DF90CF90BF90AF909F908F90D6
:1012600008951F920F920FB60F9211242F933F9360
:101270008F939F93AF93BF9380915E0190915F0195
:10128000A0916001B09161013091780123E0230FBA
:101290002D3720F40196A11DB11D05C026E8230FAE
:1012A0000296A11DB11D2093780180935E01909359
:1012B0005F01A0936001B0936101809179019091E9
:1012C0007A01A0917B01B0917C010196A11DB11D15
:1012D0008093790190937A01A0937B01B0937C0174
:1012E000BF91AF919F918F913F912F910F900FBE22
:1012F0000F901F901895CF92DF92EF92FF920F936D
:101300001F93CF93DF930E948B08811520E89207EB
:1013100061F4809171008D7F809371001092910033
:1013200046984798109271018BC021E0209371017B
:10133000813020E8920751F48091810190918201DF
:1013400090938401809383010E948B0897FD05C0D0
:1013500020917001222309F43FC020916F012111D7
:101360003BC021E020937201EC01DF77209769F404
:1013700081E08093730146983FE9C32E3FE0D32E6E
:10138000E12CF12CCAEFD0E014C08E0120E030E057
:1013900060E472E48FE090E0A90198010E94882245
:1013A00069017A0181E0C81AD108E108F1081092B8
:1013B0007301E0918605F09187050995811103C0BD
:1013C00081E080937301809172018823B9F180914B
:1013D0007301811133C003C010927201C5CF4699C9
:1013E0002DC0479A0E948B08009771F09C01DE0186
:1013F0000E94DC22DC01CB0129E0B595A7959795E9
:1014000087952A95D1F703C08FEF9FEFDC011092EB
:1014100090002AE020939100D0929900C092980009
:101420008093740190937501A0937601B093770136
:101430008091710082608093710002C04798D2CF82
:10144000DF91CF911F910F91FF90EF90DF90CF90A0
:1014500008951F920F920FB60F9211242F933F936E
:101460004F935F936F937F938F939F93AF93BF93AC
:10147000EF93FF938091740190917501A091760193
:10148000B0917701892B8A2B8B2B81F1809173018D
:1014900081110BC098B180E4892788B980917201CD
:1014A000882319F088B1805888B98091740190918F
:1014B0007501A0917601B0917701181619061A06E8
:1014C0001B06B4F48091740190917501A09176018E
:1014D000B09177010197A109B109809374019093AC
:1014E0007501A0937601B093770102C00E947B0939
:1014F000FF91EF91BF91AF919F918F917F916F91EC
:101500005F914F913F912F910F900FBE0F901F90C1
:1015100018959C01E1E7F0E090819D7F908381E048
:10152000809385013093840120938301309382015D
:10153000209381010C947B092D9A0895BC0180E0D1
:1015400090E00C94F7088FB12CB193B130E0209566
:10155000309520743327A90123E0559547952A95A6
:10156000E1F7292F30E0209530952071332735950C
:10157000279535952795242B8095807F822B08957C
:1015800083B7817F83BF83B7816083BF889583B72B
:101590008E7F83BF08958EBD00000DB407FEFDCF82
:1015A000089510925D013E983F9808953E9A3F9AA3
:1015B00081E080935D01089560387105D0F4403476
:1015C0005105B8F4EAEDFAE080E1849FD001A078FB
:1015D0001124A60F4770E40FF11DE491AA57BE4FE6
:1015E000222319F04C91E42B03C0E0954C91E423A5
:1015F000EC9308952F923F924F925F926F927F9259
:101600008F929F92AF92BF92CF92DF92EF92FF9212
:101610000F931F93CF93DF93CDB7DEB729970FB604
:10162000F894DEBF0FBECDBFFC016A3069F4248D93
:10163000808D918D38E0239F800D911D1124918F15
:10164000808F178A168AAAC06D3009F4A7C09987BF
:101650008887F48C338C228C608C718C0689178976
:1016600000381105C4F0A885B9855C962C915C976B
:10167000422F50E056968D919C915797B6E02B9F44
:10168000800D911D1124E885F985978B868B258D1A
:1016900021116EC083C0F0E46F16710424F7C801F5
:1016A00025E0F29E800D911D112418161906DCF616
:1016B0008F2D90E09C838B83C301A8E0FA9E800D60
:1016C000911D11241816190674F6B5E06B9FB00130
:1016D0001124FB01EE51F54FFA83E98330E0888550
:1016E000998504969E838D83E981FA81E490353053
:1016F00009F4E12C430188E0482EE0FC02C0532CA1
:1017000001C0522C51100BC0321009C0E6944A940B
:101710008B819C81880E991E4110EFCF1BC0680100
:101720008C2D801B8F1590F754018A2D88198F15E9
:1017300068F4252DA501B6018D819E813F830E940D
:10174000DC0A9FEFA91AB90A3F81EFCFAFEFCA1A9F
:10175000DA0AE6CF3F5FEB81FC810E0F1F1F898104
:101760009A8101969A838983363009F0BDCF7BCF69
:101770006AEF64039001659F300D112420583F4F9C
:10178000281739075CF4A885B985ED91FC9111976C
:101790000190F081E02D6AE0CD01099581E090E0B3
:1017A00029960FB6F894DEBF0FBECDBFDF91CF9163
:1017B0001F910F91FF90EF90DF90CF90BF90AF906F
:1017C0009F908F907F906F905F904F903F902F9061
:1017D000089520E030E040E050E0082E000C990B26
:1017E000F901EC5BFE4F638170E06817790711F433
:1017F0004F5F5F4F2B5F3F4F2931310589F7CA019A
:1018000008950F931F93CF93DF93811110C080E051
:1018100090E0C0E0D0E0FC01EC5BFE4F23812111A1
:1018200001C02196059689319105A9F779C18130CA
:1018300081F480E090E0C0E0D0E0FC01EC5BFE4F82
:101840002381213009F42296059689319105A9F763
:1018500067C1823081F480E090E0C0E0D0E0FC011C
:10186000EC5BFE4F2381223009F4239605968931E3
:101870009105A9F755C1833081F480E090E0C0E084
:10188000D0E0FC01EC5BFE4F2381233009F4249669
:10189000059689319105A9F743C1843081F480E030
:1018A00090E0C0E0D0E0FC01EC5BFE4F23812430EF
:1018B00009F42596059689319105A9F731C185303E
:1018C00081F480E090E0C0E0D0E0FC01EC5BFE4FF2
:1018D0002381253009F42696059689319105A9F7CB
:1018E0001FC1863009F41AC1873029F580E00E94B3
:1018F000E90B03970CF09BC081E00E94E90B039772
:101900000CF095C082E00E94E90B03970CF08FC0A9
:1019100083E00E94E90B03970CF089C084E00E94E9
:10192000E90B03970CF083C085E00E94E90B039755
:101930000CF07DC0F3C0883029F580E00E94E90BEF
:1019400004970CF074C081E00E94E90B04970CF03E
:101950006EC082E00E94E90B04970CF068C083E03F
:101960000E94E90B04970CF062C084E00E94E90B2E
:1019700004970CF05CC085E00E94E90B04970CF022
:1019800056C0CCC08930B9F400E0C0E0D0E0802F70
:101990000E94E90B039759F410E0812F0E94E90B94
:1019A000029711F41013A4C01F5F1630B1F70F5F38
:1019B000063069F7B5C08A30C1F480E00E94BA08E9
:1019C000882309F45FC081E00E94BA08882309F4E3
:1019D00059C082E00E94BA08882309F453C083E00A
:1019E0000E94BA08811162C04DC08B30F1F480E0D2
:1019F0000E94BA08882309F45CC081E00E94BA08FA
:101A0000882309F456C082E00E94BA08882309F4AA
:101A100050C083E00E94BA08882309F44AC084E0D9
:101A20000E94BA0881115EC044C08C3021F40E942B
:101A3000A908EC0175C08D3009F070C080E00E94EB
:101A4000E90B059709F451C081E00E94E90B059765
:101A500009F44BC082E00E94E90B059709F445C0E8
:101A600083E00E94E90B059709F43FC084E00E94DF
:101A7000E90B0597D1F185E00E94E90B059709F084
:101A80004DC033C081E00E94BA08882399F182E0FA
:101A90000E94BA08882371F183E00E94BA08882363
:101AA00049F184E00E94BA08882321F1CEE1D0E018
:101AB00037C081E00E94BA08882381F182E00E9449
:101AC000BA08882359F183E00E94BA08882331F1CB
:101AD00084E00E94BA08882309F185E00E94BA08D0
:101AE0008823E1F0C8E2D0E01BC0C2E3D0E018C018
:101AF00069965ACF82E00E94BA08882379F083E081
:101B00000E94BA08882351F084E00E94BA08882312
:101B100029F085E00E94BA088111C8CFC0E0D0E06A
:101B20008C2FDF91CF911F910F9108950F931F93E9
:101B3000CF93DF9380910001813059F0823009F416
:101B400098C0833009F498C0C0E0D0E018160CF5B6
:101B500002C0CEE2D0E0D0930E06C0930D0601E0A5
:101B600010E01093100600930F0686ED9AE00E9495
:101B70001214CE01429690930E0680930D06109398
:101B8000100600930F068091AA059091AB050E9464
:101B9000DC1380910001823004F1CE01889690938D
:101BA0000E0680930D0601E010E0109310060093DE
:101BB0000F0682ED9AE00E941214CE01CA9690930D
:101BC0000E0680930D061093100600930F06809169
:101BD000CF059091D0050E94DC13809100018330E5
:101BE00014F1CE01805B9F4F90930E0680930D06FB
:101BF00001E010E01093100600930F068EEC9AE0BF
:101C00000E941214CE018E599F4F90930E0680931E
:101C10000D061093100600930F068091F405909125
:101C2000F5050E94DC1380916201811109C00AE070
:101C300029E24CE75AE060E070E0CE01039716C05D
:101C4000813049F40AE029E24CE75AE060E070E0B4
:101C5000CE0185960BC0823091F40AE029E24CE770
:101C60005AE060E070E0CE01835B9F4F0E949411C8
:101C700006C0C4E1D0E06FCFC3E0D0E06CCFDF910D
:101C8000CF911F910F910895EF92FF920F931F93A1
:101C9000CF93DF9321E230E040E850E061E270E072
:101CA00080E090E00E943314E091620125E2E202BC
:101CB000F0011124E857FA4F8281938100E120E876
:101CC000892B19F44CE759E006C080819181079770
:101CD000CCF34CE758E063E270E080E090E00E94D3
:101CE0009411E091620135E2E302F0011124E8571A
:101CF000FA4F8081918123E0E22EF12C07970CF0BE
:101D0000F5C0C0E0D0E006E310E0C7010496909370
:101D10000E0680930D061093100600930F06209177
:101D20006201DE011296AA0FBB1F35E22303F00108
:101D30001124AE0FBF1FA857BA4F8D919C9197FDEC
:101D400008C08A309105E4F0F0920E06E0920D068C
:101D500017C0E857FA4F808191818C179D0791F445
:101D600082819381019771F48C2F0E94010C8A303B
:101D700024F0F0920E06E0920D06082E000C990B4E
:101D80000E94DC13219682E1E80EF11CC730D105D8
:101D900009F0BBCFE091620125E2E202F0011124DB
:101DA000E857FA4F80A191A184369105A4F025E26D
:101DB00030E040E750E063E270E08EE690E00E94A1
:101DC000331425E230E04EE650E063E270E080E755
:101DD00090E00E943314E091620135E2E302F001E9
:101DE0001124E857FA4F80A191A1883C9105A4F0F5
:101DF00025E230E044E750E063E270E082E790E003
:101E00000E94331425E230E042E750E063E270E0E4
:101E100084E790E00E943314E091620185E2E802D9
:101E2000F0011124E857FA4F80A191A18C32914022
:101E3000A4F025E230E044E750E063E270E086E79A
:101E400090E00E94331425E230E046E750E063E280
:101E500070E086E790E00E943314E091620135E281
:101E6000E302F0011124E857FA4F80A191A18039D3
:101E70009140A4F025E230E046E750E063E270E0F4
:101E800088E790E00E94331425E230E048E750E014
:101E900063E270E086E790E00E943314E091620113
:101EA00035E2E302F0011124E857FA4F80A191A135
:101EB000843F91400CF464C025E230E048E750E0F4
:101EC00063E270E08AE790E00E94331425E230E09C
:101ED0004AE750E063E270E088E790E0DF91CF915D
:101EE0001F910F91FF90EF900C943314C7E0D0E056
:101EF00006E310E0C701049690930E0680930D064A
:101F00001093100600930F0620916201DE011296D5
:101F1000AA0FBB1F35E22303F0011124AE0FBF1F30
:101F2000A857BA4F8D919C9197FD08C08A309105B2
:101F3000E4F0F0920E06E0920D0617C0E857FA4F53
:101F4000808191818C179D0791F482819381019703
:101F500071F48C2F0E94010C8A3024F0F0920E064E
:101F6000E0920D06082E000C990B0E94DC132196BE
:101F700082E1E80EF11C21E8E216F10409F0BACF83
:101F8000DF91CF911F910F91FF90EF9008950F93E4
:101F9000E09162012E2F0E2E000C330B85E2E80239
:101FA000F0011124E857FA4F44A18091FE05909169
:101FB000FF05442341F06AE070E00E94F721892B7D
:101FC00051F414A208C06CE370E00E94F721892B41
:101FD00011F481E084A385E2829FF001839FF00DDC
:101FE0001124E857FA4F84A1811128C0828193817E
:101FF00020813181892B71F443E1429FC001439FCD
:10200000900D112404E124E140E458E06CE070E01C
:10201000049612C02730310514F02750310942E1EF
:10202000429FC001439F900D11240BE020E140E24C
:1020300058E064E370E001960E9494110F910895B6
:102040000F931F93CF93DF9386E690E090933F0129
:1020500080933E018EE090E0909341018093400197
:1020600083E090E0909343018093420184E3809366
:102070006E0140910001042E000C550B80E095E2AA
:10208000A5E0B0E0CFEFDFEF682F70E064177507D1
:1020900064F5969FF001979FF00D1124E857FA4FD1
:1020A000B183A0831382128225E2829F80011124D2
:1020B00020E030E0F901E00FF11FE857FA4FD58337
:1020C000C4832E5F3F4F2C313105A1F7969FF0015D
:1020D000979FF00D1124E857FA4F118A108A11A228
:1020E00010A213A212A28F5FCFCF109245011092BF
:1020F000440181E090E090934A018093490182E09D
:1021000090E090934F0180934E0183E090E0909394
:1021100054018093530184E090E09093590180939F
:1021200058018FEF8093470180934C0180935101B8
:102130008093560180935B011092480110924D01EB
:10214000109252011092570110925C0110924601B8
:1021500010924B01109250011092550110925A01A9
:1021600082E080936501DF91CF911F910F910895D7
:10217000EF92FF920F931F93CF93DF931F92CDB7F0
:10218000DEB77C01FC0100811181C80169830E94D6
:1021900072226981681719F0C8010E947A22C7016A
:1021A0000F90DF91CF911F910F91FF90EF900895C5
:1021B0000F931F93CF93DF9300D0CDB7DEB703E625
:1021C00011E0F80160818AED93E09A838983CE0162
:1021D00001960E94B810F80161818BED93E09A831B
:1021E0008983CE0101960E94B81081E00F900F9074
:1021F000DF91CF911F910F9108958F929F92AF928F
:10220000BF92CF92DF92EF92FF920F931F93CF93E3
:10221000DF935C016B018A0180910901882309F435
:102220005EC080918001882309F459C080917E01AD
:1022300080FF05C08091E00082608093E000E801AB
:102240008AEFF82E93E0E92E2FE3822E3AE3932EC5
:10225000209709F43DC08FB7F894E092E90090917F
:10226000E80095FF06C09091F200282D291B922FBF
:1022700001C090E08FBF91110AC0FA94FF2079F15C
:1022800061E070E080E090E00E94F708E1CF292F44
:1022900030E0C217D3070CF49C2F8FB7F894E0926C
:1022A000E9002091E80025FF11C0292F30E0C21B72
:1022B000D30BF601915020F041914093F100FACFF9
:1022C000C20ED31E9091E80095FF13C08FBFC0CF00
:1022D0005D9884E680937D011016110644F081E03C
:1022E00090E0F5019383828380E090E005C0C8010F
:1022F00003C09092E800EACFDF91CF911F910F9138
:10230000FF90EF90DF90CF90BF90AF909F908F9015
:10231000089520910106282329F49091000698231E
:1023200081E009F480E008952F923F924F925F92EE
:102330006F927F928F929F92AF92BF92CF92DF92D5
:10234000EF92FF920F931F93CF93DF93CDB7DEB73A
:1023500028970FB6F894DEBF0FBECDBF5A01822E6C
:10236000912C9C01280D391D37FDC4C08038910582
:102370000CF0C0C09B01200F311D37FDBBC0603485
:1023800071050CF0B7C0AB0177FF04C04427552797
:10239000461B570B477055279B0177FF02C0295FEB
:1023A0003F4FE3E035952795EA95E1F777FF08C0C1
:1023B0002150310968E070E0DB01A41BB50BAD01D1
:1023C000602F66956695669570E0077011F06F5FF7
:1023D0007F4FDB01A20FB31FBA83A9833901769423
:1023E000762C662477946794680E791EE12CF12C84
:1023F00000E010E02301B0E84B0E511C68E070E0F3
:10240000DB01A41BB50BBC83AB8369817A812617E2
:10241000370709F46FC02830310509F46BC02F3F2E
:10242000BFEF3B070CF45BC0B201600F711FDB0113
:10243000AA57BE4FBE83AD83D801A60DB71DAA57BC
:10244000BE4F6C0160E070E0681579050CF047C084
:10245000E0E8CE16D10409F442C0D7FC34C02F3FC7
:10246000FFEF3F0709F442C0FB01EE0DFF1DEA0D2F
:10247000FB1DE491042E01C0EE0F0A94EAF73C9094
:10248000E329EC9341155105F1F027303105D9F0DE
:10249000FB01EE0DFF1DEA0DFB1DE4912E2E312CEC
:1024A000F1010B8002C0F595E7950A94E2F7F887F1
:1024B000EF83ED81FE813080EF81F885E3291F01F4
:1024C000ED81FE8120826F5F7F4FED81FE8131962D
:1024D000FE83ED83FFEFCF1ADF0A1196B5CF2F5F92
:1024E0003F4F00581F4FE80CF91C8FCF4115510585
:1024F00079F6E9CF28960FB6F894DEBF0FBECDBFB0
:10250000DF91CF911F910F91FF90EF90DF90CF90CF
:10251000BF90AF909F908F907F906F905F904F9003
:102520003F902F9008958F929F92AF92BF92CF923B
:10253000DF92EF92FF920F931F93CF93DF9300D020
:10254000CDB7DEB7DC014115510509F4D5C0FA015C
:10255000D490319694914E5F5F4F8D2C912C222315
:10256000E9F0E92FE695E695E695EE2EF12CE1E00F
:10257000F0E0892F877011F4E0E0F0E0EE0DFF1D30
:102580008E9E70018F9EF00C9E9EF00C11242E9D4D
:10259000F0012F9DF00D11244E0F5F1F7D01E80CFF
:1025A000F91C1E141F040CF0A7C0A038B1050CF0D4
:1025B000A3C09B01290F311D121613060CF09CC0FD
:1025C000603471050CF098C04115510509F494C0B0
:1025D0009B0177FF04C022273327261B370B822F4E
:1025E00087709B0177FF02C0295F3F4FE3E035957D
:1025F0002795EA95E1F7F22F77FF07C0882329F0A6
:10260000FFEFF20F28E0281B822FB7FF05C06627D7
:1026100077276A1B7B0B02C060E070E000E8E016E1
:10262000F10424F020E8E22EEA1A01C0ED2CE61AAB
:102630002F2F0F2E000C330BFF3F1CF4C22EC09423
:1026400001C0C12C11E0E92FE77009F410E0969564
:1026500096959695910F290F311D2930310514F06B
:1026600098E09F1BFC2CFF0E9D010F2D10E801032D
:10267000200D311D1124260F371FCD9C600D711DBB
:102680001124640F751F41E050E0082E02C0440F72
:10269000551F0A94E2F79F0FF91671F1D901AA5755
:1026A000BE4FC12CD12CCE1408F5FB01EC0DFD1D45
:1026B000E491E49F5001E59FB00C1124BA82A982F5
:1026C000F7FC03C0EC91AE2AAC92882351F0E6E00F
:1026D000EF153CF0FD01E058FF4FA080BA80BA280A
:1026E000B082FFEFCF1ADF0A1196DDCFF394680DA9
:1026F000791D20583F4FD0CF0F900F90DF91CF9191
:102700001F910F91FF90EF90DF90CF90BF90AF900F
:102710009F908F9008958F929F92AF92BF920F9348
:102720001F93CF93DF93CDB7DEB7A1970FB6F89481
:10273000DEBF0FBECDBF19A2423008F44AE08E01C1
:102740000F5D1F4F842E912CA12CB12CA50194015B
:102750000E94BA22E62FB901CA0101501109EA30DC
:1027600014F4E05D01C0E95CD801EC93232B242B29
:10277000252B61F70115110571F0F801019000207A
:10278000E9F73197AF01401B510BB80187EF95E096
:102790000E94600802C080E090E0A1960FB6F89415
:1027A000DEBF0FBECDBFDF91CF911F910F91BF90C4
:1027B000AF909F908F900895CF92DF92EF92FF920B
:1027C000CF93DF936C01990FEE08FF08F7FE1FC04F
:1027D000E091F705F091F8050190F081E02D6DE2B0
:1027E00087EF95E00995EC0166277727CB016C19F7
:1027F0007D098E099F094AE00E948B138C0F9D1F53
:10280000DF91CF91FF90EF90DF90CF9008954AE055
:10281000C701B601DF91CF91FF90EF90DF90CF908D
:102820000C948B130F931F93CF93DF938C01C0E015
:10283000D0E0F801EC0FFD1F6491662371F0E09188
:10284000F705F091F8050190F081E02D87EF95E014
:102850000995892B11F02196ECCFCE01DF91CF9114
:102860001F910F9108955F926F927F928F929F9226
:10287000AF92BF92CF92DF92EF92FF920F931F938E
:10288000CF93DF93EC018B017A01A901461B570B13
:1028900057FF03C0519541955109C7018C1B9D0BF2
:1028A00097FF03C0919581959109552453948417FE
:1028B000950714F0512C0AC09E2D8F2D7901292FD8
:1028C000382F9C2F8D2FE801092F182FEC16FD06AD
:1028D00054F4902F812F8901292F382F9C2F8D2F71
:1028E000E701E92EF82E37016C1A7D0A5901A01A6A
:1028F000B10AB7FE03C0B194A194B108630177FE99
:1029000003C08FEFC81AD80AD594C79402171307CB
:1029100014F08FEF01C081E0882E880F9908EC1623
:10292000FD06B4F021E0552019F0AE01B80102C057
:10293000A801BE018BEF95E00E94DC0ACA18DB08F3
:10294000D7FE04C0080D191DC60CD71C2196E7CF71
:10295000DF91CF911F910F91FF90EF90DF90CF907B
:10296000BF90AF909F908F907F906F905F900895F1
:10297000809186018EBDE7E8F1E081910DB407FEFC
:10298000FDCF8EBD85E0E638F807B9F70DB407FE38
:10299000FDCF089520E086E891E0B22FB111BFEF9E
:1029A000FC010024B193B193B193B1930394D1F797
:1029B0000895E1E7F0E080818D7F808310928501AA
:1029C000E1E7F6E0F0938401E0938301F093820164
:1029D000E093810188EE93E09183808384E690E028
:1029E0009383828380E090E8958384830C947B09B1
:1029F000FC0180918001811103C08FEF9FEF08954A
:102A00009FB7F89482E08093E9002091F20030E0D3
:102A10001216130614F421E030E02115310559F0A7
:102A2000289884E680937F018091F10080838091D3
:102A3000F200882319F09FBFC90108958BE68093A7
:102A4000E800F9CF8091190681110DC082E08093D2
:102A5000150684E080931606109218061092170649
:102A600081E08093190685E196E00895CF93DF9386
:102A70001F92CDB7DEB76983DC01ED91FC91028036
:102A8000F381E02D41E050E0BE016F5F7F4F09957B
:102A90000F90DF91CF91089583E08093E9008091BA
:102AA000F200882319F08AE38093E8000895FC017E
:102AB0008485958597FD0BC09FB7F89482E080933D
:102AC000E9008091F2009FBF90E0019608959FB7C2
:102AD000F89482E08093E9008091F2009FBF90E03B
:102AE0000895409184065091850620918206309188
:102AF000830642175307B4F49091E8009570E1F310
:102B00009091E80092FD19C08093F10080918406B5
:102B10009091850601968F739927892B19F48EEF72
:102B20008093E800809184069091850601969093A9
:102B300085068093840681E0089580E00895DF9201
:102B4000EF92FF920F931F93CF93DF93D82E8A01BA
:102B50007B01E40EF51EEB01CE15DF0571F0D7FE0B
:102B600003C0FE01849101C088810E9471152196E5
:102B70008111F2CF8FEF9FEF01C0C801DF91CF919C
:102B80001F910F91FF90EF90DF900895615030F00A
:102B90002091F100FC0120830196F8CF289884E66B
:102BA00080937F010895CF93DF931F92CDB7DEB757
:102BB000FC018485958597FD05C02FEF3FEF358794
:102BC00024870BC0CE0101960E94F814019719F4D6
:102BD000898190E002C08FEF9FEF0F90DF91CF913E
:102BE00008950F931F93CF93DF931F92CDB7DEB756
:102BF0008C01FC018485958597FF0EC0CE0101965E
:102C00000E94F814019719F4298130E002C02FEFD7
:102C10003FEFF80135872487F801848595850F906B
:102C2000DF91CF911F910F9108950F931F93CF9331
:102C3000DF931F92CDB7DEB782E0898342E450E094
:102C400062EE7FE080E80E949F150E942215DC0161
:102C500012960D911C9113970115110569F0D80179
:102C6000ED91FC910280F381E02DBE016F5F7F4FFB
:102C7000C801099597FF07C089810F90DF91CF9117
:102C80001F910F910895F80100851185E5CF1F92DE
:102C90000F920FB60F9211248F939F938091E100B2
:102CA0009091E100937F9093E10083FF0FC0109219
:102CB000E90091E09093EB001092EC0092E3909386
:102CC000ED001092800198E09093F00082FF20C008
:102CD00093E09093E9009091F200992319F09AE320
:102CE0009093E80090917D01992339F090917D01B6
:102CF000915090937D01992389F190917F019923BF
:102D000039F090917F01915090937F01992341F187
:102D100084FF10C08091E2008E7E81608093E2008B
:102D20008091E1008F7E8093E10080917E018E7E14
:102D3000806111C080FF16C08091E2008E7E8061AC
:102D40008093E2008091E1008E7E8093E10080918B
:102D50007E018E7E816080937E0104C05D9ACDCF1E
:102D6000289AD6CF9F918F910F900FBE0F901F90F2
:102D700018951F920F920FB60F921124CF92DF92E7
:102D8000EF92FF920F931F932F933F934F935F9375
:102D90006F937F938F939F93AF93BF93EF93FF9323
:102DA000CF93DF93CDB7DEB76C97DEBFCDBF109268
:102DB000E9008091E80083FFFAC168E0CE01459602
:102DC0000E94C61582EF8093E8008D8987FF05C0B9
:102DD0009091E80090FFFCCF03C09EEF9093E80035
:102DE000982F907609F0C6C09E892F89188D911171
:102DF0000CC0803829F4809180068093F10002C0D5
:102E00001092F1001092F10047C1422F50E0512B77
:102E1000913051F4811140C14130510509F03CC15C
:102E2000809180068D7F0BC0933061F4811134C195
:102E30004130510509F030C1809180068260809355
:102E400080062AC1953041F48091E80080FFFCCFD4
:102E500020682093E30020C1963009F05FC0EB8C1E
:102E6000FC8C1092E90010928506109284061230B4
:102E700091F510928306109282060E94151699E031
:102E8000BE016F5F7F4FDB01E92F1D92EA95E9F7E5
:102E900099831A8391E09E8390EA98879AEF9987A5
:102EA0002091840630918506275F3F4F3C832B831A
:102EB0008D831092E9001092850610928406F0929C
:102EC0008306E092820649E050E080E00E949F1570
:102ED0000E941516E1C0F0928306E09282060E94DD
:102EE0002215DC011296ED90FC901397E114F10489
:102EF00009F4C0C0D701ED91FC910480F581E02D6B
:102F0000BE016B5E7F4FC7010995009719F00CF069
:102F1000C3C0C6C0F701E084F184E8CF973009F45C
:102F2000BFC0983021F481E08093F100B5C09930A2
:102F300009F0B2C0837009F0B3C0E3E3F1E081E0CF
:102F400021E036E39081992361F08093E90020939A
:102F5000EB0091919093EC003093ED008F5F873000
:102F600089F78EE78093EA001092EA008F898093B8
:102F7000800192C08B8D9C8D1092E9001092850685
:102F8000109284069093830680938206898D811126
:102F900056C08E899D89913A59F4813209F080C0DA
:102FA00047E050E062E071E080E00E949F1574C04D
:102FB000913209F075C0833289F4888D90E0982FA2
:102FC00088272F89822BA0E0B0E080930A0190939C
:102FD0000B01A0930C01B0930D015EC0803269F427
:102FE0008091E80082FFFCCF67E082E091E00E94E0
:102FF000C6158BEF8093E80006C0823209F04CC002
:103000008F898093090180917F06882319F0EEEF64
:10301000FAE002C0E0E0F8E0809102019091030143
:10302000A0910401B0910501803B9440A105B10538
:1030300009F088C08091090180FFA0C083C00E9470
:103040002215DC0112960D911C91139701151105A3
:1030500039F1D801ED91FC910190F081E02DBE0194
:103060006B5E7F4FC8010995811116C0F80100857C
:103070001185ECCF1130C1F0133091F48F89882382
:1030800009F455C08230E9F440E860E184E390E15E
:103090000E94BA21882321F08EEF8093E80087C038
:1030A00081E28093EB0083C08B8D9C8D089711F497
:1030B0001093810680918106811136C065E470E12C
:1030C00038C0813029F440E86BE088E290E1E0CF3D
:1030D000833031F70E942215DC011296ED90FC90AE
:1030E00013978E010F5F1F4F6801E114F10479F00F
:1030F000D701ED91FC910680F781E02DB801C70161
:103100000995080F111DF701E084F184EECFD80175
:103110001C92F60101900020E9F73197BF016C196C
:103120007D0940E0C601B4CF67E570E102C064E20A
:1031300070E16115710509F4B3CFFB01449150E0D2
:1031400080E833CF0FB6F894A8958091600088612D
:1031500080936000109260000FBEA895EE3F2AE0B9
:10316000F20739F08091FE0A9091FF0A91838083E3
:1031700093CF1092FF0A1092FE0A8ECFEE3F8AE0A4
:10318000F80731F0808191819093FF0A8093FE0AC5
:1031900087E797E7918380839BE088E10FB6F894F7
:1031A000A895809360000FBE9093600075CF6C96D9
:1031B0000FB6F894DEBF0FBECDBFDF91CF91FF9168
:1031C000EF91BF91AF919F918F917F916F915F919F
:1031D0004F913F912F911F910F91FF90EF90DF90B2
:1031E000CF900F900FBE0F901F901895CF93DF9345
:1031F000CDB7DEB727970FB6F894DEBF0FBECDBFB1
:10320000789484B5826084BD84B5816084BD85B5C1
:10321000826085BD85B5816085BD80916E008160CD
:1032200080936E0010928100809181008260809373
:103230008100809181008160809381008091800075
:1032400081608093800080919100826080939100E2
:1032500080919100816080939100809190008160C5
:10326000809390008091C10084608093C100809120
:10327000C10082608093C1008091C1008160809311
:10328000C1008091C30081608093C3008091C00021
:1032900082608093C0008091C20081608093C200F0
:1032A00080917A00846080937A0080917A008260B5
:1032B00080937A0080917A00816080937A00809177
:1032C0007A00806880937A001092800110928006C4
:1032D00010927E018091D70081608093D70080EAB0
:1032E0008093D80089B5806189BD89B5826089BD28
:1032F00009B400FEFDCF61E070E080E090E00E9444
:10330000F7088091D8008F7C80618093D8008091ED
:10331000E000807F8093E0008091E1008E7E8093CA
:10332000E1008DE08093E200559A209AEEEFFFE7EE
:10333000859194918B3F9C4D19F481E080937F0699
:1033400081EC80937C0085B1806F85B9249884B12D
:10335000866E84B95E9A5F988AB1806D8AB9769AD2
:103360006E9881B3806F81BB899880B38D7080BB6C
:1033700080E58CBD81E08DBD85E090E00E949E0AD5
:103380005F9A85E090E00E949E0A5E985C980CE54A
:1033900011E0ADE0FA2EF00EF80184910E94CB0A04
:1033A0000F5F1F4FF012F8CF5C9A81E880936400A2
:1033B00081E08093650000E014E080E00E94CB0A89
:1033C00001501109D1F70E94A30A87FF10C05C9831
:1033D00085EA0E94CB0A5C9A2E982F982D988091AE
:1033E00064008062809364000E94C00AFDCF02E006
:1033F00010E00E94A30A82FF42C02D980E94A30AF7
:1034000084788438C9F00E94A30A8471843191F5CC
:103410000E949C0A88EC90E00E949E0A2E981A83D3
:10342000098360E0CE0101960E94B81084EF91E01C
:103430000E949E0A2E9A19C00E949C0A88EC90E075
:103440000E949E0A2F981A8309836FEFCE0101967E
:103450000E94B81084EF91E00E949E0A2F9A0E9469
:10346000A30A84788438D9F3CECF0E94A30A84714A
:103470008431D9F388EC90E00E949E0ABACF0E9472
:103480009C0A82E090E00E947222882319F00E9438
:10349000D60A02C00E94D10A2E98FEEEEF2EFF241B
:1034A000FA940E94A30A86FF04C02E9A2F9A2D9A9E
:1034B0003FC0FCEFEF16FFEFFF0619F42E9A2F988E
:1034C00006C028E1E216F10411F42F9A2D980E940B
:1034D000CA1400E128E54CEA50E0B70184E190E02D
:1034E0000E9494110E94B8148BE190E00E949E0A01
:1034F00030EFE3163FEFF30621F48AEF90E00E94ED
:103500009E0A8FEFE81AF80A99E1E916F10449F6E4
:103510008CEB92E00E949E0A0E949C0AE091FB05BF
:10352000F091FC050190F081E02D8BEF95E009957D
:1035300082E390E00E949E0A0E94A30A8111F8CFC4
:10354000809164008E7F8093640080917A00806413
:1035500080937A0080917A0086FDFCCF00917800FC
:10356000109179000E94D20820E030E098011127E4
:103570000027600F711F821F931F61157105810560
:10358000910511F00E94692280916400816080930E
:1035900064008AED93E00E947222809363018BEDB8
:1035A00093E00E9472228093640180916301909164
:1035B0006401019631F410926401109263010E943B
:1035C000D8101092650142E2C42ED12C55E2852E0E
:1035D000912C68E1262E312C79E1A72EB12C2FB742
:1035E000F89480915E0190915F01A0916001B0918B
:1035F00061012FBF409107065091080660910906AE
:1036000070910A0620910B06222341F020910306B7
:10361000821B80930C0610920B06FEC5841795073B
:10362000A607B70738F4481B423008F4F5C50E94D6
:10363000C00AF2C511E010930B0680930306909325
:103640000406A0930506B093060620910206820F99
:10365000911DA11DB11D8093070690930806A093AC
:103660000906B0930A068091FE059091FF05019628
:103670009093FF058093FE058091000680930106DC
:103680000E94A30A809300068FB7F89440905E01D1
:1036900050905F0160906001709061018FBF8091D8
:1036A0006A0190916B01A0916C01B0916D018B83C7
:1036B0009C83AD83BE832FB7F89480915E01909177
:1036C0005F01A0916001B09161012FBF80936A01F9
:1036D00090936B01A0936C01B0936D010E94CA148A
:1036E0001092100610920F0610920E0610920D0600
:1036F000809165018130E1F11CF4882341F08AC595
:10370000823009F41AC1843009F4DBC383C503E3B2
:1037100022E542EE55E066E070E087E190E00E942D
:1037200094118B819C81AD81BE81481A590A6A0A25
:103730007B0A8091660190916701A0916801B09128
:103740006901480E591E6A1E7B1E40926601509206
:103750006701609268017092690199EB49169BE0DC
:103760005906610471040CF455C51093650152C5E6
:1037700080E80E948911882341F0809101018A50DC
:1037800086310CF486E18093010180E10E94891169
:10379000882341F080910101865F85330CF084E33A
:1037A0008093010184E00E9489118823C9F18091EE
:1037B0000101863121F40E94D91481E005C08032D4
:1037C00041F40E94D91482E0809300010E942010ED
:1037D00027C08A3221F40E94D91483E0F5CF8433C4
:1037E000F9F480915D01882369F00E94D10A60910B
:1037F0005D0182E090E09A838983CE0101960E9468
:10380000B8100EC00E94D60A60915D0182E090E07F
:103810009A838983CE0101960E94B8100E94D91420
:103820000BE020E342E855E068E070E088E290E0D9
:103830000E94941190920E0680920D06309210060E
:1038400020920F0688E795E00E941214B0920E06AF
:10385000A0920D06D0921006C0920F068AE695E05F
:103860000E941214B0920E06A0920D06ACE2B0E0D7
:10387000B0931006A0930F068CE595E00E941214F9
:1038800088E290E090930E0680930D06E6E3F0E068
:10389000F0931006E0930F0680915D01882319F0E4
:1038A00083E595E002C089E495E00E9412146091DE
:1038B0000101062E000C770B0BE020E849E454E0F0
:1038C00080E090E00E9494112EE630E030930E06E6
:1038D00020930D061092100610920F0643E050E060
:1038E00069E371E087EF95E00E94600880916301D1
:1038F00090916401892B09F48DC410920E061092E8
:103900000D061092100610920F0686E494E00E94B5
:10391000121482E190E090930E0680930D061092AF
:10392000100610920F06609163017091640180E0AF
:1039300090E04AE00E948B136DC480E80E948911D8
:103940008823E1F0E091620195E2E902F00111249F
:10395000E857FA4F22813381808191811216130634
:103960003CF41382128206974CF085E090E004C08C
:10397000873091051CF006979183808380E10E9437
:1039800089118823D9F080916201A5E28A02C001E1
:103990001124FC01E857FA4F828193811816190609
:1039A0002CF081E090E09383828308C08081918134
:1039B000873091051CF407969183808380E20E94F2
:1039C00089118823D1F0E0916201B5E2EB02F001A8
:1039D0001124E857FA4F808191811816190614F4C2
:1039E000019709C082819381892B19F485E090E0C9
:1039F00002C08DE090E09183808380E40E94891171
:103A00008823D9F0E091620125E2E202F00111245D
:103A1000E857FA4F2281338180819181232B21F451
:103A20008530910544F403C08D30910524F401964E
:103A30009183808302C01182108284E00E948911E8
:103A4000882309F4DFC12091620115E22103F0010E
:103A50001124E857FA4F80819181853091050CF04F
:103A60003FC022813381232BD9F5209148012223A5
:103A7000B9F105E0089FF001099FF00D1124EC5BFE
:103A8000FE4F82818823B1F081EA91E00E94890A89
:103A9000209162012103F0011124E857FA4F80813F
:103AA0009181089FF001099FF00D1124EC5BFE4FFE
:103AB000128216C08BE991E00E94890A209162016E
:103AC0002103F0011124E857FA4F80819181089F6A
:103AD000F001099FF00D1124EC5BFE4F81E0828321
:103AE000E091620135E2E302F0011124E857FA4F58
:103AF00080819181059709F055C082819381892B3E
:103B000009F050C08DE891E00E94890A809142013D
:103B100090914301181619060CF044C00197909338
:103B200043018093420100E010E0C8018C5B9E4F8E
:103B30007C01DC0112968C9181110BC00E946422E1
:103B400026E030E040E050E00E948822F7016383E5
:103B500014820B5F1F4F0931110539F780E00E9475
:103B6000E90B059709F460C381E00E94E90B059712
:103B700009F45AC382E00E94E90B059709F454C383
:103B800083E00E94E90B059709F44EC384E00E948C
:103B9000E90B059709F448C385E00E94E90B0597F6
:103BA00009F442C34091620125E24203A0011124BD
:103BB000FA01E857FA4F82819381019709F022C1F7
:103BC00080819181FC013296EE0FFF1FE40FF51FFB
:103BD000E857FA4F4081518157FF14C1069709F405
:103BE00011C189E691E02F830E94890A50906201F9
:103BF000052D052C000C110B2F81209FF001219F1A
:103C0000F00D1124E857FA4F868D978DC29721F554
:103C100080E00E94E90B059709F40BC381E00E9444
:103C2000E90B059709F405C382E00E94E90B0597AB
:103C300009F4FFC283E00E94E90B059709F4F9C279
:103C400084E00E94E90B059709F4F3C285E00E9425
:103C5000E90B059709F4EDC285E2809F3001819F51
:103C6000700C1124F301E857FA4FE080F1808E2D9B
:103C70000E94010CF7013296EE0FFF1FE60DF71DB3
:103C8000E857FA4F082E000C990B91838083F52D8D
:103C900025E2F202C001112488579A4F40E050E01B
:103CA00020E0FC01E40FF51F6481758116161706EC
:103CB0000CF4260F4E5F5F4F4C30510591F72F33B8
:103CC00064F025E2209FF001219FF00D1124E857B8
:103CD000FA4F23E230E0318B208B25E2209FF00168
:103CE000219FF00D1124E857FA4F13A212A220E0F1
:103CF00030E0B296DC01A20FB31F14964D915C9197
:103D000015971416150634F460817181460F571FFC
:103D1000518340832E5F3F4F2E31310559F720915B
:103D20000001022E000C330B60E0862F90E082171A
:103D30009307B4F485E2689FA001112480E090E02D
:103D4000FC01E40FF51FE857FA4F0480F581E02DE0
:103D5000F7FD1AC002968C31910591F76F5FE5CFA0
:103D60008091AA059091AB05209163013091640187
:103D70002817390730F490936401809363010E94FF
:103D8000D81084E080936501809162018F5F8093F9
:103D9000620190910001891714F01092620183E092
:103DA00090E09093430180934201E091620195E29B
:103DB000E902F0011124E857FA4F85E090E0918381
:103DC0008083138212828FEF8093470180934C018E
:103DD000809351018093560180935B0110924801BA
:103DE00010924D01109252011092570110925C01F5
:103DF0001092460110924B01109250011092550101
:103E000010925A010E94960D6090420170904301F9
:103E10006091400170914101262D47EA51E0809167
:103E20003E0190913F010E94931208E411E084E466
:103E3000E82E81E0F82E4424439493E1592ED801D2
:103E40008C91882301F1F801329780813196D70156
:103E50002D913C91882349F0529EC001539E900DB4
:103E6000112420814BEE52E008C0529EC001539EA7
:103E7000900D1124208149E252E06EE070E0069638
:103E80000E9493120FC0B3E06B1671045CF4809132
:103E9000FE059091FF056EE170E00E94F721892BED
:103EA00009F4D6C10B5F1F4FE5E0EE0EF11CFDE5F6
:103EB000EF16F1E0FF0619F60E94440E0E94C70FAC
:103EC000A9C10E94960D80910001813009F0DAC0ED
:103ED000E091620125E2E202F0011124E857FA4F75
:103EE00082A193A1823391057CF488E290E09093C3
:103EF0000E0680930D0680E190E09093100680936B
:103F00000F068DE394E002C1843691057CF481E3D1
:103F100090E090930E0680930D0680E190E09093E0
:103F2000100680930F0687E394E0F0C08639910570
:103F30007CF484E390E090930E0680930D0680E17C
:103F400090E09093100680930F0682E394E0DEC029
:103F5000883C91056CF4D0920E06C0920D0680E16B
:103F600090E09093100680930F0687E294E0CEC015
:103F70008A3F91057CF48EE290E090930E06809348
:103F80000D0680E190E09093100680930F0680E28A
:103F900094E0BCC08C3231E093077CF484E390E081
:103FA00090930E0680930D0680E190E090931006AA
:103FB00080930F068BE194E0A9C08039A1E09A07B5
:103FC0006CF4D0920E06C0920D0680E190E09093C2
:103FD000100680930F0680E194E098C0843FB1E022
:103FE0009B076CF4D0920E06C0920D0680E190E023
:103FF0009093100680930F0685E094E087C08E3E74
:10400000E2E09E077CF48CE190E090930E068093B2
:104010000D0680E190E09093100680930F0689EFE3
:1040200093E074C0883EF3E09F076CF490920E0614
:1040300080920D0680E190E09093100680930F0629
:104040008FEE93E063C0873296406CF4D0920E06F8
:10405000C0920D0680E190E09093100680930F06C9
:1040600084EE93E053C08CE190E090930E06809331
:104070000D0680E190E09093100680930F0687ED87
:1040800093E044C08091AA059091AB054091CF0583
:104090005091D0052091F4053091F5054817590746
:1040A00084F4281739076CF4B0920E06A0920D061E
:1040B00080E190E09093100680930F0689EC93E0E6
:1040C00025C02417350784F4841795070CF5B092A2
:1040D0000E06A0920D0680E190E09093100680936A
:1040E0000F068BEB93E012C0421753078CF4821734
:1040F000930774F4B0920E06A0920D0680E190E052
:104100009093100680930F068DEA93E00E9412149C
:104110001091620135E21302F0011124E857FA4FC1
:1041200082819381019721F081E090E093838283E3
:1041300080E80E9489118823C9F08FEF810F809356
:10414000620187FF05C08091000181508093620168
:10415000E091620185E2E802F0011124E857FA4F8C
:104160001182108281E090E09383828380E10E943B
:1041700089118823C9F0809162018F5F8093620169
:1041800090910001891714F010926201E091620190
:1041900095E2E902F0011124E857FA4F11821082EA
:1041A00081E090E09383828380E20E9489118823DA
:1041B00081F0E0916201A5E2EA02F0011124E857E2
:1041C000FA4F80819181181619061CF4019791838A
:1041D000808380E40E948911882381F0E09162014C
:1041E000B5E2EB02F0011124E857FA4F808191818A
:1041F0008D3091051CF401969183808384E00E94A8
:104200008911882319F081E0809365010E94C70F0E
:104210000E94440E0E94B81480E090E0892B09F4BB
:10422000DEC90E940000DBC987E791E00E94890A8D
:10423000B9CC85E2809FF001819FF00D1124E857F1
:10424000FA4F80A191A18C599F4F91A380A304CDD7
:10425000F801408227CE0F931F93CF93DF938C01F9
:1042600081E090E00E94722280FF31C08AE090E0FD
:104270000E9472229FEF980F9E3F48F522E330E0A4
:10428000D80157963C932E93569728E330E05996E1
:104290003C932E935897CBE0D0E0D801ED91FC9160
:1042A0000190F081E02D682FC8010995CE010E9490
:1042B00072222196C131D10581F70E94B81488EE8F
:1042C00093E0DF91CF911F910F910C949E0ADF91A3
:1042D000CF911F910F91089504970C942B21E1E247
:1042E000F6E01382128288EE93E0A0E0B0E08483CF
:1042F0009583A683B78386E191E0918380838FEFD6
:104300009FEF95878487E7EFF5E01382128211868D
:10431000128620E1238790878783108A118A128A68
:10432000138A148A86E291E09183808380E391E08E
:1043300095838483178A168A118E108E81E0828F6E
:10434000138E848F158E85EA98E09093870580936D
:10435000860580E090E890937E0680937D064698DF
:104360003E9A47983F9A1092AC051092D105109250
:10437000F6050895CF92DF92EF92FF920F931F936D
:10438000CF93DF931F92CDB7DEB7182F062FE42E01
:10439000862F880F8E5F99830E94711583E00E949B
:1043A0007115F12EC12E9981D92E8C2D8F19801760
:1043B00098F4F601E7FE02C0849101C080810E945A
:1043C0007115182F80E00E9471158123FFEFCF1A1D
:1043D000DF0A8111EACF01C081E00F90DF91CF9118
:1043E0001F910F91FF90EF90DF90CF900895AA1B3F
:1043F000BB1B51E107C0AA1FBB1FA617B70710F0D0
:10440000A61BB70B881F991F5A95A9F78095909501
:10441000BC01CD010895EE0FFF1F0590F491E02D32
:10442000099481E090E0F8940C94EB228F929F9293
:10443000AF92BF92CF92DF92EF92FF92CF93DF9332
:10444000EC01688179818A819B8161157105810503
:10445000910521F464E279ED8BE597E02DE133EFEE
:1044600041E050E00E94882249015A019B01AC01C1
:10447000A7EAB1E40E94A7226B017C01ACEEB4EF85
:10448000A50194010E94B522DC01CB018C0D9D1D7C
:10449000AE1DBF1DB7FF03C00197A109B0488883B7
:1044A0009983AA83BB83BC01CD019F77DF91CF9114
:1044B000FF90EF90DF90CF90BF90AF909F908F9044
:1044C00008950E94162208958EE091E00E9416221F
:1044D000089560930E0170930F01809310019093E3
:1044E00011010895F999FECF92BD81BDF89A9927DF
:1044F00080B50895262FF999FECF1FBA92BD81BDD0
:1045000020BD0FB6F894FA9AF99A0FBE0196089555
:10451000052E97FB1EF400940E949F2257FD07D0A2
:104520000E94BA2207FC03D04EF40C949F225095AF
:104530004095309521953F4F4F4F5F4F089590958F
:104540008095709561957F4F8F4F9F4F08950E9482
:10455000DC22A59F900DB49F900DA49F800D911D0E
:1045600011240895B7FF0C94A7220E94A722821B52
:10457000930B0895A1E21A2EAA1BBB1BFD010DC0CF
:10458000AA1FBB1FEE1FFF1FA217B307E407F50703
:1045900020F0A21BB30BE40BF50B661F771F881FDF
:1045A000991F1A9469F760957095809590959B0175
:1045B000AC01BD01CF010895A29FB001B39FC0011E
:1045C000A39F700D811D1124911DB29F700D811D3F
:0A45D0001124911D0895F894FFCF07
:1045DA00011600E1000000000000FFFFFFFF0100DC
:1045EA000000000000003615FD105715D315F1150F
:1045FA004C1500000000FA0A60082B21FCFF00009D
:0E460A006C2100C18081000000312E330000C1
:00000001FF
